{"abi":[{"inputs":[{"internalType":"string[]","name":"candidateNames","type":"string[]"},{"internalType":"string[]","name":"candidateParty","type":"string[]"},{"internalType":"string","name":"district","type":"string"},{"internalType":"address","name":"creator","type":"address"},{"internalType":"uint256","name":"amountofHours","type":"uint256"}],"stateMutability":"nonpayable","type":"constructor"},{"inputs":[{"internalType":"uint256","name":"","type":"uint256"}],"name":"candidates","outputs":[{"internalType":"string","name":"name","type":"string"},{"internalType":"string","name":"party","type":"string"},{"internalType":"uint256","name":"voteCount","type":"uint256"},{"internalType":"uint256","name":"creationDate","type":"uint256"},{"internalType":"uint256","name":"expirationDate","type":"uint256"}],"stateMutability":"view","type":"function"},{"inputs":[{"internalType":"uint256","name":"index","type":"uint256"}],"name":"getCandidateName","outputs":[{"internalType":"string","name":"","type":"string"}],"stateMutability":"view","type":"function"},{"inputs":[{"internalType":"uint256","name":"index","type":"uint256"}],"name":"getCandidateParty","outputs":[{"internalType":"string","name":"","type":"string"}],"stateMutability":"view","type":"function"},{"inputs":[{"internalType":"uint256","name":"index","type":"uint256"}],"name":"getVoteCount","outputs":[{"internalType":"uint256","name":"","type":"uint256"}],"stateMutability":"view","type":"function"},{"inputs":[],"name":"manager","outputs":[{"internalType":"address","name":"","type":"address"}],"stateMutability":"view","type":"function"},{"inputs":[{"internalType":"uint256","name":"index","type":"uint256"}],"name":"vote","outputs":[],"stateMutability":"nonpayable","type":"function"},{"inputs":[{"internalType":"address","name":"","type":"address"}],"name":"voters","outputs":[{"internalType":"bool","name":"","type":"bool"}],"stateMutability":"view","type":"function"},{"inputs":[],"name":"votingDistrict","outputs":[{"internalType":"string","name":"","type":"string"}],"stateMutability":"view","type":"function"}],"devdoc":{"kind":"dev","methods":{},"version":1},"evm":{"assembly":"    /* \"evs.sol\":649:2247  contract Ballot ... */\n  mstore(0x40, 0x80)\n    /* \"evs.sol\":981:1487  constructor (string[] memory candidateNames,string[] memory candidateParty, string memory district, address creator, uint amountofHours) ... */\n  callvalue\n  dup1\n  iszero\n  tag_1\n  jumpi\n  0x00\n  dup1\n  revert\ntag_1:\n  pop\n  mload(0x40)\n  sub(codesize, bytecodeSize)\n  dup1\n  bytecodeSize\n  dup4\n  codecopy\n  dup2\n  dup2\n  add\n  0x40\n  mstore\n  dup2\n  add\n  swap1\n  tag_2\n  swap2\n  swap1\n  tag_3\n  jump\t// in\ntag_2:\n    /* \"evs.sol\":1131:1138  creator */\n  dup2\n    /* \"evs.sol\":1121:1128  manager */\n  0x01\n  0x00\n    /* \"evs.sol\":1121:1138  manager = creator */\n  0x0100\n  exp\n  dup2\n  sload\n  dup2\n  0xffffffffffffffffffffffffffffffffffffffff\n  mul\n  not\n  and\n  swap1\n  dup4\n  0xffffffffffffffffffffffffffffffffffffffff\n  and\n  mul\n  or\n  swap1\n  sstore\n  pop\n    /* \"evs.sol\":1157:1165  district */\n  dup3\n    /* \"evs.sol\":1140:1154  votingDistrict */\n  0x02\n    /* \"evs.sol\":1140:1165  votingDistrict = district */\n  swap1\n  dup2\n  tag_6\n  swap2\n  swap1\n  tag_7\n  jump\t// in\ntag_6:\n  pop\n    /* \"evs.sol\":1171:1177  uint i */\n  0x00\n    /* \"evs.sol\":1167:1455  for(uint i=0; i< candidateNames.length;i++)... */\ntag_8:\n    /* \"evs.sol\":1184:1198  candidateNames */\n  dup6\n    /* \"evs.sol\":1184:1205  candidateNames.length */\n  mload\n    /* \"evs.sol\":1181:1182  i */\n  dup2\n    /* \"evs.sol\":1181:1205  i< candidateNames.length */\n  lt\n    /* \"evs.sol\":1167:1455  for(uint i=0; i< candidateNames.length;i++)... */\n  iszero\n  tag_9\n  jumpi\n    /* \"evs.sol\":1221:1231  candidates */\n  0x00\n    /* \"evs.sol\":1237:1447  candidate(... */\n  mload(0x40)\n  dup1\n  0xa0\n  add\n  0x40\n  mstore\n  dup1\n    /* \"evs.sol\":1271:1285  candidateNames */\n  dup9\n    /* \"evs.sol\":1286:1287  i */\n  dup5\n    /* \"evs.sol\":1271:1288  candidateNames[i] */\n  dup2\n  mload\n  dup2\n  lt\n  tag_11\n  jumpi\n  tag_12\n  tag_13\n  jump\t// in\ntag_12:\ntag_11:\n  0x20\n  mul\n  0x20\n  add\n  add\n  mload\n    /* \"evs.sol\":1237:1447  candidate(... */\n  dup2\n  mstore\n  0x20\n  add\n    /* \"evs.sol\":1305:1319  candidateParty */\n  dup8\n    /* \"evs.sol\":1320:1321  i */\n  dup5\n    /* \"evs.sol\":1305:1322  candidateParty[i] */\n  dup2\n  mload\n  dup2\n  lt\n  tag_14\n  jumpi\n  tag_15\n  tag_13\n  jump\t// in\ntag_15:\ntag_14:\n  0x20\n  mul\n  0x20\n  add\n  add\n  mload\n    /* \"evs.sol\":1237:1447  candidate(... */\n  dup2\n  mstore\n  0x20\n  add\n    /* \"evs.sol\":1343:1344  0 */\n  0x00\n    /* \"evs.sol\":1237:1447  candidate(... */\n  dup2\n  mstore\n  0x20\n  add\n    /* \"evs.sol\":1368:1383  block.timestamp */\n  timestamp\n    /* \"evs.sol\":1237:1447  candidate(... */\n  dup2\n  mstore\n  0x20\n  add\n    /* \"evs.sol\":1427:1440  amountofHours */\n  dup5\n    /* \"evs.sol\":1409:1424  block.timestamp */\n  timestamp\n    /* \"evs.sol\":1409:1440  block.timestamp + amountofHours */\n  tag_16\n  swap2\n  swap1\n  tag_17\n  jump\t// in\ntag_16:\n    /* \"evs.sol\":1237:1447  candidate(... */\n  dup2\n  mstore\n  pop\n    /* \"evs.sol\":1221:1448  candidates.push(candidate(... */\n  swap1\n  dup1\n  0x01\n  dup2\n  sload\n  add\n  dup1\n  dup3\n  sstore\n  dup1\n  swap2\n  pop\n  pop\n  0x01\n  swap1\n  sub\n  swap1\n  0x00\n  mstore\n  keccak256(0x00, 0x20)\n  swap1\n  0x05\n  mul\n  add\n  0x00\n  swap1\n  swap2\n  swap1\n  swap2\n  swap1\n  swap2\n  pop\n  0x00\n  dup3\n  add\n  mload\n  dup2\n  0x00\n  add\n  swap1\n  dup2\n  tag_19\n  swap2\n  swap1\n  tag_7\n  jump\t// in\ntag_19:\n  pop\n  0x20\n  dup3\n  add\n  mload\n  dup2\n  0x01\n  add\n  swap1\n  dup2\n  tag_20\n  swap2\n  swap1\n  tag_7\n  jump\t// in\ntag_20:\n  pop\n  0x40\n  dup3\n  add\n  mload\n  dup2\n  0x02\n  add\n  sstore\n  0x60\n  dup3\n  add\n  mload\n  dup2\n  0x03\n  add\n  sstore\n  0x80\n  dup3\n  add\n  mload\n  dup2\n  0x04\n  add\n  sstore\n  pop\n  pop\n    /* \"evs.sol\":1206:1209  i++ */\n  dup1\n  dup1\n  0x01\n  add\n  swap2\n  pop\n  pop\n    /* \"evs.sol\":1167:1455  for(uint i=0; i< candidateNames.length;i++)... */\n  jump(tag_8)\ntag_9:\n  pop\n    /* \"evs.sol\":981:1487  constructor (string[] memory candidateNames,string[] memory candidateParty, string memory district, address creator, uint amountofHours) ... */\n  pop\n  pop\n  pop\n  pop\n  pop\n    /* \"evs.sol\":649:2247  contract Ballot ... */\n  jump(tag_21)\n    /* \"#utility.yul\":7:82   */\ntag_22:\n    /* \"#utility.yul\":40:46   */\n  0x00\n    /* \"#utility.yul\":73:75   */\n  0x40\n    /* \"#utility.yul\":67:76   */\n  mload\n    /* \"#utility.yul\":57:76   */\n  swap1\n  pop\n    /* \"#utility.yul\":7:82   */\n  swap1\n  jump\t// out\n    /* \"#utility.yul\":88:205   */\ntag_23:\n    /* \"#utility.yul\":197:198   */\n  0x00\n    /* \"#utility.yul\":194:195   */\n  dup1\n    /* \"#utility.yul\":187:199   */\n  revert\n    /* \"#utility.yul\":211:328   */\ntag_24:\n    /* \"#utility.yul\":320:321   */\n  0x00\n    /* \"#utility.yul\":317:318   */\n  dup1\n    /* \"#utility.yul\":310:322   */\n  revert\n    /* \"#utility.yul\":334:451   */\ntag_25:\n    /* \"#utility.yul\":443:444   */\n  0x00\n    /* \"#utility.yul\":440:441   */\n  dup1\n    /* \"#utility.yul\":433:445   */\n  revert\n    /* \"#utility.yul\":457:559   */\ntag_26:\n    /* \"#utility.yul\":498:504   */\n  0x00\n    /* \"#utility.yul\":549:551   */\n  0x1f\n    /* \"#utility.yul\":545:552   */\n  not\n    /* \"#utility.yul\":540:542   */\n  0x1f\n    /* \"#utility.yul\":533:538   */\n  dup4\n    /* \"#utility.yul\":529:543   */\n  add\n    /* \"#utility.yul\":525:553   */\n  and\n    /* \"#utility.yul\":515:553   */\n  swap1\n  pop\n    /* \"#utility.yul\":457:559   */\n  swap2\n  swap1\n  pop\n  jump\t// out\n    /* \"#utility.yul\":565:745   */\ntag_27:\n    /* \"#utility.yul\":613:690   */\n  0x4e487b7100000000000000000000000000000000000000000000000000000000\n    /* \"#utility.yul\":610:611   */\n  0x00\n    /* \"#utility.yul\":603:691   */\n  mstore\n    /* \"#utility.yul\":710:714   */\n  0x41\n    /* \"#utility.yul\":707:708   */\n  0x04\n    /* \"#utility.yul\":700:715   */\n  mstore\n    /* \"#utility.yul\":734:738   */\n  0x24\n    /* \"#utility.yul\":731:732   */\n  0x00\n    /* \"#utility.yul\":724:739   */\n  revert\n    /* \"#utility.yul\":751:1032   */\ntag_28:\n    /* \"#utility.yul\":834:861   */\n  tag_73\n    /* \"#utility.yul\":856:860   */\n  dup3\n    /* \"#utility.yul\":834:861   */\n  tag_26\n  jump\t// in\ntag_73:\n    /* \"#utility.yul\":826:832   */\n  dup2\n    /* \"#utility.yul\":822:862   */\n  add\n    /* \"#utility.yul\":964:970   */\n  dup2\n    /* \"#utility.yul\":952:962   */\n  dup2\n    /* \"#utility.yul\":949:971   */\n  lt\n    /* \"#utility.yul\":928:946   */\n  0xffffffffffffffff\n    /* \"#utility.yul\":916:926   */\n  dup3\n    /* \"#utility.yul\":913:947   */\n  gt\n    /* \"#utility.yul\":910:972   */\n  or\n    /* \"#utility.yul\":907:995   */\n  iszero\n  tag_74\n  jumpi\n    /* \"#utility.yul\":975:993   */\n  tag_75\n  tag_27\n  jump\t// in\ntag_75:\n    /* \"#utility.yul\":907:995   */\ntag_74:\n    /* \"#utility.yul\":1015:1025   */\n  dup1\n    /* \"#utility.yul\":1011:1013   */\n  0x40\n    /* \"#utility.yul\":1004:1026   */\n  mstore\n    /* \"#utility.yul\":794:1032   */\n  pop\n    /* \"#utility.yul\":751:1032   */\n  pop\n  pop\n  jump\t// out\n    /* \"#utility.yul\":1038:1167   */\ntag_29:\n    /* \"#utility.yul\":1072:1078   */\n  0x00\n    /* \"#utility.yul\":1099:1119   */\n  tag_77\n  tag_22\n  jump\t// in\ntag_77:\n    /* \"#utility.yul\":1089:1119   */\n  swap1\n  pop\n    /* \"#utility.yul\":1128:1161   */\n  tag_78\n    /* \"#utility.yul\":1156:1160   */\n  dup3\n    /* \"#utility.yul\":1148:1154   */\n  dup3\n    /* \"#utility.yul\":1128:1161   */\n  tag_28\n  jump\t// in\ntag_78:\n    /* \"#utility.yul\":1038:1167   */\n  swap2\n  swap1\n  pop\n  jump\t// out\n    /* \"#utility.yul\":1173:1494   */\ntag_30:\n    /* \"#utility.yul\":1260:1264   */\n  0x00\n    /* \"#utility.yul\":1350:1368   */\n  0xffffffffffffffff\n    /* \"#utility.yul\":1342:1348   */\n  dup3\n    /* \"#utility.yul\":1339:1369   */\n  gt\n    /* \"#utility.yul\":1336:1392   */\n  iszero\n  tag_80\n  jumpi\n    /* \"#utility.yul\":1372:1390   */\n  tag_81\n  tag_27\n  jump\t// in\ntag_81:\n    /* \"#utility.yul\":1336:1392   */\ntag_80:\n    /* \"#utility.yul\":1422:1426   */\n  0x20\n    /* \"#utility.yul\":1414:1420   */\n  dup3\n    /* \"#utility.yul\":1410:1427   */\n  mul\n    /* \"#utility.yul\":1402:1427   */\n  swap1\n  pop\n    /* \"#utility.yul\":1482:1486   */\n  0x20\n    /* \"#utility.yul\":1476:1480   */\n  dup2\n    /* \"#utility.yul\":1472:1487   */\n  add\n    /* \"#utility.yul\":1464:1487   */\n  swap1\n  pop\n    /* \"#utility.yul\":1173:1494   */\n  swap2\n  swap1\n  pop\n  jump\t// out\n    /* \"#utility.yul\":1500:1617   */\ntag_31:\n    /* \"#utility.yul\":1609:1610   */\n  0x00\n    /* \"#utility.yul\":1606:1607   */\n  dup1\n    /* \"#utility.yul\":1599:1611   */\n  revert\n    /* \"#utility.yul\":1623:1740   */\ntag_32:\n    /* \"#utility.yul\":1732:1733   */\n  0x00\n    /* \"#utility.yul\":1729:1730   */\n  dup1\n    /* \"#utility.yul\":1722:1734   */\n  revert\n    /* \"#utility.yul\":1746:2054   */\ntag_33:\n    /* \"#utility.yul\":1808:1812   */\n  0x00\n    /* \"#utility.yul\":1898:1916   */\n  0xffffffffffffffff\n    /* \"#utility.yul\":1890:1896   */\n  dup3\n    /* \"#utility.yul\":1887:1917   */\n  gt\n    /* \"#utility.yul\":1884:1940   */\n  iszero\n  tag_85\n  jumpi\n    /* \"#utility.yul\":1920:1938   */\n  tag_86\n  tag_27\n  jump\t// in\ntag_86:\n    /* \"#utility.yul\":1884:1940   */\ntag_85:\n    /* \"#utility.yul\":1958:1987   */\n  tag_87\n    /* \"#utility.yul\":1980:1986   */\n  dup3\n    /* \"#utility.yul\":1958:1987   */\n  tag_26\n  jump\t// in\ntag_87:\n    /* \"#utility.yul\":1950:1987   */\n  swap1\n  pop\n    /* \"#utility.yul\":2042:2046   */\n  0x20\n    /* \"#utility.yul\":2036:2040   */\n  dup2\n    /* \"#utility.yul\":2032:2047   */\n  add\n    /* \"#utility.yul\":2024:2047   */\n  swap1\n  pop\n    /* \"#utility.yul\":1746:2054   */\n  swap2\n  swap1\n  pop\n  jump\t// out\n    /* \"#utility.yul\":2060:2199   */\ntag_34:\n    /* \"#utility.yul\":2149:2155   */\n  dup3\n    /* \"#utility.yul\":2144:2147   */\n  dup2\n    /* \"#utility.yul\":2139:2142   */\n  dup4\n    /* \"#utility.yul\":2133:2156   */\n  mcopy\n    /* \"#utility.yul\":2190:2191   */\n  0x00\n    /* \"#utility.yul\":2181:2187   */\n  dup4\n    /* \"#utility.yul\":2176:2179   */\n  dup4\n    /* \"#utility.yul\":2172:2188   */\n  add\n    /* \"#utility.yul\":2165:2192   */\n  mstore\n    /* \"#utility.yul\":2060:2199   */\n  pop\n  pop\n  pop\n  jump\t// out\n    /* \"#utility.yul\":2205:2639   */\ntag_35:\n    /* \"#utility.yul\":2294:2299   */\n  0x00\n    /* \"#utility.yul\":2319:2385   */\n  tag_90\n    /* \"#utility.yul\":2335:2384   */\n  tag_91\n    /* \"#utility.yul\":2377:2383   */\n  dup5\n    /* \"#utility.yul\":2335:2384   */\n  tag_33\n  jump\t// in\ntag_91:\n    /* \"#utility.yul\":2319:2385   */\n  tag_29\n  jump\t// in\ntag_90:\n    /* \"#utility.yul\":2310:2385   */\n  swap1\n  pop\n    /* \"#utility.yul\":2408:2414   */\n  dup3\n    /* \"#utility.yul\":2401:2406   */\n  dup2\n    /* \"#utility.yul\":2394:2415   */\n  mstore\n    /* \"#utility.yul\":2446:2450   */\n  0x20\n    /* \"#utility.yul\":2439:2444   */\n  dup2\n    /* \"#utility.yul\":2435:2451   */\n  add\n    /* \"#utility.yul\":2484:2487   */\n  dup5\n    /* \"#utility.yul\":2475:2481   */\n  dup5\n    /* \"#utility.yul\":2470:2473   */\n  dup5\n    /* \"#utility.yul\":2466:2482   */\n  add\n    /* \"#utility.yul\":2463:2488   */\n  gt\n    /* \"#utility.yul\":2460:2572   */\n  iszero\n  tag_92\n  jumpi\n    /* \"#utility.yul\":2491:2570   */\n  tag_93\n  tag_32\n  jump\t// in\ntag_93:\n    /* \"#utility.yul\":2460:2572   */\ntag_92:\n    /* \"#utility.yul\":2581:2633   */\n  tag_94\n    /* \"#utility.yul\":2626:2632   */\n  dup5\n    /* \"#utility.yul\":2621:2624   */\n  dup3\n    /* \"#utility.yul\":2616:2619   */\n  dup6\n    /* \"#utility.yul\":2581:2633   */\n  tag_34\n  jump\t// in\ntag_94:\n    /* \"#utility.yul\":2300:2639   */\n  pop\n    /* \"#utility.yul\":2205:2639   */\n  swap4\n  swap3\n  pop\n  pop\n  pop\n  jump\t// out\n    /* \"#utility.yul\":2659:3014   */\ntag_36:\n    /* \"#utility.yul\":2726:2731   */\n  0x00\n    /* \"#utility.yul\":2775:2778   */\n  dup3\n    /* \"#utility.yul\":2768:2772   */\n  0x1f\n    /* \"#utility.yul\":2760:2766   */\n  dup4\n    /* \"#utility.yul\":2756:2773   */\n  add\n    /* \"#utility.yul\":2752:2779   */\n  slt\n    /* \"#utility.yul\":2742:2864   */\n  tag_96\n  jumpi\n    /* \"#utility.yul\":2783:2862   */\n  tag_97\n  tag_25\n  jump\t// in\ntag_97:\n    /* \"#utility.yul\":2742:2864   */\ntag_96:\n    /* \"#utility.yul\":2893:2899   */\n  dup2\n    /* \"#utility.yul\":2887:2900   */\n  mload\n    /* \"#utility.yul\":2918:3008   */\n  tag_98\n    /* \"#utility.yul\":3004:3007   */\n  dup5\n    /* \"#utility.yul\":2996:3002   */\n  dup3\n    /* \"#utility.yul\":2989:2993   */\n  0x20\n    /* \"#utility.yul\":2981:2987   */\n  dup7\n    /* \"#utility.yul\":2977:2994   */\n  add\n    /* \"#utility.yul\":2918:3008   */\n  tag_35\n  jump\t// in\ntag_98:\n    /* \"#utility.yul\":2909:3008   */\n  swap2\n  pop\n    /* \"#utility.yul\":2732:3014   */\n  pop\n    /* \"#utility.yul\":2659:3014   */\n  swap3\n  swap2\n  pop\n  pop\n  jump\t// out\n    /* \"#utility.yul\":3036:3996   */\ntag_37:\n    /* \"#utility.yul\":3153:3158   */\n  0x00\n    /* \"#utility.yul\":3178:3269   */\n  tag_100\n    /* \"#utility.yul\":3194:3268   */\n  tag_101\n    /* \"#utility.yul\":3261:3267   */\n  dup5\n    /* \"#utility.yul\":3194:3268   */\n  tag_30\n  jump\t// in\ntag_101:\n    /* \"#utility.yul\":3178:3269   */\n  tag_29\n  jump\t// in\ntag_100:\n    /* \"#utility.yul\":3169:3269   */\n  swap1\n  pop\n    /* \"#utility.yul\":3289:3294   */\n  dup1\n    /* \"#utility.yul\":3318:3324   */\n  dup4\n    /* \"#utility.yul\":3311:3316   */\n  dup3\n    /* \"#utility.yul\":3304:3325   */\n  mstore\n    /* \"#utility.yul\":3352:3356   */\n  0x20\n    /* \"#utility.yul\":3345:3350   */\n  dup3\n    /* \"#utility.yul\":3341:3357   */\n  add\n    /* \"#utility.yul\":3334:3357   */\n  swap1\n  pop\n    /* \"#utility.yul\":3405:3409   */\n  0x20\n    /* \"#utility.yul\":3397:3403   */\n  dup5\n    /* \"#utility.yul\":3393:3410   */\n  mul\n    /* \"#utility.yul\":3385:3391   */\n  dup4\n    /* \"#utility.yul\":3381:3411   */\n  add\n    /* \"#utility.yul\":3434:3437   */\n  dup6\n    /* \"#utility.yul\":3426:3432   */\n  dup2\n    /* \"#utility.yul\":3423:3438   */\n  gt\n    /* \"#utility.yul\":3420:3542   */\n  iszero\n  tag_102\n  jumpi\n    /* \"#utility.yul\":3453:3532   */\n  tag_103\n  tag_31\n  jump\t// in\ntag_103:\n    /* \"#utility.yul\":3420:3542   */\ntag_102:\n    /* \"#utility.yul\":3568:3574   */\n  dup4\n    /* \"#utility.yul\":3551:3990   */\ntag_104:\n    /* \"#utility.yul\":3585:3591   */\n  dup2\n    /* \"#utility.yul\":3580:3583   */\n  dup2\n    /* \"#utility.yul\":3577:3592   */\n  lt\n    /* \"#utility.yul\":3551:3990   */\n  iszero\n  tag_106\n  jumpi\n    /* \"#utility.yul\":3667:3670   */\n  dup1\n    /* \"#utility.yul\":3661:3671   */\n  mload\n    /* \"#utility.yul\":3703:3721   */\n  0xffffffffffffffff\n    /* \"#utility.yul\":3690:3701   */\n  dup2\n    /* \"#utility.yul\":3687:3722   */\n  gt\n    /* \"#utility.yul\":3684:3806   */\n  iszero\n  tag_107\n  jumpi\n    /* \"#utility.yul\":3725:3804   */\n  tag_108\n  tag_25\n  jump\t// in\ntag_108:\n    /* \"#utility.yul\":3684:3806   */\ntag_107:\n    /* \"#utility.yul\":3849:3860   */\n  dup1\n    /* \"#utility.yul\":3841:3847   */\n  dup7\n    /* \"#utility.yul\":3837:3861   */\n  add\n    /* \"#utility.yul\":3887:3945   */\n  tag_109\n    /* \"#utility.yul\":3941:3944   */\n  dup10\n    /* \"#utility.yul\":3929:3939   */\n  dup3\n    /* \"#utility.yul\":3887:3945   */\n  tag_36\n  jump\t// in\ntag_109:\n    /* \"#utility.yul\":3882:3885   */\n  dup6\n    /* \"#utility.yul\":3875:3946   */\n  mstore\n    /* \"#utility.yul\":3975:3979   */\n  0x20\n    /* \"#utility.yul\":3970:3973   */\n  dup6\n    /* \"#utility.yul\":3966:3980   */\n  add\n    /* \"#utility.yul\":3959:3980   */\n  swap5\n  pop\n    /* \"#utility.yul\":3627:3990   */\n  pop\n  pop\n    /* \"#utility.yul\":3611:3615   */\n  0x20\n    /* \"#utility.yul\":3606:3609   */\n  dup2\n    /* \"#utility.yul\":3602:3616   */\n  add\n    /* \"#utility.yul\":3595:3616   */\n  swap1\n  pop\n    /* \"#utility.yul\":3551:3990   */\n  jump(tag_104)\ntag_106:\n    /* \"#utility.yul\":3555:3576   */\n  pop\n    /* \"#utility.yul\":3159:3996   */\n  pop\n  pop\n    /* \"#utility.yul\":3036:3996   */\n  swap4\n  swap3\n  pop\n  pop\n  pop\n  jump\t// out\n    /* \"#utility.yul\":4018:4423   */\ntag_38:\n    /* \"#utility.yul\":4110:4115   */\n  0x00\n    /* \"#utility.yul\":4159:4162   */\n  dup3\n    /* \"#utility.yul\":4152:4156   */\n  0x1f\n    /* \"#utility.yul\":4144:4150   */\n  dup4\n    /* \"#utility.yul\":4140:4157   */\n  add\n    /* \"#utility.yul\":4136:4163   */\n  slt\n    /* \"#utility.yul\":4126:4248   */\n  tag_111\n  jumpi\n    /* \"#utility.yul\":4167:4246   */\n  tag_112\n  tag_25\n  jump\t// in\ntag_112:\n    /* \"#utility.yul\":4126:4248   */\ntag_111:\n    /* \"#utility.yul\":4277:4283   */\n  dup2\n    /* \"#utility.yul\":4271:4284   */\n  mload\n    /* \"#utility.yul\":4302:4417   */\n  tag_113\n    /* \"#utility.yul\":4413:4416   */\n  dup5\n    /* \"#utility.yul\":4405:4411   */\n  dup3\n    /* \"#utility.yul\":4398:4402   */\n  0x20\n    /* \"#utility.yul\":4390:4396   */\n  dup7\n    /* \"#utility.yul\":4386:4403   */\n  add\n    /* \"#utility.yul\":4302:4417   */\n  tag_37\n  jump\t// in\ntag_113:\n    /* \"#utility.yul\":4293:4417   */\n  swap2\n  pop\n    /* \"#utility.yul\":4116:4423   */\n  pop\n    /* \"#utility.yul\":4018:4423   */\n  swap3\n  swap2\n  pop\n  pop\n  jump\t// out\n    /* \"#utility.yul\":4429:4555   */\ntag_39:\n    /* \"#utility.yul\":4466:4473   */\n  0x00\n    /* \"#utility.yul\":4506:4548   */\n  0xffffffffffffffffffffffffffffffffffffffff\n    /* \"#utility.yul\":4499:4504   */\n  dup3\n    /* \"#utility.yul\":4495:4549   */\n  and\n    /* \"#utility.yul\":4484:4549   */\n  swap1\n  pop\n    /* \"#utility.yul\":4429:4555   */\n  swap2\n  swap1\n  pop\n  jump\t// out\n    /* \"#utility.yul\":4561:4657   */\ntag_40:\n    /* \"#utility.yul\":4598:4605   */\n  0x00\n    /* \"#utility.yul\":4627:4651   */\n  tag_116\n    /* \"#utility.yul\":4645:4650   */\n  dup3\n    /* \"#utility.yul\":4627:4651   */\n  tag_39\n  jump\t// in\ntag_116:\n    /* \"#utility.yul\":4616:4651   */\n  swap1\n  pop\n    /* \"#utility.yul\":4561:4657   */\n  swap2\n  swap1\n  pop\n  jump\t// out\n    /* \"#utility.yul\":4663:4785   */\ntag_41:\n    /* \"#utility.yul\":4736:4760   */\n  tag_118\n    /* \"#utility.yul\":4754:4759   */\n  dup2\n    /* \"#utility.yul\":4736:4760   */\n  tag_40\n  jump\t// in\ntag_118:\n    /* \"#utility.yul\":4729:4734   */\n  dup2\n    /* \"#utility.yul\":4726:4761   */\n  eq\n    /* \"#utility.yul\":4716:4779   */\n  tag_119\n  jumpi\n    /* \"#utility.yul\":4775:4776   */\n  0x00\n    /* \"#utility.yul\":4772:4773   */\n  dup1\n    /* \"#utility.yul\":4765:4777   */\n  revert\n    /* \"#utility.yul\":4716:4779   */\ntag_119:\n    /* \"#utility.yul\":4663:4785   */\n  pop\n  jump\t// out\n    /* \"#utility.yul\":4791:4934   */\ntag_42:\n    /* \"#utility.yul\":4848:4853   */\n  0x00\n    /* \"#utility.yul\":4879:4885   */\n  dup2\n    /* \"#utility.yul\":4873:4886   */\n  mload\n    /* \"#utility.yul\":4864:4886   */\n  swap1\n  pop\n    /* \"#utility.yul\":4895:4928   */\n  tag_121\n    /* \"#utility.yul\":4922:4927   */\n  dup2\n    /* \"#utility.yul\":4895:4928   */\n  tag_41\n  jump\t// in\ntag_121:\n    /* \"#utility.yul\":4791:4934   */\n  swap3\n  swap2\n  pop\n  pop\n  jump\t// out\n    /* \"#utility.yul\":4940:5017   */\ntag_43:\n    /* \"#utility.yul\":4977:4984   */\n  0x00\n    /* \"#utility.yul\":5006:5011   */\n  dup2\n    /* \"#utility.yul\":4995:5011   */\n  swap1\n  pop\n    /* \"#utility.yul\":4940:5017   */\n  swap2\n  swap1\n  pop\n  jump\t// out\n    /* \"#utility.yul\":5023:5145   */\ntag_44:\n    /* \"#utility.yul\":5096:5120   */\n  tag_124\n    /* \"#utility.yul\":5114:5119   */\n  dup2\n    /* \"#utility.yul\":5096:5120   */\n  tag_43\n  jump\t// in\ntag_124:\n    /* \"#utility.yul\":5089:5094   */\n  dup2\n    /* \"#utility.yul\":5086:5121   */\n  eq\n    /* \"#utility.yul\":5076:5139   */\n  tag_125\n  jumpi\n    /* \"#utility.yul\":5135:5136   */\n  0x00\n    /* \"#utility.yul\":5132:5133   */\n  dup1\n    /* \"#utility.yul\":5125:5137   */\n  revert\n    /* \"#utility.yul\":5076:5139   */\ntag_125:\n    /* \"#utility.yul\":5023:5145   */\n  pop\n  jump\t// out\n    /* \"#utility.yul\":5151:5294   */\ntag_45:\n    /* \"#utility.yul\":5208:5213   */\n  0x00\n    /* \"#utility.yul\":5239:5245   */\n  dup2\n    /* \"#utility.yul\":5233:5246   */\n  mload\n    /* \"#utility.yul\":5224:5246   */\n  swap1\n  pop\n    /* \"#utility.yul\":5255:5288   */\n  tag_127\n    /* \"#utility.yul\":5282:5287   */\n  dup2\n    /* \"#utility.yul\":5255:5288   */\n  tag_44\n  jump\t// in\ntag_127:\n    /* \"#utility.yul\":5151:5294   */\n  swap3\n  swap2\n  pop\n  pop\n  jump\t// out\n    /* \"#utility.yul\":5300:6896   */\ntag_3:\n    /* \"#utility.yul\":5486:5492   */\n  0x00\n    /* \"#utility.yul\":5494:5500   */\n  dup1\n    /* \"#utility.yul\":5502:5508   */\n  0x00\n    /* \"#utility.yul\":5510:5516   */\n  dup1\n    /* \"#utility.yul\":5518:5524   */\n  0x00\n    /* \"#utility.yul\":5567:5570   */\n  0xa0\n    /* \"#utility.yul\":5555:5564   */\n  dup7\n    /* \"#utility.yul\":5546:5553   */\n  dup9\n    /* \"#utility.yul\":5542:5565   */\n  sub\n    /* \"#utility.yul\":5538:5571   */\n  slt\n    /* \"#utility.yul\":5535:5655   */\n  iszero\n  tag_129\n  jumpi\n    /* \"#utility.yul\":5574:5653   */\n  tag_130\n  tag_23\n  jump\t// in\ntag_130:\n    /* \"#utility.yul\":5535:5655   */\ntag_129:\n    /* \"#utility.yul\":5715:5716   */\n  0x00\n    /* \"#utility.yul\":5704:5713   */\n  dup7\n    /* \"#utility.yul\":5700:5717   */\n  add\n    /* \"#utility.yul\":5694:5718   */\n  mload\n    /* \"#utility.yul\":5745:5763   */\n  0xffffffffffffffff\n    /* \"#utility.yul\":5737:5743   */\n  dup2\n    /* \"#utility.yul\":5734:5764   */\n  gt\n    /* \"#utility.yul\":5731:5848   */\n  iszero\n  tag_131\n  jumpi\n    /* \"#utility.yul\":5767:5846   */\n  tag_132\n  tag_24\n  jump\t// in\ntag_132:\n    /* \"#utility.yul\":5731:5848   */\ntag_131:\n    /* \"#utility.yul\":5872:5971   */\n  tag_133\n    /* \"#utility.yul\":5963:5970   */\n  dup9\n    /* \"#utility.yul\":5954:5960   */\n  dup3\n    /* \"#utility.yul\":5943:5952   */\n  dup10\n    /* \"#utility.yul\":5939:5961   */\n  add\n    /* \"#utility.yul\":5872:5971   */\n  tag_38\n  jump\t// in\ntag_133:\n    /* \"#utility.yul\":5862:5971   */\n  swap6\n  pop\n    /* \"#utility.yul\":5665:5981   */\n  pop\n    /* \"#utility.yul\":6041:6043   */\n  0x20\n    /* \"#utility.yul\":6030:6039   */\n  dup7\n    /* \"#utility.yul\":6026:6044   */\n  add\n    /* \"#utility.yul\":6020:6045   */\n  mload\n    /* \"#utility.yul\":6072:6090   */\n  0xffffffffffffffff\n    /* \"#utility.yul\":6064:6070   */\n  dup2\n    /* \"#utility.yul\":6061:6091   */\n  gt\n    /* \"#utility.yul\":6058:6175   */\n  iszero\n  tag_134\n  jumpi\n    /* \"#utility.yul\":6094:6173   */\n  tag_135\n  tag_24\n  jump\t// in\ntag_135:\n    /* \"#utility.yul\":6058:6175   */\ntag_134:\n    /* \"#utility.yul\":6199:6298   */\n  tag_136\n    /* \"#utility.yul\":6290:6297   */\n  dup9\n    /* \"#utility.yul\":6281:6287   */\n  dup3\n    /* \"#utility.yul\":6270:6279   */\n  dup10\n    /* \"#utility.yul\":6266:6288   */\n  add\n    /* \"#utility.yul\":6199:6298   */\n  tag_38\n  jump\t// in\ntag_136:\n    /* \"#utility.yul\":6189:6298   */\n  swap5\n  pop\n    /* \"#utility.yul\":5991:6308   */\n  pop\n    /* \"#utility.yul\":6368:6370   */\n  0x40\n    /* \"#utility.yul\":6357:6366   */\n  dup7\n    /* \"#utility.yul\":6353:6371   */\n  add\n    /* \"#utility.yul\":6347:6372   */\n  mload\n    /* \"#utility.yul\":6399:6417   */\n  0xffffffffffffffff\n    /* \"#utility.yul\":6391:6397   */\n  dup2\n    /* \"#utility.yul\":6388:6418   */\n  gt\n    /* \"#utility.yul\":6385:6502   */\n  iszero\n  tag_137\n  jumpi\n    /* \"#utility.yul\":6421:6500   */\n  tag_138\n  tag_24\n  jump\t// in\ntag_138:\n    /* \"#utility.yul\":6385:6502   */\ntag_137:\n    /* \"#utility.yul\":6526:6600   */\n  tag_139\n    /* \"#utility.yul\":6592:6599   */\n  dup9\n    /* \"#utility.yul\":6583:6589   */\n  dup3\n    /* \"#utility.yul\":6572:6581   */\n  dup10\n    /* \"#utility.yul\":6568:6590   */\n  add\n    /* \"#utility.yul\":6526:6600   */\n  tag_36\n  jump\t// in\ntag_139:\n    /* \"#utility.yul\":6516:6600   */\n  swap4\n  pop\n    /* \"#utility.yul\":6318:6610   */\n  pop\n    /* \"#utility.yul\":6649:6651   */\n  0x60\n    /* \"#utility.yul\":6675:6739   */\n  tag_140\n    /* \"#utility.yul\":6731:6738   */\n  dup9\n    /* \"#utility.yul\":6722:6728   */\n  dup3\n    /* \"#utility.yul\":6711:6720   */\n  dup10\n    /* \"#utility.yul\":6707:6729   */\n  add\n    /* \"#utility.yul\":6675:6739   */\n  tag_42\n  jump\t// in\ntag_140:\n    /* \"#utility.yul\":6665:6739   */\n  swap3\n  pop\n    /* \"#utility.yul\":6620:6749   */\n  pop\n    /* \"#utility.yul\":6788:6791   */\n  0x80\n    /* \"#utility.yul\":6815:6879   */\n  tag_141\n    /* \"#utility.yul\":6871:6878   */\n  dup9\n    /* \"#utility.yul\":6862:6868   */\n  dup3\n    /* \"#utility.yul\":6851:6860   */\n  dup10\n    /* \"#utility.yul\":6847:6869   */\n  add\n    /* \"#utility.yul\":6815:6879   */\n  tag_45\n  jump\t// in\ntag_141:\n    /* \"#utility.yul\":6805:6879   */\n  swap2\n  pop\n    /* \"#utility.yul\":6759:6889   */\n  pop\n    /* \"#utility.yul\":5300:6896   */\n  swap3\n  swap6\n  pop\n  swap3\n  swap6\n  swap1\n  swap4\n  pop\n  jump\t// out\n    /* \"#utility.yul\":6902:7001   */\ntag_46:\n    /* \"#utility.yul\":6954:6960   */\n  0x00\n    /* \"#utility.yul\":6988:6993   */\n  dup2\n    /* \"#utility.yul\":6982:6994   */\n  mload\n    /* \"#utility.yul\":6972:6994   */\n  swap1\n  pop\n    /* \"#utility.yul\":6902:7001   */\n  swap2\n  swap1\n  pop\n  jump\t// out\n    /* \"#utility.yul\":7007:7187   */\ntag_47:\n    /* \"#utility.yul\":7055:7132   */\n  0x4e487b7100000000000000000000000000000000000000000000000000000000\n    /* \"#utility.yul\":7052:7053   */\n  0x00\n    /* \"#utility.yul\":7045:7133   */\n  mstore\n    /* \"#utility.yul\":7152:7156   */\n  0x22\n    /* \"#utility.yul\":7149:7150   */\n  0x04\n    /* \"#utility.yul\":7142:7157   */\n  mstore\n    /* \"#utility.yul\":7176:7180   */\n  0x24\n    /* \"#utility.yul\":7173:7174   */\n  0x00\n    /* \"#utility.yul\":7166:7181   */\n  revert\n    /* \"#utility.yul\":7193:7513   */\ntag_48:\n    /* \"#utility.yul\":7237:7243   */\n  0x00\n    /* \"#utility.yul\":7274:7275   */\n  0x02\n    /* \"#utility.yul\":7268:7272   */\n  dup3\n    /* \"#utility.yul\":7264:7276   */\n  div\n    /* \"#utility.yul\":7254:7276   */\n  swap1\n  pop\n    /* \"#utility.yul\":7321:7322   */\n  0x01\n    /* \"#utility.yul\":7315:7319   */\n  dup3\n    /* \"#utility.yul\":7311:7323   */\n  and\n    /* \"#utility.yul\":7342:7360   */\n  dup1\n    /* \"#utility.yul\":7332:7413   */\n  tag_145\n  jumpi\n    /* \"#utility.yul\":7398:7402   */\n  0x7f\n    /* \"#utility.yul\":7390:7396   */\n  dup3\n    /* \"#utility.yul\":7386:7403   */\n  and\n    /* \"#utility.yul\":7376:7403   */\n  swap2\n  pop\n    /* \"#utility.yul\":7332:7413   */\ntag_145:\n    /* \"#utility.yul\":7460:7462   */\n  0x20\n    /* \"#utility.yul\":7452:7458   */\n  dup3\n    /* \"#utility.yul\":7449:7463   */\n  lt\n    /* \"#utility.yul\":7429:7447   */\n  dup2\n    /* \"#utility.yul\":7426:7464   */\n  sub\n    /* \"#utility.yul\":7423:7507   */\n  tag_146\n  jumpi\n    /* \"#utility.yul\":7479:7497   */\n  tag_147\n  tag_47\n  jump\t// in\ntag_147:\n    /* \"#utility.yul\":7423:7507   */\ntag_146:\n    /* \"#utility.yul\":7244:7513   */\n  pop\n    /* \"#utility.yul\":7193:7513   */\n  swap2\n  swap1\n  pop\n  jump\t// out\n    /* \"#utility.yul\":7519:7660   */\ntag_49:\n    /* \"#utility.yul\":7568:7572   */\n  0x00\n    /* \"#utility.yul\":7591:7594   */\n  dup2\n    /* \"#utility.yul\":7583:7594   */\n  swap1\n  pop\n    /* \"#utility.yul\":7614:7617   */\n  dup2\n    /* \"#utility.yul\":7611:7612   */\n  0x00\n    /* \"#utility.yul\":7604:7618   */\n  mstore\n    /* \"#utility.yul\":7648:7652   */\n  0x20\n    /* \"#utility.yul\":7645:7646   */\n  0x00\n    /* \"#utility.yul\":7635:7653   */\n  keccak256\n    /* \"#utility.yul\":7627:7653   */\n  swap1\n  pop\n    /* \"#utility.yul\":7519:7660   */\n  swap2\n  swap1\n  pop\n  jump\t// out\n    /* \"#utility.yul\":7666:7759   */\ntag_50:\n    /* \"#utility.yul\":7703:7709   */\n  0x00\n    /* \"#utility.yul\":7750:7752   */\n  0x20\n    /* \"#utility.yul\":7745:7747   */\n  0x1f\n    /* \"#utility.yul\":7738:7743   */\n  dup4\n    /* \"#utility.yul\":7734:7748   */\n  add\n    /* \"#utility.yul\":7730:7753   */\n  div\n    /* \"#utility.yul\":7720:7753   */\n  swap1\n  pop\n    /* \"#utility.yul\":7666:7759   */\n  swap2\n  swap1\n  pop\n  jump\t// out\n    /* \"#utility.yul\":7765:7872   */\ntag_51:\n    /* \"#utility.yul\":7809:7817   */\n  0x00\n    /* \"#utility.yul\":7859:7864   */\n  dup3\n    /* \"#utility.yul\":7853:7857   */\n  dup3\n    /* \"#utility.yul\":7849:7865   */\n  shl\n    /* \"#utility.yul\":7828:7865   */\n  swap1\n  pop\n    /* \"#utility.yul\":7765:7872   */\n  swap3\n  swap2\n  pop\n  pop\n  jump\t// out\n    /* \"#utility.yul\":7878:8271   */\ntag_52:\n    /* \"#utility.yul\":7947:7953   */\n  0x00\n    /* \"#utility.yul\":7997:7998   */\n  0x08\n    /* \"#utility.yul\":7985:7995   */\n  dup4\n    /* \"#utility.yul\":7981:7999   */\n  mul\n    /* \"#utility.yul\":8020:8117   */\n  tag_152\n    /* \"#utility.yul\":8050:8116   */\n  0xffffffffffffffffffffffffffffffffffffffffffffffffffffffffffffffff\n    /* \"#utility.yul\":8039:8048   */\n  dup3\n    /* \"#utility.yul\":8020:8117   */\n  tag_51\n  jump\t// in\ntag_152:\n    /* \"#utility.yul\":8138:8177   */\n  tag_153\n    /* \"#utility.yul\":8168:8176   */\n  dup7\n    /* \"#utility.yul\":8157:8166   */\n  dup4\n    /* \"#utility.yul\":8138:8177   */\n  tag_51\n  jump\t// in\ntag_153:\n    /* \"#utility.yul\":8126:8177   */\n  swap6\n  pop\n    /* \"#utility.yul\":8210:8214   */\n  dup1\n    /* \"#utility.yul\":8206:8215   */\n  not\n    /* \"#utility.yul\":8199:8204   */\n  dup5\n    /* \"#utility.yul\":8195:8216   */\n  and\n    /* \"#utility.yul\":8186:8216   */\n  swap4\n  pop\n    /* \"#utility.yul\":8259:8263   */\n  dup1\n    /* \"#utility.yul\":8249:8257   */\n  dup7\n    /* \"#utility.yul\":8245:8264   */\n  and\n    /* \"#utility.yul\":8238:8243   */\n  dup5\n    /* \"#utility.yul\":8235:8265   */\n  or\n    /* \"#utility.yul\":8225:8265   */\n  swap3\n  pop\n    /* \"#utility.yul\":7954:8271   */\n  pop\n  pop\n    /* \"#utility.yul\":7878:8271   */\n  swap4\n  swap3\n  pop\n  pop\n  pop\n  jump\t// out\n    /* \"#utility.yul\":8277:8337   */\ntag_53:\n    /* \"#utility.yul\":8305:8308   */\n  0x00\n    /* \"#utility.yul\":8326:8331   */\n  dup2\n    /* \"#utility.yul\":8319:8331   */\n  swap1\n  pop\n    /* \"#utility.yul\":8277:8337   */\n  swap2\n  swap1\n  pop\n  jump\t// out\n    /* \"#utility.yul\":8343:8485   */\ntag_54:\n    /* \"#utility.yul\":8393:8402   */\n  0x00\n    /* \"#utility.yul\":8426:8479   */\n  tag_156\n    /* \"#utility.yul\":8444:8478   */\n  tag_157\n    /* \"#utility.yul\":8453:8477   */\n  tag_158\n    /* \"#utility.yul\":8471:8476   */\n  dup5\n    /* \"#utility.yul\":8453:8477   */\n  tag_43\n  jump\t// in\ntag_158:\n    /* \"#utility.yul\":8444:8478   */\n  tag_53\n  jump\t// in\ntag_157:\n    /* \"#utility.yul\":8426:8479   */\n  tag_43\n  jump\t// in\ntag_156:\n    /* \"#utility.yul\":8413:8479   */\n  swap1\n  pop\n    /* \"#utility.yul\":8343:8485   */\n  swap2\n  swap1\n  pop\n  jump\t// out\n    /* \"#utility.yul\":8491:8566   */\ntag_55:\n    /* \"#utility.yul\":8534:8537   */\n  0x00\n    /* \"#utility.yul\":8555:8560   */\n  dup2\n    /* \"#utility.yul\":8548:8560   */\n  swap1\n  pop\n    /* \"#utility.yul\":8491:8566   */\n  swap2\n  swap1\n  pop\n  jump\t// out\n    /* \"#utility.yul\":8572:8841   */\ntag_56:\n    /* \"#utility.yul\":8682:8721   */\n  tag_161\n    /* \"#utility.yul\":8713:8720   */\n  dup4\n    /* \"#utility.yul\":8682:8721   */\n  tag_54\n  jump\t// in\ntag_161:\n    /* \"#utility.yul\":8743:8834   */\n  tag_162\n    /* \"#utility.yul\":8792:8833   */\n  tag_163\n    /* \"#utility.yul\":8816:8832   */\n  dup3\n    /* \"#utility.yul\":8792:8833   */\n  tag_55\n  jump\t// in\ntag_163:\n    /* \"#utility.yul\":8784:8790   */\n  dup5\n    /* \"#utility.yul\":8777:8781   */\n  dup5\n    /* \"#utility.yul\":8771:8782   */\n  sload\n    /* \"#utility.yul\":8743:8834   */\n  tag_52\n  jump\t// in\ntag_162:\n    /* \"#utility.yul\":8737:8741   */\n  dup3\n    /* \"#utility.yul\":8730:8835   */\n  sstore\n    /* \"#utility.yul\":8648:8841   */\n  pop\n    /* \"#utility.yul\":8572:8841   */\n  pop\n  pop\n  pop\n  jump\t// out\n    /* \"#utility.yul\":8847:8920   */\ntag_57:\n    /* \"#utility.yul\":8892:8895   */\n  0x00\n    /* \"#utility.yul\":8847:8920   */\n  swap1\n  jump\t// out\n    /* \"#utility.yul\":8926:9115   */\ntag_58:\n    /* \"#utility.yul\":9003:9035   */\n  tag_166\n  tag_57\n  jump\t// in\ntag_166:\n    /* \"#utility.yul\":9044:9109   */\n  tag_167\n    /* \"#utility.yul\":9102:9108   */\n  dup2\n    /* \"#utility.yul\":9094:9100   */\n  dup5\n    /* \"#utility.yul\":9088:9092   */\n  dup5\n    /* \"#utility.yul\":9044:9109   */\n  tag_56\n  jump\t// in\ntag_167:\n    /* \"#utility.yul\":8979:9115   */\n  pop\n    /* \"#utility.yul\":8926:9115   */\n  pop\n  pop\n  jump\t// out\n    /* \"#utility.yul\":9121:9307   */\ntag_59:\n    /* \"#utility.yul\":9181:9301   */\ntag_169:\n    /* \"#utility.yul\":9198:9201   */\n  dup2\n    /* \"#utility.yul\":9191:9196   */\n  dup2\n    /* \"#utility.yul\":9188:9202   */\n  lt\n    /* \"#utility.yul\":9181:9301   */\n  iszero\n  tag_171\n  jumpi\n    /* \"#utility.yul\":9252:9291   */\n  tag_172\n    /* \"#utility.yul\":9289:9290   */\n  0x00\n    /* \"#utility.yul\":9282:9287   */\n  dup3\n    /* \"#utility.yul\":9252:9291   */\n  tag_58\n  jump\t// in\ntag_172:\n    /* \"#utility.yul\":9225:9226   */\n  0x01\n    /* \"#utility.yul\":9218:9223   */\n  dup2\n    /* \"#utility.yul\":9214:9227   */\n  add\n    /* \"#utility.yul\":9205:9227   */\n  swap1\n  pop\n    /* \"#utility.yul\":9181:9301   */\n  jump(tag_169)\ntag_171:\n    /* \"#utility.yul\":9121:9307   */\n  pop\n  pop\n  jump\t// out\n    /* \"#utility.yul\":9313:9856   */\ntag_60:\n    /* \"#utility.yul\":9414:9416   */\n  0x1f\n    /* \"#utility.yul\":9409:9412   */\n  dup3\n    /* \"#utility.yul\":9406:9417   */\n  gt\n    /* \"#utility.yul\":9403:9849   */\n  iszero\n  tag_174\n  jumpi\n    /* \"#utility.yul\":9448:9486   */\n  tag_175\n    /* \"#utility.yul\":9480:9485   */\n  dup2\n    /* \"#utility.yul\":9448:9486   */\n  tag_49\n  jump\t// in\ntag_175:\n    /* \"#utility.yul\":9532:9561   */\n  tag_176\n    /* \"#utility.yul\":9550:9560   */\n  dup5\n    /* \"#utility.yul\":9532:9561   */\n  tag_50\n  jump\t// in\ntag_176:\n    /* \"#utility.yul\":9522:9530   */\n  dup2\n    /* \"#utility.yul\":9518:9562   */\n  add\n    /* \"#utility.yul\":9715:9717   */\n  0x20\n    /* \"#utility.yul\":9703:9713   */\n  dup6\n    /* \"#utility.yul\":9700:9718   */\n  lt\n    /* \"#utility.yul\":9697:9746   */\n  iszero\n  tag_177\n  jumpi\n    /* \"#utility.yul\":9736:9744   */\n  dup2\n    /* \"#utility.yul\":9721:9744   */\n  swap1\n  pop\n    /* \"#utility.yul\":9697:9746   */\ntag_177:\n    /* \"#utility.yul\":9759:9839   */\n  tag_178\n    /* \"#utility.yul\":9815:9837   */\n  tag_179\n    /* \"#utility.yul\":9833:9836   */\n  dup6\n    /* \"#utility.yul\":9815:9837   */\n  tag_50\n  jump\t// in\ntag_179:\n    /* \"#utility.yul\":9805:9813   */\n  dup4\n    /* \"#utility.yul\":9801:9838   */\n  add\n    /* \"#utility.yul\":9788:9799   */\n  dup3\n    /* \"#utility.yul\":9759:9839   */\n  tag_59\n  jump\t// in\ntag_178:\n    /* \"#utility.yul\":9418:9849   */\n  pop\n  pop\n    /* \"#utility.yul\":9403:9849   */\ntag_174:\n    /* \"#utility.yul\":9313:9856   */\n  pop\n  pop\n  pop\n  jump\t// out\n    /* \"#utility.yul\":9862:9979   */\ntag_61:\n    /* \"#utility.yul\":9916:9924   */\n  0x00\n    /* \"#utility.yul\":9966:9971   */\n  dup3\n    /* \"#utility.yul\":9960:9964   */\n  dup3\n    /* \"#utility.yul\":9956:9972   */\n  shr\n    /* \"#utility.yul\":9935:9972   */\n  swap1\n  pop\n    /* \"#utility.yul\":9862:9979   */\n  swap3\n  swap2\n  pop\n  pop\n  jump\t// out\n    /* \"#utility.yul\":9985:10154   */\ntag_62:\n    /* \"#utility.yul\":10029:10035   */\n  0x00\n    /* \"#utility.yul\":10062:10113   */\n  tag_182\n    /* \"#utility.yul\":10110:10111   */\n  0x00\n    /* \"#utility.yul\":10106:10112   */\n  not\n    /* \"#utility.yul\":10098:10103   */\n  dup5\n    /* \"#utility.yul\":10095:10096   */\n  0x08\n    /* \"#utility.yul\":10091:10104   */\n  mul\n    /* \"#utility.yul\":10062:10113   */\n  tag_61\n  jump\t// in\ntag_182:\n    /* \"#utility.yul\":10058:10114   */\n  not\n    /* \"#utility.yul\":10143:10147   */\n  dup1\n    /* \"#utility.yul\":10137:10141   */\n  dup4\n    /* \"#utility.yul\":10133:10148   */\n  and\n    /* \"#utility.yul\":10123:10148   */\n  swap2\n  pop\n    /* \"#utility.yul\":10036:10154   */\n  pop\n    /* \"#utility.yul\":9985:10154   */\n  swap3\n  swap2\n  pop\n  pop\n  jump\t// out\n    /* \"#utility.yul\":10159:10454   */\ntag_63:\n    /* \"#utility.yul\":10235:10239   */\n  0x00\n    /* \"#utility.yul\":10381:10410   */\n  tag_184\n    /* \"#utility.yul\":10406:10409   */\n  dup4\n    /* \"#utility.yul\":10400:10404   */\n  dup4\n    /* \"#utility.yul\":10381:10410   */\n  tag_62\n  jump\t// in\ntag_184:\n    /* \"#utility.yul\":10373:10410   */\n  swap2\n  pop\n    /* \"#utility.yul\":10443:10446   */\n  dup3\n    /* \"#utility.yul\":10440:10441   */\n  0x02\n    /* \"#utility.yul\":10436:10447   */\n  mul\n    /* \"#utility.yul\":10430:10434   */\n  dup3\n    /* \"#utility.yul\":10427:10448   */\n  or\n    /* \"#utility.yul\":10419:10448   */\n  swap1\n  pop\n    /* \"#utility.yul\":10159:10454   */\n  swap3\n  swap2\n  pop\n  pop\n  jump\t// out\n    /* \"#utility.yul\":10459:11854   */\ntag_7:\n    /* \"#utility.yul\":10576:10613   */\n  tag_186\n    /* \"#utility.yul\":10609:10612   */\n  dup3\n    /* \"#utility.yul\":10576:10613   */\n  tag_46\n  jump\t// in\ntag_186:\n    /* \"#utility.yul\":10678:10696   */\n  0xffffffffffffffff\n    /* \"#utility.yul\":10670:10676   */\n  dup2\n    /* \"#utility.yul\":10667:10697   */\n  gt\n    /* \"#utility.yul\":10664:10720   */\n  iszero\n  tag_187\n  jumpi\n    /* \"#utility.yul\":10700:10718   */\n  tag_188\n  tag_27\n  jump\t// in\ntag_188:\n    /* \"#utility.yul\":10664:10720   */\ntag_187:\n    /* \"#utility.yul\":10744:10782   */\n  tag_189\n    /* \"#utility.yul\":10776:10780   */\n  dup3\n    /* \"#utility.yul\":10770:10781   */\n  sload\n    /* \"#utility.yul\":10744:10782   */\n  tag_48\n  jump\t// in\ntag_189:\n    /* \"#utility.yul\":10829:10896   */\n  tag_190\n    /* \"#utility.yul\":10889:10895   */\n  dup3\n    /* \"#utility.yul\":10881:10887   */\n  dup3\n    /* \"#utility.yul\":10875:10879   */\n  dup6\n    /* \"#utility.yul\":10829:10896   */\n  tag_60\n  jump\t// in\ntag_190:\n    /* \"#utility.yul\":10923:10924   */\n  0x00\n    /* \"#utility.yul\":10947:10951   */\n  0x20\n    /* \"#utility.yul\":10934:10951   */\n  swap1\n  pop\n    /* \"#utility.yul\":10979:10981   */\n  0x1f\n    /* \"#utility.yul\":10971:10977   */\n  dup4\n    /* \"#utility.yul\":10968:10982   */\n  gt\n    /* \"#utility.yul\":10996:10997   */\n  0x01\n    /* \"#utility.yul\":10991:11609   */\n  dup2\n  eq\n  tag_192\n  jumpi\n    /* \"#utility.yul\":11653:11654   */\n  0x00\n    /* \"#utility.yul\":11670:11676   */\n  dup5\n    /* \"#utility.yul\":11667:11744   */\n  iszero\n  tag_193\n  jumpi\n    /* \"#utility.yul\":11719:11728   */\n  dup3\n    /* \"#utility.yul\":11714:11717   */\n  dup8\n    /* \"#utility.yul\":11710:11729   */\n  add\n    /* \"#utility.yul\":11704:11730   */\n  mload\n    /* \"#utility.yul\":11695:11730   */\n  swap1\n  pop\n    /* \"#utility.yul\":11667:11744   */\ntag_193:\n    /* \"#utility.yul\":11770:11837   */\n  tag_194\n    /* \"#utility.yul\":11830:11836   */\n  dup6\n    /* \"#utility.yul\":11823:11828   */\n  dup3\n    /* \"#utility.yul\":11770:11837   */\n  tag_63\n  jump\t// in\ntag_194:\n    /* \"#utility.yul\":11764:11768   */\n  dup7\n    /* \"#utility.yul\":11757:11838   */\n  sstore\n    /* \"#utility.yul\":11626:11848   */\n  pop\n    /* \"#utility.yul\":10961:11848   */\n  jump(tag_191)\n    /* \"#utility.yul\":10991:11609   */\ntag_192:\n    /* \"#utility.yul\":11043:11047   */\n  0x1f\n    /* \"#utility.yul\":11039:11048   */\n  not\n    /* \"#utility.yul\":11031:11037   */\n  dup5\n    /* \"#utility.yul\":11027:11049   */\n  and\n    /* \"#utility.yul\":11077:11114   */\n  tag_195\n    /* \"#utility.yul\":11109:11113   */\n  dup7\n    /* \"#utility.yul\":11077:11114   */\n  tag_49\n  jump\t// in\ntag_195:\n    /* \"#utility.yul\":11136:11137   */\n  0x00\n    /* \"#utility.yul\":11150:11358   */\ntag_196:\n    /* \"#utility.yul\":11164:11171   */\n  dup3\n    /* \"#utility.yul\":11161:11162   */\n  dup2\n    /* \"#utility.yul\":11158:11172   */\n  lt\n    /* \"#utility.yul\":11150:11358   */\n  iszero\n  tag_198\n  jumpi\n    /* \"#utility.yul\":11243:11252   */\n  dup5\n    /* \"#utility.yul\":11238:11241   */\n  dup10\n    /* \"#utility.yul\":11234:11253   */\n  add\n    /* \"#utility.yul\":11228:11254   */\n  mload\n    /* \"#utility.yul\":11220:11226   */\n  dup3\n    /* \"#utility.yul\":11213:11255   */\n  sstore\n    /* \"#utility.yul\":11294:11295   */\n  0x01\n    /* \"#utility.yul\":11286:11292   */\n  dup3\n    /* \"#utility.yul\":11282:11296   */\n  add\n    /* \"#utility.yul\":11272:11296   */\n  swap2\n  pop\n    /* \"#utility.yul\":11341:11343   */\n  0x20\n    /* \"#utility.yul\":11330:11339   */\n  dup6\n    /* \"#utility.yul\":11326:11344   */\n  add\n    /* \"#utility.yul\":11313:11344   */\n  swap5\n  pop\n    /* \"#utility.yul\":11187:11191   */\n  0x20\n    /* \"#utility.yul\":11184:11185   */\n  dup2\n    /* \"#utility.yul\":11180:11192   */\n  add\n    /* \"#utility.yul\":11175:11192   */\n  swap1\n  pop\n    /* \"#utility.yul\":11150:11358   */\n  jump(tag_196)\ntag_198:\n    /* \"#utility.yul\":11386:11392   */\n  dup7\n    /* \"#utility.yul\":11377:11384   */\n  dup4\n    /* \"#utility.yul\":11374:11393   */\n  lt\n    /* \"#utility.yul\":11371:11550   */\n  iszero\n  tag_199\n  jumpi\n    /* \"#utility.yul\":11444:11453   */\n  dup5\n    /* \"#utility.yul\":11439:11442   */\n  dup10\n    /* \"#utility.yul\":11435:11454   */\n  add\n    /* \"#utility.yul\":11429:11455   */\n  mload\n    /* \"#utility.yul\":11487:11535   */\n  tag_200\n    /* \"#utility.yul\":11529:11533   */\n  0x1f\n    /* \"#utility.yul\":11521:11527   */\n  dup10\n    /* \"#utility.yul\":11517:11534   */\n  and\n    /* \"#utility.yul\":11506:11515   */\n  dup3\n    /* \"#utility.yul\":11487:11535   */\n  tag_62\n  jump\t// in\ntag_200:\n    /* \"#utility.yul\":11479:11485   */\n  dup4\n    /* \"#utility.yul\":11472:11536   */\n  sstore\n    /* \"#utility.yul\":11394:11550   */\n  pop\n    /* \"#utility.yul\":11371:11550   */\ntag_199:\n    /* \"#utility.yul\":11596:11597   */\n  0x01\n    /* \"#utility.yul\":11592:11593   */\n  0x02\n    /* \"#utility.yul\":11584:11590   */\n  dup9\n    /* \"#utility.yul\":11580:11594   */\n  mul\n    /* \"#utility.yul\":11576:11598   */\n  add\n    /* \"#utility.yul\":11570:11574   */\n  dup9\n    /* \"#utility.yul\":11563:11599   */\n  sstore\n    /* \"#utility.yul\":10998:11609   */\n  pop\n  pop\n  pop\n    /* \"#utility.yul\":10961:11848   */\ntag_191:\n  pop\n    /* \"#utility.yul\":10551:11854   */\n  pop\n  pop\n  pop\n    /* \"#utility.yul\":10459:11854   */\n  pop\n  pop\n  jump\t// out\n    /* \"#utility.yul\":11860:12040   */\ntag_13:\n    /* \"#utility.yul\":11908:11985   */\n  0x4e487b7100000000000000000000000000000000000000000000000000000000\n    /* \"#utility.yul\":11905:11906   */\n  0x00\n    /* \"#utility.yul\":11898:11986   */\n  mstore\n    /* \"#utility.yul\":12005:12009   */\n  0x32\n    /* \"#utility.yul\":12002:12003   */\n  0x04\n    /* \"#utility.yul\":11995:12010   */\n  mstore\n    /* \"#utility.yul\":12029:12033   */\n  0x24\n    /* \"#utility.yul\":12026:12027   */\n  0x00\n    /* \"#utility.yul\":12019:12034   */\n  revert\n    /* \"#utility.yul\":12046:12226   */\ntag_64:\n    /* \"#utility.yul\":12094:12171   */\n  0x4e487b7100000000000000000000000000000000000000000000000000000000\n    /* \"#utility.yul\":12091:12092   */\n  0x00\n    /* \"#utility.yul\":12084:12172   */\n  mstore\n    /* \"#utility.yul\":12191:12195   */\n  0x11\n    /* \"#utility.yul\":12188:12189   */\n  0x04\n    /* \"#utility.yul\":12181:12196   */\n  mstore\n    /* \"#utility.yul\":12215:12219   */\n  0x24\n    /* \"#utility.yul\":12212:12213   */\n  0x00\n    /* \"#utility.yul\":12205:12220   */\n  revert\n    /* \"#utility.yul\":12232:12423   */\ntag_17:\n    /* \"#utility.yul\":12272:12275   */\n  0x00\n    /* \"#utility.yul\":12291:12311   */\n  tag_204\n    /* \"#utility.yul\":12309:12310   */\n  dup3\n    /* \"#utility.yul\":12291:12311   */\n  tag_43\n  jump\t// in\ntag_204:\n    /* \"#utility.yul\":12286:12311   */\n  swap2\n  pop\n    /* \"#utility.yul\":12325:12345   */\n  tag_205\n    /* \"#utility.yul\":12343:12344   */\n  dup4\n    /* \"#utility.yul\":12325:12345   */\n  tag_43\n  jump\t// in\ntag_205:\n    /* \"#utility.yul\":12320:12345   */\n  swap3\n  pop\n    /* \"#utility.yul\":12368:12369   */\n  dup3\n    /* \"#utility.yul\":12365:12366   */\n  dup3\n    /* \"#utility.yul\":12361:12370   */\n  add\n    /* \"#utility.yul\":12354:12370   */\n  swap1\n  pop\n    /* \"#utility.yul\":12389:12392   */\n  dup1\n    /* \"#utility.yul\":12386:12387   */\n  dup3\n    /* \"#utility.yul\":12383:12393   */\n  gt\n    /* \"#utility.yul\":12380:12416   */\n  iszero\n  tag_206\n  jumpi\n    /* \"#utility.yul\":12396:12414   */\n  tag_207\n  tag_64\n  jump\t// in\ntag_207:\n    /* \"#utility.yul\":12380:12416   */\ntag_206:\n    /* \"#utility.yul\":12232:12423   */\n  swap3\n  swap2\n  pop\n  pop\n  jump\t// out\n    /* \"evs.sol\":649:2247  contract Ballot ... */\ntag_21:\n  dataSize(sub_0)\n  dup1\n  dataOffset(sub_0)\n  0x00\n  codecopy\n  0x00\n  return\nstop\n\nsub_0: assembly {\n        /* \"evs.sol\":649:2247  contract Ballot ... */\n      mstore(0x40, 0x80)\n      callvalue\n      dup1\n      iszero\n      tag_1\n      jumpi\n      0x00\n      dup1\n      revert\n    tag_1:\n      pop\n      jumpi(tag_2, lt(calldatasize, 0x04))\n      shr(0xe0, calldataload(0x00))\n      dup1\n      0x716c424e\n      gt\n      tag_11\n      jumpi\n      dup1\n      0x716c424e\n      eq\n      tag_7\n      jumpi\n      dup1\n      0xa3ec138d\n      eq\n      tag_8\n      jumpi\n      dup1\n      0xb2c2f2e8\n      eq\n      tag_9\n      jumpi\n      dup1\n      0xe13804a7\n      eq\n      tag_10\n      jumpi\n      jump(tag_2)\n    tag_11:\n      dup1\n      0x0121b93f\n      eq\n      tag_3\n      jumpi\n      dup1\n      0x3477ee2e\n      eq\n      tag_4\n      jumpi\n      dup1\n      0x456645a7\n      eq\n      tag_5\n      jumpi\n      dup1\n      0x481c6a75\n      eq\n      tag_6\n      jumpi\n    tag_2:\n      0x00\n      dup1\n      revert\n        /* \"evs.sol\":1488:1714  function vote(uint index) public... */\n    tag_3:\n      tag_12\n      0x04\n      dup1\n      calldatasize\n      sub\n      dup2\n      add\n      swap1\n      tag_13\n      swap2\n      swap1\n      tag_14\n      jump\t// in\n    tag_13:\n      tag_15\n      jump\t// in\n    tag_12:\n      stop\n        /* \"evs.sol\":794:823  candidate[] public candidates */\n    tag_4:\n      tag_16\n      0x04\n      dup1\n      calldatasize\n      sub\n      dup2\n      add\n      swap1\n      tag_17\n      swap2\n      swap1\n      tag_14\n      jump\t// in\n    tag_17:\n      tag_18\n      jump\t// in\n    tag_16:\n      mload(0x40)\n      tag_19\n      swap6\n      swap5\n      swap4\n      swap3\n      swap2\n      swap1\n      tag_20\n      jump\t// in\n    tag_19:\n      mload(0x40)\n      dup1\n      swap2\n      sub\n      swap1\n      return\n        /* \"evs.sol\":1892:2069  function getCandidateParty(uint index) public view returns (string memory)... */\n    tag_5:\n      tag_21\n      0x04\n      dup1\n      calldatasize\n      sub\n      dup2\n      add\n      swap1\n      tag_22\n      swap2\n      swap1\n      tag_14\n      jump\t// in\n    tag_22:\n      tag_23\n      jump\t// in\n    tag_21:\n      mload(0x40)\n      tag_24\n      swap2\n      swap1\n      tag_25\n      jump\t// in\n    tag_24:\n      mload(0x40)\n      dup1\n      swap2\n      sub\n      swap1\n      return\n        /* \"evs.sol\":825:847  address public manager */\n    tag_6:\n      tag_26\n      tag_27\n      jump\t// in\n    tag_26:\n      mload(0x40)\n      tag_28\n      swap2\n      swap1\n      tag_29\n      jump\t// in\n    tag_28:\n      mload(0x40)\n      dup1\n      swap2\n      sub\n      swap1\n      return\n        /* \"evs.sol\":849:877  string public votingDistrict */\n    tag_7:\n      tag_30\n      tag_31\n      jump\t// in\n    tag_30:\n      mload(0x40)\n      tag_32\n      swap2\n      swap1\n      tag_25\n      jump\t// in\n    tag_32:\n      mload(0x40)\n      dup1\n      swap2\n      sub\n      swap1\n      return\n        /* \"evs.sol\":879:918  mapping (address => bool) public voters */\n    tag_8:\n      tag_33\n      0x04\n      dup1\n      calldatasize\n      sub\n      dup2\n      add\n      swap1\n      tag_34\n      swap2\n      swap1\n      tag_35\n      jump\t// in\n    tag_34:\n      tag_36\n      jump\t// in\n    tag_33:\n      mload(0x40)\n      tag_37\n      swap2\n      swap1\n      tag_38\n      jump\t// in\n    tag_37:\n      mload(0x40)\n      dup1\n      swap2\n      sub\n      swap1\n      return\n        /* \"evs.sol\":2071:2244  function getVoteCount(uint index)... */\n    tag_9:\n      tag_39\n      0x04\n      dup1\n      calldatasize\n      sub\n      dup2\n      add\n      swap1\n      tag_40\n      swap2\n      swap1\n      tag_14\n      jump\t// in\n    tag_40:\n      tag_41\n      jump\t// in\n    tag_39:\n      mload(0x40)\n      tag_42\n      swap2\n      swap1\n      tag_43\n      jump\t// in\n    tag_42:\n      mload(0x40)\n      dup1\n      swap2\n      sub\n      swap1\n      return\n        /* \"evs.sol\":1716:1891  function getCandidateName(uint index) public view returns (string memory)... */\n    tag_10:\n      tag_44\n      0x04\n      dup1\n      calldatasize\n      sub\n      dup2\n      add\n      swap1\n      tag_45\n      swap2\n      swap1\n      tag_14\n      jump\t// in\n    tag_45:\n      tag_46\n      jump\t// in\n    tag_44:\n      mload(0x40)\n      tag_47\n      swap2\n      swap1\n      tag_25\n      jump\t// in\n    tag_47:\n      mload(0x40)\n      dup1\n      swap2\n      sub\n      swap1\n      return\n        /* \"evs.sol\":1488:1714  function vote(uint index) public... */\n    tag_15:\n        /* \"evs.sol\":1541:1547  voters */\n      0x03\n        /* \"evs.sol\":1541:1559  voters[msg.sender] */\n      0x00\n        /* \"evs.sol\":1548:1558  msg.sender */\n      caller\n        /* \"evs.sol\":1541:1559  voters[msg.sender] */\n      0xffffffffffffffffffffffffffffffffffffffff\n      and\n      0xffffffffffffffffffffffffffffffffffffffff\n      and\n      dup2\n      mstore\n      0x20\n      add\n      swap1\n      dup2\n      mstore\n      0x20\n      add\n      0x00\n      keccak256\n      0x00\n      swap1\n      sload\n      swap1\n      0x0100\n      exp\n      swap1\n      div\n      0xff\n      and\n        /* \"evs.sol\":1539:1559  ! voters[msg.sender] */\n      iszero\n        /* \"evs.sol\":1531:1560  require(! voters[msg.sender]) */\n      tag_49\n      jumpi\n      0x00\n      dup1\n      revert\n    tag_49:\n        /* \"evs.sol\":1675:1676  1 */\n      0x01\n        /* \"evs.sol\":1645:1655  candidates */\n      0x00\n        /* \"evs.sol\":1656:1661  index */\n      dup3\n        /* \"evs.sol\":1645:1662  candidates[index] */\n      dup2\n      sload\n      dup2\n      lt\n      tag_50\n      jumpi\n      tag_51\n      tag_52\n      jump\t// in\n    tag_51:\n    tag_50:\n      swap1\n      0x00\n      mstore\n      keccak256(0x00, 0x20)\n      swap1\n      0x05\n      mul\n      add\n        /* \"evs.sol\":1645:1672  candidates[index].voteCount */\n      0x02\n      add\n      0x00\n        /* \"evs.sol\":1645:1676  candidates[index].voteCount +=1 */\n      dup3\n      dup3\n      sload\n      tag_54\n      swap2\n      swap1\n      tag_55\n      jump\t// in\n    tag_54:\n      swap3\n      pop\n      pop\n      dup2\n      swap1\n      sstore\n      pop\n        /* \"evs.sol\":1703:1707  true */\n      0x01\n        /* \"evs.sol\":1682:1688  voters */\n      0x03\n        /* \"evs.sol\":1682:1700  voters[msg.sender] */\n      0x00\n        /* \"evs.sol\":1689:1699  msg.sender */\n      caller\n        /* \"evs.sol\":1682:1700  voters[msg.sender] */\n      0xffffffffffffffffffffffffffffffffffffffff\n      and\n      0xffffffffffffffffffffffffffffffffffffffff\n      and\n      dup2\n      mstore\n      0x20\n      add\n      swap1\n      dup2\n      mstore\n      0x20\n      add\n      0x00\n      keccak256\n      0x00\n        /* \"evs.sol\":1682:1707  voters[msg.sender] = true */\n      0x0100\n      exp\n      dup2\n      sload\n      dup2\n      0xff\n      mul\n      not\n      and\n      swap1\n      dup4\n      iszero\n      iszero\n      mul\n      or\n      swap1\n      sstore\n      pop\n        /* \"evs.sol\":1488:1714  function vote(uint index) public... */\n      pop\n      jump\t// out\n        /* \"evs.sol\":794:823  candidate[] public candidates */\n    tag_18:\n      0x00\n      dup2\n      dup2\n      sload\n      dup2\n      lt\n      tag_56\n      jumpi\n      0x00\n      dup1\n      revert\n    tag_56:\n      swap1\n      0x00\n      mstore\n      keccak256(0x00, 0x20)\n      swap1\n      0x05\n      mul\n      add\n      0x00\n      swap2\n      pop\n      swap1\n      pop\n      dup1\n      0x00\n      add\n      dup1\n      sload\n      tag_58\n      swap1\n      tag_59\n      jump\t// in\n    tag_58:\n      dup1\n      0x1f\n      add\n      0x20\n      dup1\n      swap2\n      div\n      mul\n      0x20\n      add\n      mload(0x40)\n      swap1\n      dup2\n      add\n      0x40\n      mstore\n      dup1\n      swap3\n      swap2\n      swap1\n      dup2\n      dup2\n      mstore\n      0x20\n      add\n      dup3\n      dup1\n      sload\n      tag_60\n      swap1\n      tag_59\n      jump\t// in\n    tag_60:\n      dup1\n      iszero\n      tag_61\n      jumpi\n      dup1\n      0x1f\n      lt\n      tag_62\n      jumpi\n      0x0100\n      dup1\n      dup4\n      sload\n      div\n      mul\n      dup4\n      mstore\n      swap2\n      0x20\n      add\n      swap2\n      jump(tag_61)\n    tag_62:\n      dup3\n      add\n      swap2\n      swap1\n      0x00\n      mstore\n      keccak256(0x00, 0x20)\n      swap1\n    tag_63:\n      dup2\n      sload\n      dup2\n      mstore\n      swap1\n      0x01\n      add\n      swap1\n      0x20\n      add\n      dup1\n      dup4\n      gt\n      tag_63\n      jumpi\n      dup3\n      swap1\n      sub\n      0x1f\n      and\n      dup3\n      add\n      swap2\n    tag_61:\n      pop\n      pop\n      pop\n      pop\n      pop\n      swap1\n      dup1\n      0x01\n      add\n      dup1\n      sload\n      tag_64\n      swap1\n      tag_59\n      jump\t// in\n    tag_64:\n      dup1\n      0x1f\n      add\n      0x20\n      dup1\n      swap2\n      div\n      mul\n      0x20\n      add\n      mload(0x40)\n      swap1\n      dup2\n      add\n      0x40\n      mstore\n      dup1\n      swap3\n      swap2\n      swap1\n      dup2\n      dup2\n      mstore\n      0x20\n      add\n      dup3\n      dup1\n      sload\n      tag_65\n      swap1\n      tag_59\n      jump\t// in\n    tag_65:\n      dup1\n      iszero\n      tag_66\n      jumpi\n      dup1\n      0x1f\n      lt\n      tag_67\n      jumpi\n      0x0100\n      dup1\n      dup4\n      sload\n      div\n      mul\n      dup4\n      mstore\n      swap2\n      0x20\n      add\n      swap2\n      jump(tag_66)\n    tag_67:\n      dup3\n      add\n      swap2\n      swap1\n      0x00\n      mstore\n      keccak256(0x00, 0x20)\n      swap1\n    tag_68:\n      dup2\n      sload\n      dup2\n      mstore\n      swap1\n      0x01\n      add\n      swap1\n      0x20\n      add\n      dup1\n      dup4\n      gt\n      tag_68\n      jumpi\n      dup3\n      swap1\n      sub\n      0x1f\n      and\n      dup3\n      add\n      swap2\n    tag_66:\n      pop\n      pop\n      pop\n      pop\n      pop\n      swap1\n      dup1\n      0x02\n      add\n      sload\n      swap1\n      dup1\n      0x03\n      add\n      sload\n      swap1\n      dup1\n      0x04\n      add\n      sload\n      swap1\n      pop\n      dup6\n      jump\t// out\n        /* \"evs.sol\":1892:2069  function getCandidateParty(uint index) public view returns (string memory)... */\n    tag_23:\n        /* \"evs.sol\":1952:1965  string memory */\n      0x60\n        /* \"evs.sol\":1997:2007  candidates */\n      0x00\n        /* \"evs.sol\":2008:2013  index */\n      dup3\n        /* \"evs.sol\":1997:2014  candidates[index] */\n      dup2\n      sload\n      dup2\n      lt\n      tag_70\n      jumpi\n      tag_71\n      tag_52\n      jump\t// in\n    tag_71:\n    tag_70:\n      swap1\n      0x00\n      mstore\n      keccak256(0x00, 0x20)\n      swap1\n      0x05\n      mul\n      add\n        /* \"evs.sol\":1997:2029  candidates[index].expirationDate */\n      0x04\n      add\n      sload\n        /* \"evs.sol\":1981:1996  block.timestamp */\n      timestamp\n        /* \"evs.sol\":1981:2029  block.timestamp>candidates[index].expirationDate */\n      gt\n        /* \"evs.sol\":1973:2030  require(block.timestamp>candidates[index].expirationDate) */\n      tag_73\n      jumpi\n      0x00\n      dup1\n      revert\n    tag_73:\n        /* \"evs.sol\":2043:2053  candidates */\n      0x00\n        /* \"evs.sol\":2054:2059  index */\n      dup3\n        /* \"evs.sol\":2043:2060  candidates[index] */\n      dup2\n      sload\n      dup2\n      lt\n      tag_74\n      jumpi\n      tag_75\n      tag_52\n      jump\t// in\n    tag_75:\n    tag_74:\n      swap1\n      0x00\n      mstore\n      keccak256(0x00, 0x20)\n      swap1\n      0x05\n      mul\n      add\n        /* \"evs.sol\":2043:2066  candidates[index].party */\n      0x01\n      add\n        /* \"evs.sol\":2036:2066  return candidates[index].party */\n      dup1\n      sload\n      tag_77\n      swap1\n      tag_59\n      jump\t// in\n    tag_77:\n      dup1\n      0x1f\n      add\n      0x20\n      dup1\n      swap2\n      div\n      mul\n      0x20\n      add\n      mload(0x40)\n      swap1\n      dup2\n      add\n      0x40\n      mstore\n      dup1\n      swap3\n      swap2\n      swap1\n      dup2\n      dup2\n      mstore\n      0x20\n      add\n      dup3\n      dup1\n      sload\n      tag_78\n      swap1\n      tag_59\n      jump\t// in\n    tag_78:\n      dup1\n      iszero\n      tag_79\n      jumpi\n      dup1\n      0x1f\n      lt\n      tag_80\n      jumpi\n      0x0100\n      dup1\n      dup4\n      sload\n      div\n      mul\n      dup4\n      mstore\n      swap2\n      0x20\n      add\n      swap2\n      jump(tag_79)\n    tag_80:\n      dup3\n      add\n      swap2\n      swap1\n      0x00\n      mstore\n      keccak256(0x00, 0x20)\n      swap1\n    tag_81:\n      dup2\n      sload\n      dup2\n      mstore\n      swap1\n      0x01\n      add\n      swap1\n      0x20\n      add\n      dup1\n      dup4\n      gt\n      tag_81\n      jumpi\n      dup3\n      swap1\n      sub\n      0x1f\n      and\n      dup3\n      add\n      swap2\n    tag_79:\n      pop\n      pop\n      pop\n      pop\n      pop\n      swap1\n      pop\n        /* \"evs.sol\":1892:2069  function getCandidateParty(uint index) public view returns (string memory)... */\n      swap2\n      swap1\n      pop\n      jump\t// out\n        /* \"evs.sol\":825:847  address public manager */\n    tag_27:\n      0x01\n      0x00\n      swap1\n      sload\n      swap1\n      0x0100\n      exp\n      swap1\n      div\n      0xffffffffffffffffffffffffffffffffffffffff\n      and\n      dup2\n      jump\t// out\n        /* \"evs.sol\":849:877  string public votingDistrict */\n    tag_31:\n      0x02\n      dup1\n      sload\n      tag_82\n      swap1\n      tag_59\n      jump\t// in\n    tag_82:\n      dup1\n      0x1f\n      add\n      0x20\n      dup1\n      swap2\n      div\n      mul\n      0x20\n      add\n      mload(0x40)\n      swap1\n      dup2\n      add\n      0x40\n      mstore\n      dup1\n      swap3\n      swap2\n      swap1\n      dup2\n      dup2\n      mstore\n      0x20\n      add\n      dup3\n      dup1\n      sload\n      tag_83\n      swap1\n      tag_59\n      jump\t// in\n    tag_83:\n      dup1\n      iszero\n      tag_84\n      jumpi\n      dup1\n      0x1f\n      lt\n      tag_85\n      jumpi\n      0x0100\n      dup1\n      dup4\n      sload\n      div\n      mul\n      dup4\n      mstore\n      swap2\n      0x20\n      add\n      swap2\n      jump(tag_84)\n    tag_85:\n      dup3\n      add\n      swap2\n      swap1\n      0x00\n      mstore\n      keccak256(0x00, 0x20)\n      swap1\n    tag_86:\n      dup2\n      sload\n      dup2\n      mstore\n      swap1\n      0x01\n      add\n      swap1\n      0x20\n      add\n      dup1\n      dup4\n      gt\n      tag_86\n      jumpi\n      dup3\n      swap1\n      sub\n      0x1f\n      and\n      dup3\n      add\n      swap2\n    tag_84:\n      pop\n      pop\n      pop\n      pop\n      pop\n      dup2\n      jump\t// out\n        /* \"evs.sol\":879:918  mapping (address => bool) public voters */\n    tag_36:\n      mstore(0x20, 0x03)\n      dup1\n      0x00\n      mstore\n      keccak256(0x00, 0x40)\n      0x00\n      swap2\n      pop\n      sload\n      swap1\n      0x0100\n      exp\n      swap1\n      div\n      0xff\n      and\n      dup2\n      jump\t// out\n        /* \"evs.sol\":2071:2244  function getVoteCount(uint index)... */\n    tag_41:\n        /* \"evs.sol\":2136:2140  uint */\n      0x00\n        /* \"evs.sol\":966:973  manager */\n      0x01\n      0x00\n      swap1\n      sload\n      swap1\n      0x0100\n      exp\n      swap1\n      div\n      0xffffffffffffffffffffffffffffffffffffffff\n      and\n        /* \"evs.sol\":953:973  msg.sender== manager */\n      0xffffffffffffffffffffffffffffffffffffffff\n      and\n        /* \"evs.sol\":953:963  msg.sender */\n      caller\n        /* \"evs.sol\":953:973  msg.sender== manager */\n      0xffffffffffffffffffffffffffffffffffffffff\n      and\n      eq\n        /* \"evs.sol\":945:974  require(msg.sender== manager) */\n      tag_88\n      jumpi\n      0x00\n      dup1\n      revert\n    tag_88:\n        /* \"evs.sol\":2168:2178  candidates */\n      0x00\n        /* \"evs.sol\":2179:2184  index */\n      dup3\n        /* \"evs.sol\":2168:2185  candidates[index] */\n      dup2\n      sload\n      dup2\n      lt\n      tag_90\n      jumpi\n      tag_91\n      tag_52\n      jump\t// in\n    tag_91:\n    tag_90:\n      swap1\n      0x00\n      mstore\n      keccak256(0x00, 0x20)\n      swap1\n      0x05\n      mul\n      add\n        /* \"evs.sol\":2168:2200  candidates[index].expirationDate */\n      0x04\n      add\n      sload\n        /* \"evs.sol\":2152:2167  block.timestamp */\n      timestamp\n        /* \"evs.sol\":2152:2200  block.timestamp>candidates[index].expirationDate */\n      gt\n        /* \"evs.sol\":2144:2201  require(block.timestamp>candidates[index].expirationDate) */\n      tag_93\n      jumpi\n      0x00\n      dup1\n      revert\n    tag_93:\n        /* \"evs.sol\":2214:2224  candidates */\n      0x00\n        /* \"evs.sol\":2225:2230  index */\n      dup3\n        /* \"evs.sol\":2214:2231  candidates[index] */\n      dup2\n      sload\n      dup2\n      lt\n      tag_94\n      jumpi\n      tag_95\n      tag_52\n      jump\t// in\n    tag_95:\n    tag_94:\n      swap1\n      0x00\n      mstore\n      keccak256(0x00, 0x20)\n      swap1\n      0x05\n      mul\n      add\n        /* \"evs.sol\":2214:2241  candidates[index].voteCount */\n      0x02\n      add\n      sload\n        /* \"evs.sol\":2207:2241  return candidates[index].voteCount */\n      swap1\n      pop\n        /* \"evs.sol\":2071:2244  function getVoteCount(uint index)... */\n      swap2\n      swap1\n      pop\n      jump\t// out\n        /* \"evs.sol\":1716:1891  function getCandidateName(uint index) public view returns (string memory)... */\n    tag_46:\n        /* \"evs.sol\":1775:1788  string memory */\n      0x60\n        /* \"evs.sol\":1820:1830  candidates */\n      0x00\n        /* \"evs.sol\":1831:1836  index */\n      dup3\n        /* \"evs.sol\":1820:1837  candidates[index] */\n      dup2\n      sload\n      dup2\n      lt\n      tag_98\n      jumpi\n      tag_99\n      tag_52\n      jump\t// in\n    tag_99:\n    tag_98:\n      swap1\n      0x00\n      mstore\n      keccak256(0x00, 0x20)\n      swap1\n      0x05\n      mul\n      add\n        /* \"evs.sol\":1820:1852  candidates[index].expirationDate */\n      0x04\n      add\n      sload\n        /* \"evs.sol\":1804:1819  block.timestamp */\n      timestamp\n        /* \"evs.sol\":1804:1852  block.timestamp>candidates[index].expirationDate */\n      gt\n        /* \"evs.sol\":1796:1853  require(block.timestamp>candidates[index].expirationDate) */\n      tag_101\n      jumpi\n      0x00\n      dup1\n      revert\n    tag_101:\n        /* \"evs.sol\":1866:1876  candidates */\n      0x00\n        /* \"evs.sol\":1877:1882  index */\n      dup3\n        /* \"evs.sol\":1866:1883  candidates[index] */\n      dup2\n      sload\n      dup2\n      lt\n      tag_102\n      jumpi\n      tag_103\n      tag_52\n      jump\t// in\n    tag_103:\n    tag_102:\n      swap1\n      0x00\n      mstore\n      keccak256(0x00, 0x20)\n      swap1\n      0x05\n      mul\n      add\n        /* \"evs.sol\":1866:1888  candidates[index].name */\n      0x00\n      add\n        /* \"evs.sol\":1859:1888  return candidates[index].name */\n      dup1\n      sload\n      tag_105\n      swap1\n      tag_59\n      jump\t// in\n    tag_105:\n      dup1\n      0x1f\n      add\n      0x20\n      dup1\n      swap2\n      div\n      mul\n      0x20\n      add\n      mload(0x40)\n      swap1\n      dup2\n      add\n      0x40\n      mstore\n      dup1\n      swap3\n      swap2\n      swap1\n      dup2\n      dup2\n      mstore\n      0x20\n      add\n      dup3\n      dup1\n      sload\n      tag_106\n      swap1\n      tag_59\n      jump\t// in\n    tag_106:\n      dup1\n      iszero\n      tag_107\n      jumpi\n      dup1\n      0x1f\n      lt\n      tag_108\n      jumpi\n      0x0100\n      dup1\n      dup4\n      sload\n      div\n      mul\n      dup4\n      mstore\n      swap2\n      0x20\n      add\n      swap2\n      jump(tag_107)\n    tag_108:\n      dup3\n      add\n      swap2\n      swap1\n      0x00\n      mstore\n      keccak256(0x00, 0x20)\n      swap1\n    tag_109:\n      dup2\n      sload\n      dup2\n      mstore\n      swap1\n      0x01\n      add\n      swap1\n      0x20\n      add\n      dup1\n      dup4\n      gt\n      tag_109\n      jumpi\n      dup3\n      swap1\n      sub\n      0x1f\n      and\n      dup3\n      add\n      swap2\n    tag_107:\n      pop\n      pop\n      pop\n      pop\n      pop\n      swap1\n      pop\n        /* \"evs.sol\":1716:1891  function getCandidateName(uint index) public view returns (string memory)... */\n      swap2\n      swap1\n      pop\n      jump\t// out\n        /* \"#utility.yul\":88:205   */\n    tag_111:\n        /* \"#utility.yul\":197:198   */\n      0x00\n        /* \"#utility.yul\":194:195   */\n      dup1\n        /* \"#utility.yul\":187:199   */\n      revert\n        /* \"#utility.yul\":334:411   */\n    tag_113:\n        /* \"#utility.yul\":371:378   */\n      0x00\n        /* \"#utility.yul\":400:405   */\n      dup2\n        /* \"#utility.yul\":389:405   */\n      swap1\n      pop\n        /* \"#utility.yul\":334:411   */\n      swap2\n      swap1\n      pop\n      jump\t// out\n        /* \"#utility.yul\":417:539   */\n    tag_114:\n        /* \"#utility.yul\":490:514   */\n      tag_137\n        /* \"#utility.yul\":508:513   */\n      dup2\n        /* \"#utility.yul\":490:514   */\n      tag_113\n      jump\t// in\n    tag_137:\n        /* \"#utility.yul\":483:488   */\n      dup2\n        /* \"#utility.yul\":480:515   */\n      eq\n        /* \"#utility.yul\":470:533   */\n      tag_138\n      jumpi\n        /* \"#utility.yul\":529:530   */\n      0x00\n        /* \"#utility.yul\":526:527   */\n      dup1\n        /* \"#utility.yul\":519:531   */\n      revert\n        /* \"#utility.yul\":470:533   */\n    tag_138:\n        /* \"#utility.yul\":417:539   */\n      pop\n      jump\t// out\n        /* \"#utility.yul\":545:684   */\n    tag_115:\n        /* \"#utility.yul\":591:596   */\n      0x00\n        /* \"#utility.yul\":629:635   */\n      dup2\n        /* \"#utility.yul\":616:636   */\n      calldataload\n        /* \"#utility.yul\":607:636   */\n      swap1\n      pop\n        /* \"#utility.yul\":645:678   */\n      tag_140\n        /* \"#utility.yul\":672:677   */\n      dup2\n        /* \"#utility.yul\":645:678   */\n      tag_114\n      jump\t// in\n    tag_140:\n        /* \"#utility.yul\":545:684   */\n      swap3\n      swap2\n      pop\n      pop\n      jump\t// out\n        /* \"#utility.yul\":690:1019   */\n    tag_14:\n        /* \"#utility.yul\":749:755   */\n      0x00\n        /* \"#utility.yul\":798:800   */\n      0x20\n        /* \"#utility.yul\":786:795   */\n      dup3\n        /* \"#utility.yul\":777:784   */\n      dup5\n        /* \"#utility.yul\":773:796   */\n      sub\n        /* \"#utility.yul\":769:801   */\n      slt\n        /* \"#utility.yul\":766:885   */\n      iszero\n      tag_142\n      jumpi\n        /* \"#utility.yul\":804:883   */\n      tag_143\n      tag_111\n      jump\t// in\n    tag_143:\n        /* \"#utility.yul\":766:885   */\n    tag_142:\n        /* \"#utility.yul\":924:925   */\n      0x00\n        /* \"#utility.yul\":949:1002   */\n      tag_144\n        /* \"#utility.yul\":994:1001   */\n      dup5\n        /* \"#utility.yul\":985:991   */\n      dup3\n        /* \"#utility.yul\":974:983   */\n      dup6\n        /* \"#utility.yul\":970:992   */\n      add\n        /* \"#utility.yul\":949:1002   */\n      tag_115\n      jump\t// in\n    tag_144:\n        /* \"#utility.yul\":939:1002   */\n      swap2\n      pop\n        /* \"#utility.yul\":895:1012   */\n      pop\n        /* \"#utility.yul\":690:1019   */\n      swap3\n      swap2\n      pop\n      pop\n      jump\t// out\n        /* \"#utility.yul\":1025:1124   */\n    tag_116:\n        /* \"#utility.yul\":1077:1083   */\n      0x00\n        /* \"#utility.yul\":1111:1116   */\n      dup2\n        /* \"#utility.yul\":1105:1117   */\n      mload\n        /* \"#utility.yul\":1095:1117   */\n      swap1\n      pop\n        /* \"#utility.yul\":1025:1124   */\n      swap2\n      swap1\n      pop\n      jump\t// out\n        /* \"#utility.yul\":1130:1299   */\n    tag_117:\n        /* \"#utility.yul\":1214:1225   */\n      0x00\n        /* \"#utility.yul\":1248:1254   */\n      dup3\n        /* \"#utility.yul\":1243:1246   */\n      dup3\n        /* \"#utility.yul\":1236:1255   */\n      mstore\n        /* \"#utility.yul\":1288:1292   */\n      0x20\n        /* \"#utility.yul\":1283:1286   */\n      dup3\n        /* \"#utility.yul\":1279:1293   */\n      add\n        /* \"#utility.yul\":1264:1293   */\n      swap1\n      pop\n        /* \"#utility.yul\":1130:1299   */\n      swap3\n      swap2\n      pop\n      pop\n      jump\t// out\n        /* \"#utility.yul\":1305:1444   */\n    tag_118:\n        /* \"#utility.yul\":1394:1400   */\n      dup3\n        /* \"#utility.yul\":1389:1392   */\n      dup2\n        /* \"#utility.yul\":1384:1387   */\n      dup4\n        /* \"#utility.yul\":1378:1401   */\n      mcopy\n        /* \"#utility.yul\":1435:1436   */\n      0x00\n        /* \"#utility.yul\":1426:1432   */\n      dup4\n        /* \"#utility.yul\":1421:1424   */\n      dup4\n        /* \"#utility.yul\":1417:1433   */\n      add\n        /* \"#utility.yul\":1410:1437   */\n      mstore\n        /* \"#utility.yul\":1305:1444   */\n      pop\n      pop\n      pop\n      jump\t// out\n        /* \"#utility.yul\":1450:1552   */\n    tag_119:\n        /* \"#utility.yul\":1491:1497   */\n      0x00\n        /* \"#utility.yul\":1542:1544   */\n      0x1f\n        /* \"#utility.yul\":1538:1545   */\n      not\n        /* \"#utility.yul\":1533:1535   */\n      0x1f\n        /* \"#utility.yul\":1526:1531   */\n      dup4\n        /* \"#utility.yul\":1522:1536   */\n      add\n        /* \"#utility.yul\":1518:1546   */\n      and\n        /* \"#utility.yul\":1508:1546   */\n      swap1\n      pop\n        /* \"#utility.yul\":1450:1552   */\n      swap2\n      swap1\n      pop\n      jump\t// out\n        /* \"#utility.yul\":1558:1935   */\n    tag_120:\n        /* \"#utility.yul\":1646:1649   */\n      0x00\n        /* \"#utility.yul\":1674:1713   */\n      tag_150\n        /* \"#utility.yul\":1707:1712   */\n      dup3\n        /* \"#utility.yul\":1674:1713   */\n      tag_116\n      jump\t// in\n    tag_150:\n        /* \"#utility.yul\":1729:1800   */\n      tag_151\n        /* \"#utility.yul\":1793:1799   */\n      dup2\n        /* \"#utility.yul\":1788:1791   */\n      dup6\n        /* \"#utility.yul\":1729:1800   */\n      tag_117\n      jump\t// in\n    tag_151:\n        /* \"#utility.yul\":1722:1800   */\n      swap4\n      pop\n        /* \"#utility.yul\":1809:1874   */\n      tag_152\n        /* \"#utility.yul\":1867:1873   */\n      dup2\n        /* \"#utility.yul\":1862:1865   */\n      dup6\n        /* \"#utility.yul\":1855:1859   */\n      0x20\n        /* \"#utility.yul\":1848:1853   */\n      dup7\n        /* \"#utility.yul\":1844:1860   */\n      add\n        /* \"#utility.yul\":1809:1874   */\n      tag_118\n      jump\t// in\n    tag_152:\n        /* \"#utility.yul\":1899:1928   */\n      tag_153\n        /* \"#utility.yul\":1921:1927   */\n      dup2\n        /* \"#utility.yul\":1899:1928   */\n      tag_119\n      jump\t// in\n    tag_153:\n        /* \"#utility.yul\":1894:1897   */\n      dup5\n        /* \"#utility.yul\":1890:1929   */\n      add\n        /* \"#utility.yul\":1883:1929   */\n      swap2\n      pop\n        /* \"#utility.yul\":1650:1935   */\n      pop\n        /* \"#utility.yul\":1558:1935   */\n      swap3\n      swap2\n      pop\n      pop\n      jump\t// out\n        /* \"#utility.yul\":1941:2059   */\n    tag_121:\n        /* \"#utility.yul\":2028:2052   */\n      tag_155\n        /* \"#utility.yul\":2046:2051   */\n      dup2\n        /* \"#utility.yul\":2028:2052   */\n      tag_113\n      jump\t// in\n    tag_155:\n        /* \"#utility.yul\":2023:2026   */\n      dup3\n        /* \"#utility.yul\":2016:2053   */\n      mstore\n        /* \"#utility.yul\":1941:2059   */\n      pop\n      pop\n      jump\t// out\n        /* \"#utility.yul\":2065:2911   */\n    tag_20:\n        /* \"#utility.yul\":2310:2314   */\n      0x00\n        /* \"#utility.yul\":2348:2351   */\n      0xa0\n        /* \"#utility.yul\":2337:2346   */\n      dup3\n        /* \"#utility.yul\":2333:2352   */\n      add\n        /* \"#utility.yul\":2325:2352   */\n      swap1\n      pop\n        /* \"#utility.yul\":2398:2407   */\n      dup2\n        /* \"#utility.yul\":2392:2396   */\n      dup2\n        /* \"#utility.yul\":2388:2408   */\n      sub\n        /* \"#utility.yul\":2384:2385   */\n      0x00\n        /* \"#utility.yul\":2373:2382   */\n      dup4\n        /* \"#utility.yul\":2369:2386   */\n      add\n        /* \"#utility.yul\":2362:2409   */\n      mstore\n        /* \"#utility.yul\":2426:2504   */\n      tag_157\n        /* \"#utility.yul\":2499:2503   */\n      dup2\n        /* \"#utility.yul\":2490:2496   */\n      dup9\n        /* \"#utility.yul\":2426:2504   */\n      tag_120\n      jump\t// in\n    tag_157:\n        /* \"#utility.yul\":2418:2504   */\n      swap1\n      pop\n        /* \"#utility.yul\":2551:2560   */\n      dup2\n        /* \"#utility.yul\":2545:2549   */\n      dup2\n        /* \"#utility.yul\":2541:2561   */\n      sub\n        /* \"#utility.yul\":2536:2538   */\n      0x20\n        /* \"#utility.yul\":2525:2534   */\n      dup4\n        /* \"#utility.yul\":2521:2539   */\n      add\n        /* \"#utility.yul\":2514:2562   */\n      mstore\n        /* \"#utility.yul\":2579:2657   */\n      tag_158\n        /* \"#utility.yul\":2652:2656   */\n      dup2\n        /* \"#utility.yul\":2643:2649   */\n      dup8\n        /* \"#utility.yul\":2579:2657   */\n      tag_120\n      jump\t// in\n    tag_158:\n        /* \"#utility.yul\":2571:2657   */\n      swap1\n      pop\n        /* \"#utility.yul\":2667:2739   */\n      tag_159\n        /* \"#utility.yul\":2735:2737   */\n      0x40\n        /* \"#utility.yul\":2724:2733   */\n      dup4\n        /* \"#utility.yul\":2720:2738   */\n      add\n        /* \"#utility.yul\":2711:2717   */\n      dup7\n        /* \"#utility.yul\":2667:2739   */\n      tag_121\n      jump\t// in\n    tag_159:\n        /* \"#utility.yul\":2749:2821   */\n      tag_160\n        /* \"#utility.yul\":2817:2819   */\n      0x60\n        /* \"#utility.yul\":2806:2815   */\n      dup4\n        /* \"#utility.yul\":2802:2820   */\n      add\n        /* \"#utility.yul\":2793:2799   */\n      dup6\n        /* \"#utility.yul\":2749:2821   */\n      tag_121\n      jump\t// in\n    tag_160:\n        /* \"#utility.yul\":2831:2904   */\n      tag_161\n        /* \"#utility.yul\":2899:2902   */\n      0x80\n        /* \"#utility.yul\":2888:2897   */\n      dup4\n        /* \"#utility.yul\":2884:2903   */\n      add\n        /* \"#utility.yul\":2875:2881   */\n      dup5\n        /* \"#utility.yul\":2831:2904   */\n      tag_121\n      jump\t// in\n    tag_161:\n        /* \"#utility.yul\":2065:2911   */\n      swap7\n      swap6\n      pop\n      pop\n      pop\n      pop\n      pop\n      pop\n      jump\t// out\n        /* \"#utility.yul\":2917:3230   */\n    tag_25:\n        /* \"#utility.yul\":3030:3034   */\n      0x00\n        /* \"#utility.yul\":3068:3070   */\n      0x20\n        /* \"#utility.yul\":3057:3066   */\n      dup3\n        /* \"#utility.yul\":3053:3071   */\n      add\n        /* \"#utility.yul\":3045:3071   */\n      swap1\n      pop\n        /* \"#utility.yul\":3117:3126   */\n      dup2\n        /* \"#utility.yul\":3111:3115   */\n      dup2\n        /* \"#utility.yul\":3107:3127   */\n      sub\n        /* \"#utility.yul\":3103:3104   */\n      0x00\n        /* \"#utility.yul\":3092:3101   */\n      dup4\n        /* \"#utility.yul\":3088:3105   */\n      add\n        /* \"#utility.yul\":3081:3128   */\n      mstore\n        /* \"#utility.yul\":3145:3223   */\n      tag_163\n        /* \"#utility.yul\":3218:3222   */\n      dup2\n        /* \"#utility.yul\":3209:3215   */\n      dup5\n        /* \"#utility.yul\":3145:3223   */\n      tag_120\n      jump\t// in\n    tag_163:\n        /* \"#utility.yul\":3137:3223   */\n      swap1\n      pop\n        /* \"#utility.yul\":2917:3230   */\n      swap3\n      swap2\n      pop\n      pop\n      jump\t// out\n        /* \"#utility.yul\":3236:3362   */\n    tag_122:\n        /* \"#utility.yul\":3273:3280   */\n      0x00\n        /* \"#utility.yul\":3313:3355   */\n      0xffffffffffffffffffffffffffffffffffffffff\n        /* \"#utility.yul\":3306:3311   */\n      dup3\n        /* \"#utility.yul\":3302:3356   */\n      and\n        /* \"#utility.yul\":3291:3356   */\n      swap1\n      pop\n        /* \"#utility.yul\":3236:3362   */\n      swap2\n      swap1\n      pop\n      jump\t// out\n        /* \"#utility.yul\":3368:3464   */\n    tag_123:\n        /* \"#utility.yul\":3405:3412   */\n      0x00\n        /* \"#utility.yul\":3434:3458   */\n      tag_166\n        /* \"#utility.yul\":3452:3457   */\n      dup3\n        /* \"#utility.yul\":3434:3458   */\n      tag_122\n      jump\t// in\n    tag_166:\n        /* \"#utility.yul\":3423:3458   */\n      swap1\n      pop\n        /* \"#utility.yul\":3368:3464   */\n      swap2\n      swap1\n      pop\n      jump\t// out\n        /* \"#utility.yul\":3470:3588   */\n    tag_124:\n        /* \"#utility.yul\":3557:3581   */\n      tag_168\n        /* \"#utility.yul\":3575:3580   */\n      dup2\n        /* \"#utility.yul\":3557:3581   */\n      tag_123\n      jump\t// in\n    tag_168:\n        /* \"#utility.yul\":3552:3555   */\n      dup3\n        /* \"#utility.yul\":3545:3582   */\n      mstore\n        /* \"#utility.yul\":3470:3588   */\n      pop\n      pop\n      jump\t// out\n        /* \"#utility.yul\":3594:3816   */\n    tag_29:\n        /* \"#utility.yul\":3687:3691   */\n      0x00\n        /* \"#utility.yul\":3725:3727   */\n      0x20\n        /* \"#utility.yul\":3714:3723   */\n      dup3\n        /* \"#utility.yul\":3710:3728   */\n      add\n        /* \"#utility.yul\":3702:3728   */\n      swap1\n      pop\n        /* \"#utility.yul\":3738:3809   */\n      tag_170\n        /* \"#utility.yul\":3806:3807   */\n      0x00\n        /* \"#utility.yul\":3795:3804   */\n      dup4\n        /* \"#utility.yul\":3791:3808   */\n      add\n        /* \"#utility.yul\":3782:3788   */\n      dup5\n        /* \"#utility.yul\":3738:3809   */\n      tag_124\n      jump\t// in\n    tag_170:\n        /* \"#utility.yul\":3594:3816   */\n      swap3\n      swap2\n      pop\n      pop\n      jump\t// out\n        /* \"#utility.yul\":3822:3944   */\n    tag_125:\n        /* \"#utility.yul\":3895:3919   */\n      tag_172\n        /* \"#utility.yul\":3913:3918   */\n      dup2\n        /* \"#utility.yul\":3895:3919   */\n      tag_123\n      jump\t// in\n    tag_172:\n        /* \"#utility.yul\":3888:3893   */\n      dup2\n        /* \"#utility.yul\":3885:3920   */\n      eq\n        /* \"#utility.yul\":3875:3938   */\n      tag_173\n      jumpi\n        /* \"#utility.yul\":3934:3935   */\n      0x00\n        /* \"#utility.yul\":3931:3932   */\n      dup1\n        /* \"#utility.yul\":3924:3936   */\n      revert\n        /* \"#utility.yul\":3875:3938   */\n    tag_173:\n        /* \"#utility.yul\":3822:3944   */\n      pop\n      jump\t// out\n        /* \"#utility.yul\":3950:4089   */\n    tag_126:\n        /* \"#utility.yul\":3996:4001   */\n      0x00\n        /* \"#utility.yul\":4034:4040   */\n      dup2\n        /* \"#utility.yul\":4021:4041   */\n      calldataload\n        /* \"#utility.yul\":4012:4041   */\n      swap1\n      pop\n        /* \"#utility.yul\":4050:4083   */\n      tag_175\n        /* \"#utility.yul\":4077:4082   */\n      dup2\n        /* \"#utility.yul\":4050:4083   */\n      tag_125\n      jump\t// in\n    tag_175:\n        /* \"#utility.yul\":3950:4089   */\n      swap3\n      swap2\n      pop\n      pop\n      jump\t// out\n        /* \"#utility.yul\":4095:4424   */\n    tag_35:\n        /* \"#utility.yul\":4154:4160   */\n      0x00\n        /* \"#utility.yul\":4203:4205   */\n      0x20\n        /* \"#utility.yul\":4191:4200   */\n      dup3\n        /* \"#utility.yul\":4182:4189   */\n      dup5\n        /* \"#utility.yul\":4178:4201   */\n      sub\n        /* \"#utility.yul\":4174:4206   */\n      slt\n        /* \"#utility.yul\":4171:4290   */\n      iszero\n      tag_177\n      jumpi\n        /* \"#utility.yul\":4209:4288   */\n      tag_178\n      tag_111\n      jump\t// in\n    tag_178:\n        /* \"#utility.yul\":4171:4290   */\n    tag_177:\n        /* \"#utility.yul\":4329:4330   */\n      0x00\n        /* \"#utility.yul\":4354:4407   */\n      tag_179\n        /* \"#utility.yul\":4399:4406   */\n      dup5\n        /* \"#utility.yul\":4390:4396   */\n      dup3\n        /* \"#utility.yul\":4379:4388   */\n      dup6\n        /* \"#utility.yul\":4375:4397   */\n      add\n        /* \"#utility.yul\":4354:4407   */\n      tag_126\n      jump\t// in\n    tag_179:\n        /* \"#utility.yul\":4344:4407   */\n      swap2\n      pop\n        /* \"#utility.yul\":4300:4417   */\n      pop\n        /* \"#utility.yul\":4095:4424   */\n      swap3\n      swap2\n      pop\n      pop\n      jump\t// out\n        /* \"#utility.yul\":4430:4520   */\n    tag_127:\n        /* \"#utility.yul\":4464:4471   */\n      0x00\n        /* \"#utility.yul\":4507:4512   */\n      dup2\n        /* \"#utility.yul\":4500:4513   */\n      iszero\n        /* \"#utility.yul\":4493:4514   */\n      iszero\n        /* \"#utility.yul\":4482:4514   */\n      swap1\n      pop\n        /* \"#utility.yul\":4430:4520   */\n      swap2\n      swap1\n      pop\n      jump\t// out\n        /* \"#utility.yul\":4526:4635   */\n    tag_128:\n        /* \"#utility.yul\":4607:4628   */\n      tag_182\n        /* \"#utility.yul\":4622:4627   */\n      dup2\n        /* \"#utility.yul\":4607:4628   */\n      tag_127\n      jump\t// in\n    tag_182:\n        /* \"#utility.yul\":4602:4605   */\n      dup3\n        /* \"#utility.yul\":4595:4629   */\n      mstore\n        /* \"#utility.yul\":4526:4635   */\n      pop\n      pop\n      jump\t// out\n        /* \"#utility.yul\":4641:4851   */\n    tag_38:\n        /* \"#utility.yul\":4728:4732   */\n      0x00\n        /* \"#utility.yul\":4766:4768   */\n      0x20\n        /* \"#utility.yul\":4755:4764   */\n      dup3\n        /* \"#utility.yul\":4751:4769   */\n      add\n        /* \"#utility.yul\":4743:4769   */\n      swap1\n      pop\n        /* \"#utility.yul\":4779:4844   */\n      tag_184\n        /* \"#utility.yul\":4841:4842   */\n      0x00\n        /* \"#utility.yul\":4830:4839   */\n      dup4\n        /* \"#utility.yul\":4826:4843   */\n      add\n        /* \"#utility.yul\":4817:4823   */\n      dup5\n        /* \"#utility.yul\":4779:4844   */\n      tag_128\n      jump\t// in\n    tag_184:\n        /* \"#utility.yul\":4641:4851   */\n      swap3\n      swap2\n      pop\n      pop\n      jump\t// out\n        /* \"#utility.yul\":4857:5079   */\n    tag_43:\n        /* \"#utility.yul\":4950:4954   */\n      0x00\n        /* \"#utility.yul\":4988:4990   */\n      0x20\n        /* \"#utility.yul\":4977:4986   */\n      dup3\n        /* \"#utility.yul\":4973:4991   */\n      add\n        /* \"#utility.yul\":4965:4991   */\n      swap1\n      pop\n        /* \"#utility.yul\":5001:5072   */\n      tag_186\n        /* \"#utility.yul\":5069:5070   */\n      0x00\n        /* \"#utility.yul\":5058:5067   */\n      dup4\n        /* \"#utility.yul\":5054:5071   */\n      add\n        /* \"#utility.yul\":5045:5051   */\n      dup5\n        /* \"#utility.yul\":5001:5072   */\n      tag_121\n      jump\t// in\n    tag_186:\n        /* \"#utility.yul\":4857:5079   */\n      swap3\n      swap2\n      pop\n      pop\n      jump\t// out\n        /* \"#utility.yul\":5085:5265   */\n    tag_52:\n        /* \"#utility.yul\":5133:5210   */\n      0x4e487b7100000000000000000000000000000000000000000000000000000000\n        /* \"#utility.yul\":5130:5131   */\n      0x00\n        /* \"#utility.yul\":5123:5211   */\n      mstore\n        /* \"#utility.yul\":5230:5234   */\n      0x32\n        /* \"#utility.yul\":5227:5228   */\n      0x04\n        /* \"#utility.yul\":5220:5235   */\n      mstore\n        /* \"#utility.yul\":5254:5258   */\n      0x24\n        /* \"#utility.yul\":5251:5252   */\n      0x00\n        /* \"#utility.yul\":5244:5259   */\n      revert\n        /* \"#utility.yul\":5271:5451   */\n    tag_129:\n        /* \"#utility.yul\":5319:5396   */\n      0x4e487b7100000000000000000000000000000000000000000000000000000000\n        /* \"#utility.yul\":5316:5317   */\n      0x00\n        /* \"#utility.yul\":5309:5397   */\n      mstore\n        /* \"#utility.yul\":5416:5420   */\n      0x11\n        /* \"#utility.yul\":5413:5414   */\n      0x04\n        /* \"#utility.yul\":5406:5421   */\n      mstore\n        /* \"#utility.yul\":5440:5444   */\n      0x24\n        /* \"#utility.yul\":5437:5438   */\n      0x00\n        /* \"#utility.yul\":5430:5445   */\n      revert\n        /* \"#utility.yul\":5457:5648   */\n    tag_55:\n        /* \"#utility.yul\":5497:5500   */\n      0x00\n        /* \"#utility.yul\":5516:5536   */\n      tag_190\n        /* \"#utility.yul\":5534:5535   */\n      dup3\n        /* \"#utility.yul\":5516:5536   */\n      tag_113\n      jump\t// in\n    tag_190:\n        /* \"#utility.yul\":5511:5536   */\n      swap2\n      pop\n        /* \"#utility.yul\":5550:5570   */\n      tag_191\n        /* \"#utility.yul\":5568:5569   */\n      dup4\n        /* \"#utility.yul\":5550:5570   */\n      tag_113\n      jump\t// in\n    tag_191:\n        /* \"#utility.yul\":5545:5570   */\n      swap3\n      pop\n        /* \"#utility.yul\":5593:5594   */\n      dup3\n        /* \"#utility.yul\":5590:5591   */\n      dup3\n        /* \"#utility.yul\":5586:5595   */\n      add\n        /* \"#utility.yul\":5579:5595   */\n      swap1\n      pop\n        /* \"#utility.yul\":5614:5617   */\n      dup1\n        /* \"#utility.yul\":5611:5612   */\n      dup3\n        /* \"#utility.yul\":5608:5618   */\n      gt\n        /* \"#utility.yul\":5605:5641   */\n      iszero\n      tag_192\n      jumpi\n        /* \"#utility.yul\":5621:5639   */\n      tag_193\n      tag_129\n      jump\t// in\n    tag_193:\n        /* \"#utility.yul\":5605:5641   */\n    tag_192:\n        /* \"#utility.yul\":5457:5648   */\n      swap3\n      swap2\n      pop\n      pop\n      jump\t// out\n        /* \"#utility.yul\":5654:5834   */\n    tag_130:\n        /* \"#utility.yul\":5702:5779   */\n      0x4e487b7100000000000000000000000000000000000000000000000000000000\n        /* \"#utility.yul\":5699:5700   */\n      0x00\n        /* \"#utility.yul\":5692:5780   */\n      mstore\n        /* \"#utility.yul\":5799:5803   */\n      0x22\n        /* \"#utility.yul\":5796:5797   */\n      0x04\n        /* \"#utility.yul\":5789:5804   */\n      mstore\n        /* \"#utility.yul\":5823:5827   */\n      0x24\n        /* \"#utility.yul\":5820:5821   */\n      0x00\n        /* \"#utility.yul\":5813:5828   */\n      revert\n        /* \"#utility.yul\":5840:6160   */\n    tag_59:\n        /* \"#utility.yul\":5884:5890   */\n      0x00\n        /* \"#utility.yul\":5921:5922   */\n      0x02\n        /* \"#utility.yul\":5915:5919   */\n      dup3\n        /* \"#utility.yul\":5911:5923   */\n      div\n        /* \"#utility.yul\":5901:5923   */\n      swap1\n      pop\n        /* \"#utility.yul\":5968:5969   */\n      0x01\n        /* \"#utility.yul\":5962:5966   */\n      dup3\n        /* \"#utility.yul\":5958:5970   */\n      and\n        /* \"#utility.yul\":5989:6007   */\n      dup1\n        /* \"#utility.yul\":5979:6060   */\n      tag_196\n      jumpi\n        /* \"#utility.yul\":6045:6049   */\n      0x7f\n        /* \"#utility.yul\":6037:6043   */\n      dup3\n        /* \"#utility.yul\":6033:6050   */\n      and\n        /* \"#utility.yul\":6023:6050   */\n      swap2\n      pop\n        /* \"#utility.yul\":5979:6060   */\n    tag_196:\n        /* \"#utility.yul\":6107:6109   */\n      0x20\n        /* \"#utility.yul\":6099:6105   */\n      dup3\n        /* \"#utility.yul\":6096:6110   */\n      lt\n        /* \"#utility.yul\":6076:6094   */\n      dup2\n        /* \"#utility.yul\":6073:6111   */\n      sub\n        /* \"#utility.yul\":6070:6154   */\n      tag_197\n      jumpi\n        /* \"#utility.yul\":6126:6144   */\n      tag_198\n      tag_130\n      jump\t// in\n    tag_198:\n        /* \"#utility.yul\":6070:6154   */\n    tag_197:\n        /* \"#utility.yul\":5891:6160   */\n      pop\n        /* \"#utility.yul\":5840:6160   */\n      swap2\n      swap1\n      pop\n      jump\t// out\n\n    auxdata: 0xa2646970667358221220c796d0793729efaa3581c6851f390dc385bd1ea09f5eb1361d627dbd859d8ff764736f6c63430008190033\n}\n","bytecode":{"linkReferences":{},"object":"608060405234801561000f575f80fd5b5060405161132938038061132983398181016040528101906100319190610437565b8160015f6101000a81548173ffffffffffffffffffffffffffffffffffffffff021916908373ffffffffffffffffffffffffffffffffffffffff16021790555082600290816100809190610706565b505f5b8551811015610170575f6040518060a001604052808884815181106100ab576100aa6107d5565b5b602002602001015181526020018784815181106100cb576100ca6107d5565b5b602002602001015181526020015f815260200142815260200184426100f0919061082f565b815250908060018154018082558091505060019003905f5260205f2090600502015f909190919091505f820151815f01908161012c9190610706565b5060208201518160010190816101429190610706565b5060408201518160020155606082015181600301556080820151816004015550508080600101915050610083565b505050505050610862565b5f604051905090565b5f80fd5b5f80fd5b5f80fd5b5f601f19601f8301169050919050565b7f4e487b71000000000000000000000000000000000000000000000000000000005f52604160045260245ffd5b6101d682610190565b810181811067ffffffffffffffff821117156101f5576101f46101a0565b5b80604052505050565b5f61020761017b565b905061021382826101cd565b919050565b5f67ffffffffffffffff821115610232576102316101a0565b5b602082029050602081019050919050565b5f80fd5b5f80fd5b5f67ffffffffffffffff821115610265576102646101a0565b5b61026e82610190565b9050602081019050919050565b8281835e5f83830152505050565b5f61029b6102968461024b565b6101fe565b9050828152602081018484840111156102b7576102b6610247565b5b6102c284828561027b565b509392505050565b5f82601f8301126102de576102dd61018c565b5b81516102ee848260208601610289565b91505092915050565b5f61030961030484610218565b6101fe565b9050808382526020820190506020840283018581111561032c5761032b610243565b5b835b8181101561037357805167ffffffffffffffff8111156103515761035061018c565b5b80860161035e89826102ca565b8552602085019450505060208101905061032e565b5050509392505050565b5f82601f8301126103915761039061018c565b5b81516103a18482602086016102f7565b91505092915050565b5f73ffffffffffffffffffffffffffffffffffffffff82169050919050565b5f6103d3826103aa565b9050919050565b6103e3816103c9565b81146103ed575f80fd5b50565b5f815190506103fe816103da565b92915050565b5f819050919050565b61041681610404565b8114610420575f80fd5b50565b5f815190506104318161040d565b92915050565b5f805f805f60a086880312156104505761044f610184565b5b5f86015167ffffffffffffffff81111561046d5761046c610188565b5b6104798882890161037d565b955050602086015167ffffffffffffffff81111561049a57610499610188565b5b6104a68882890161037d565b945050604086015167ffffffffffffffff8111156104c7576104c6610188565b5b6104d3888289016102ca565b93505060606104e4888289016103f0565b92505060806104f588828901610423565b9150509295509295909350565b5f81519050919050565b7f4e487b71000000000000000000000000000000000000000000000000000000005f52602260045260245ffd5b5f600282049050600182168061055057607f821691505b6020821081036105635761056261050c565b5b50919050565b5f819050815f5260205f209050919050565b5f6020601f8301049050919050565b5f82821b905092915050565b5f600883026105c57fffffffffffffffffffffffffffffffffffffffffffffffffffffffffffffffff8261058a565b6105cf868361058a565b95508019841693508086168417925050509392505050565b5f819050919050565b5f61060a61060561060084610404565b6105e7565b610404565b9050919050565b5f819050919050565b610623836105f0565b61063761062f82610611565b848454610596565b825550505050565b5f90565b61064b61063f565b61065681848461061a565b505050565b5b818110156106795761066e5f82610643565b60018101905061065c565b5050565b601f8211156106be5761068f81610569565b6106988461057b565b810160208510156106a7578190505b6106bb6106b38561057b565b83018261065b565b50505b505050565b5f82821c905092915050565b5f6106de5f19846008026106c3565b1980831691505092915050565b5f6106f683836106cf565b9150826002028217905092915050565b61070f82610502565b67ffffffffffffffff811115610728576107276101a0565b5b6107328254610539565b61073d82828561067d565b5f60209050601f83116001811461076e575f841561075c578287015190505b61076685826106eb565b8655506107cd565b601f19841661077c86610569565b5f5b828110156107a35784890151825560018201915060208501945060208101905061077e565b868310156107c057848901516107bc601f8916826106cf565b8355505b6001600288020188555050505b505050505050565b7f4e487b71000000000000000000000000000000000000000000000000000000005f52603260045260245ffd5b7f4e487b71000000000000000000000000000000000000000000000000000000005f52601160045260245ffd5b5f61083982610404565b915061084483610404565b925082820190508082111561085c5761085b610802565b5b92915050565b610aba8061086f5f395ff3fe608060405234801561000f575f80fd5b5060043610610086575f3560e01c8063716c424e11610059578063716c424e14610128578063a3ec138d14610146578063b2c2f2e814610176578063e13804a7146101a657610086565b80630121b93f1461008a5780633477ee2e146100a6578063456645a7146100da578063481c6a751461010a575b5f80fd5b6100a4600480360381019061009f9190610778565b6101d6565b005b6100c060048036038101906100bb9190610778565b6102ba565b6040516100d1959493929190610822565b60405180910390f35b6100f460048036038101906100ef9190610778565b610406565b6040516101019190610881565b60405180910390f35b6101126104e5565b60405161011f91906108e0565b60405180910390f35b61013061050a565b60405161013d9190610881565b60405180910390f35b610160600480360381019061015b9190610923565b610596565b60405161016d9190610968565b60405180910390f35b610190600480360381019061018b9190610778565b6105b3565b60405161019d9190610981565b60405180910390f35b6101c060048036038101906101bb9190610778565b610663565b6040516101cd9190610881565b60405180910390f35b60035f3373ffffffffffffffffffffffffffffffffffffffff1673ffffffffffffffffffffffffffffffffffffffff1681526020019081526020015f205f9054906101000a900460ff1615610229575f80fd5b60015f828154811061023e5761023d61099a565b5b905f5260205f2090600502016002015f82825461025b91906109f4565b92505081905550600160035f3373ffffffffffffffffffffffffffffffffffffffff1673ffffffffffffffffffffffffffffffffffffffff1681526020019081526020015f205f6101000a81548160ff02191690831515021790555050565b5f81815481106102c8575f80fd5b905f5260205f2090600502015f91509050805f0180546102e790610a54565b80601f016020809104026020016040519081016040528092919081815260200182805461031390610a54565b801561035e5780601f106103355761010080835404028352916020019161035e565b820191905f5260205f20905b81548152906001019060200180831161034157829003601f168201915b50505050509080600101805461037390610a54565b80601f016020809104026020016040519081016040528092919081815260200182805461039f90610a54565b80156103ea5780601f106103c1576101008083540402835291602001916103ea565b820191905f5260205f20905b8154815290600101906020018083116103cd57829003601f168201915b5050505050908060020154908060030154908060040154905085565b60605f828154811061041b5761041a61099a565b5b905f5260205f209060050201600401544211610435575f80fd5b5f82815481106104485761044761099a565b5b905f5260205f209060050201600101805461046290610a54565b80601f016020809104026020016040519081016040528092919081815260200182805461048e90610a54565b80156104d95780601f106104b0576101008083540402835291602001916104d9565b820191905f5260205f20905b8154815290600101906020018083116104bc57829003601f168201915b50505050509050919050565b60015f9054906101000a900473ffffffffffffffffffffffffffffffffffffffff1681565b6002805461051790610a54565b80601f016020809104026020016040519081016040528092919081815260200182805461054390610a54565b801561058e5780601f106105655761010080835404028352916020019161058e565b820191905f5260205f20905b81548152906001019060200180831161057157829003601f168201915b505050505081565b6003602052805f5260405f205f915054906101000a900460ff1681565b5f60015f9054906101000a900473ffffffffffffffffffffffffffffffffffffffff1673ffffffffffffffffffffffffffffffffffffffff163373ffffffffffffffffffffffffffffffffffffffff161461060c575f80fd5b5f828154811061061f5761061e61099a565b5b905f5260205f209060050201600401544211610639575f80fd5b5f828154811061064c5761064b61099a565b5b905f5260205f209060050201600201549050919050565b60605f82815481106106785761067761099a565b5b905f5260205f209060050201600401544211610692575f80fd5b5f82815481106106a5576106a461099a565b5b905f5260205f2090600502015f0180546106be90610a54565b80601f01602080910402602001604051908101604052809291908181526020018280546106ea90610a54565b80156107355780601f1061070c57610100808354040283529160200191610735565b820191905f5260205f20905b81548152906001019060200180831161071857829003601f168201915b50505050509050919050565b5f80fd5b5f819050919050565b61075781610745565b8114610761575f80fd5b50565b5f813590506107728161074e565b92915050565b5f6020828403121561078d5761078c610741565b5b5f61079a84828501610764565b91505092915050565b5f81519050919050565b5f82825260208201905092915050565b8281835e5f83830152505050565b5f601f19601f8301169050919050565b5f6107e5826107a3565b6107ef81856107ad565b93506107ff8185602086016107bd565b610808816107cb565b840191505092915050565b61081c81610745565b82525050565b5f60a0820190508181035f83015261083a81886107db565b9050818103602083015261084e81876107db565b905061085d6040830186610813565b61086a6060830185610813565b6108776080830184610813565b9695505050505050565b5f6020820190508181035f83015261089981846107db565b905092915050565b5f73ffffffffffffffffffffffffffffffffffffffff82169050919050565b5f6108ca826108a1565b9050919050565b6108da816108c0565b82525050565b5f6020820190506108f35f8301846108d1565b92915050565b610902816108c0565b811461090c575f80fd5b50565b5f8135905061091d816108f9565b92915050565b5f6020828403121561093857610937610741565b5b5f6109458482850161090f565b91505092915050565b5f8115159050919050565b6109628161094e565b82525050565b5f60208201905061097b5f830184610959565b92915050565b5f6020820190506109945f830184610813565b92915050565b7f4e487b71000000000000000000000000000000000000000000000000000000005f52603260045260245ffd5b7f4e487b71000000000000000000000000000000000000000000000000000000005f52601160045260245ffd5b5f6109fe82610745565b9150610a0983610745565b9250828201905080821115610a2157610a206109c7565b5b92915050565b7f4e487b71000000000000000000000000000000000000000000000000000000005f52602260045260245ffd5b5f6002820490506001821680610a6b57607f821691505b602082108103610a7e57610a7d610a27565b5b5091905056fea2646970667358221220c796d0793729efaa3581c6851f390dc385bd1ea09f5eb1361d627dbd859d8ff764736f6c63430008190033","opcodes":"PUSH1 0x80 PUSH1 0x40 MSTORE CALLVALUE DUP1 ISZERO PUSH2 0xF JUMPI PUSH0 DUP1 REVERT JUMPDEST POP PUSH1 0x40 MLOAD PUSH2 0x1329 CODESIZE SUB DUP1 PUSH2 0x1329 DUP4 CODECOPY DUP2 DUP2 ADD PUSH1 0x40 MSTORE DUP2 ADD SWAP1 PUSH2 0x31 SWAP2 SWAP1 PUSH2 0x437 JUMP JUMPDEST DUP2 PUSH1 0x1 PUSH0 PUSH2 0x100 EXP DUP2 SLOAD DUP2 PUSH20 0xFFFFFFFFFFFFFFFFFFFFFFFFFFFFFFFFFFFFFFFF MUL NOT AND SWAP1 DUP4 PUSH20 0xFFFFFFFFFFFFFFFFFFFFFFFFFFFFFFFFFFFFFFFF AND MUL OR SWAP1 SSTORE POP DUP3 PUSH1 0x2 SWAP1 DUP2 PUSH2 0x80 SWAP2 SWAP1 PUSH2 0x706 JUMP JUMPDEST POP PUSH0 JUMPDEST DUP6 MLOAD DUP2 LT ISZERO PUSH2 0x170 JUMPI PUSH0 PUSH1 0x40 MLOAD DUP1 PUSH1 0xA0 ADD PUSH1 0x40 MSTORE DUP1 DUP9 DUP5 DUP2 MLOAD DUP2 LT PUSH2 0xAB JUMPI PUSH2 0xAA PUSH2 0x7D5 JUMP JUMPDEST JUMPDEST PUSH1 0x20 MUL PUSH1 0x20 ADD ADD MLOAD DUP2 MSTORE PUSH1 0x20 ADD DUP8 DUP5 DUP2 MLOAD DUP2 LT PUSH2 0xCB JUMPI PUSH2 0xCA PUSH2 0x7D5 JUMP JUMPDEST JUMPDEST PUSH1 0x20 MUL PUSH1 0x20 ADD ADD MLOAD DUP2 MSTORE PUSH1 0x20 ADD PUSH0 DUP2 MSTORE PUSH1 0x20 ADD TIMESTAMP DUP2 MSTORE PUSH1 0x20 ADD DUP5 TIMESTAMP PUSH2 0xF0 SWAP2 SWAP1 PUSH2 0x82F JUMP JUMPDEST DUP2 MSTORE POP SWAP1 DUP1 PUSH1 0x1 DUP2 SLOAD ADD DUP1 DUP3 SSTORE DUP1 SWAP2 POP POP PUSH1 0x1 SWAP1 SUB SWAP1 PUSH0 MSTORE PUSH1 0x20 PUSH0 KECCAK256 SWAP1 PUSH1 0x5 MUL ADD PUSH0 SWAP1 SWAP2 SWAP1 SWAP2 SWAP1 SWAP2 POP PUSH0 DUP3 ADD MLOAD DUP2 PUSH0 ADD SWAP1 DUP2 PUSH2 0x12C SWAP2 SWAP1 PUSH2 0x706 JUMP JUMPDEST POP PUSH1 0x20 DUP3 ADD MLOAD DUP2 PUSH1 0x1 ADD SWAP1 DUP2 PUSH2 0x142 SWAP2 SWAP1 PUSH2 0x706 JUMP JUMPDEST POP PUSH1 0x40 DUP3 ADD MLOAD DUP2 PUSH1 0x2 ADD SSTORE PUSH1 0x60 DUP3 ADD MLOAD DUP2 PUSH1 0x3 ADD SSTORE PUSH1 0x80 DUP3 ADD MLOAD DUP2 PUSH1 0x4 ADD SSTORE POP POP DUP1 DUP1 PUSH1 0x1 ADD SWAP2 POP POP PUSH2 0x83 JUMP JUMPDEST POP POP POP POP POP POP PUSH2 0x862 JUMP JUMPDEST PUSH0 PUSH1 0x40 MLOAD SWAP1 POP SWAP1 JUMP JUMPDEST PUSH0 DUP1 REVERT JUMPDEST PUSH0 DUP1 REVERT JUMPDEST PUSH0 DUP1 REVERT JUMPDEST PUSH0 PUSH1 0x1F NOT PUSH1 0x1F DUP4 ADD AND SWAP1 POP SWAP2 SWAP1 POP JUMP JUMPDEST PUSH32 0x4E487B7100000000000000000000000000000000000000000000000000000000 PUSH0 MSTORE PUSH1 0x41 PUSH1 0x4 MSTORE PUSH1 0x24 PUSH0 REVERT JUMPDEST PUSH2 0x1D6 DUP3 PUSH2 0x190 JUMP JUMPDEST DUP2 ADD DUP2 DUP2 LT PUSH8 0xFFFFFFFFFFFFFFFF DUP3 GT OR ISZERO PUSH2 0x1F5 JUMPI PUSH2 0x1F4 PUSH2 0x1A0 JUMP JUMPDEST JUMPDEST DUP1 PUSH1 0x40 MSTORE POP POP POP JUMP JUMPDEST PUSH0 PUSH2 0x207 PUSH2 0x17B JUMP JUMPDEST SWAP1 POP PUSH2 0x213 DUP3 DUP3 PUSH2 0x1CD JUMP JUMPDEST SWAP2 SWAP1 POP JUMP JUMPDEST PUSH0 PUSH8 0xFFFFFFFFFFFFFFFF DUP3 GT ISZERO PUSH2 0x232 JUMPI PUSH2 0x231 PUSH2 0x1A0 JUMP JUMPDEST JUMPDEST PUSH1 0x20 DUP3 MUL SWAP1 POP PUSH1 0x20 DUP2 ADD SWAP1 POP SWAP2 SWAP1 POP JUMP JUMPDEST PUSH0 DUP1 REVERT JUMPDEST PUSH0 DUP1 REVERT JUMPDEST PUSH0 PUSH8 0xFFFFFFFFFFFFFFFF DUP3 GT ISZERO PUSH2 0x265 JUMPI PUSH2 0x264 PUSH2 0x1A0 JUMP JUMPDEST JUMPDEST PUSH2 0x26E DUP3 PUSH2 0x190 JUMP JUMPDEST SWAP1 POP PUSH1 0x20 DUP2 ADD SWAP1 POP SWAP2 SWAP1 POP JUMP JUMPDEST DUP3 DUP2 DUP4 MCOPY PUSH0 DUP4 DUP4 ADD MSTORE POP POP POP JUMP JUMPDEST PUSH0 PUSH2 0x29B PUSH2 0x296 DUP5 PUSH2 0x24B JUMP JUMPDEST PUSH2 0x1FE JUMP JUMPDEST SWAP1 POP DUP3 DUP2 MSTORE PUSH1 0x20 DUP2 ADD DUP5 DUP5 DUP5 ADD GT ISZERO PUSH2 0x2B7 JUMPI PUSH2 0x2B6 PUSH2 0x247 JUMP JUMPDEST JUMPDEST PUSH2 0x2C2 DUP5 DUP3 DUP6 PUSH2 0x27B JUMP JUMPDEST POP SWAP4 SWAP3 POP POP POP JUMP JUMPDEST PUSH0 DUP3 PUSH1 0x1F DUP4 ADD SLT PUSH2 0x2DE JUMPI PUSH2 0x2DD PUSH2 0x18C JUMP JUMPDEST JUMPDEST DUP2 MLOAD PUSH2 0x2EE DUP5 DUP3 PUSH1 0x20 DUP7 ADD PUSH2 0x289 JUMP JUMPDEST SWAP2 POP POP SWAP3 SWAP2 POP POP JUMP JUMPDEST PUSH0 PUSH2 0x309 PUSH2 0x304 DUP5 PUSH2 0x218 JUMP JUMPDEST PUSH2 0x1FE JUMP JUMPDEST SWAP1 POP DUP1 DUP4 DUP3 MSTORE PUSH1 0x20 DUP3 ADD SWAP1 POP PUSH1 0x20 DUP5 MUL DUP4 ADD DUP6 DUP2 GT ISZERO PUSH2 0x32C JUMPI PUSH2 0x32B PUSH2 0x243 JUMP JUMPDEST JUMPDEST DUP4 JUMPDEST DUP2 DUP2 LT ISZERO PUSH2 0x373 JUMPI DUP1 MLOAD PUSH8 0xFFFFFFFFFFFFFFFF DUP2 GT ISZERO PUSH2 0x351 JUMPI PUSH2 0x350 PUSH2 0x18C JUMP JUMPDEST JUMPDEST DUP1 DUP7 ADD PUSH2 0x35E DUP10 DUP3 PUSH2 0x2CA JUMP JUMPDEST DUP6 MSTORE PUSH1 0x20 DUP6 ADD SWAP5 POP POP POP PUSH1 0x20 DUP2 ADD SWAP1 POP PUSH2 0x32E JUMP JUMPDEST POP POP POP SWAP4 SWAP3 POP POP POP JUMP JUMPDEST PUSH0 DUP3 PUSH1 0x1F DUP4 ADD SLT PUSH2 0x391 JUMPI PUSH2 0x390 PUSH2 0x18C JUMP JUMPDEST JUMPDEST DUP2 MLOAD PUSH2 0x3A1 DUP5 DUP3 PUSH1 0x20 DUP7 ADD PUSH2 0x2F7 JUMP JUMPDEST SWAP2 POP POP SWAP3 SWAP2 POP POP JUMP JUMPDEST PUSH0 PUSH20 0xFFFFFFFFFFFFFFFFFFFFFFFFFFFFFFFFFFFFFFFF DUP3 AND SWAP1 POP SWAP2 SWAP1 POP JUMP JUMPDEST PUSH0 PUSH2 0x3D3 DUP3 PUSH2 0x3AA JUMP JUMPDEST SWAP1 POP SWAP2 SWAP1 POP JUMP JUMPDEST PUSH2 0x3E3 DUP2 PUSH2 0x3C9 JUMP JUMPDEST DUP2 EQ PUSH2 0x3ED JUMPI PUSH0 DUP1 REVERT JUMPDEST POP JUMP JUMPDEST PUSH0 DUP2 MLOAD SWAP1 POP PUSH2 0x3FE DUP2 PUSH2 0x3DA JUMP JUMPDEST SWAP3 SWAP2 POP POP JUMP JUMPDEST PUSH0 DUP2 SWAP1 POP SWAP2 SWAP1 POP JUMP JUMPDEST PUSH2 0x416 DUP2 PUSH2 0x404 JUMP JUMPDEST DUP2 EQ PUSH2 0x420 JUMPI PUSH0 DUP1 REVERT JUMPDEST POP JUMP JUMPDEST PUSH0 DUP2 MLOAD SWAP1 POP PUSH2 0x431 DUP2 PUSH2 0x40D JUMP JUMPDEST SWAP3 SWAP2 POP POP JUMP JUMPDEST PUSH0 DUP1 PUSH0 DUP1 PUSH0 PUSH1 0xA0 DUP7 DUP9 SUB SLT ISZERO PUSH2 0x450 JUMPI PUSH2 0x44F PUSH2 0x184 JUMP JUMPDEST JUMPDEST PUSH0 DUP7 ADD MLOAD PUSH8 0xFFFFFFFFFFFFFFFF DUP2 GT ISZERO PUSH2 0x46D JUMPI PUSH2 0x46C PUSH2 0x188 JUMP JUMPDEST JUMPDEST PUSH2 0x479 DUP9 DUP3 DUP10 ADD PUSH2 0x37D JUMP JUMPDEST SWAP6 POP POP PUSH1 0x20 DUP7 ADD MLOAD PUSH8 0xFFFFFFFFFFFFFFFF DUP2 GT ISZERO PUSH2 0x49A JUMPI PUSH2 0x499 PUSH2 0x188 JUMP JUMPDEST JUMPDEST PUSH2 0x4A6 DUP9 DUP3 DUP10 ADD PUSH2 0x37D JUMP JUMPDEST SWAP5 POP POP PUSH1 0x40 DUP7 ADD MLOAD PUSH8 0xFFFFFFFFFFFFFFFF DUP2 GT ISZERO PUSH2 0x4C7 JUMPI PUSH2 0x4C6 PUSH2 0x188 JUMP JUMPDEST JUMPDEST PUSH2 0x4D3 DUP9 DUP3 DUP10 ADD PUSH2 0x2CA JUMP JUMPDEST SWAP4 POP POP PUSH1 0x60 PUSH2 0x4E4 DUP9 DUP3 DUP10 ADD PUSH2 0x3F0 JUMP JUMPDEST SWAP3 POP POP PUSH1 0x80 PUSH2 0x4F5 DUP9 DUP3 DUP10 ADD PUSH2 0x423 JUMP JUMPDEST SWAP2 POP POP SWAP3 SWAP6 POP SWAP3 SWAP6 SWAP1 SWAP4 POP JUMP JUMPDEST PUSH0 DUP2 MLOAD SWAP1 POP SWAP2 SWAP1 POP JUMP JUMPDEST PUSH32 0x4E487B7100000000000000000000000000000000000000000000000000000000 PUSH0 MSTORE PUSH1 0x22 PUSH1 0x4 MSTORE PUSH1 0x24 PUSH0 REVERT JUMPDEST PUSH0 PUSH1 0x2 DUP3 DIV SWAP1 POP PUSH1 0x1 DUP3 AND DUP1 PUSH2 0x550 JUMPI PUSH1 0x7F DUP3 AND SWAP2 POP JUMPDEST PUSH1 0x20 DUP3 LT DUP2 SUB PUSH2 0x563 JUMPI PUSH2 0x562 PUSH2 0x50C JUMP JUMPDEST JUMPDEST POP SWAP2 SWAP1 POP JUMP JUMPDEST PUSH0 DUP2 SWAP1 POP DUP2 PUSH0 MSTORE PUSH1 0x20 PUSH0 KECCAK256 SWAP1 POP SWAP2 SWAP1 POP JUMP JUMPDEST PUSH0 PUSH1 0x20 PUSH1 0x1F DUP4 ADD DIV SWAP1 POP SWAP2 SWAP1 POP JUMP JUMPDEST PUSH0 DUP3 DUP3 SHL SWAP1 POP SWAP3 SWAP2 POP POP JUMP JUMPDEST PUSH0 PUSH1 0x8 DUP4 MUL PUSH2 0x5C5 PUSH32 0xFFFFFFFFFFFFFFFFFFFFFFFFFFFFFFFFFFFFFFFFFFFFFFFFFFFFFFFFFFFFFFFF DUP3 PUSH2 0x58A JUMP JUMPDEST PUSH2 0x5CF DUP7 DUP4 PUSH2 0x58A JUMP JUMPDEST SWAP6 POP DUP1 NOT DUP5 AND SWAP4 POP DUP1 DUP7 AND DUP5 OR SWAP3 POP POP POP SWAP4 SWAP3 POP POP POP JUMP JUMPDEST PUSH0 DUP2 SWAP1 POP SWAP2 SWAP1 POP JUMP JUMPDEST PUSH0 PUSH2 0x60A PUSH2 0x605 PUSH2 0x600 DUP5 PUSH2 0x404 JUMP JUMPDEST PUSH2 0x5E7 JUMP JUMPDEST PUSH2 0x404 JUMP JUMPDEST SWAP1 POP SWAP2 SWAP1 POP JUMP JUMPDEST PUSH0 DUP2 SWAP1 POP SWAP2 SWAP1 POP JUMP JUMPDEST PUSH2 0x623 DUP4 PUSH2 0x5F0 JUMP JUMPDEST PUSH2 0x637 PUSH2 0x62F DUP3 PUSH2 0x611 JUMP JUMPDEST DUP5 DUP5 SLOAD PUSH2 0x596 JUMP JUMPDEST DUP3 SSTORE POP POP POP POP JUMP JUMPDEST PUSH0 SWAP1 JUMP JUMPDEST PUSH2 0x64B PUSH2 0x63F JUMP JUMPDEST PUSH2 0x656 DUP2 DUP5 DUP5 PUSH2 0x61A JUMP JUMPDEST POP POP POP JUMP JUMPDEST JUMPDEST DUP2 DUP2 LT ISZERO PUSH2 0x679 JUMPI PUSH2 0x66E PUSH0 DUP3 PUSH2 0x643 JUMP JUMPDEST PUSH1 0x1 DUP2 ADD SWAP1 POP PUSH2 0x65C JUMP JUMPDEST POP POP JUMP JUMPDEST PUSH1 0x1F DUP3 GT ISZERO PUSH2 0x6BE JUMPI PUSH2 0x68F DUP2 PUSH2 0x569 JUMP JUMPDEST PUSH2 0x698 DUP5 PUSH2 0x57B JUMP JUMPDEST DUP2 ADD PUSH1 0x20 DUP6 LT ISZERO PUSH2 0x6A7 JUMPI DUP2 SWAP1 POP JUMPDEST PUSH2 0x6BB PUSH2 0x6B3 DUP6 PUSH2 0x57B JUMP JUMPDEST DUP4 ADD DUP3 PUSH2 0x65B JUMP JUMPDEST POP POP JUMPDEST POP POP POP JUMP JUMPDEST PUSH0 DUP3 DUP3 SHR SWAP1 POP SWAP3 SWAP2 POP POP JUMP JUMPDEST PUSH0 PUSH2 0x6DE PUSH0 NOT DUP5 PUSH1 0x8 MUL PUSH2 0x6C3 JUMP JUMPDEST NOT DUP1 DUP4 AND SWAP2 POP POP SWAP3 SWAP2 POP POP JUMP JUMPDEST PUSH0 PUSH2 0x6F6 DUP4 DUP4 PUSH2 0x6CF JUMP JUMPDEST SWAP2 POP DUP3 PUSH1 0x2 MUL DUP3 OR SWAP1 POP SWAP3 SWAP2 POP POP JUMP JUMPDEST PUSH2 0x70F DUP3 PUSH2 0x502 JUMP JUMPDEST PUSH8 0xFFFFFFFFFFFFFFFF DUP2 GT ISZERO PUSH2 0x728 JUMPI PUSH2 0x727 PUSH2 0x1A0 JUMP JUMPDEST JUMPDEST PUSH2 0x732 DUP3 SLOAD PUSH2 0x539 JUMP JUMPDEST PUSH2 0x73D DUP3 DUP3 DUP6 PUSH2 0x67D JUMP JUMPDEST PUSH0 PUSH1 0x20 SWAP1 POP PUSH1 0x1F DUP4 GT PUSH1 0x1 DUP2 EQ PUSH2 0x76E JUMPI PUSH0 DUP5 ISZERO PUSH2 0x75C JUMPI DUP3 DUP8 ADD MLOAD SWAP1 POP JUMPDEST PUSH2 0x766 DUP6 DUP3 PUSH2 0x6EB JUMP JUMPDEST DUP7 SSTORE POP PUSH2 0x7CD JUMP JUMPDEST PUSH1 0x1F NOT DUP5 AND PUSH2 0x77C DUP7 PUSH2 0x569 JUMP JUMPDEST PUSH0 JUMPDEST DUP3 DUP2 LT ISZERO PUSH2 0x7A3 JUMPI DUP5 DUP10 ADD MLOAD DUP3 SSTORE PUSH1 0x1 DUP3 ADD SWAP2 POP PUSH1 0x20 DUP6 ADD SWAP5 POP PUSH1 0x20 DUP2 ADD SWAP1 POP PUSH2 0x77E JUMP JUMPDEST DUP7 DUP4 LT ISZERO PUSH2 0x7C0 JUMPI DUP5 DUP10 ADD MLOAD PUSH2 0x7BC PUSH1 0x1F DUP10 AND DUP3 PUSH2 0x6CF JUMP JUMPDEST DUP4 SSTORE POP JUMPDEST PUSH1 0x1 PUSH1 0x2 DUP9 MUL ADD DUP9 SSTORE POP POP POP JUMPDEST POP POP POP POP POP POP JUMP JUMPDEST PUSH32 0x4E487B7100000000000000000000000000000000000000000000000000000000 PUSH0 MSTORE PUSH1 0x32 PUSH1 0x4 MSTORE PUSH1 0x24 PUSH0 REVERT JUMPDEST PUSH32 0x4E487B7100000000000000000000000000000000000000000000000000000000 PUSH0 MSTORE PUSH1 0x11 PUSH1 0x4 MSTORE PUSH1 0x24 PUSH0 REVERT JUMPDEST PUSH0 PUSH2 0x839 DUP3 PUSH2 0x404 JUMP JUMPDEST SWAP2 POP PUSH2 0x844 DUP4 PUSH2 0x404 JUMP JUMPDEST SWAP3 POP DUP3 DUP3 ADD SWAP1 POP DUP1 DUP3 GT ISZERO PUSH2 0x85C JUMPI PUSH2 0x85B PUSH2 0x802 JUMP JUMPDEST JUMPDEST SWAP3 SWAP2 POP POP JUMP JUMPDEST PUSH2 0xABA DUP1 PUSH2 0x86F PUSH0 CODECOPY PUSH0 RETURN INVALID PUSH1 0x80 PUSH1 0x40 MSTORE CALLVALUE DUP1 ISZERO PUSH2 0xF JUMPI PUSH0 DUP1 REVERT JUMPDEST POP PUSH1 0x4 CALLDATASIZE LT PUSH2 0x86 JUMPI PUSH0 CALLDATALOAD PUSH1 0xE0 SHR DUP1 PUSH4 0x716C424E GT PUSH2 0x59 JUMPI DUP1 PUSH4 0x716C424E EQ PUSH2 0x128 JUMPI DUP1 PUSH4 0xA3EC138D EQ PUSH2 0x146 JUMPI DUP1 PUSH4 0xB2C2F2E8 EQ PUSH2 0x176 JUMPI DUP1 PUSH4 0xE13804A7 EQ PUSH2 0x1A6 JUMPI PUSH2 0x86 JUMP JUMPDEST DUP1 PUSH4 0x121B93F EQ PUSH2 0x8A JUMPI DUP1 PUSH4 0x3477EE2E EQ PUSH2 0xA6 JUMPI DUP1 PUSH4 0x456645A7 EQ PUSH2 0xDA JUMPI DUP1 PUSH4 0x481C6A75 EQ PUSH2 0x10A JUMPI JUMPDEST PUSH0 DUP1 REVERT JUMPDEST PUSH2 0xA4 PUSH1 0x4 DUP1 CALLDATASIZE SUB DUP2 ADD SWAP1 PUSH2 0x9F SWAP2 SWAP1 PUSH2 0x778 JUMP JUMPDEST PUSH2 0x1D6 JUMP JUMPDEST STOP JUMPDEST PUSH2 0xC0 PUSH1 0x4 DUP1 CALLDATASIZE SUB DUP2 ADD SWAP1 PUSH2 0xBB SWAP2 SWAP1 PUSH2 0x778 JUMP JUMPDEST PUSH2 0x2BA JUMP JUMPDEST PUSH1 0x40 MLOAD PUSH2 0xD1 SWAP6 SWAP5 SWAP4 SWAP3 SWAP2 SWAP1 PUSH2 0x822 JUMP JUMPDEST PUSH1 0x40 MLOAD DUP1 SWAP2 SUB SWAP1 RETURN JUMPDEST PUSH2 0xF4 PUSH1 0x4 DUP1 CALLDATASIZE SUB DUP2 ADD SWAP1 PUSH2 0xEF SWAP2 SWAP1 PUSH2 0x778 JUMP JUMPDEST PUSH2 0x406 JUMP JUMPDEST PUSH1 0x40 MLOAD PUSH2 0x101 SWAP2 SWAP1 PUSH2 0x881 JUMP JUMPDEST PUSH1 0x40 MLOAD DUP1 SWAP2 SUB SWAP1 RETURN JUMPDEST PUSH2 0x112 PUSH2 0x4E5 JUMP JUMPDEST PUSH1 0x40 MLOAD PUSH2 0x11F SWAP2 SWAP1 PUSH2 0x8E0 JUMP JUMPDEST PUSH1 0x40 MLOAD DUP1 SWAP2 SUB SWAP1 RETURN JUMPDEST PUSH2 0x130 PUSH2 0x50A JUMP JUMPDEST PUSH1 0x40 MLOAD PUSH2 0x13D SWAP2 SWAP1 PUSH2 0x881 JUMP JUMPDEST PUSH1 0x40 MLOAD DUP1 SWAP2 SUB SWAP1 RETURN JUMPDEST PUSH2 0x160 PUSH1 0x4 DUP1 CALLDATASIZE SUB DUP2 ADD SWAP1 PUSH2 0x15B SWAP2 SWAP1 PUSH2 0x923 JUMP JUMPDEST PUSH2 0x596 JUMP JUMPDEST PUSH1 0x40 MLOAD PUSH2 0x16D SWAP2 SWAP1 PUSH2 0x968 JUMP JUMPDEST PUSH1 0x40 MLOAD DUP1 SWAP2 SUB SWAP1 RETURN JUMPDEST PUSH2 0x190 PUSH1 0x4 DUP1 CALLDATASIZE SUB DUP2 ADD SWAP1 PUSH2 0x18B SWAP2 SWAP1 PUSH2 0x778 JUMP JUMPDEST PUSH2 0x5B3 JUMP JUMPDEST PUSH1 0x40 MLOAD PUSH2 0x19D SWAP2 SWAP1 PUSH2 0x981 JUMP JUMPDEST PUSH1 0x40 MLOAD DUP1 SWAP2 SUB SWAP1 RETURN JUMPDEST PUSH2 0x1C0 PUSH1 0x4 DUP1 CALLDATASIZE SUB DUP2 ADD SWAP1 PUSH2 0x1BB SWAP2 SWAP1 PUSH2 0x778 JUMP JUMPDEST PUSH2 0x663 JUMP JUMPDEST PUSH1 0x40 MLOAD PUSH2 0x1CD SWAP2 SWAP1 PUSH2 0x881 JUMP JUMPDEST PUSH1 0x40 MLOAD DUP1 SWAP2 SUB SWAP1 RETURN JUMPDEST PUSH1 0x3 PUSH0 CALLER PUSH20 0xFFFFFFFFFFFFFFFFFFFFFFFFFFFFFFFFFFFFFFFF AND PUSH20 0xFFFFFFFFFFFFFFFFFFFFFFFFFFFFFFFFFFFFFFFF AND DUP2 MSTORE PUSH1 0x20 ADD SWAP1 DUP2 MSTORE PUSH1 0x20 ADD PUSH0 KECCAK256 PUSH0 SWAP1 SLOAD SWAP1 PUSH2 0x100 EXP SWAP1 DIV PUSH1 0xFF AND ISZERO PUSH2 0x229 JUMPI PUSH0 DUP1 REVERT JUMPDEST PUSH1 0x1 PUSH0 DUP3 DUP2 SLOAD DUP2 LT PUSH2 0x23E JUMPI PUSH2 0x23D PUSH2 0x99A JUMP JUMPDEST JUMPDEST SWAP1 PUSH0 MSTORE PUSH1 0x20 PUSH0 KECCAK256 SWAP1 PUSH1 0x5 MUL ADD PUSH1 0x2 ADD PUSH0 DUP3 DUP3 SLOAD PUSH2 0x25B SWAP2 SWAP1 PUSH2 0x9F4 JUMP JUMPDEST SWAP3 POP POP DUP2 SWAP1 SSTORE POP PUSH1 0x1 PUSH1 0x3 PUSH0 CALLER PUSH20 0xFFFFFFFFFFFFFFFFFFFFFFFFFFFFFFFFFFFFFFFF AND PUSH20 0xFFFFFFFFFFFFFFFFFFFFFFFFFFFFFFFFFFFFFFFF AND DUP2 MSTORE PUSH1 0x20 ADD SWAP1 DUP2 MSTORE PUSH1 0x20 ADD PUSH0 KECCAK256 PUSH0 PUSH2 0x100 EXP DUP2 SLOAD DUP2 PUSH1 0xFF MUL NOT AND SWAP1 DUP4 ISZERO ISZERO MUL OR SWAP1 SSTORE POP POP JUMP JUMPDEST PUSH0 DUP2 DUP2 SLOAD DUP2 LT PUSH2 0x2C8 JUMPI PUSH0 DUP1 REVERT JUMPDEST SWAP1 PUSH0 MSTORE PUSH1 0x20 PUSH0 KECCAK256 SWAP1 PUSH1 0x5 MUL ADD PUSH0 SWAP2 POP SWAP1 POP DUP1 PUSH0 ADD DUP1 SLOAD PUSH2 0x2E7 SWAP1 PUSH2 0xA54 JUMP JUMPDEST DUP1 PUSH1 0x1F ADD PUSH1 0x20 DUP1 SWAP2 DIV MUL PUSH1 0x20 ADD PUSH1 0x40 MLOAD SWAP1 DUP2 ADD PUSH1 0x40 MSTORE DUP1 SWAP3 SWAP2 SWAP1 DUP2 DUP2 MSTORE PUSH1 0x20 ADD DUP3 DUP1 SLOAD PUSH2 0x313 SWAP1 PUSH2 0xA54 JUMP JUMPDEST DUP1 ISZERO PUSH2 0x35E JUMPI DUP1 PUSH1 0x1F LT PUSH2 0x335 JUMPI PUSH2 0x100 DUP1 DUP4 SLOAD DIV MUL DUP4 MSTORE SWAP2 PUSH1 0x20 ADD SWAP2 PUSH2 0x35E JUMP JUMPDEST DUP3 ADD SWAP2 SWAP1 PUSH0 MSTORE PUSH1 0x20 PUSH0 KECCAK256 SWAP1 JUMPDEST DUP2 SLOAD DUP2 MSTORE SWAP1 PUSH1 0x1 ADD SWAP1 PUSH1 0x20 ADD DUP1 DUP4 GT PUSH2 0x341 JUMPI DUP3 SWAP1 SUB PUSH1 0x1F AND DUP3 ADD SWAP2 JUMPDEST POP POP POP POP POP SWAP1 DUP1 PUSH1 0x1 ADD DUP1 SLOAD PUSH2 0x373 SWAP1 PUSH2 0xA54 JUMP JUMPDEST DUP1 PUSH1 0x1F ADD PUSH1 0x20 DUP1 SWAP2 DIV MUL PUSH1 0x20 ADD PUSH1 0x40 MLOAD SWAP1 DUP2 ADD PUSH1 0x40 MSTORE DUP1 SWAP3 SWAP2 SWAP1 DUP2 DUP2 MSTORE PUSH1 0x20 ADD DUP3 DUP1 SLOAD PUSH2 0x39F SWAP1 PUSH2 0xA54 JUMP JUMPDEST DUP1 ISZERO PUSH2 0x3EA JUMPI DUP1 PUSH1 0x1F LT PUSH2 0x3C1 JUMPI PUSH2 0x100 DUP1 DUP4 SLOAD DIV MUL DUP4 MSTORE SWAP2 PUSH1 0x20 ADD SWAP2 PUSH2 0x3EA JUMP JUMPDEST DUP3 ADD SWAP2 SWAP1 PUSH0 MSTORE PUSH1 0x20 PUSH0 KECCAK256 SWAP1 JUMPDEST DUP2 SLOAD DUP2 MSTORE SWAP1 PUSH1 0x1 ADD SWAP1 PUSH1 0x20 ADD DUP1 DUP4 GT PUSH2 0x3CD JUMPI DUP3 SWAP1 SUB PUSH1 0x1F AND DUP3 ADD SWAP2 JUMPDEST POP POP POP POP POP SWAP1 DUP1 PUSH1 0x2 ADD SLOAD SWAP1 DUP1 PUSH1 0x3 ADD SLOAD SWAP1 DUP1 PUSH1 0x4 ADD SLOAD SWAP1 POP DUP6 JUMP JUMPDEST PUSH1 0x60 PUSH0 DUP3 DUP2 SLOAD DUP2 LT PUSH2 0x41B JUMPI PUSH2 0x41A PUSH2 0x99A JUMP JUMPDEST JUMPDEST SWAP1 PUSH0 MSTORE PUSH1 0x20 PUSH0 KECCAK256 SWAP1 PUSH1 0x5 MUL ADD PUSH1 0x4 ADD SLOAD TIMESTAMP GT PUSH2 0x435 JUMPI PUSH0 DUP1 REVERT JUMPDEST PUSH0 DUP3 DUP2 SLOAD DUP2 LT PUSH2 0x448 JUMPI PUSH2 0x447 PUSH2 0x99A JUMP JUMPDEST JUMPDEST SWAP1 PUSH0 MSTORE PUSH1 0x20 PUSH0 KECCAK256 SWAP1 PUSH1 0x5 MUL ADD PUSH1 0x1 ADD DUP1 SLOAD PUSH2 0x462 SWAP1 PUSH2 0xA54 JUMP JUMPDEST DUP1 PUSH1 0x1F ADD PUSH1 0x20 DUP1 SWAP2 DIV MUL PUSH1 0x20 ADD PUSH1 0x40 MLOAD SWAP1 DUP2 ADD PUSH1 0x40 MSTORE DUP1 SWAP3 SWAP2 SWAP1 DUP2 DUP2 MSTORE PUSH1 0x20 ADD DUP3 DUP1 SLOAD PUSH2 0x48E SWAP1 PUSH2 0xA54 JUMP JUMPDEST DUP1 ISZERO PUSH2 0x4D9 JUMPI DUP1 PUSH1 0x1F LT PUSH2 0x4B0 JUMPI PUSH2 0x100 DUP1 DUP4 SLOAD DIV MUL DUP4 MSTORE SWAP2 PUSH1 0x20 ADD SWAP2 PUSH2 0x4D9 JUMP JUMPDEST DUP3 ADD SWAP2 SWAP1 PUSH0 MSTORE PUSH1 0x20 PUSH0 KECCAK256 SWAP1 JUMPDEST DUP2 SLOAD DUP2 MSTORE SWAP1 PUSH1 0x1 ADD SWAP1 PUSH1 0x20 ADD DUP1 DUP4 GT PUSH2 0x4BC JUMPI DUP3 SWAP1 SUB PUSH1 0x1F AND DUP3 ADD SWAP2 JUMPDEST POP POP POP POP POP SWAP1 POP SWAP2 SWAP1 POP JUMP JUMPDEST PUSH1 0x1 PUSH0 SWAP1 SLOAD SWAP1 PUSH2 0x100 EXP SWAP1 DIV PUSH20 0xFFFFFFFFFFFFFFFFFFFFFFFFFFFFFFFFFFFFFFFF AND DUP2 JUMP JUMPDEST PUSH1 0x2 DUP1 SLOAD PUSH2 0x517 SWAP1 PUSH2 0xA54 JUMP JUMPDEST DUP1 PUSH1 0x1F ADD PUSH1 0x20 DUP1 SWAP2 DIV MUL PUSH1 0x20 ADD PUSH1 0x40 MLOAD SWAP1 DUP2 ADD PUSH1 0x40 MSTORE DUP1 SWAP3 SWAP2 SWAP1 DUP2 DUP2 MSTORE PUSH1 0x20 ADD DUP3 DUP1 SLOAD PUSH2 0x543 SWAP1 PUSH2 0xA54 JUMP JUMPDEST DUP1 ISZERO PUSH2 0x58E JUMPI DUP1 PUSH1 0x1F LT PUSH2 0x565 JUMPI PUSH2 0x100 DUP1 DUP4 SLOAD DIV MUL DUP4 MSTORE SWAP2 PUSH1 0x20 ADD SWAP2 PUSH2 0x58E JUMP JUMPDEST DUP3 ADD SWAP2 SWAP1 PUSH0 MSTORE PUSH1 0x20 PUSH0 KECCAK256 SWAP1 JUMPDEST DUP2 SLOAD DUP2 MSTORE SWAP1 PUSH1 0x1 ADD SWAP1 PUSH1 0x20 ADD DUP1 DUP4 GT PUSH2 0x571 JUMPI DUP3 SWAP1 SUB PUSH1 0x1F AND DUP3 ADD SWAP2 JUMPDEST POP POP POP POP POP DUP2 JUMP JUMPDEST PUSH1 0x3 PUSH1 0x20 MSTORE DUP1 PUSH0 MSTORE PUSH1 0x40 PUSH0 KECCAK256 PUSH0 SWAP2 POP SLOAD SWAP1 PUSH2 0x100 EXP SWAP1 DIV PUSH1 0xFF AND DUP2 JUMP JUMPDEST PUSH0 PUSH1 0x1 PUSH0 SWAP1 SLOAD SWAP1 PUSH2 0x100 EXP SWAP1 DIV PUSH20 0xFFFFFFFFFFFFFFFFFFFFFFFFFFFFFFFFFFFFFFFF AND PUSH20 0xFFFFFFFFFFFFFFFFFFFFFFFFFFFFFFFFFFFFFFFF AND CALLER PUSH20 0xFFFFFFFFFFFFFFFFFFFFFFFFFFFFFFFFFFFFFFFF AND EQ PUSH2 0x60C JUMPI PUSH0 DUP1 REVERT JUMPDEST PUSH0 DUP3 DUP2 SLOAD DUP2 LT PUSH2 0x61F JUMPI PUSH2 0x61E PUSH2 0x99A JUMP JUMPDEST JUMPDEST SWAP1 PUSH0 MSTORE PUSH1 0x20 PUSH0 KECCAK256 SWAP1 PUSH1 0x5 MUL ADD PUSH1 0x4 ADD SLOAD TIMESTAMP GT PUSH2 0x639 JUMPI PUSH0 DUP1 REVERT JUMPDEST PUSH0 DUP3 DUP2 SLOAD DUP2 LT PUSH2 0x64C JUMPI PUSH2 0x64B PUSH2 0x99A JUMP JUMPDEST JUMPDEST SWAP1 PUSH0 MSTORE PUSH1 0x20 PUSH0 KECCAK256 SWAP1 PUSH1 0x5 MUL ADD PUSH1 0x2 ADD SLOAD SWAP1 POP SWAP2 SWAP1 POP JUMP JUMPDEST PUSH1 0x60 PUSH0 DUP3 DUP2 SLOAD DUP2 LT PUSH2 0x678 JUMPI PUSH2 0x677 PUSH2 0x99A JUMP JUMPDEST JUMPDEST SWAP1 PUSH0 MSTORE PUSH1 0x20 PUSH0 KECCAK256 SWAP1 PUSH1 0x5 MUL ADD PUSH1 0x4 ADD SLOAD TIMESTAMP GT PUSH2 0x692 JUMPI PUSH0 DUP1 REVERT JUMPDEST PUSH0 DUP3 DUP2 SLOAD DUP2 LT PUSH2 0x6A5 JUMPI PUSH2 0x6A4 PUSH2 0x99A JUMP JUMPDEST JUMPDEST SWAP1 PUSH0 MSTORE PUSH1 0x20 PUSH0 KECCAK256 SWAP1 PUSH1 0x5 MUL ADD PUSH0 ADD DUP1 SLOAD PUSH2 0x6BE SWAP1 PUSH2 0xA54 JUMP JUMPDEST DUP1 PUSH1 0x1F ADD PUSH1 0x20 DUP1 SWAP2 DIV MUL PUSH1 0x20 ADD PUSH1 0x40 MLOAD SWAP1 DUP2 ADD PUSH1 0x40 MSTORE DUP1 SWAP3 SWAP2 SWAP1 DUP2 DUP2 MSTORE PUSH1 0x20 ADD DUP3 DUP1 SLOAD PUSH2 0x6EA SWAP1 PUSH2 0xA54 JUMP JUMPDEST DUP1 ISZERO PUSH2 0x735 JUMPI DUP1 PUSH1 0x1F LT PUSH2 0x70C JUMPI PUSH2 0x100 DUP1 DUP4 SLOAD DIV MUL DUP4 MSTORE SWAP2 PUSH1 0x20 ADD SWAP2 PUSH2 0x735 JUMP JUMPDEST DUP3 ADD SWAP2 SWAP1 PUSH0 MSTORE PUSH1 0x20 PUSH0 KECCAK256 SWAP1 JUMPDEST DUP2 SLOAD DUP2 MSTORE SWAP1 PUSH1 0x1 ADD SWAP1 PUSH1 0x20 ADD DUP1 DUP4 GT PUSH2 0x718 JUMPI DUP3 SWAP1 SUB PUSH1 0x1F AND DUP3 ADD SWAP2 JUMPDEST POP POP POP POP POP SWAP1 POP SWAP2 SWAP1 POP JUMP JUMPDEST PUSH0 DUP1 REVERT JUMPDEST PUSH0 DUP2 SWAP1 POP SWAP2 SWAP1 POP JUMP JUMPDEST PUSH2 0x757 DUP2 PUSH2 0x745 JUMP JUMPDEST DUP2 EQ PUSH2 0x761 JUMPI PUSH0 DUP1 REVERT JUMPDEST POP JUMP JUMPDEST PUSH0 DUP2 CALLDATALOAD SWAP1 POP PUSH2 0x772 DUP2 PUSH2 0x74E JUMP JUMPDEST SWAP3 SWAP2 POP POP JUMP JUMPDEST PUSH0 PUSH1 0x20 DUP3 DUP5 SUB SLT ISZERO PUSH2 0x78D JUMPI PUSH2 0x78C PUSH2 0x741 JUMP JUMPDEST JUMPDEST PUSH0 PUSH2 0x79A DUP5 DUP3 DUP6 ADD PUSH2 0x764 JUMP JUMPDEST SWAP2 POP POP SWAP3 SWAP2 POP POP JUMP JUMPDEST PUSH0 DUP2 MLOAD SWAP1 POP SWAP2 SWAP1 POP JUMP JUMPDEST PUSH0 DUP3 DUP3 MSTORE PUSH1 0x20 DUP3 ADD SWAP1 POP SWAP3 SWAP2 POP POP JUMP JUMPDEST DUP3 DUP2 DUP4 MCOPY PUSH0 DUP4 DUP4 ADD MSTORE POP POP POP JUMP JUMPDEST PUSH0 PUSH1 0x1F NOT PUSH1 0x1F DUP4 ADD AND SWAP1 POP SWAP2 SWAP1 POP JUMP JUMPDEST PUSH0 PUSH2 0x7E5 DUP3 PUSH2 0x7A3 JUMP JUMPDEST PUSH2 0x7EF DUP2 DUP6 PUSH2 0x7AD JUMP JUMPDEST SWAP4 POP PUSH2 0x7FF DUP2 DUP6 PUSH1 0x20 DUP7 ADD PUSH2 0x7BD JUMP JUMPDEST PUSH2 0x808 DUP2 PUSH2 0x7CB JUMP JUMPDEST DUP5 ADD SWAP2 POP POP SWAP3 SWAP2 POP POP JUMP JUMPDEST PUSH2 0x81C DUP2 PUSH2 0x745 JUMP JUMPDEST DUP3 MSTORE POP POP JUMP JUMPDEST PUSH0 PUSH1 0xA0 DUP3 ADD SWAP1 POP DUP2 DUP2 SUB PUSH0 DUP4 ADD MSTORE PUSH2 0x83A DUP2 DUP9 PUSH2 0x7DB JUMP JUMPDEST SWAP1 POP DUP2 DUP2 SUB PUSH1 0x20 DUP4 ADD MSTORE PUSH2 0x84E DUP2 DUP8 PUSH2 0x7DB JUMP JUMPDEST SWAP1 POP PUSH2 0x85D PUSH1 0x40 DUP4 ADD DUP7 PUSH2 0x813 JUMP JUMPDEST PUSH2 0x86A PUSH1 0x60 DUP4 ADD DUP6 PUSH2 0x813 JUMP JUMPDEST PUSH2 0x877 PUSH1 0x80 DUP4 ADD DUP5 PUSH2 0x813 JUMP JUMPDEST SWAP7 SWAP6 POP POP POP POP POP POP JUMP JUMPDEST PUSH0 PUSH1 0x20 DUP3 ADD SWAP1 POP DUP2 DUP2 SUB PUSH0 DUP4 ADD MSTORE PUSH2 0x899 DUP2 DUP5 PUSH2 0x7DB JUMP JUMPDEST SWAP1 POP SWAP3 SWAP2 POP POP JUMP JUMPDEST PUSH0 PUSH20 0xFFFFFFFFFFFFFFFFFFFFFFFFFFFFFFFFFFFFFFFF DUP3 AND SWAP1 POP SWAP2 SWAP1 POP JUMP JUMPDEST PUSH0 PUSH2 0x8CA DUP3 PUSH2 0x8A1 JUMP JUMPDEST SWAP1 POP SWAP2 SWAP1 POP JUMP JUMPDEST PUSH2 0x8DA DUP2 PUSH2 0x8C0 JUMP JUMPDEST DUP3 MSTORE POP POP JUMP JUMPDEST PUSH0 PUSH1 0x20 DUP3 ADD SWAP1 POP PUSH2 0x8F3 PUSH0 DUP4 ADD DUP5 PUSH2 0x8D1 JUMP JUMPDEST SWAP3 SWAP2 POP POP JUMP JUMPDEST PUSH2 0x902 DUP2 PUSH2 0x8C0 JUMP JUMPDEST DUP2 EQ PUSH2 0x90C JUMPI PUSH0 DUP1 REVERT JUMPDEST POP JUMP JUMPDEST PUSH0 DUP2 CALLDATALOAD SWAP1 POP PUSH2 0x91D DUP2 PUSH2 0x8F9 JUMP JUMPDEST SWAP3 SWAP2 POP POP JUMP JUMPDEST PUSH0 PUSH1 0x20 DUP3 DUP5 SUB SLT ISZERO PUSH2 0x938 JUMPI PUSH2 0x937 PUSH2 0x741 JUMP JUMPDEST JUMPDEST PUSH0 PUSH2 0x945 DUP5 DUP3 DUP6 ADD PUSH2 0x90F JUMP JUMPDEST SWAP2 POP POP SWAP3 SWAP2 POP POP JUMP JUMPDEST PUSH0 DUP2 ISZERO ISZERO SWAP1 POP SWAP2 SWAP1 POP JUMP JUMPDEST PUSH2 0x962 DUP2 PUSH2 0x94E JUMP JUMPDEST DUP3 MSTORE POP POP JUMP JUMPDEST PUSH0 PUSH1 0x20 DUP3 ADD SWAP1 POP PUSH2 0x97B PUSH0 DUP4 ADD DUP5 PUSH2 0x959 JUMP JUMPDEST SWAP3 SWAP2 POP POP JUMP JUMPDEST PUSH0 PUSH1 0x20 DUP3 ADD SWAP1 POP PUSH2 0x994 PUSH0 DUP4 ADD DUP5 PUSH2 0x813 JUMP JUMPDEST SWAP3 SWAP2 POP POP JUMP JUMPDEST PUSH32 0x4E487B7100000000000000000000000000000000000000000000000000000000 PUSH0 MSTORE PUSH1 0x32 PUSH1 0x4 MSTORE PUSH1 0x24 PUSH0 REVERT JUMPDEST PUSH32 0x4E487B7100000000000000000000000000000000000000000000000000000000 PUSH0 MSTORE PUSH1 0x11 PUSH1 0x4 MSTORE PUSH1 0x24 PUSH0 REVERT JUMPDEST PUSH0 PUSH2 0x9FE DUP3 PUSH2 0x745 JUMP JUMPDEST SWAP2 POP PUSH2 0xA09 DUP4 PUSH2 0x745 JUMP JUMPDEST SWAP3 POP DUP3 DUP3 ADD SWAP1 POP DUP1 DUP3 GT ISZERO PUSH2 0xA21 JUMPI PUSH2 0xA20 PUSH2 0x9C7 JUMP JUMPDEST JUMPDEST SWAP3 SWAP2 POP POP JUMP JUMPDEST PUSH32 0x4E487B7100000000000000000000000000000000000000000000000000000000 PUSH0 MSTORE PUSH1 0x22 PUSH1 0x4 MSTORE PUSH1 0x24 PUSH0 REVERT JUMPDEST PUSH0 PUSH1 0x2 DUP3 DIV SWAP1 POP PUSH1 0x1 DUP3 AND DUP1 PUSH2 0xA6B JUMPI PUSH1 0x7F DUP3 AND SWAP2 POP JUMPDEST PUSH1 0x20 DUP3 LT DUP2 SUB PUSH2 0xA7E JUMPI PUSH2 0xA7D PUSH2 0xA27 JUMP JUMPDEST JUMPDEST POP SWAP2 SWAP1 POP JUMP INVALID LOG2 PUSH5 0x6970667358 0x22 SLT KECCAK256 0xC7 SWAP7 0xD0 PUSH26 0x3729EFAA3581C6851F390DC385BD1EA09F5EB1361D627DBD859D DUP16 0xF7 PUSH5 0x736F6C6343 STOP ADDMOD NOT STOP CALLER "},"gasEstimates":{"creation":{"codeDepositCost":"549200","executionCost":"infinite","totalCost":"infinite"},"external":{"candidates(uint256)":"infinite","getCandidateName(uint256)":"infinite","getCandidateParty(uint256)":"infinite","getVoteCount(uint256)":"infinite","manager()":"2575","vote(uint256)":"infinite","voters(address)":"2855","votingDistrict()":"infinite"}},"methodIdentifiers":{"candidates(uint256)":"3477ee2e","getCandidateName(uint256)":"e13804a7","getCandidateParty(uint256)":"456645a7","getVoteCount(uint256)":"b2c2f2e8","manager()":"481c6a75","vote(uint256)":"0121b93f","voters(address)":"a3ec138d","votingDistrict()":"716c424e"}},"storageLayout":{"storage":[{"astId":88,"contract":"evs.sol:Ballot","label":"candidates","offset":0,"slot":"0","type":"t_array(t_struct(candidate)84_storage)dyn_storage"},{"astId":90,"contract":"evs.sol:Ballot","label":"manager","offset":0,"slot":"1","type":"t_address"},{"astId":92,"contract":"evs.sol:Ballot","label":"votingDistrict","offset":0,"slot":"2","type":"t_string_storage"},{"astId":96,"contract":"evs.sol:Ballot","label":"voters","offset":0,"slot":"3","type":"t_mapping(t_address,t_bool)"}],"types":{"t_address":{"encoding":"inplace","label":"address","numberOfBytes":"20"},"t_array(t_struct(candidate)84_storage)dyn_storage":{"base":"t_struct(candidate)84_storage","encoding":"dynamic_array","label":"struct Ballot.candidate[]","numberOfBytes":"32"},"t_bool":{"encoding":"inplace","label":"bool","numberOfBytes":"1"},"t_mapping(t_address,t_bool)":{"encoding":"mapping","key":"t_address","label":"mapping(address => bool)","numberOfBytes":"32","value":"t_bool"},"t_string_storage":{"encoding":"bytes","label":"string","numberOfBytes":"32"},"t_struct(candidate)84_storage":{"encoding":"inplace","label":"struct Ballot.candidate","members":[{"astId":75,"contract":"evs.sol:Ballot","label":"name","offset":0,"slot":"0","type":"t_string_storage"},{"astId":77,"contract":"evs.sol:Ballot","label":"party","offset":0,"slot":"1","type":"t_string_storage"},{"astId":79,"contract":"evs.sol:Ballot","label":"voteCount","offset":0,"slot":"2","type":"t_uint256"},{"astId":81,"contract":"evs.sol:Ballot","label":"creationDate","offset":0,"slot":"3","type":"t_uint256"},{"astId":83,"contract":"evs.sol:Ballot","label":"expirationDate","offset":0,"slot":"4","type":"t_uint256"}],"numberOfBytes":"160"},"t_uint256":{"encoding":"inplace","label":"uint256","numberOfBytes":"32"}}},"userdoc":{"kind":"user","methods":{},"version":1}}