{"abi":[{"inputs":[{"internalType":"uint256","name":"","type":"uint256"}],"name":"deployedBallots","outputs":[{"internalType":"address","name":"","type":"address"}],"stateMutability":"view","type":"function"},{"inputs":[],"name":"getDeployedBallots","outputs":[{"internalType":"address[]","name":"","type":"address[]"}],"stateMutability":"view","type":"function"},{"inputs":[{"internalType":"string[][]","name":"candidates","type":"string[][]"},{"internalType":"string[][]","name":"parties","type":"string[][]"},{"internalType":"string[]","name":"districts","type":"string[]"}],"name":"startElection","outputs":[],"stateMutability":"nonpayable","type":"function"}],"devdoc":{"kind":"dev","methods":{},"version":1},"evm":{"assembly":"    /* \"evs.sol\":64:616  contract ElectionCreation {... */\n  mstore(0x40, 0x80)\n  callvalue\n  dup1\n  iszero\n  tag_1\n  jumpi\n  0x00\n  dup1\n  revert\ntag_1:\n  pop\n  dataSize(sub_0)\n  dup1\n  dataOffset(sub_0)\n  0x00\n  codecopy\n  0x00\n  return\nstop\n\nsub_0: assembly {\n        /* \"evs.sol\":64:616  contract ElectionCreation {... */\n      mstore(0x40, 0x80)\n      callvalue\n      dup1\n      iszero\n      tag_1\n      jumpi\n      0x00\n      dup1\n      revert\n    tag_1:\n      pop\n      jumpi(tag_2, lt(calldatasize, 0x04))\n      shr(0xe0, calldataload(0x00))\n      dup1\n      0x810c6ddf\n      eq\n      tag_3\n      jumpi\n      dup1\n      0x9b935abf\n      eq\n      tag_4\n      jumpi\n      dup1\n      0xcdf74c3e\n      eq\n      tag_5\n      jumpi\n    tag_2:\n      0x00\n      dup1\n      revert\n        /* \"evs.sol\":135:500  function startElection(... */\n    tag_3:\n      tag_6\n      0x04\n      dup1\n      calldatasize\n      sub\n      dup2\n      add\n      swap1\n      tag_7\n      swap2\n      swap1\n      tag_8\n      jump\t// in\n    tag_7:\n      tag_9\n      jump\t// in\n    tag_6:\n      stop\n        /* \"evs.sol\":506:614  function getDeployedBallots() public view returns (address[] memory) {... */\n    tag_4:\n      tag_10\n      tag_11\n      jump\t// in\n    tag_10:\n      mload(0x40)\n      tag_12\n      swap2\n      swap1\n      tag_13\n      jump\t// in\n    tag_12:\n      mload(0x40)\n      dup1\n      swap2\n      sub\n      swap1\n      return\n        /* \"evs.sol\":96:128  address[] public deployedBallots */\n    tag_5:\n      tag_14\n      0x04\n      dup1\n      calldatasize\n      sub\n      dup2\n      add\n      swap1\n      tag_15\n      swap2\n      swap1\n      tag_16\n      jump\t// in\n    tag_15:\n      tag_17\n      jump\t// in\n    tag_14:\n      mload(0x40)\n      tag_18\n      swap2\n      swap1\n      tag_19\n      jump\t// in\n    tag_18:\n      mload(0x40)\n      dup1\n      swap2\n      sub\n      swap1\n      return\n        /* \"evs.sol\":135:500  function startElection(... */\n    tag_9:\n        /* \"evs.sol\":294:300  uint i */\n      0x00\n        /* \"evs.sol\":289:494  for (uint i = 0; i < districts.length; i++) {... */\n    tag_21:\n        /* \"evs.sol\":310:319  districts */\n      dup2\n        /* \"evs.sol\":310:326  districts.length */\n      mload\n        /* \"evs.sol\":306:307  i */\n      dup2\n        /* \"evs.sol\":306:326  i < districts.length */\n      lt\n        /* \"evs.sol\":289:494  for (uint i = 0; i < districts.length; i++) {... */\n      iszero\n      tag_22\n      jumpi\n        /* \"evs.sol\":347:363  Ballot newBallot */\n      0x00\n        /* \"evs.sol\":377:387  candidates */\n      dup5\n        /* \"evs.sol\":388:389  i */\n      dup3\n        /* \"evs.sol\":377:390  candidates[i] */\n      dup2\n      mload\n      dup2\n      lt\n      tag_24\n      jumpi\n      tag_25\n      tag_26\n      jump\t// in\n    tag_25:\n    tag_24:\n      0x20\n      mul\n      0x20\n      add\n      add\n      mload\n        /* \"evs.sol\":392:399  parties */\n      dup5\n        /* \"evs.sol\":400:401  i */\n      dup4\n        /* \"evs.sol\":392:402  parties[i] */\n      dup2\n      mload\n      dup2\n      lt\n      tag_27\n      jumpi\n      tag_28\n      tag_26\n      jump\t// in\n    tag_28:\n    tag_27:\n      0x20\n      mul\n      0x20\n      add\n      add\n      mload\n        /* \"evs.sol\":404:413  districts */\n      dup5\n        /* \"evs.sol\":414:415  i */\n      dup5\n        /* \"evs.sol\":404:416  districts[i] */\n      dup2\n      mload\n      dup2\n      lt\n      tag_29\n      jumpi\n      tag_30\n      tag_26\n      jump\t// in\n    tag_30:\n    tag_29:\n      0x20\n      mul\n      0x20\n      add\n      add\n      mload\n        /* \"evs.sol\":418:428  msg.sender */\n      caller\n        /* \"evs.sol\":366:429  new Ballot(candidates[i], parties[i], districts[i], msg.sender) */\n      mload(0x40)\n      tag_31\n      swap1\n      tag_32\n      jump\t// in\n    tag_31:\n      tag_33\n      swap5\n      swap4\n      swap3\n      swap2\n      swap1\n      tag_34\n      jump\t// in\n    tag_33:\n      mload(0x40)\n      dup1\n      swap2\n      sub\n      swap1\n      0x00\n      create\n      dup1\n      iszero\n      dup1\n      iszero\n      tag_35\n      jumpi\n      returndatasize\n      0x00\n      dup1\n      returndatacopy\n      revert(0x00, returndatasize)\n    tag_35:\n      pop\n        /* \"evs.sol\":347:429  Ballot newBallot = new Ballot(candidates[i], parties[i], districts[i], msg.sender) */\n      swap1\n      pop\n        /* \"evs.sol\":443:458  deployedBallots */\n      0x00\n        /* \"evs.sol\":472:481  newBallot */\n      dup2\n        /* \"evs.sol\":443:483  deployedBallots.push(address(newBallot)) */\n      swap1\n      dup1\n      0x01\n      dup2\n      sload\n      add\n      dup1\n      dup3\n      sstore\n      dup1\n      swap2\n      pop\n      pop\n      0x01\n      swap1\n      sub\n      swap1\n      0x00\n      mstore\n      keccak256(0x00, 0x20)\n      add\n      0x00\n      swap1\n      swap2\n      swap1\n      swap2\n      swap1\n      swap2\n      0x0100\n      exp\n      dup2\n      sload\n      dup2\n      0xffffffffffffffffffffffffffffffffffffffff\n      mul\n      not\n      and\n      swap1\n      dup4\n      0xffffffffffffffffffffffffffffffffffffffff\n      and\n      mul\n      or\n      swap1\n      sstore\n      pop\n        /* \"evs.sol\":333:494  {... */\n      pop\n        /* \"evs.sol\":328:331  i++ */\n      dup1\n      dup1\n      0x01\n      add\n      swap2\n      pop\n      pop\n        /* \"evs.sol\":289:494  for (uint i = 0; i < districts.length; i++) {... */\n      jump(tag_21)\n    tag_22:\n      pop\n        /* \"evs.sol\":135:500  function startElection(... */\n      pop\n      pop\n      pop\n      jump\t// out\n        /* \"evs.sol\":506:614  function getDeployedBallots() public view returns (address[] memory) {... */\n    tag_11:\n        /* \"evs.sol\":557:573  address[] memory */\n      0x60\n        /* \"evs.sol\":592:607  deployedBallots */\n      0x00\n        /* \"evs.sol\":585:607  return deployedBallots */\n      dup1\n      sload\n      dup1\n      0x20\n      mul\n      0x20\n      add\n      mload(0x40)\n      swap1\n      dup2\n      add\n      0x40\n      mstore\n      dup1\n      swap3\n      swap2\n      swap1\n      dup2\n      dup2\n      mstore\n      0x20\n      add\n      dup3\n      dup1\n      sload\n      dup1\n      iszero\n      tag_38\n      jumpi\n      0x20\n      mul\n      dup3\n      add\n      swap2\n      swap1\n      0x00\n      mstore\n      keccak256(0x00, 0x20)\n      swap1\n    tag_39:\n      dup2\n      0x00\n      swap1\n      sload\n      swap1\n      0x0100\n      exp\n      swap1\n      div\n      0xffffffffffffffffffffffffffffffffffffffff\n      and\n      0xffffffffffffffffffffffffffffffffffffffff\n      and\n      dup2\n      mstore\n      0x20\n      add\n      swap1\n      0x01\n      add\n      swap1\n      dup1\n      dup4\n      gt\n      tag_39\n      jumpi\n    tag_38:\n      pop\n      pop\n      pop\n      pop\n      pop\n      swap1\n      pop\n        /* \"evs.sol\":506:614  function getDeployedBallots() public view returns (address[] memory) {... */\n      swap1\n      jump\t// out\n        /* \"evs.sol\":96:128  address[] public deployedBallots */\n    tag_17:\n      0x00\n      dup2\n      dup2\n      sload\n      dup2\n      lt\n      tag_40\n      jumpi\n      0x00\n      dup1\n      revert\n    tag_40:\n      swap1\n      0x00\n      mstore\n      keccak256(0x00, 0x20)\n      add\n      0x00\n      swap2\n      pop\n      sload\n      swap1\n      0x0100\n      exp\n      swap1\n      div\n      0xffffffffffffffffffffffffffffffffffffffff\n      and\n      dup2\n      jump\t// out\n    tag_32:\n      dataSize(sub_0)\n      dup1\n      dataOffset(sub_0)\n      dup4\n      codecopy\n      add\n      swap1\n      jump\t// out\n        /* \"#utility.yul\":7:82   */\n    tag_42:\n        /* \"#utility.yul\":40:46   */\n      0x00\n        /* \"#utility.yul\":73:75   */\n      0x40\n        /* \"#utility.yul\":67:76   */\n      mload\n        /* \"#utility.yul\":57:76   */\n      swap1\n      pop\n        /* \"#utility.yul\":7:82   */\n      swap1\n      jump\t// out\n        /* \"#utility.yul\":88:205   */\n    tag_43:\n        /* \"#utility.yul\":197:198   */\n      0x00\n        /* \"#utility.yul\":194:195   */\n      dup1\n        /* \"#utility.yul\":187:199   */\n      revert\n        /* \"#utility.yul\":211:328   */\n    tag_44:\n        /* \"#utility.yul\":320:321   */\n      0x00\n        /* \"#utility.yul\":317:318   */\n      dup1\n        /* \"#utility.yul\":310:322   */\n      revert\n        /* \"#utility.yul\":334:451   */\n    tag_45:\n        /* \"#utility.yul\":443:444   */\n      0x00\n        /* \"#utility.yul\":440:441   */\n      dup1\n        /* \"#utility.yul\":433:445   */\n      revert\n        /* \"#utility.yul\":457:559   */\n    tag_46:\n        /* \"#utility.yul\":498:504   */\n      0x00\n        /* \"#utility.yul\":549:551   */\n      0x1f\n        /* \"#utility.yul\":545:552   */\n      not\n        /* \"#utility.yul\":540:542   */\n      0x1f\n        /* \"#utility.yul\":533:538   */\n      dup4\n        /* \"#utility.yul\":529:543   */\n      add\n        /* \"#utility.yul\":525:553   */\n      and\n        /* \"#utility.yul\":515:553   */\n      swap1\n      pop\n        /* \"#utility.yul\":457:559   */\n      swap2\n      swap1\n      pop\n      jump\t// out\n        /* \"#utility.yul\":565:745   */\n    tag_47:\n        /* \"#utility.yul\":613:690   */\n      0x4e487b7100000000000000000000000000000000000000000000000000000000\n        /* \"#utility.yul\":610:611   */\n      0x00\n        /* \"#utility.yul\":603:691   */\n      mstore\n        /* \"#utility.yul\":710:714   */\n      0x41\n        /* \"#utility.yul\":707:708   */\n      0x04\n        /* \"#utility.yul\":700:715   */\n      mstore\n        /* \"#utility.yul\":734:738   */\n      0x24\n        /* \"#utility.yul\":731:732   */\n      0x00\n        /* \"#utility.yul\":724:739   */\n      revert\n        /* \"#utility.yul\":751:1032   */\n    tag_48:\n        /* \"#utility.yul\":834:861   */\n      tag_95\n        /* \"#utility.yul\":856:860   */\n      dup3\n        /* \"#utility.yul\":834:861   */\n      tag_46\n      jump\t// in\n    tag_95:\n        /* \"#utility.yul\":826:832   */\n      dup2\n        /* \"#utility.yul\":822:862   */\n      add\n        /* \"#utility.yul\":964:970   */\n      dup2\n        /* \"#utility.yul\":952:962   */\n      dup2\n        /* \"#utility.yul\":949:971   */\n      lt\n        /* \"#utility.yul\":928:946   */\n      0xffffffffffffffff\n        /* \"#utility.yul\":916:926   */\n      dup3\n        /* \"#utility.yul\":913:947   */\n      gt\n        /* \"#utility.yul\":910:972   */\n      or\n        /* \"#utility.yul\":907:995   */\n      iszero\n      tag_96\n      jumpi\n        /* \"#utility.yul\":975:993   */\n      tag_97\n      tag_47\n      jump\t// in\n    tag_97:\n        /* \"#utility.yul\":907:995   */\n    tag_96:\n        /* \"#utility.yul\":1015:1025   */\n      dup1\n        /* \"#utility.yul\":1011:1013   */\n      0x40\n        /* \"#utility.yul\":1004:1026   */\n      mstore\n        /* \"#utility.yul\":794:1032   */\n      pop\n        /* \"#utility.yul\":751:1032   */\n      pop\n      pop\n      jump\t// out\n        /* \"#utility.yul\":1038:1167   */\n    tag_49:\n        /* \"#utility.yul\":1072:1078   */\n      0x00\n        /* \"#utility.yul\":1099:1119   */\n      tag_99\n      tag_42\n      jump\t// in\n    tag_99:\n        /* \"#utility.yul\":1089:1119   */\n      swap1\n      pop\n        /* \"#utility.yul\":1128:1161   */\n      tag_100\n        /* \"#utility.yul\":1156:1160   */\n      dup3\n        /* \"#utility.yul\":1148:1154   */\n      dup3\n        /* \"#utility.yul\":1128:1161   */\n      tag_48\n      jump\t// in\n    tag_100:\n        /* \"#utility.yul\":1038:1167   */\n      swap2\n      swap1\n      pop\n      jump\t// out\n        /* \"#utility.yul\":1173:1519   */\n    tag_50:\n        /* \"#utility.yul\":1285:1289   */\n      0x00\n        /* \"#utility.yul\":1375:1393   */\n      0xffffffffffffffff\n        /* \"#utility.yul\":1367:1373   */\n      dup3\n        /* \"#utility.yul\":1364:1394   */\n      gt\n        /* \"#utility.yul\":1361:1417   */\n      iszero\n      tag_102\n      jumpi\n        /* \"#utility.yul\":1397:1415   */\n      tag_103\n      tag_47\n      jump\t// in\n    tag_103:\n        /* \"#utility.yul\":1361:1417   */\n    tag_102:\n        /* \"#utility.yul\":1447:1451   */\n      0x20\n        /* \"#utility.yul\":1439:1445   */\n      dup3\n        /* \"#utility.yul\":1435:1452   */\n      mul\n        /* \"#utility.yul\":1427:1452   */\n      swap1\n      pop\n        /* \"#utility.yul\":1507:1511   */\n      0x20\n        /* \"#utility.yul\":1501:1505   */\n      dup2\n        /* \"#utility.yul\":1497:1512   */\n      add\n        /* \"#utility.yul\":1489:1512   */\n      swap1\n      pop\n        /* \"#utility.yul\":1173:1519   */\n      swap2\n      swap1\n      pop\n      jump\t// out\n        /* \"#utility.yul\":1525:1642   */\n    tag_51:\n        /* \"#utility.yul\":1634:1635   */\n      0x00\n        /* \"#utility.yul\":1631:1632   */\n      dup1\n        /* \"#utility.yul\":1624:1636   */\n      revert\n        /* \"#utility.yul\":1648:1969   */\n    tag_52:\n        /* \"#utility.yul\":1735:1739   */\n      0x00\n        /* \"#utility.yul\":1825:1843   */\n      0xffffffffffffffff\n        /* \"#utility.yul\":1817:1823   */\n      dup3\n        /* \"#utility.yul\":1814:1844   */\n      gt\n        /* \"#utility.yul\":1811:1867   */\n      iszero\n      tag_106\n      jumpi\n        /* \"#utility.yul\":1847:1865   */\n      tag_107\n      tag_47\n      jump\t// in\n    tag_107:\n        /* \"#utility.yul\":1811:1867   */\n    tag_106:\n        /* \"#utility.yul\":1897:1901   */\n      0x20\n        /* \"#utility.yul\":1889:1895   */\n      dup3\n        /* \"#utility.yul\":1885:1902   */\n      mul\n        /* \"#utility.yul\":1877:1902   */\n      swap1\n      pop\n        /* \"#utility.yul\":1957:1961   */\n      0x20\n        /* \"#utility.yul\":1951:1955   */\n      dup2\n        /* \"#utility.yul\":1947:1962   */\n      add\n        /* \"#utility.yul\":1939:1962   */\n      swap1\n      pop\n        /* \"#utility.yul\":1648:1969   */\n      swap2\n      swap1\n      pop\n      jump\t// out\n        /* \"#utility.yul\":1975:2092   */\n    tag_53:\n        /* \"#utility.yul\":2084:2085   */\n      0x00\n        /* \"#utility.yul\":2081:2082   */\n      dup1\n        /* \"#utility.yul\":2074:2086   */\n      revert\n        /* \"#utility.yul\":2098:2406   */\n    tag_54:\n        /* \"#utility.yul\":2160:2164   */\n      0x00\n        /* \"#utility.yul\":2250:2268   */\n      0xffffffffffffffff\n        /* \"#utility.yul\":2242:2248   */\n      dup3\n        /* \"#utility.yul\":2239:2269   */\n      gt\n        /* \"#utility.yul\":2236:2292   */\n      iszero\n      tag_110\n      jumpi\n        /* \"#utility.yul\":2272:2290   */\n      tag_111\n      tag_47\n      jump\t// in\n    tag_111:\n        /* \"#utility.yul\":2236:2292   */\n    tag_110:\n        /* \"#utility.yul\":2310:2339   */\n      tag_112\n        /* \"#utility.yul\":2332:2338   */\n      dup3\n        /* \"#utility.yul\":2310:2339   */\n      tag_46\n      jump\t// in\n    tag_112:\n        /* \"#utility.yul\":2302:2339   */\n      swap1\n      pop\n        /* \"#utility.yul\":2394:2398   */\n      0x20\n        /* \"#utility.yul\":2388:2392   */\n      dup2\n        /* \"#utility.yul\":2384:2399   */\n      add\n        /* \"#utility.yul\":2376:2399   */\n      swap1\n      pop\n        /* \"#utility.yul\":2098:2406   */\n      swap2\n      swap1\n      pop\n      jump\t// out\n        /* \"#utility.yul\":2412:2560   */\n    tag_55:\n        /* \"#utility.yul\":2510:2516   */\n      dup3\n        /* \"#utility.yul\":2505:2508   */\n      dup2\n        /* \"#utility.yul\":2500:2503   */\n      dup4\n        /* \"#utility.yul\":2487:2517   */\n      calldatacopy\n        /* \"#utility.yul\":2551:2552   */\n      0x00\n        /* \"#utility.yul\":2542:2548   */\n      dup4\n        /* \"#utility.yul\":2537:2540   */\n      dup4\n        /* \"#utility.yul\":2533:2549   */\n      add\n        /* \"#utility.yul\":2526:2553   */\n      mstore\n        /* \"#utility.yul\":2412:2560   */\n      pop\n      pop\n      pop\n      jump\t// out\n        /* \"#utility.yul\":2566:2991   */\n    tag_56:\n        /* \"#utility.yul\":2644:2649   */\n      0x00\n        /* \"#utility.yul\":2669:2735   */\n      tag_115\n        /* \"#utility.yul\":2685:2734   */\n      tag_116\n        /* \"#utility.yul\":2727:2733   */\n      dup5\n        /* \"#utility.yul\":2685:2734   */\n      tag_54\n      jump\t// in\n    tag_116:\n        /* \"#utility.yul\":2669:2735   */\n      tag_49\n      jump\t// in\n    tag_115:\n        /* \"#utility.yul\":2660:2735   */\n      swap1\n      pop\n        /* \"#utility.yul\":2758:2764   */\n      dup3\n        /* \"#utility.yul\":2751:2756   */\n      dup2\n        /* \"#utility.yul\":2744:2765   */\n      mstore\n        /* \"#utility.yul\":2796:2800   */\n      0x20\n        /* \"#utility.yul\":2789:2794   */\n      dup2\n        /* \"#utility.yul\":2785:2801   */\n      add\n        /* \"#utility.yul\":2834:2837   */\n      dup5\n        /* \"#utility.yul\":2825:2831   */\n      dup5\n        /* \"#utility.yul\":2820:2823   */\n      dup5\n        /* \"#utility.yul\":2816:2832   */\n      add\n        /* \"#utility.yul\":2813:2838   */\n      gt\n        /* \"#utility.yul\":2810:2922   */\n      iszero\n      tag_117\n      jumpi\n        /* \"#utility.yul\":2841:2920   */\n      tag_118\n      tag_53\n      jump\t// in\n    tag_118:\n        /* \"#utility.yul\":2810:2922   */\n    tag_117:\n        /* \"#utility.yul\":2931:2985   */\n      tag_119\n        /* \"#utility.yul\":2978:2984   */\n      dup5\n        /* \"#utility.yul\":2973:2976   */\n      dup3\n        /* \"#utility.yul\":2968:2971   */\n      dup6\n        /* \"#utility.yul\":2931:2985   */\n      tag_55\n      jump\t// in\n    tag_119:\n        /* \"#utility.yul\":2650:2991   */\n      pop\n        /* \"#utility.yul\":2566:2991   */\n      swap4\n      swap3\n      pop\n      pop\n      pop\n      jump\t// out\n        /* \"#utility.yul\":3011:3351   */\n    tag_57:\n        /* \"#utility.yul\":3067:3072   */\n      0x00\n        /* \"#utility.yul\":3116:3119   */\n      dup3\n        /* \"#utility.yul\":3109:3113   */\n      0x1f\n        /* \"#utility.yul\":3101:3107   */\n      dup4\n        /* \"#utility.yul\":3097:3114   */\n      add\n        /* \"#utility.yul\":3093:3120   */\n      slt\n        /* \"#utility.yul\":3083:3205   */\n      tag_121\n      jumpi\n        /* \"#utility.yul\":3124:3203   */\n      tag_122\n      tag_45\n      jump\t// in\n    tag_122:\n        /* \"#utility.yul\":3083:3205   */\n    tag_121:\n        /* \"#utility.yul\":3241:3247   */\n      dup2\n        /* \"#utility.yul\":3228:3248   */\n      calldataload\n        /* \"#utility.yul\":3266:3345   */\n      tag_123\n        /* \"#utility.yul\":3341:3344   */\n      dup5\n        /* \"#utility.yul\":3333:3339   */\n      dup3\n        /* \"#utility.yul\":3326:3330   */\n      0x20\n        /* \"#utility.yul\":3318:3324   */\n      dup7\n        /* \"#utility.yul\":3314:3331   */\n      add\n        /* \"#utility.yul\":3266:3345   */\n      tag_56\n      jump\t// in\n    tag_123:\n        /* \"#utility.yul\":3257:3345   */\n      swap2\n      pop\n        /* \"#utility.yul\":3073:3351   */\n      pop\n        /* \"#utility.yul\":3011:3351   */\n      swap3\n      swap2\n      pop\n      pop\n      jump\t// out\n        /* \"#utility.yul\":3373:4318   */\n    tag_58:\n        /* \"#utility.yul\":3479:3484   */\n      0x00\n        /* \"#utility.yul\":3504:3595   */\n      tag_125\n        /* \"#utility.yul\":3520:3594   */\n      tag_126\n        /* \"#utility.yul\":3587:3593   */\n      dup5\n        /* \"#utility.yul\":3520:3594   */\n      tag_52\n      jump\t// in\n    tag_126:\n        /* \"#utility.yul\":3504:3595   */\n      tag_49\n      jump\t// in\n    tag_125:\n        /* \"#utility.yul\":3495:3595   */\n      swap1\n      pop\n        /* \"#utility.yul\":3615:3620   */\n      dup1\n        /* \"#utility.yul\":3644:3650   */\n      dup4\n        /* \"#utility.yul\":3637:3642   */\n      dup3\n        /* \"#utility.yul\":3630:3651   */\n      mstore\n        /* \"#utility.yul\":3678:3682   */\n      0x20\n        /* \"#utility.yul\":3671:3676   */\n      dup3\n        /* \"#utility.yul\":3667:3683   */\n      add\n        /* \"#utility.yul\":3660:3683   */\n      swap1\n      pop\n        /* \"#utility.yul\":3731:3735   */\n      0x20\n        /* \"#utility.yul\":3723:3729   */\n      dup5\n        /* \"#utility.yul\":3719:3736   */\n      mul\n        /* \"#utility.yul\":3711:3717   */\n      dup4\n        /* \"#utility.yul\":3707:3737   */\n      add\n        /* \"#utility.yul\":3760:3763   */\n      dup6\n        /* \"#utility.yul\":3752:3758   */\n      dup2\n        /* \"#utility.yul\":3749:3764   */\n      gt\n        /* \"#utility.yul\":3746:3868   */\n      iszero\n      tag_127\n      jumpi\n        /* \"#utility.yul\":3779:3858   */\n      tag_128\n      tag_51\n      jump\t// in\n    tag_128:\n        /* \"#utility.yul\":3746:3868   */\n    tag_127:\n        /* \"#utility.yul\":3894:3900   */\n      dup4\n        /* \"#utility.yul\":3877:4312   */\n    tag_129:\n        /* \"#utility.yul\":3911:3917   */\n      dup2\n        /* \"#utility.yul\":3906:3909   */\n      dup2\n        /* \"#utility.yul\":3903:3918   */\n      lt\n        /* \"#utility.yul\":3877:4312   */\n      iszero\n      tag_131\n      jumpi\n        /* \"#utility.yul\":4000:4003   */\n      dup1\n        /* \"#utility.yul\":3987:4004   */\n      calldataload\n        /* \"#utility.yul\":4036:4054   */\n      0xffffffffffffffff\n        /* \"#utility.yul\":4023:4034   */\n      dup2\n        /* \"#utility.yul\":4020:4055   */\n      gt\n        /* \"#utility.yul\":4017:4139   */\n      iszero\n      tag_132\n      jumpi\n        /* \"#utility.yul\":4058:4137   */\n      tag_133\n      tag_45\n      jump\t// in\n    tag_133:\n        /* \"#utility.yul\":4017:4139   */\n    tag_132:\n        /* \"#utility.yul\":4182:4193   */\n      dup1\n        /* \"#utility.yul\":4174:4180   */\n      dup7\n        /* \"#utility.yul\":4170:4194   */\n      add\n        /* \"#utility.yul\":4220:4267   */\n      tag_134\n        /* \"#utility.yul\":4263:4266   */\n      dup10\n        /* \"#utility.yul\":4251:4261   */\n      dup3\n        /* \"#utility.yul\":4220:4267   */\n      tag_57\n      jump\t// in\n    tag_134:\n        /* \"#utility.yul\":4215:4218   */\n      dup6\n        /* \"#utility.yul\":4208:4268   */\n      mstore\n        /* \"#utility.yul\":4297:4301   */\n      0x20\n        /* \"#utility.yul\":4292:4295   */\n      dup6\n        /* \"#utility.yul\":4288:4302   */\n      add\n        /* \"#utility.yul\":4281:4302   */\n      swap5\n      pop\n        /* \"#utility.yul\":3953:4312   */\n      pop\n      pop\n        /* \"#utility.yul\":3937:3941   */\n      0x20\n        /* \"#utility.yul\":3932:3935   */\n      dup2\n        /* \"#utility.yul\":3928:3942   */\n      add\n        /* \"#utility.yul\":3921:3942   */\n      swap1\n      pop\n        /* \"#utility.yul\":3877:4312   */\n      jump(tag_129)\n    tag_131:\n        /* \"#utility.yul\":3881:3902   */\n      pop\n        /* \"#utility.yul\":3485:4318   */\n      pop\n      pop\n        /* \"#utility.yul\":3373:4318   */\n      swap4\n      swap3\n      pop\n      pop\n      pop\n      jump\t// out\n        /* \"#utility.yul\":4340:4730   */\n    tag_59:\n        /* \"#utility.yul\":4421:4426   */\n      0x00\n        /* \"#utility.yul\":4470:4473   */\n      dup3\n        /* \"#utility.yul\":4463:4467   */\n      0x1f\n        /* \"#utility.yul\":4455:4461   */\n      dup4\n        /* \"#utility.yul\":4451:4468   */\n      add\n        /* \"#utility.yul\":4447:4474   */\n      slt\n        /* \"#utility.yul\":4437:4559   */\n      tag_136\n      jumpi\n        /* \"#utility.yul\":4478:4557   */\n      tag_137\n      tag_45\n      jump\t// in\n    tag_137:\n        /* \"#utility.yul\":4437:4559   */\n    tag_136:\n        /* \"#utility.yul\":4595:4601   */\n      dup2\n        /* \"#utility.yul\":4582:4602   */\n      calldataload\n        /* \"#utility.yul\":4620:4724   */\n      tag_138\n        /* \"#utility.yul\":4720:4723   */\n      dup5\n        /* \"#utility.yul\":4712:4718   */\n      dup3\n        /* \"#utility.yul\":4705:4709   */\n      0x20\n        /* \"#utility.yul\":4697:4703   */\n      dup7\n        /* \"#utility.yul\":4693:4710   */\n      add\n        /* \"#utility.yul\":4620:4724   */\n      tag_58\n      jump\t// in\n    tag_138:\n        /* \"#utility.yul\":4611:4724   */\n      swap2\n      pop\n        /* \"#utility.yul\":4427:4730   */\n      pop\n        /* \"#utility.yul\":4340:4730   */\n      swap3\n      swap2\n      pop\n      pop\n      jump\t// out\n        /* \"#utility.yul\":4754:5774   */\n    tag_60:\n        /* \"#utility.yul\":4885:4890   */\n      0x00\n        /* \"#utility.yul\":4910:5026   */\n      tag_140\n        /* \"#utility.yul\":4926:5025   */\n      tag_141\n        /* \"#utility.yul\":5018:5024   */\n      dup5\n        /* \"#utility.yul\":4926:5025   */\n      tag_50\n      jump\t// in\n    tag_141:\n        /* \"#utility.yul\":4910:5026   */\n      tag_49\n      jump\t// in\n    tag_140:\n        /* \"#utility.yul\":4901:5026   */\n      swap1\n      pop\n        /* \"#utility.yul\":5046:5051   */\n      dup1\n        /* \"#utility.yul\":5075:5081   */\n      dup4\n        /* \"#utility.yul\":5068:5073   */\n      dup3\n        /* \"#utility.yul\":5061:5082   */\n      mstore\n        /* \"#utility.yul\":5109:5113   */\n      0x20\n        /* \"#utility.yul\":5102:5107   */\n      dup3\n        /* \"#utility.yul\":5098:5114   */\n      add\n        /* \"#utility.yul\":5091:5114   */\n      swap1\n      pop\n        /* \"#utility.yul\":5162:5166   */\n      0x20\n        /* \"#utility.yul\":5154:5160   */\n      dup5\n        /* \"#utility.yul\":5150:5167   */\n      mul\n        /* \"#utility.yul\":5142:5148   */\n      dup4\n        /* \"#utility.yul\":5138:5168   */\n      add\n        /* \"#utility.yul\":5191:5194   */\n      dup6\n        /* \"#utility.yul\":5183:5189   */\n      dup2\n        /* \"#utility.yul\":5180:5195   */\n      gt\n        /* \"#utility.yul\":5177:5299   */\n      iszero\n      tag_142\n      jumpi\n        /* \"#utility.yul\":5210:5289   */\n      tag_143\n      tag_51\n      jump\t// in\n    tag_143:\n        /* \"#utility.yul\":5177:5299   */\n    tag_142:\n        /* \"#utility.yul\":5325:5331   */\n      dup4\n        /* \"#utility.yul\":5308:5768   */\n    tag_144:\n        /* \"#utility.yul\":5342:5348   */\n      dup2\n        /* \"#utility.yul\":5337:5340   */\n      dup2\n        /* \"#utility.yul\":5334:5349   */\n      lt\n        /* \"#utility.yul\":5308:5768   */\n      iszero\n      tag_146\n      jumpi\n        /* \"#utility.yul\":5431:5434   */\n      dup1\n        /* \"#utility.yul\":5418:5435   */\n      calldataload\n        /* \"#utility.yul\":5467:5485   */\n      0xffffffffffffffff\n        /* \"#utility.yul\":5454:5465   */\n      dup2\n        /* \"#utility.yul\":5451:5486   */\n      gt\n        /* \"#utility.yul\":5448:5570   */\n      iszero\n      tag_147\n      jumpi\n        /* \"#utility.yul\":5489:5568   */\n      tag_148\n      tag_45\n      jump\t// in\n    tag_148:\n        /* \"#utility.yul\":5448:5570   */\n    tag_147:\n        /* \"#utility.yul\":5613:5624   */\n      dup1\n        /* \"#utility.yul\":5605:5611   */\n      dup7\n        /* \"#utility.yul\":5601:5625   */\n      add\n        /* \"#utility.yul\":5651:5723   */\n      tag_149\n        /* \"#utility.yul\":5719:5722   */\n      dup10\n        /* \"#utility.yul\":5707:5717   */\n      dup3\n        /* \"#utility.yul\":5651:5723   */\n      tag_59\n      jump\t// in\n    tag_149:\n        /* \"#utility.yul\":5646:5649   */\n      dup6\n        /* \"#utility.yul\":5639:5724   */\n      mstore\n        /* \"#utility.yul\":5753:5757   */\n      0x20\n        /* \"#utility.yul\":5748:5751   */\n      dup6\n        /* \"#utility.yul\":5744:5758   */\n      add\n        /* \"#utility.yul\":5737:5758   */\n      swap5\n      pop\n        /* \"#utility.yul\":5384:5768   */\n      pop\n      pop\n        /* \"#utility.yul\":5368:5372   */\n      0x20\n        /* \"#utility.yul\":5363:5366   */\n      dup2\n        /* \"#utility.yul\":5359:5373   */\n      add\n        /* \"#utility.yul\":5352:5373   */\n      swap1\n      pop\n        /* \"#utility.yul\":5308:5768   */\n      jump(tag_144)\n    tag_146:\n        /* \"#utility.yul\":5312:5333   */\n      pop\n        /* \"#utility.yul\":4891:5774   */\n      pop\n      pop\n        /* \"#utility.yul\":4754:5774   */\n      swap4\n      swap3\n      pop\n      pop\n      pop\n      jump\t// out\n        /* \"#utility.yul\":5798:6238   */\n    tag_61:\n        /* \"#utility.yul\":5904:5909   */\n      0x00\n        /* \"#utility.yul\":5953:5956   */\n      dup3\n        /* \"#utility.yul\":5946:5950   */\n      0x1f\n        /* \"#utility.yul\":5938:5944   */\n      dup4\n        /* \"#utility.yul\":5934:5951   */\n      add\n        /* \"#utility.yul\":5930:5957   */\n      slt\n        /* \"#utility.yul\":5920:6042   */\n      tag_151\n      jumpi\n        /* \"#utility.yul\":5961:6040   */\n      tag_152\n      tag_45\n      jump\t// in\n    tag_152:\n        /* \"#utility.yul\":5920:6042   */\n    tag_151:\n        /* \"#utility.yul\":6078:6084   */\n      dup2\n        /* \"#utility.yul\":6065:6085   */\n      calldataload\n        /* \"#utility.yul\":6103:6232   */\n      tag_153\n        /* \"#utility.yul\":6228:6231   */\n      dup5\n        /* \"#utility.yul\":6220:6226   */\n      dup3\n        /* \"#utility.yul\":6213:6217   */\n      0x20\n        /* \"#utility.yul\":6205:6211   */\n      dup7\n        /* \"#utility.yul\":6201:6218   */\n      add\n        /* \"#utility.yul\":6103:6232   */\n      tag_60\n      jump\t// in\n    tag_153:\n        /* \"#utility.yul\":6094:6232   */\n      swap2\n      pop\n        /* \"#utility.yul\":5910:6238   */\n      pop\n        /* \"#utility.yul\":5798:6238   */\n      swap3\n      swap2\n      pop\n      pop\n      jump\t// out\n        /* \"#utility.yul\":6244:7653   */\n    tag_8:\n        /* \"#utility.yul\":6476:6482   */\n      0x00\n        /* \"#utility.yul\":6484:6490   */\n      dup1\n        /* \"#utility.yul\":6492:6498   */\n      0x00\n        /* \"#utility.yul\":6541:6543   */\n      0x60\n        /* \"#utility.yul\":6529:6538   */\n      dup5\n        /* \"#utility.yul\":6520:6527   */\n      dup7\n        /* \"#utility.yul\":6516:6539   */\n      sub\n        /* \"#utility.yul\":6512:6544   */\n      slt\n        /* \"#utility.yul\":6509:6628   */\n      iszero\n      tag_155\n      jumpi\n        /* \"#utility.yul\":6547:6626   */\n      tag_156\n      tag_43\n      jump\t// in\n    tag_156:\n        /* \"#utility.yul\":6509:6628   */\n    tag_155:\n        /* \"#utility.yul\":6695:6696   */\n      0x00\n        /* \"#utility.yul\":6684:6693   */\n      dup5\n        /* \"#utility.yul\":6680:6697   */\n      add\n        /* \"#utility.yul\":6667:6698   */\n      calldataload\n        /* \"#utility.yul\":6725:6743   */\n      0xffffffffffffffff\n        /* \"#utility.yul\":6717:6723   */\n      dup2\n        /* \"#utility.yul\":6714:6744   */\n      gt\n        /* \"#utility.yul\":6711:6828   */\n      iszero\n      tag_157\n      jumpi\n        /* \"#utility.yul\":6747:6826   */\n      tag_158\n      tag_44\n      jump\t// in\n    tag_158:\n        /* \"#utility.yul\":6711:6828   */\n    tag_157:\n        /* \"#utility.yul\":6852:6965   */\n      tag_159\n        /* \"#utility.yul\":6957:6964   */\n      dup7\n        /* \"#utility.yul\":6948:6954   */\n      dup3\n        /* \"#utility.yul\":6937:6946   */\n      dup8\n        /* \"#utility.yul\":6933:6955   */\n      add\n        /* \"#utility.yul\":6852:6965   */\n      tag_61\n      jump\t// in\n    tag_159:\n        /* \"#utility.yul\":6842:6965   */\n      swap4\n      pop\n        /* \"#utility.yul\":6638:6975   */\n      pop\n        /* \"#utility.yul\":7042:7044   */\n      0x20\n        /* \"#utility.yul\":7031:7040   */\n      dup5\n        /* \"#utility.yul\":7027:7045   */\n      add\n        /* \"#utility.yul\":7014:7046   */\n      calldataload\n        /* \"#utility.yul\":7073:7091   */\n      0xffffffffffffffff\n        /* \"#utility.yul\":7065:7071   */\n      dup2\n        /* \"#utility.yul\":7062:7092   */\n      gt\n        /* \"#utility.yul\":7059:7176   */\n      iszero\n      tag_160\n      jumpi\n        /* \"#utility.yul\":7095:7174   */\n      tag_161\n      tag_44\n      jump\t// in\n    tag_161:\n        /* \"#utility.yul\":7059:7176   */\n    tag_160:\n        /* \"#utility.yul\":7200:7313   */\n      tag_162\n        /* \"#utility.yul\":7305:7312   */\n      dup7\n        /* \"#utility.yul\":7296:7302   */\n      dup3\n        /* \"#utility.yul\":7285:7294   */\n      dup8\n        /* \"#utility.yul\":7281:7303   */\n      add\n        /* \"#utility.yul\":7200:7313   */\n      tag_61\n      jump\t// in\n    tag_162:\n        /* \"#utility.yul\":7190:7313   */\n      swap3\n      pop\n        /* \"#utility.yul\":6985:7323   */\n      pop\n        /* \"#utility.yul\":7390:7392   */\n      0x40\n        /* \"#utility.yul\":7379:7388   */\n      dup5\n        /* \"#utility.yul\":7375:7393   */\n      add\n        /* \"#utility.yul\":7362:7394   */\n      calldataload\n        /* \"#utility.yul\":7421:7439   */\n      0xffffffffffffffff\n        /* \"#utility.yul\":7413:7419   */\n      dup2\n        /* \"#utility.yul\":7410:7440   */\n      gt\n        /* \"#utility.yul\":7407:7524   */\n      iszero\n      tag_163\n      jumpi\n        /* \"#utility.yul\":7443:7522   */\n      tag_164\n      tag_44\n      jump\t// in\n    tag_164:\n        /* \"#utility.yul\":7407:7524   */\n    tag_163:\n        /* \"#utility.yul\":7548:7636   */\n      tag_165\n        /* \"#utility.yul\":7628:7635   */\n      dup7\n        /* \"#utility.yul\":7619:7625   */\n      dup3\n        /* \"#utility.yul\":7608:7617   */\n      dup8\n        /* \"#utility.yul\":7604:7626   */\n      add\n        /* \"#utility.yul\":7548:7636   */\n      tag_59\n      jump\t// in\n    tag_165:\n        /* \"#utility.yul\":7538:7636   */\n      swap2\n      pop\n        /* \"#utility.yul\":7333:7646   */\n      pop\n        /* \"#utility.yul\":6244:7653   */\n      swap3\n      pop\n      swap3\n      pop\n      swap3\n      jump\t// out\n        /* \"#utility.yul\":7659:7773   */\n    tag_62:\n        /* \"#utility.yul\":7726:7732   */\n      0x00\n        /* \"#utility.yul\":7760:7765   */\n      dup2\n        /* \"#utility.yul\":7754:7766   */\n      mload\n        /* \"#utility.yul\":7744:7766   */\n      swap1\n      pop\n        /* \"#utility.yul\":7659:7773   */\n      swap2\n      swap1\n      pop\n      jump\t// out\n        /* \"#utility.yul\":7779:7963   */\n    tag_63:\n        /* \"#utility.yul\":7878:7889   */\n      0x00\n        /* \"#utility.yul\":7912:7918   */\n      dup3\n        /* \"#utility.yul\":7907:7910   */\n      dup3\n        /* \"#utility.yul\":7900:7919   */\n      mstore\n        /* \"#utility.yul\":7952:7956   */\n      0x20\n        /* \"#utility.yul\":7947:7950   */\n      dup3\n        /* \"#utility.yul\":7943:7957   */\n      add\n        /* \"#utility.yul\":7928:7957   */\n      swap1\n      pop\n        /* \"#utility.yul\":7779:7963   */\n      swap3\n      swap2\n      pop\n      pop\n      jump\t// out\n        /* \"#utility.yul\":7969:8101   */\n    tag_64:\n        /* \"#utility.yul\":8036:8040   */\n      0x00\n        /* \"#utility.yul\":8059:8062   */\n      dup2\n        /* \"#utility.yul\":8051:8062   */\n      swap1\n      pop\n        /* \"#utility.yul\":8089:8093   */\n      0x20\n        /* \"#utility.yul\":8084:8087   */\n      dup3\n        /* \"#utility.yul\":8080:8094   */\n      add\n        /* \"#utility.yul\":8072:8094   */\n      swap1\n      pop\n        /* \"#utility.yul\":7969:8101   */\n      swap2\n      swap1\n      pop\n      jump\t// out\n        /* \"#utility.yul\":8107:8233   */\n    tag_65:\n        /* \"#utility.yul\":8144:8151   */\n      0x00\n        /* \"#utility.yul\":8184:8226   */\n      0xffffffffffffffffffffffffffffffffffffffff\n        /* \"#utility.yul\":8177:8182   */\n      dup3\n        /* \"#utility.yul\":8173:8227   */\n      and\n        /* \"#utility.yul\":8162:8227   */\n      swap1\n      pop\n        /* \"#utility.yul\":8107:8233   */\n      swap2\n      swap1\n      pop\n      jump\t// out\n        /* \"#utility.yul\":8239:8335   */\n    tag_66:\n        /* \"#utility.yul\":8276:8283   */\n      0x00\n        /* \"#utility.yul\":8305:8329   */\n      tag_171\n        /* \"#utility.yul\":8323:8328   */\n      dup3\n        /* \"#utility.yul\":8305:8329   */\n      tag_65\n      jump\t// in\n    tag_171:\n        /* \"#utility.yul\":8294:8329   */\n      swap1\n      pop\n        /* \"#utility.yul\":8239:8335   */\n      swap2\n      swap1\n      pop\n      jump\t// out\n        /* \"#utility.yul\":8341:8449   */\n    tag_67:\n        /* \"#utility.yul\":8418:8442   */\n      tag_173\n        /* \"#utility.yul\":8436:8441   */\n      dup2\n        /* \"#utility.yul\":8418:8442   */\n      tag_66\n      jump\t// in\n    tag_173:\n        /* \"#utility.yul\":8413:8416   */\n      dup3\n        /* \"#utility.yul\":8406:8443   */\n      mstore\n        /* \"#utility.yul\":8341:8449   */\n      pop\n      pop\n      jump\t// out\n        /* \"#utility.yul\":8455:8634   */\n    tag_68:\n        /* \"#utility.yul\":8524:8534   */\n      0x00\n        /* \"#utility.yul\":8545:8591   */\n      tag_175\n        /* \"#utility.yul\":8587:8590   */\n      dup4\n        /* \"#utility.yul\":8579:8585   */\n      dup4\n        /* \"#utility.yul\":8545:8591   */\n      tag_67\n      jump\t// in\n    tag_175:\n        /* \"#utility.yul\":8623:8627   */\n      0x20\n        /* \"#utility.yul\":8618:8621   */\n      dup4\n        /* \"#utility.yul\":8614:8628   */\n      add\n        /* \"#utility.yul\":8600:8628   */\n      swap1\n      pop\n        /* \"#utility.yul\":8455:8634   */\n      swap3\n      swap2\n      pop\n      pop\n      jump\t// out\n        /* \"#utility.yul\":8640:8753   */\n    tag_69:\n        /* \"#utility.yul\":8710:8714   */\n      0x00\n        /* \"#utility.yul\":8742:8746   */\n      0x20\n        /* \"#utility.yul\":8737:8740   */\n      dup3\n        /* \"#utility.yul\":8733:8747   */\n      add\n        /* \"#utility.yul\":8725:8747   */\n      swap1\n      pop\n        /* \"#utility.yul\":8640:8753   */\n      swap2\n      swap1\n      pop\n      jump\t// out\n        /* \"#utility.yul\":8789:9521   */\n    tag_70:\n        /* \"#utility.yul\":8908:8911   */\n      0x00\n        /* \"#utility.yul\":8937:8991   */\n      tag_178\n        /* \"#utility.yul\":8985:8990   */\n      dup3\n        /* \"#utility.yul\":8937:8991   */\n      tag_62\n      jump\t// in\n    tag_178:\n        /* \"#utility.yul\":9007:9093   */\n      tag_179\n        /* \"#utility.yul\":9086:9092   */\n      dup2\n        /* \"#utility.yul\":9081:9084   */\n      dup6\n        /* \"#utility.yul\":9007:9093   */\n      tag_63\n      jump\t// in\n    tag_179:\n        /* \"#utility.yul\":9000:9093   */\n      swap4\n      pop\n        /* \"#utility.yul\":9117:9173   */\n      tag_180\n        /* \"#utility.yul\":9167:9172   */\n      dup4\n        /* \"#utility.yul\":9117:9173   */\n      tag_64\n      jump\t// in\n    tag_180:\n        /* \"#utility.yul\":9196:9203   */\n      dup1\n        /* \"#utility.yul\":9227:9228   */\n      0x00\n        /* \"#utility.yul\":9212:9496   */\n    tag_181:\n        /* \"#utility.yul\":9237:9243   */\n      dup4\n        /* \"#utility.yul\":9234:9235   */\n      dup2\n        /* \"#utility.yul\":9231:9244   */\n      lt\n        /* \"#utility.yul\":9212:9496   */\n      iszero\n      tag_183\n      jumpi\n        /* \"#utility.yul\":9313:9319   */\n      dup2\n        /* \"#utility.yul\":9307:9320   */\n      mload\n        /* \"#utility.yul\":9340:9403   */\n      tag_184\n        /* \"#utility.yul\":9399:9402   */\n      dup9\n        /* \"#utility.yul\":9384:9397   */\n      dup3\n        /* \"#utility.yul\":9340:9403   */\n      tag_68\n      jump\t// in\n    tag_184:\n        /* \"#utility.yul\":9333:9403   */\n      swap8\n      pop\n        /* \"#utility.yul\":9426:9486   */\n      tag_185\n        /* \"#utility.yul\":9479:9485   */\n      dup4\n        /* \"#utility.yul\":9426:9486   */\n      tag_69\n      jump\t// in\n    tag_185:\n        /* \"#utility.yul\":9416:9486   */\n      swap3\n      pop\n        /* \"#utility.yul\":9272:9496   */\n      pop\n        /* \"#utility.yul\":9259:9260   */\n      0x01\n        /* \"#utility.yul\":9256:9257   */\n      dup2\n        /* \"#utility.yul\":9252:9261   */\n      add\n        /* \"#utility.yul\":9247:9261   */\n      swap1\n      pop\n        /* \"#utility.yul\":9212:9496   */\n      jump(tag_181)\n    tag_183:\n        /* \"#utility.yul\":9216:9230   */\n      pop\n        /* \"#utility.yul\":9512:9515   */\n      dup6\n        /* \"#utility.yul\":9505:9515   */\n      swap4\n      pop\n        /* \"#utility.yul\":8913:9521   */\n      pop\n      pop\n      pop\n        /* \"#utility.yul\":8789:9521   */\n      swap3\n      swap2\n      pop\n      pop\n      jump\t// out\n        /* \"#utility.yul\":9527:9900   */\n    tag_13:\n        /* \"#utility.yul\":9670:9674   */\n      0x00\n        /* \"#utility.yul\":9708:9710   */\n      0x20\n        /* \"#utility.yul\":9697:9706   */\n      dup3\n        /* \"#utility.yul\":9693:9711   */\n      add\n        /* \"#utility.yul\":9685:9711   */\n      swap1\n      pop\n        /* \"#utility.yul\":9757:9766   */\n      dup2\n        /* \"#utility.yul\":9751:9755   */\n      dup2\n        /* \"#utility.yul\":9747:9767   */\n      sub\n        /* \"#utility.yul\":9743:9744   */\n      0x00\n        /* \"#utility.yul\":9732:9741   */\n      dup4\n        /* \"#utility.yul\":9728:9745   */\n      add\n        /* \"#utility.yul\":9721:9768   */\n      mstore\n        /* \"#utility.yul\":9785:9893   */\n      tag_187\n        /* \"#utility.yul\":9888:9892   */\n      dup2\n        /* \"#utility.yul\":9879:9885   */\n      dup5\n        /* \"#utility.yul\":9785:9893   */\n      tag_70\n      jump\t// in\n    tag_187:\n        /* \"#utility.yul\":9777:9893   */\n      swap1\n      pop\n        /* \"#utility.yul\":9527:9900   */\n      swap3\n      swap2\n      pop\n      pop\n      jump\t// out\n        /* \"#utility.yul\":9906:9983   */\n    tag_71:\n        /* \"#utility.yul\":9943:9950   */\n      0x00\n        /* \"#utility.yul\":9972:9977   */\n      dup2\n        /* \"#utility.yul\":9961:9977   */\n      swap1\n      pop\n        /* \"#utility.yul\":9906:9983   */\n      swap2\n      swap1\n      pop\n      jump\t// out\n        /* \"#utility.yul\":9989:10111   */\n    tag_72:\n        /* \"#utility.yul\":10062:10086   */\n      tag_190\n        /* \"#utility.yul\":10080:10085   */\n      dup2\n        /* \"#utility.yul\":10062:10086   */\n      tag_71\n      jump\t// in\n    tag_190:\n        /* \"#utility.yul\":10055:10060   */\n      dup2\n        /* \"#utility.yul\":10052:10087   */\n      eq\n        /* \"#utility.yul\":10042:10105   */\n      tag_191\n      jumpi\n        /* \"#utility.yul\":10101:10102   */\n      0x00\n        /* \"#utility.yul\":10098:10099   */\n      dup1\n        /* \"#utility.yul\":10091:10103   */\n      revert\n        /* \"#utility.yul\":10042:10105   */\n    tag_191:\n        /* \"#utility.yul\":9989:10111   */\n      pop\n      jump\t// out\n        /* \"#utility.yul\":10117:10256   */\n    tag_73:\n        /* \"#utility.yul\":10163:10168   */\n      0x00\n        /* \"#utility.yul\":10201:10207   */\n      dup2\n        /* \"#utility.yul\":10188:10208   */\n      calldataload\n        /* \"#utility.yul\":10179:10208   */\n      swap1\n      pop\n        /* \"#utility.yul\":10217:10250   */\n      tag_193\n        /* \"#utility.yul\":10244:10249   */\n      dup2\n        /* \"#utility.yul\":10217:10250   */\n      tag_72\n      jump\t// in\n    tag_193:\n        /* \"#utility.yul\":10117:10256   */\n      swap3\n      swap2\n      pop\n      pop\n      jump\t// out\n        /* \"#utility.yul\":10262:10591   */\n    tag_16:\n        /* \"#utility.yul\":10321:10327   */\n      0x00\n        /* \"#utility.yul\":10370:10372   */\n      0x20\n        /* \"#utility.yul\":10358:10367   */\n      dup3\n        /* \"#utility.yul\":10349:10356   */\n      dup5\n        /* \"#utility.yul\":10345:10368   */\n      sub\n        /* \"#utility.yul\":10341:10373   */\n      slt\n        /* \"#utility.yul\":10338:10457   */\n      iszero\n      tag_195\n      jumpi\n        /* \"#utility.yul\":10376:10455   */\n      tag_196\n      tag_43\n      jump\t// in\n    tag_196:\n        /* \"#utility.yul\":10338:10457   */\n    tag_195:\n        /* \"#utility.yul\":10496:10497   */\n      0x00\n        /* \"#utility.yul\":10521:10574   */\n      tag_197\n        /* \"#utility.yul\":10566:10573   */\n      dup5\n        /* \"#utility.yul\":10557:10563   */\n      dup3\n        /* \"#utility.yul\":10546:10555   */\n      dup6\n        /* \"#utility.yul\":10542:10564   */\n      add\n        /* \"#utility.yul\":10521:10574   */\n      tag_73\n      jump\t// in\n    tag_197:\n        /* \"#utility.yul\":10511:10574   */\n      swap2\n      pop\n        /* \"#utility.yul\":10467:10584   */\n      pop\n        /* \"#utility.yul\":10262:10591   */\n      swap3\n      swap2\n      pop\n      pop\n      jump\t// out\n        /* \"#utility.yul\":10597:10715   */\n    tag_74:\n        /* \"#utility.yul\":10684:10708   */\n      tag_199\n        /* \"#utility.yul\":10702:10707   */\n      dup2\n        /* \"#utility.yul\":10684:10708   */\n      tag_66\n      jump\t// in\n    tag_199:\n        /* \"#utility.yul\":10679:10682   */\n      dup3\n        /* \"#utility.yul\":10672:10709   */\n      mstore\n        /* \"#utility.yul\":10597:10715   */\n      pop\n      pop\n      jump\t// out\n        /* \"#utility.yul\":10721:10943   */\n    tag_19:\n        /* \"#utility.yul\":10814:10818   */\n      0x00\n        /* \"#utility.yul\":10852:10854   */\n      0x20\n        /* \"#utility.yul\":10841:10850   */\n      dup3\n        /* \"#utility.yul\":10837:10855   */\n      add\n        /* \"#utility.yul\":10829:10855   */\n      swap1\n      pop\n        /* \"#utility.yul\":10865:10936   */\n      tag_201\n        /* \"#utility.yul\":10933:10934   */\n      0x00\n        /* \"#utility.yul\":10922:10931   */\n      dup4\n        /* \"#utility.yul\":10918:10935   */\n      add\n        /* \"#utility.yul\":10909:10915   */\n      dup5\n        /* \"#utility.yul\":10865:10936   */\n      tag_74\n      jump\t// in\n    tag_201:\n        /* \"#utility.yul\":10721:10943   */\n      swap3\n      swap2\n      pop\n      pop\n      jump\t// out\n        /* \"#utility.yul\":10949:11129   */\n    tag_26:\n        /* \"#utility.yul\":10997:11074   */\n      0x4e487b7100000000000000000000000000000000000000000000000000000000\n        /* \"#utility.yul\":10994:10995   */\n      0x00\n        /* \"#utility.yul\":10987:11075   */\n      mstore\n        /* \"#utility.yul\":11094:11098   */\n      0x32\n        /* \"#utility.yul\":11091:11092   */\n      0x04\n        /* \"#utility.yul\":11084:11099   */\n      mstore\n        /* \"#utility.yul\":11118:11122   */\n      0x24\n        /* \"#utility.yul\":11115:11116   */\n      0x00\n        /* \"#utility.yul\":11108:11123   */\n      revert\n        /* \"#utility.yul\":11135:11259   */\n    tag_75:\n        /* \"#utility.yul\":11212:11218   */\n      0x00\n        /* \"#utility.yul\":11246:11251   */\n      dup2\n        /* \"#utility.yul\":11240:11252   */\n      mload\n        /* \"#utility.yul\":11230:11252   */\n      swap1\n      pop\n        /* \"#utility.yul\":11135:11259   */\n      swap2\n      swap1\n      pop\n      jump\t// out\n        /* \"#utility.yul\":11265:11459   */\n    tag_76:\n        /* \"#utility.yul\":11374:11385   */\n      0x00\n        /* \"#utility.yul\":11408:11414   */\n      dup3\n        /* \"#utility.yul\":11403:11406   */\n      dup3\n        /* \"#utility.yul\":11396:11415   */\n      mstore\n        /* \"#utility.yul\":11448:11452   */\n      0x20\n        /* \"#utility.yul\":11443:11446   */\n      dup3\n        /* \"#utility.yul\":11439:11453   */\n      add\n        /* \"#utility.yul\":11424:11453   */\n      swap1\n      pop\n        /* \"#utility.yul\":11265:11459   */\n      swap3\n      swap2\n      pop\n      pop\n      jump\t// out\n        /* \"#utility.yul\":11465:11607   */\n    tag_77:\n        /* \"#utility.yul\":11542:11546   */\n      0x00\n        /* \"#utility.yul\":11565:11568   */\n      dup2\n        /* \"#utility.yul\":11557:11568   */\n      swap1\n      pop\n        /* \"#utility.yul\":11595:11599   */\n      0x20\n        /* \"#utility.yul\":11590:11593   */\n      dup3\n        /* \"#utility.yul\":11586:11600   */\n      add\n        /* \"#utility.yul\":11578:11600   */\n      swap1\n      pop\n        /* \"#utility.yul\":11465:11607   */\n      swap2\n      swap1\n      pop\n      jump\t// out\n        /* \"#utility.yul\":11613:11712   */\n    tag_78:\n        /* \"#utility.yul\":11665:11671   */\n      0x00\n        /* \"#utility.yul\":11699:11704   */\n      dup2\n        /* \"#utility.yul\":11693:11705   */\n      mload\n        /* \"#utility.yul\":11683:11705   */\n      swap1\n      pop\n        /* \"#utility.yul\":11613:11712   */\n      swap2\n      swap1\n      pop\n      jump\t// out\n        /* \"#utility.yul\":11718:11877   */\n    tag_79:\n        /* \"#utility.yul\":11792:11803   */\n      0x00\n        /* \"#utility.yul\":11826:11832   */\n      dup3\n        /* \"#utility.yul\":11821:11824   */\n      dup3\n        /* \"#utility.yul\":11814:11833   */\n      mstore\n        /* \"#utility.yul\":11866:11870   */\n      0x20\n        /* \"#utility.yul\":11861:11864   */\n      dup3\n        /* \"#utility.yul\":11857:11871   */\n      add\n        /* \"#utility.yul\":11842:11871   */\n      swap1\n      pop\n        /* \"#utility.yul\":11718:11877   */\n      swap3\n      swap2\n      pop\n      pop\n      jump\t// out\n        /* \"#utility.yul\":11883:12022   */\n    tag_80:\n        /* \"#utility.yul\":11972:11978   */\n      dup3\n        /* \"#utility.yul\":11967:11970   */\n      dup2\n        /* \"#utility.yul\":11962:11965   */\n      dup4\n        /* \"#utility.yul\":11956:11979   */\n      mcopy\n        /* \"#utility.yul\":12013:12014   */\n      0x00\n        /* \"#utility.yul\":12004:12010   */\n      dup4\n        /* \"#utility.yul\":11999:12002   */\n      dup4\n        /* \"#utility.yul\":11995:12011   */\n      add\n        /* \"#utility.yul\":11988:12015   */\n      mstore\n        /* \"#utility.yul\":11883:12022   */\n      pop\n      pop\n      pop\n      jump\t// out\n        /* \"#utility.yul\":12028:12385   */\n    tag_81:\n        /* \"#utility.yul\":12106:12109   */\n      0x00\n        /* \"#utility.yul\":12134:12173   */\n      tag_210\n        /* \"#utility.yul\":12167:12172   */\n      dup3\n        /* \"#utility.yul\":12134:12173   */\n      tag_78\n      jump\t// in\n    tag_210:\n        /* \"#utility.yul\":12189:12250   */\n      tag_211\n        /* \"#utility.yul\":12243:12249   */\n      dup2\n        /* \"#utility.yul\":12238:12241   */\n      dup6\n        /* \"#utility.yul\":12189:12250   */\n      tag_79\n      jump\t// in\n    tag_211:\n        /* \"#utility.yul\":12182:12250   */\n      swap4\n      pop\n        /* \"#utility.yul\":12259:12324   */\n      tag_212\n        /* \"#utility.yul\":12317:12323   */\n      dup2\n        /* \"#utility.yul\":12312:12315   */\n      dup6\n        /* \"#utility.yul\":12305:12309   */\n      0x20\n        /* \"#utility.yul\":12298:12303   */\n      dup7\n        /* \"#utility.yul\":12294:12310   */\n      add\n        /* \"#utility.yul\":12259:12324   */\n      tag_80\n      jump\t// in\n    tag_212:\n        /* \"#utility.yul\":12349:12378   */\n      tag_213\n        /* \"#utility.yul\":12371:12377   */\n      dup2\n        /* \"#utility.yul\":12349:12378   */\n      tag_46\n      jump\t// in\n    tag_213:\n        /* \"#utility.yul\":12344:12347   */\n      dup5\n        /* \"#utility.yul\":12340:12379   */\n      add\n        /* \"#utility.yul\":12333:12379   */\n      swap2\n      pop\n        /* \"#utility.yul\":12110:12385   */\n      pop\n        /* \"#utility.yul\":12028:12385   */\n      swap3\n      swap2\n      pop\n      pop\n      jump\t// out\n        /* \"#utility.yul\":12391:12587   */\n    tag_82:\n        /* \"#utility.yul\":12480:12490   */\n      0x00\n        /* \"#utility.yul\":12515:12581   */\n      tag_215\n        /* \"#utility.yul\":12577:12580   */\n      dup4\n        /* \"#utility.yul\":12569:12575   */\n      dup4\n        /* \"#utility.yul\":12515:12581   */\n      tag_81\n      jump\t// in\n    tag_215:\n        /* \"#utility.yul\":12501:12581   */\n      swap1\n      pop\n        /* \"#utility.yul\":12391:12587   */\n      swap3\n      swap2\n      pop\n      pop\n      jump\t// out\n        /* \"#utility.yul\":12593:12716   */\n    tag_83:\n        /* \"#utility.yul\":12673:12677   */\n      0x00\n        /* \"#utility.yul\":12705:12709   */\n      0x20\n        /* \"#utility.yul\":12700:12703   */\n      dup3\n        /* \"#utility.yul\":12696:12710   */\n      add\n        /* \"#utility.yul\":12688:12710   */\n      swap1\n      pop\n        /* \"#utility.yul\":12593:12716   */\n      swap2\n      swap1\n      pop\n      jump\t// out\n        /* \"#utility.yul\":12750:13741   */\n    tag_84:\n        /* \"#utility.yul\":12889:12892   */\n      0x00\n        /* \"#utility.yul\":12918:12982   */\n      tag_218\n        /* \"#utility.yul\":12976:12981   */\n      dup3\n        /* \"#utility.yul\":12918:12982   */\n      tag_75\n      jump\t// in\n    tag_218:\n        /* \"#utility.yul\":12998:13094   */\n      tag_219\n        /* \"#utility.yul\":13087:13093   */\n      dup2\n        /* \"#utility.yul\":13082:13085   */\n      dup6\n        /* \"#utility.yul\":12998:13094   */\n      tag_76\n      jump\t// in\n    tag_219:\n        /* \"#utility.yul\":12991:13094   */\n      swap4\n      pop\n        /* \"#utility.yul\":13120:13123   */\n      dup4\n        /* \"#utility.yul\":13165:13169   */\n      0x20\n        /* \"#utility.yul\":13157:13163   */\n      dup3\n        /* \"#utility.yul\":13153:13170   */\n      mul\n        /* \"#utility.yul\":13148:13151   */\n      dup6\n        /* \"#utility.yul\":13144:13171   */\n      add\n        /* \"#utility.yul\":13195:13261   */\n      tag_220\n        /* \"#utility.yul\":13255:13260   */\n      dup6\n        /* \"#utility.yul\":13195:13261   */\n      tag_77\n      jump\t// in\n    tag_220:\n        /* \"#utility.yul\":13284:13291   */\n      dup1\n        /* \"#utility.yul\":13315:13316   */\n      0x00\n        /* \"#utility.yul\":13300:13696   */\n    tag_221:\n        /* \"#utility.yul\":13325:13331   */\n      dup6\n        /* \"#utility.yul\":13322:13323   */\n      dup2\n        /* \"#utility.yul\":13319:13332   */\n      lt\n        /* \"#utility.yul\":13300:13696   */\n      iszero\n      tag_223\n      jumpi\n        /* \"#utility.yul\":13396:13405   */\n      dup5\n        /* \"#utility.yul\":13390:13394   */\n      dup5\n        /* \"#utility.yul\":13386:13406   */\n      sub\n        /* \"#utility.yul\":13381:13384   */\n      dup10\n        /* \"#utility.yul\":13374:13407   */\n      mstore\n        /* \"#utility.yul\":13447:13453   */\n      dup2\n        /* \"#utility.yul\":13441:13454   */\n      mload\n        /* \"#utility.yul\":13475:13559   */\n      tag_224\n        /* \"#utility.yul\":13554:13558   */\n      dup6\n        /* \"#utility.yul\":13539:13552   */\n      dup3\n        /* \"#utility.yul\":13475:13559   */\n      tag_82\n      jump\t// in\n    tag_224:\n        /* \"#utility.yul\":13467:13559   */\n      swap5\n      pop\n        /* \"#utility.yul\":13582:13652   */\n      tag_225\n        /* \"#utility.yul\":13645:13651   */\n      dup4\n        /* \"#utility.yul\":13582:13652   */\n      tag_83\n      jump\t// in\n    tag_225:\n        /* \"#utility.yul\":13572:13652   */\n      swap3\n      pop\n        /* \"#utility.yul\":13681:13685   */\n      0x20\n        /* \"#utility.yul\":13676:13679   */\n      dup11\n        /* \"#utility.yul\":13672:13686   */\n      add\n        /* \"#utility.yul\":13665:13686   */\n      swap10\n      pop\n        /* \"#utility.yul\":13360:13696   */\n      pop\n        /* \"#utility.yul\":13347:13348   */\n      0x01\n        /* \"#utility.yul\":13344:13345   */\n      dup2\n        /* \"#utility.yul\":13340:13349   */\n      add\n        /* \"#utility.yul\":13335:13349   */\n      swap1\n      pop\n        /* \"#utility.yul\":13300:13696   */\n      jump(tag_221)\n    tag_223:\n        /* \"#utility.yul\":13304:13318   */\n      pop\n        /* \"#utility.yul\":13712:13716   */\n      dup3\n        /* \"#utility.yul\":13705:13716   */\n      swap8\n      pop\n        /* \"#utility.yul\":13732:13735   */\n      dup8\n        /* \"#utility.yul\":13725:13735   */\n      swap6\n      pop\n        /* \"#utility.yul\":12894:13741   */\n      pop\n      pop\n      pop\n      pop\n      pop\n        /* \"#utility.yul\":12750:13741   */\n      swap3\n      swap2\n      pop\n      pop\n      jump\t// out\n        /* \"#utility.yul\":13747:13916   */\n    tag_85:\n        /* \"#utility.yul\":13831:13842   */\n      0x00\n        /* \"#utility.yul\":13865:13871   */\n      dup3\n        /* \"#utility.yul\":13860:13863   */\n      dup3\n        /* \"#utility.yul\":13853:13872   */\n      mstore\n        /* \"#utility.yul\":13905:13909   */\n      0x20\n        /* \"#utility.yul\":13900:13903   */\n      dup3\n        /* \"#utility.yul\":13896:13910   */\n      add\n        /* \"#utility.yul\":13881:13910   */\n      swap1\n      pop\n        /* \"#utility.yul\":13747:13916   */\n      swap3\n      swap2\n      pop\n      pop\n      jump\t// out\n        /* \"#utility.yul\":13922:14299   */\n    tag_86:\n        /* \"#utility.yul\":14010:14013   */\n      0x00\n        /* \"#utility.yul\":14038:14077   */\n      tag_228\n        /* \"#utility.yul\":14071:14076   */\n      dup3\n        /* \"#utility.yul\":14038:14077   */\n      tag_78\n      jump\t// in\n    tag_228:\n        /* \"#utility.yul\":14093:14164   */\n      tag_229\n        /* \"#utility.yul\":14157:14163   */\n      dup2\n        /* \"#utility.yul\":14152:14155   */\n      dup6\n        /* \"#utility.yul\":14093:14164   */\n      tag_85\n      jump\t// in\n    tag_229:\n        /* \"#utility.yul\":14086:14164   */\n      swap4\n      pop\n        /* \"#utility.yul\":14173:14238   */\n      tag_230\n        /* \"#utility.yul\":14231:14237   */\n      dup2\n        /* \"#utility.yul\":14226:14229   */\n      dup6\n        /* \"#utility.yul\":14219:14223   */\n      0x20\n        /* \"#utility.yul\":14212:14217   */\n      dup7\n        /* \"#utility.yul\":14208:14224   */\n      add\n        /* \"#utility.yul\":14173:14238   */\n      tag_80\n      jump\t// in\n    tag_230:\n        /* \"#utility.yul\":14263:14292   */\n      tag_231\n        /* \"#utility.yul\":14285:14291   */\n      dup2\n        /* \"#utility.yul\":14263:14292   */\n      tag_46\n      jump\t// in\n    tag_231:\n        /* \"#utility.yul\":14258:14261   */\n      dup5\n        /* \"#utility.yul\":14254:14293   */\n      add\n        /* \"#utility.yul\":14247:14293   */\n      swap2\n      pop\n        /* \"#utility.yul\":14014:14299   */\n      pop\n        /* \"#utility.yul\":13922:14299   */\n      swap3\n      swap2\n      pop\n      pop\n      jump\t// out\n        /* \"#utility.yul\":14305:15331   */\n    tag_34:\n        /* \"#utility.yul\":14642:14646   */\n      0x00\n        /* \"#utility.yul\":14680:14683   */\n      0x80\n        /* \"#utility.yul\":14669:14678   */\n      dup3\n        /* \"#utility.yul\":14665:14684   */\n      add\n        /* \"#utility.yul\":14657:14684   */\n      swap1\n      pop\n        /* \"#utility.yul\":14730:14739   */\n      dup2\n        /* \"#utility.yul\":14724:14728   */\n      dup2\n        /* \"#utility.yul\":14720:14740   */\n      sub\n        /* \"#utility.yul\":14716:14717   */\n      0x00\n        /* \"#utility.yul\":14705:14714   */\n      dup4\n        /* \"#utility.yul\":14701:14718   */\n      add\n        /* \"#utility.yul\":14694:14741   */\n      mstore\n        /* \"#utility.yul\":14758:14886   */\n      tag_233\n        /* \"#utility.yul\":14881:14885   */\n      dup2\n        /* \"#utility.yul\":14872:14878   */\n      dup8\n        /* \"#utility.yul\":14758:14886   */\n      tag_84\n      jump\t// in\n    tag_233:\n        /* \"#utility.yul\":14750:14886   */\n      swap1\n      pop\n        /* \"#utility.yul\":14933:14942   */\n      dup2\n        /* \"#utility.yul\":14927:14931   */\n      dup2\n        /* \"#utility.yul\":14923:14943   */\n      sub\n        /* \"#utility.yul\":14918:14920   */\n      0x20\n        /* \"#utility.yul\":14907:14916   */\n      dup4\n        /* \"#utility.yul\":14903:14921   */\n      add\n        /* \"#utility.yul\":14896:14944   */\n      mstore\n        /* \"#utility.yul\":14961:15089   */\n      tag_234\n        /* \"#utility.yul\":15084:15088   */\n      dup2\n        /* \"#utility.yul\":15075:15081   */\n      dup7\n        /* \"#utility.yul\":14961:15089   */\n      tag_84\n      jump\t// in\n    tag_234:\n        /* \"#utility.yul\":14953:15089   */\n      swap1\n      pop\n        /* \"#utility.yul\":15136:15145   */\n      dup2\n        /* \"#utility.yul\":15130:15134   */\n      dup2\n        /* \"#utility.yul\":15126:15146   */\n      sub\n        /* \"#utility.yul\":15121:15123   */\n      0x40\n        /* \"#utility.yul\":15110:15119   */\n      dup4\n        /* \"#utility.yul\":15106:15124   */\n      add\n        /* \"#utility.yul\":15099:15147   */\n      mstore\n        /* \"#utility.yul\":15164:15242   */\n      tag_235\n        /* \"#utility.yul\":15237:15241   */\n      dup2\n        /* \"#utility.yul\":15228:15234   */\n      dup6\n        /* \"#utility.yul\":15164:15242   */\n      tag_86\n      jump\t// in\n    tag_235:\n        /* \"#utility.yul\":15156:15242   */\n      swap1\n      pop\n        /* \"#utility.yul\":15252:15324   */\n      tag_236\n        /* \"#utility.yul\":15320:15322   */\n      0x60\n        /* \"#utility.yul\":15309:15318   */\n      dup4\n        /* \"#utility.yul\":15305:15323   */\n      add\n        /* \"#utility.yul\":15296:15302   */\n      dup5\n        /* \"#utility.yul\":15252:15324   */\n      tag_74\n      jump\t// in\n    tag_236:\n        /* \"#utility.yul\":14305:15331   */\n      swap6\n      swap5\n      pop\n      pop\n      pop\n      pop\n      pop\n      jump\t// out\n    stop\n\n    sub_0: assembly {\n            /* \"evs.sol\":618:2775  contract Ballot {... */\n          mstore(0x40, 0x80)\n            /* \"evs.sol\":1242:1789  constructor(... */\n          callvalue\n          dup1\n          iszero\n          tag_1\n          jumpi\n          0x00\n          dup1\n          revert\n        tag_1:\n          pop\n          mload(0x40)\n          sub(codesize, bytecodeSize)\n          dup1\n          bytecodeSize\n          dup4\n          codecopy\n          dup2\n          dup2\n          add\n          0x40\n          mstore\n          dup2\n          add\n          swap1\n          tag_2\n          swap2\n          swap1\n          tag_3\n          jump\t// in\n        tag_2:\n            /* \"evs.sol\":1419:1426  creator */\n          dup1\n            /* \"evs.sol\":1409:1416  manager */\n          0x01\n          0x00\n            /* \"evs.sol\":1409:1426  manager = creator */\n          0x0100\n          exp\n          dup2\n          sload\n          dup2\n          0xffffffffffffffffffffffffffffffffffffffff\n          mul\n          not\n          and\n          swap1\n          dup4\n          0xffffffffffffffffffffffffffffffffffffffff\n          and\n          mul\n          or\n          swap1\n          sstore\n          pop\n            /* \"evs.sol\":1453:1461  district */\n          dup2\n            /* \"evs.sol\":1436:1450  votingDistrict */\n          0x02\n            /* \"evs.sol\":1436:1461  votingDistrict = district */\n          swap1\n          dup2\n          tag_6\n          swap2\n          swap1\n          tag_7\n          jump\t// in\n        tag_6:\n          pop\n            /* \"evs.sol\":1476:1482  uint i */\n          0x00\n            /* \"evs.sol\":1471:1783  for (uint i = 0; i < candidateNames.length; i++) {... */\n        tag_8:\n            /* \"evs.sol\":1492:1506  candidateNames */\n          dup5\n            /* \"evs.sol\":1492:1513  candidateNames.length */\n          mload\n            /* \"evs.sol\":1488:1489  i */\n          dup2\n            /* \"evs.sol\":1488:1513  i < candidateNames.length */\n          lt\n            /* \"evs.sol\":1471:1783  for (uint i = 0; i < candidateNames.length; i++) {... */\n          iszero\n          tag_9\n          jumpi\n            /* \"evs.sol\":1534:1544  candidates */\n          0x00\n            /* \"evs.sol\":1550:1771  Candidate({... */\n          mload(0x40)\n          dup1\n          0xa0\n          add\n          0x40\n          mstore\n          dup1\n            /* \"evs.sol\":1584:1598  candidateNames */\n          dup8\n            /* \"evs.sol\":1599:1600  i */\n          dup5\n            /* \"evs.sol\":1584:1601  candidateNames[i] */\n          dup2\n          mload\n          dup2\n          lt\n          tag_11\n          jumpi\n          tag_12\n          tag_13\n          jump\t// in\n        tag_12:\n        tag_11:\n          0x20\n          mul\n          0x20\n          add\n          add\n          mload\n            /* \"evs.sol\":1550:1771  Candidate({... */\n          dup2\n          mstore\n          0x20\n          add\n            /* \"evs.sol\":1626:1642  candidateParties */\n          dup7\n            /* \"evs.sol\":1643:1644  i */\n          dup5\n            /* \"evs.sol\":1626:1645  candidateParties[i] */\n          dup2\n          mload\n          dup2\n          lt\n          tag_14\n          jumpi\n          tag_15\n          tag_13\n          jump\t// in\n        tag_15:\n        tag_14:\n          0x20\n          mul\n          0x20\n          add\n          add\n          mload\n            /* \"evs.sol\":1550:1771  Candidate({... */\n          dup2\n          mstore\n          0x20\n          add\n            /* \"evs.sol\":1674:1675  0 */\n          0x00\n            /* \"evs.sol\":1550:1771  Candidate({... */\n          dup2\n          mstore\n          0x20\n          add\n            /* \"evs.sol\":1707:1722  block.timestamp */\n          timestamp\n            /* \"evs.sol\":1550:1771  Candidate({... */\n          dup2\n          mstore\n          0x20\n          add\n            /* \"evs.sol\":1755:1756  0 */\n          0x00\n            /* \"evs.sol\":1550:1771  Candidate({... */\n          dup2\n          mstore\n          pop\n            /* \"evs.sol\":1534:1772  candidates.push(Candidate({... */\n          swap1\n          dup1\n          0x01\n          dup2\n          sload\n          add\n          dup1\n          dup3\n          sstore\n          dup1\n          swap2\n          pop\n          pop\n          0x01\n          swap1\n          sub\n          swap1\n          0x00\n          mstore\n          keccak256(0x00, 0x20)\n          swap1\n          0x05\n          mul\n          add\n          0x00\n          swap1\n          swap2\n          swap1\n          swap2\n          swap1\n          swap2\n          pop\n          0x00\n          dup3\n          add\n          mload\n          dup2\n          0x00\n          add\n          swap1\n          dup2\n          tag_17\n          swap2\n          swap1\n          tag_7\n          jump\t// in\n        tag_17:\n          pop\n          0x20\n          dup3\n          add\n          mload\n          dup2\n          0x01\n          add\n          swap1\n          dup2\n          tag_18\n          swap2\n          swap1\n          tag_7\n          jump\t// in\n        tag_18:\n          pop\n          0x40\n          dup3\n          add\n          mload\n          dup2\n          0x02\n          add\n          sstore\n          0x60\n          dup3\n          add\n          mload\n          dup2\n          0x03\n          add\n          sstore\n          0x80\n          dup3\n          add\n          mload\n          dup2\n          0x04\n          add\n          sstore\n          pop\n          pop\n            /* \"evs.sol\":1515:1518  i++ */\n          dup1\n          dup1\n          0x01\n          add\n          swap2\n          pop\n          pop\n            /* \"evs.sol\":1471:1783  for (uint i = 0; i < candidateNames.length; i++) {... */\n          jump(tag_8)\n        tag_9:\n          pop\n            /* \"evs.sol\":1242:1789  constructor(... */\n          pop\n          pop\n          pop\n          pop\n            /* \"evs.sol\":618:2775  contract Ballot {... */\n          jump(tag_19)\n            /* \"#utility.yul\":7:82   */\n        tag_20:\n            /* \"#utility.yul\":40:46   */\n          0x00\n            /* \"#utility.yul\":73:75   */\n          0x40\n            /* \"#utility.yul\":67:76   */\n          mload\n            /* \"#utility.yul\":57:76   */\n          swap1\n          pop\n            /* \"#utility.yul\":7:82   */\n          swap1\n          jump\t// out\n            /* \"#utility.yul\":88:205   */\n        tag_21:\n            /* \"#utility.yul\":197:198   */\n          0x00\n            /* \"#utility.yul\":194:195   */\n          dup1\n            /* \"#utility.yul\":187:199   */\n          revert\n            /* \"#utility.yul\":211:328   */\n        tag_22:\n            /* \"#utility.yul\":320:321   */\n          0x00\n            /* \"#utility.yul\":317:318   */\n          dup1\n            /* \"#utility.yul\":310:322   */\n          revert\n            /* \"#utility.yul\":334:451   */\n        tag_23:\n            /* \"#utility.yul\":443:444   */\n          0x00\n            /* \"#utility.yul\":440:441   */\n          dup1\n            /* \"#utility.yul\":433:445   */\n          revert\n            /* \"#utility.yul\":457:559   */\n        tag_24:\n            /* \"#utility.yul\":498:504   */\n          0x00\n            /* \"#utility.yul\":549:551   */\n          0x1f\n            /* \"#utility.yul\":545:552   */\n          not\n            /* \"#utility.yul\":540:542   */\n          0x1f\n            /* \"#utility.yul\":533:538   */\n          dup4\n            /* \"#utility.yul\":529:543   */\n          add\n            /* \"#utility.yul\":525:553   */\n          and\n            /* \"#utility.yul\":515:553   */\n          swap1\n          pop\n            /* \"#utility.yul\":457:559   */\n          swap2\n          swap1\n          pop\n          jump\t// out\n            /* \"#utility.yul\":565:745   */\n        tag_25:\n            /* \"#utility.yul\":613:690   */\n          0x4e487b7100000000000000000000000000000000000000000000000000000000\n            /* \"#utility.yul\":610:611   */\n          0x00\n            /* \"#utility.yul\":603:691   */\n          mstore\n            /* \"#utility.yul\":710:714   */\n          0x41\n            /* \"#utility.yul\":707:708   */\n          0x04\n            /* \"#utility.yul\":700:715   */\n          mstore\n            /* \"#utility.yul\":734:738   */\n          0x24\n            /* \"#utility.yul\":731:732   */\n          0x00\n            /* \"#utility.yul\":724:739   */\n          revert\n            /* \"#utility.yul\":751:1032   */\n        tag_26:\n            /* \"#utility.yul\":834:861   */\n          tag_68\n            /* \"#utility.yul\":856:860   */\n          dup3\n            /* \"#utility.yul\":834:861   */\n          tag_24\n          jump\t// in\n        tag_68:\n            /* \"#utility.yul\":826:832   */\n          dup2\n            /* \"#utility.yul\":822:862   */\n          add\n            /* \"#utility.yul\":964:970   */\n          dup2\n            /* \"#utility.yul\":952:962   */\n          dup2\n            /* \"#utility.yul\":949:971   */\n          lt\n            /* \"#utility.yul\":928:946   */\n          0xffffffffffffffff\n            /* \"#utility.yul\":916:926   */\n          dup3\n            /* \"#utility.yul\":913:947   */\n          gt\n            /* \"#utility.yul\":910:972   */\n          or\n            /* \"#utility.yul\":907:995   */\n          iszero\n          tag_69\n          jumpi\n            /* \"#utility.yul\":975:993   */\n          tag_70\n          tag_25\n          jump\t// in\n        tag_70:\n            /* \"#utility.yul\":907:995   */\n        tag_69:\n            /* \"#utility.yul\":1015:1025   */\n          dup1\n            /* \"#utility.yul\":1011:1013   */\n          0x40\n            /* \"#utility.yul\":1004:1026   */\n          mstore\n            /* \"#utility.yul\":794:1032   */\n          pop\n            /* \"#utility.yul\":751:1032   */\n          pop\n          pop\n          jump\t// out\n            /* \"#utility.yul\":1038:1167   */\n        tag_27:\n            /* \"#utility.yul\":1072:1078   */\n          0x00\n            /* \"#utility.yul\":1099:1119   */\n          tag_72\n          tag_20\n          jump\t// in\n        tag_72:\n            /* \"#utility.yul\":1089:1119   */\n          swap1\n          pop\n            /* \"#utility.yul\":1128:1161   */\n          tag_73\n            /* \"#utility.yul\":1156:1160   */\n          dup3\n            /* \"#utility.yul\":1148:1154   */\n          dup3\n            /* \"#utility.yul\":1128:1161   */\n          tag_26\n          jump\t// in\n        tag_73:\n            /* \"#utility.yul\":1038:1167   */\n          swap2\n          swap1\n          pop\n          jump\t// out\n            /* \"#utility.yul\":1173:1494   */\n        tag_28:\n            /* \"#utility.yul\":1260:1264   */\n          0x00\n            /* \"#utility.yul\":1350:1368   */\n          0xffffffffffffffff\n            /* \"#utility.yul\":1342:1348   */\n          dup3\n            /* \"#utility.yul\":1339:1369   */\n          gt\n            /* \"#utility.yul\":1336:1392   */\n          iszero\n          tag_75\n          jumpi\n            /* \"#utility.yul\":1372:1390   */\n          tag_76\n          tag_25\n          jump\t// in\n        tag_76:\n            /* \"#utility.yul\":1336:1392   */\n        tag_75:\n            /* \"#utility.yul\":1422:1426   */\n          0x20\n            /* \"#utility.yul\":1414:1420   */\n          dup3\n            /* \"#utility.yul\":1410:1427   */\n          mul\n            /* \"#utility.yul\":1402:1427   */\n          swap1\n          pop\n            /* \"#utility.yul\":1482:1486   */\n          0x20\n            /* \"#utility.yul\":1476:1480   */\n          dup2\n            /* \"#utility.yul\":1472:1487   */\n          add\n            /* \"#utility.yul\":1464:1487   */\n          swap1\n          pop\n            /* \"#utility.yul\":1173:1494   */\n          swap2\n          swap1\n          pop\n          jump\t// out\n            /* \"#utility.yul\":1500:1617   */\n        tag_29:\n            /* \"#utility.yul\":1609:1610   */\n          0x00\n            /* \"#utility.yul\":1606:1607   */\n          dup1\n            /* \"#utility.yul\":1599:1611   */\n          revert\n            /* \"#utility.yul\":1623:1740   */\n        tag_30:\n            /* \"#utility.yul\":1732:1733   */\n          0x00\n            /* \"#utility.yul\":1729:1730   */\n          dup1\n            /* \"#utility.yul\":1722:1734   */\n          revert\n            /* \"#utility.yul\":1746:2054   */\n        tag_31:\n            /* \"#utility.yul\":1808:1812   */\n          0x00\n            /* \"#utility.yul\":1898:1916   */\n          0xffffffffffffffff\n            /* \"#utility.yul\":1890:1896   */\n          dup3\n            /* \"#utility.yul\":1887:1917   */\n          gt\n            /* \"#utility.yul\":1884:1940   */\n          iszero\n          tag_80\n          jumpi\n            /* \"#utility.yul\":1920:1938   */\n          tag_81\n          tag_25\n          jump\t// in\n        tag_81:\n            /* \"#utility.yul\":1884:1940   */\n        tag_80:\n            /* \"#utility.yul\":1958:1987   */\n          tag_82\n            /* \"#utility.yul\":1980:1986   */\n          dup3\n            /* \"#utility.yul\":1958:1987   */\n          tag_24\n          jump\t// in\n        tag_82:\n            /* \"#utility.yul\":1950:1987   */\n          swap1\n          pop\n            /* \"#utility.yul\":2042:2046   */\n          0x20\n            /* \"#utility.yul\":2036:2040   */\n          dup2\n            /* \"#utility.yul\":2032:2047   */\n          add\n            /* \"#utility.yul\":2024:2047   */\n          swap1\n          pop\n            /* \"#utility.yul\":1746:2054   */\n          swap2\n          swap1\n          pop\n          jump\t// out\n            /* \"#utility.yul\":2060:2199   */\n        tag_32:\n            /* \"#utility.yul\":2149:2155   */\n          dup3\n            /* \"#utility.yul\":2144:2147   */\n          dup2\n            /* \"#utility.yul\":2139:2142   */\n          dup4\n            /* \"#utility.yul\":2133:2156   */\n          mcopy\n            /* \"#utility.yul\":2190:2191   */\n          0x00\n            /* \"#utility.yul\":2181:2187   */\n          dup4\n            /* \"#utility.yul\":2176:2179   */\n          dup4\n            /* \"#utility.yul\":2172:2188   */\n          add\n            /* \"#utility.yul\":2165:2192   */\n          mstore\n            /* \"#utility.yul\":2060:2199   */\n          pop\n          pop\n          pop\n          jump\t// out\n            /* \"#utility.yul\":2205:2639   */\n        tag_33:\n            /* \"#utility.yul\":2294:2299   */\n          0x00\n            /* \"#utility.yul\":2319:2385   */\n          tag_85\n            /* \"#utility.yul\":2335:2384   */\n          tag_86\n            /* \"#utility.yul\":2377:2383   */\n          dup5\n            /* \"#utility.yul\":2335:2384   */\n          tag_31\n          jump\t// in\n        tag_86:\n            /* \"#utility.yul\":2319:2385   */\n          tag_27\n          jump\t// in\n        tag_85:\n            /* \"#utility.yul\":2310:2385   */\n          swap1\n          pop\n            /* \"#utility.yul\":2408:2414   */\n          dup3\n            /* \"#utility.yul\":2401:2406   */\n          dup2\n            /* \"#utility.yul\":2394:2415   */\n          mstore\n            /* \"#utility.yul\":2446:2450   */\n          0x20\n            /* \"#utility.yul\":2439:2444   */\n          dup2\n            /* \"#utility.yul\":2435:2451   */\n          add\n            /* \"#utility.yul\":2484:2487   */\n          dup5\n            /* \"#utility.yul\":2475:2481   */\n          dup5\n            /* \"#utility.yul\":2470:2473   */\n          dup5\n            /* \"#utility.yul\":2466:2482   */\n          add\n            /* \"#utility.yul\":2463:2488   */\n          gt\n            /* \"#utility.yul\":2460:2572   */\n          iszero\n          tag_87\n          jumpi\n            /* \"#utility.yul\":2491:2570   */\n          tag_88\n          tag_30\n          jump\t// in\n        tag_88:\n            /* \"#utility.yul\":2460:2572   */\n        tag_87:\n            /* \"#utility.yul\":2581:2633   */\n          tag_89\n            /* \"#utility.yul\":2626:2632   */\n          dup5\n            /* \"#utility.yul\":2621:2624   */\n          dup3\n            /* \"#utility.yul\":2616:2619   */\n          dup6\n            /* \"#utility.yul\":2581:2633   */\n          tag_32\n          jump\t// in\n        tag_89:\n            /* \"#utility.yul\":2300:2639   */\n          pop\n            /* \"#utility.yul\":2205:2639   */\n          swap4\n          swap3\n          pop\n          pop\n          pop\n          jump\t// out\n            /* \"#utility.yul\":2659:3014   */\n        tag_34:\n            /* \"#utility.yul\":2726:2731   */\n          0x00\n            /* \"#utility.yul\":2775:2778   */\n          dup3\n            /* \"#utility.yul\":2768:2772   */\n          0x1f\n            /* \"#utility.yul\":2760:2766   */\n          dup4\n            /* \"#utility.yul\":2756:2773   */\n          add\n            /* \"#utility.yul\":2752:2779   */\n          slt\n            /* \"#utility.yul\":2742:2864   */\n          tag_91\n          jumpi\n            /* \"#utility.yul\":2783:2862   */\n          tag_92\n          tag_23\n          jump\t// in\n        tag_92:\n            /* \"#utility.yul\":2742:2864   */\n        tag_91:\n            /* \"#utility.yul\":2893:2899   */\n          dup2\n            /* \"#utility.yul\":2887:2900   */\n          mload\n            /* \"#utility.yul\":2918:3008   */\n          tag_93\n            /* \"#utility.yul\":3004:3007   */\n          dup5\n            /* \"#utility.yul\":2996:3002   */\n          dup3\n            /* \"#utility.yul\":2989:2993   */\n          0x20\n            /* \"#utility.yul\":2981:2987   */\n          dup7\n            /* \"#utility.yul\":2977:2994   */\n          add\n            /* \"#utility.yul\":2918:3008   */\n          tag_33\n          jump\t// in\n        tag_93:\n            /* \"#utility.yul\":2909:3008   */\n          swap2\n          pop\n            /* \"#utility.yul\":2732:3014   */\n          pop\n            /* \"#utility.yul\":2659:3014   */\n          swap3\n          swap2\n          pop\n          pop\n          jump\t// out\n            /* \"#utility.yul\":3036:3996   */\n        tag_35:\n            /* \"#utility.yul\":3153:3158   */\n          0x00\n            /* \"#utility.yul\":3178:3269   */\n          tag_95\n            /* \"#utility.yul\":3194:3268   */\n          tag_96\n            /* \"#utility.yul\":3261:3267   */\n          dup5\n            /* \"#utility.yul\":3194:3268   */\n          tag_28\n          jump\t// in\n        tag_96:\n            /* \"#utility.yul\":3178:3269   */\n          tag_27\n          jump\t// in\n        tag_95:\n            /* \"#utility.yul\":3169:3269   */\n          swap1\n          pop\n            /* \"#utility.yul\":3289:3294   */\n          dup1\n            /* \"#utility.yul\":3318:3324   */\n          dup4\n            /* \"#utility.yul\":3311:3316   */\n          dup3\n            /* \"#utility.yul\":3304:3325   */\n          mstore\n            /* \"#utility.yul\":3352:3356   */\n          0x20\n            /* \"#utility.yul\":3345:3350   */\n          dup3\n            /* \"#utility.yul\":3341:3357   */\n          add\n            /* \"#utility.yul\":3334:3357   */\n          swap1\n          pop\n            /* \"#utility.yul\":3405:3409   */\n          0x20\n            /* \"#utility.yul\":3397:3403   */\n          dup5\n            /* \"#utility.yul\":3393:3410   */\n          mul\n            /* \"#utility.yul\":3385:3391   */\n          dup4\n            /* \"#utility.yul\":3381:3411   */\n          add\n            /* \"#utility.yul\":3434:3437   */\n          dup6\n            /* \"#utility.yul\":3426:3432   */\n          dup2\n            /* \"#utility.yul\":3423:3438   */\n          gt\n            /* \"#utility.yul\":3420:3542   */\n          iszero\n          tag_97\n          jumpi\n            /* \"#utility.yul\":3453:3532   */\n          tag_98\n          tag_29\n          jump\t// in\n        tag_98:\n            /* \"#utility.yul\":3420:3542   */\n        tag_97:\n            /* \"#utility.yul\":3568:3574   */\n          dup4\n            /* \"#utility.yul\":3551:3990   */\n        tag_99:\n            /* \"#utility.yul\":3585:3591   */\n          dup2\n            /* \"#utility.yul\":3580:3583   */\n          dup2\n            /* \"#utility.yul\":3577:3592   */\n          lt\n            /* \"#utility.yul\":3551:3990   */\n          iszero\n          tag_101\n          jumpi\n            /* \"#utility.yul\":3667:3670   */\n          dup1\n            /* \"#utility.yul\":3661:3671   */\n          mload\n            /* \"#utility.yul\":3703:3721   */\n          0xffffffffffffffff\n            /* \"#utility.yul\":3690:3701   */\n          dup2\n            /* \"#utility.yul\":3687:3722   */\n          gt\n            /* \"#utility.yul\":3684:3806   */\n          iszero\n          tag_102\n          jumpi\n            /* \"#utility.yul\":3725:3804   */\n          tag_103\n          tag_23\n          jump\t// in\n        tag_103:\n            /* \"#utility.yul\":3684:3806   */\n        tag_102:\n            /* \"#utility.yul\":3849:3860   */\n          dup1\n            /* \"#utility.yul\":3841:3847   */\n          dup7\n            /* \"#utility.yul\":3837:3861   */\n          add\n            /* \"#utility.yul\":3887:3945   */\n          tag_104\n            /* \"#utility.yul\":3941:3944   */\n          dup10\n            /* \"#utility.yul\":3929:3939   */\n          dup3\n            /* \"#utility.yul\":3887:3945   */\n          tag_34\n          jump\t// in\n        tag_104:\n            /* \"#utility.yul\":3882:3885   */\n          dup6\n            /* \"#utility.yul\":3875:3946   */\n          mstore\n            /* \"#utility.yul\":3975:3979   */\n          0x20\n            /* \"#utility.yul\":3970:3973   */\n          dup6\n            /* \"#utility.yul\":3966:3980   */\n          add\n            /* \"#utility.yul\":3959:3980   */\n          swap5\n          pop\n            /* \"#utility.yul\":3627:3990   */\n          pop\n          pop\n            /* \"#utility.yul\":3611:3615   */\n          0x20\n            /* \"#utility.yul\":3606:3609   */\n          dup2\n            /* \"#utility.yul\":3602:3616   */\n          add\n            /* \"#utility.yul\":3595:3616   */\n          swap1\n          pop\n            /* \"#utility.yul\":3551:3990   */\n          jump(tag_99)\n        tag_101:\n            /* \"#utility.yul\":3555:3576   */\n          pop\n            /* \"#utility.yul\":3159:3996   */\n          pop\n          pop\n            /* \"#utility.yul\":3036:3996   */\n          swap4\n          swap3\n          pop\n          pop\n          pop\n          jump\t// out\n            /* \"#utility.yul\":4018:4423   */\n        tag_36:\n            /* \"#utility.yul\":4110:4115   */\n          0x00\n            /* \"#utility.yul\":4159:4162   */\n          dup3\n            /* \"#utility.yul\":4152:4156   */\n          0x1f\n            /* \"#utility.yul\":4144:4150   */\n          dup4\n            /* \"#utility.yul\":4140:4157   */\n          add\n            /* \"#utility.yul\":4136:4163   */\n          slt\n            /* \"#utility.yul\":4126:4248   */\n          tag_106\n          jumpi\n            /* \"#utility.yul\":4167:4246   */\n          tag_107\n          tag_23\n          jump\t// in\n        tag_107:\n            /* \"#utility.yul\":4126:4248   */\n        tag_106:\n            /* \"#utility.yul\":4277:4283   */\n          dup2\n            /* \"#utility.yul\":4271:4284   */\n          mload\n            /* \"#utility.yul\":4302:4417   */\n          tag_108\n            /* \"#utility.yul\":4413:4416   */\n          dup5\n            /* \"#utility.yul\":4405:4411   */\n          dup3\n            /* \"#utility.yul\":4398:4402   */\n          0x20\n            /* \"#utility.yul\":4390:4396   */\n          dup7\n            /* \"#utility.yul\":4386:4403   */\n          add\n            /* \"#utility.yul\":4302:4417   */\n          tag_35\n          jump\t// in\n        tag_108:\n            /* \"#utility.yul\":4293:4417   */\n          swap2\n          pop\n            /* \"#utility.yul\":4116:4423   */\n          pop\n            /* \"#utility.yul\":4018:4423   */\n          swap3\n          swap2\n          pop\n          pop\n          jump\t// out\n            /* \"#utility.yul\":4429:4555   */\n        tag_37:\n            /* \"#utility.yul\":4466:4473   */\n          0x00\n            /* \"#utility.yul\":4506:4548   */\n          0xffffffffffffffffffffffffffffffffffffffff\n            /* \"#utility.yul\":4499:4504   */\n          dup3\n            /* \"#utility.yul\":4495:4549   */\n          and\n            /* \"#utility.yul\":4484:4549   */\n          swap1\n          pop\n            /* \"#utility.yul\":4429:4555   */\n          swap2\n          swap1\n          pop\n          jump\t// out\n            /* \"#utility.yul\":4561:4657   */\n        tag_38:\n            /* \"#utility.yul\":4598:4605   */\n          0x00\n            /* \"#utility.yul\":4627:4651   */\n          tag_111\n            /* \"#utility.yul\":4645:4650   */\n          dup3\n            /* \"#utility.yul\":4627:4651   */\n          tag_37\n          jump\t// in\n        tag_111:\n            /* \"#utility.yul\":4616:4651   */\n          swap1\n          pop\n            /* \"#utility.yul\":4561:4657   */\n          swap2\n          swap1\n          pop\n          jump\t// out\n            /* \"#utility.yul\":4663:4785   */\n        tag_39:\n            /* \"#utility.yul\":4736:4760   */\n          tag_113\n            /* \"#utility.yul\":4754:4759   */\n          dup2\n            /* \"#utility.yul\":4736:4760   */\n          tag_38\n          jump\t// in\n        tag_113:\n            /* \"#utility.yul\":4729:4734   */\n          dup2\n            /* \"#utility.yul\":4726:4761   */\n          eq\n            /* \"#utility.yul\":4716:4779   */\n          tag_114\n          jumpi\n            /* \"#utility.yul\":4775:4776   */\n          0x00\n            /* \"#utility.yul\":4772:4773   */\n          dup1\n            /* \"#utility.yul\":4765:4777   */\n          revert\n            /* \"#utility.yul\":4716:4779   */\n        tag_114:\n            /* \"#utility.yul\":4663:4785   */\n          pop\n          jump\t// out\n            /* \"#utility.yul\":4791:4934   */\n        tag_40:\n            /* \"#utility.yul\":4848:4853   */\n          0x00\n            /* \"#utility.yul\":4879:4885   */\n          dup2\n            /* \"#utility.yul\":4873:4886   */\n          mload\n            /* \"#utility.yul\":4864:4886   */\n          swap1\n          pop\n            /* \"#utility.yul\":4895:4928   */\n          tag_116\n            /* \"#utility.yul\":4922:4927   */\n          dup2\n            /* \"#utility.yul\":4895:4928   */\n          tag_39\n          jump\t// in\n        tag_116:\n            /* \"#utility.yul\":4791:4934   */\n          swap3\n          swap2\n          pop\n          pop\n          jump\t// out\n            /* \"#utility.yul\":4940:6379   */\n        tag_3:\n            /* \"#utility.yul\":5117:5123   */\n          0x00\n            /* \"#utility.yul\":5125:5131   */\n          dup1\n            /* \"#utility.yul\":5133:5139   */\n          0x00\n            /* \"#utility.yul\":5141:5147   */\n          dup1\n            /* \"#utility.yul\":5190:5193   */\n          0x80\n            /* \"#utility.yul\":5178:5187   */\n          dup6\n            /* \"#utility.yul\":5169:5176   */\n          dup8\n            /* \"#utility.yul\":5165:5188   */\n          sub\n            /* \"#utility.yul\":5161:5194   */\n          slt\n            /* \"#utility.yul\":5158:5278   */\n          iszero\n          tag_118\n          jumpi\n            /* \"#utility.yul\":5197:5276   */\n          tag_119\n          tag_21\n          jump\t// in\n        tag_119:\n            /* \"#utility.yul\":5158:5278   */\n        tag_118:\n            /* \"#utility.yul\":5338:5339   */\n          0x00\n            /* \"#utility.yul\":5327:5336   */\n          dup6\n            /* \"#utility.yul\":5323:5340   */\n          add\n            /* \"#utility.yul\":5317:5341   */\n          mload\n            /* \"#utility.yul\":5368:5386   */\n          0xffffffffffffffff\n            /* \"#utility.yul\":5360:5366   */\n          dup2\n            /* \"#utility.yul\":5357:5387   */\n          gt\n            /* \"#utility.yul\":5354:5471   */\n          iszero\n          tag_120\n          jumpi\n            /* \"#utility.yul\":5390:5469   */\n          tag_121\n          tag_22\n          jump\t// in\n        tag_121:\n            /* \"#utility.yul\":5354:5471   */\n        tag_120:\n            /* \"#utility.yul\":5495:5594   */\n          tag_122\n            /* \"#utility.yul\":5586:5593   */\n          dup8\n            /* \"#utility.yul\":5577:5583   */\n          dup3\n            /* \"#utility.yul\":5566:5575   */\n          dup9\n            /* \"#utility.yul\":5562:5584   */\n          add\n            /* \"#utility.yul\":5495:5594   */\n          tag_36\n          jump\t// in\n        tag_122:\n            /* \"#utility.yul\":5485:5594   */\n          swap5\n          pop\n            /* \"#utility.yul\":5288:5604   */\n          pop\n            /* \"#utility.yul\":5664:5666   */\n          0x20\n            /* \"#utility.yul\":5653:5662   */\n          dup6\n            /* \"#utility.yul\":5649:5667   */\n          add\n            /* \"#utility.yul\":5643:5668   */\n          mload\n            /* \"#utility.yul\":5695:5713   */\n          0xffffffffffffffff\n            /* \"#utility.yul\":5687:5693   */\n          dup2\n            /* \"#utility.yul\":5684:5714   */\n          gt\n            /* \"#utility.yul\":5681:5798   */\n          iszero\n          tag_123\n          jumpi\n            /* \"#utility.yul\":5717:5796   */\n          tag_124\n          tag_22\n          jump\t// in\n        tag_124:\n            /* \"#utility.yul\":5681:5798   */\n        tag_123:\n            /* \"#utility.yul\":5822:5921   */\n          tag_125\n            /* \"#utility.yul\":5913:5920   */\n          dup8\n            /* \"#utility.yul\":5904:5910   */\n          dup3\n            /* \"#utility.yul\":5893:5902   */\n          dup9\n            /* \"#utility.yul\":5889:5911   */\n          add\n            /* \"#utility.yul\":5822:5921   */\n          tag_36\n          jump\t// in\n        tag_125:\n            /* \"#utility.yul\":5812:5921   */\n          swap4\n          pop\n            /* \"#utility.yul\":5614:5931   */\n          pop\n            /* \"#utility.yul\":5991:5993   */\n          0x40\n            /* \"#utility.yul\":5980:5989   */\n          dup6\n            /* \"#utility.yul\":5976:5994   */\n          add\n            /* \"#utility.yul\":5970:5995   */\n          mload\n            /* \"#utility.yul\":6022:6040   */\n          0xffffffffffffffff\n            /* \"#utility.yul\":6014:6020   */\n          dup2\n            /* \"#utility.yul\":6011:6041   */\n          gt\n            /* \"#utility.yul\":6008:6125   */\n          iszero\n          tag_126\n          jumpi\n            /* \"#utility.yul\":6044:6123   */\n          tag_127\n          tag_22\n          jump\t// in\n        tag_127:\n            /* \"#utility.yul\":6008:6125   */\n        tag_126:\n            /* \"#utility.yul\":6149:6223   */\n          tag_128\n            /* \"#utility.yul\":6215:6222   */\n          dup8\n            /* \"#utility.yul\":6206:6212   */\n          dup3\n            /* \"#utility.yul\":6195:6204   */\n          dup9\n            /* \"#utility.yul\":6191:6213   */\n          add\n            /* \"#utility.yul\":6149:6223   */\n          tag_34\n          jump\t// in\n        tag_128:\n            /* \"#utility.yul\":6139:6223   */\n          swap3\n          pop\n            /* \"#utility.yul\":5941:6233   */\n          pop\n            /* \"#utility.yul\":6272:6274   */\n          0x60\n            /* \"#utility.yul\":6298:6362   */\n          tag_129\n            /* \"#utility.yul\":6354:6361   */\n          dup8\n            /* \"#utility.yul\":6345:6351   */\n          dup3\n            /* \"#utility.yul\":6334:6343   */\n          dup9\n            /* \"#utility.yul\":6330:6352   */\n          add\n            /* \"#utility.yul\":6298:6362   */\n          tag_40\n          jump\t// in\n        tag_129:\n            /* \"#utility.yul\":6288:6362   */\n          swap2\n          pop\n            /* \"#utility.yul\":6243:6372   */\n          pop\n            /* \"#utility.yul\":4940:6379   */\n          swap3\n          swap6\n          swap2\n          swap5\n          pop\n          swap3\n          pop\n          jump\t// out\n            /* \"#utility.yul\":6385:6484   */\n        tag_41:\n            /* \"#utility.yul\":6437:6443   */\n          0x00\n            /* \"#utility.yul\":6471:6476   */\n          dup2\n            /* \"#utility.yul\":6465:6477   */\n          mload\n            /* \"#utility.yul\":6455:6477   */\n          swap1\n          pop\n            /* \"#utility.yul\":6385:6484   */\n          swap2\n          swap1\n          pop\n          jump\t// out\n            /* \"#utility.yul\":6490:6670   */\n        tag_42:\n            /* \"#utility.yul\":6538:6615   */\n          0x4e487b7100000000000000000000000000000000000000000000000000000000\n            /* \"#utility.yul\":6535:6536   */\n          0x00\n            /* \"#utility.yul\":6528:6616   */\n          mstore\n            /* \"#utility.yul\":6635:6639   */\n          0x22\n            /* \"#utility.yul\":6632:6633   */\n          0x04\n            /* \"#utility.yul\":6625:6640   */\n          mstore\n            /* \"#utility.yul\":6659:6663   */\n          0x24\n            /* \"#utility.yul\":6656:6657   */\n          0x00\n            /* \"#utility.yul\":6649:6664   */\n          revert\n            /* \"#utility.yul\":6676:6996   */\n        tag_43:\n            /* \"#utility.yul\":6720:6726   */\n          0x00\n            /* \"#utility.yul\":6757:6758   */\n          0x02\n            /* \"#utility.yul\":6751:6755   */\n          dup3\n            /* \"#utility.yul\":6747:6759   */\n          div\n            /* \"#utility.yul\":6737:6759   */\n          swap1\n          pop\n            /* \"#utility.yul\":6804:6805   */\n          0x01\n            /* \"#utility.yul\":6798:6802   */\n          dup3\n            /* \"#utility.yul\":6794:6806   */\n          and\n            /* \"#utility.yul\":6825:6843   */\n          dup1\n            /* \"#utility.yul\":6815:6896   */\n          tag_133\n          jumpi\n            /* \"#utility.yul\":6881:6885   */\n          0x7f\n            /* \"#utility.yul\":6873:6879   */\n          dup3\n            /* \"#utility.yul\":6869:6886   */\n          and\n            /* \"#utility.yul\":6859:6886   */\n          swap2\n          pop\n            /* \"#utility.yul\":6815:6896   */\n        tag_133:\n            /* \"#utility.yul\":6943:6945   */\n          0x20\n            /* \"#utility.yul\":6935:6941   */\n          dup3\n            /* \"#utility.yul\":6932:6946   */\n          lt\n            /* \"#utility.yul\":6912:6930   */\n          dup2\n            /* \"#utility.yul\":6909:6947   */\n          sub\n            /* \"#utility.yul\":6906:6990   */\n          tag_134\n          jumpi\n            /* \"#utility.yul\":6962:6980   */\n          tag_135\n          tag_42\n          jump\t// in\n        tag_135:\n            /* \"#utility.yul\":6906:6990   */\n        tag_134:\n            /* \"#utility.yul\":6727:6996   */\n          pop\n            /* \"#utility.yul\":6676:6996   */\n          swap2\n          swap1\n          pop\n          jump\t// out\n            /* \"#utility.yul\":7002:7143   */\n        tag_44:\n            /* \"#utility.yul\":7051:7055   */\n          0x00\n            /* \"#utility.yul\":7074:7077   */\n          dup2\n            /* \"#utility.yul\":7066:7077   */\n          swap1\n          pop\n            /* \"#utility.yul\":7097:7100   */\n          dup2\n            /* \"#utility.yul\":7094:7095   */\n          0x00\n            /* \"#utility.yul\":7087:7101   */\n          mstore\n            /* \"#utility.yul\":7131:7135   */\n          0x20\n            /* \"#utility.yul\":7128:7129   */\n          0x00\n            /* \"#utility.yul\":7118:7136   */\n          keccak256\n            /* \"#utility.yul\":7110:7136   */\n          swap1\n          pop\n            /* \"#utility.yul\":7002:7143   */\n          swap2\n          swap1\n          pop\n          jump\t// out\n            /* \"#utility.yul\":7149:7242   */\n        tag_45:\n            /* \"#utility.yul\":7186:7192   */\n          0x00\n            /* \"#utility.yul\":7233:7235   */\n          0x20\n            /* \"#utility.yul\":7228:7230   */\n          0x1f\n            /* \"#utility.yul\":7221:7226   */\n          dup4\n            /* \"#utility.yul\":7217:7231   */\n          add\n            /* \"#utility.yul\":7213:7236   */\n          div\n            /* \"#utility.yul\":7203:7236   */\n          swap1\n          pop\n            /* \"#utility.yul\":7149:7242   */\n          swap2\n          swap1\n          pop\n          jump\t// out\n            /* \"#utility.yul\":7248:7355   */\n        tag_46:\n            /* \"#utility.yul\":7292:7300   */\n          0x00\n            /* \"#utility.yul\":7342:7347   */\n          dup3\n            /* \"#utility.yul\":7336:7340   */\n          dup3\n            /* \"#utility.yul\":7332:7348   */\n          shl\n            /* \"#utility.yul\":7311:7348   */\n          swap1\n          pop\n            /* \"#utility.yul\":7248:7355   */\n          swap3\n          swap2\n          pop\n          pop\n          jump\t// out\n            /* \"#utility.yul\":7361:7754   */\n        tag_47:\n            /* \"#utility.yul\":7430:7436   */\n          0x00\n            /* \"#utility.yul\":7480:7481   */\n          0x08\n            /* \"#utility.yul\":7468:7478   */\n          dup4\n            /* \"#utility.yul\":7464:7482   */\n          mul\n            /* \"#utility.yul\":7503:7600   */\n          tag_140\n            /* \"#utility.yul\":7533:7599   */\n          0xffffffffffffffffffffffffffffffffffffffffffffffffffffffffffffffff\n            /* \"#utility.yul\":7522:7531   */\n          dup3\n            /* \"#utility.yul\":7503:7600   */\n          tag_46\n          jump\t// in\n        tag_140:\n            /* \"#utility.yul\":7621:7660   */\n          tag_141\n            /* \"#utility.yul\":7651:7659   */\n          dup7\n            /* \"#utility.yul\":7640:7649   */\n          dup4\n            /* \"#utility.yul\":7621:7660   */\n          tag_46\n          jump\t// in\n        tag_141:\n            /* \"#utility.yul\":7609:7660   */\n          swap6\n          pop\n            /* \"#utility.yul\":7693:7697   */\n          dup1\n            /* \"#utility.yul\":7689:7698   */\n          not\n            /* \"#utility.yul\":7682:7687   */\n          dup5\n            /* \"#utility.yul\":7678:7699   */\n          and\n            /* \"#utility.yul\":7669:7699   */\n          swap4\n          pop\n            /* \"#utility.yul\":7742:7746   */\n          dup1\n            /* \"#utility.yul\":7732:7740   */\n          dup7\n            /* \"#utility.yul\":7728:7747   */\n          and\n            /* \"#utility.yul\":7721:7726   */\n          dup5\n            /* \"#utility.yul\":7718:7748   */\n          or\n            /* \"#utility.yul\":7708:7748   */\n          swap3\n          pop\n            /* \"#utility.yul\":7437:7754   */\n          pop\n          pop\n            /* \"#utility.yul\":7361:7754   */\n          swap4\n          swap3\n          pop\n          pop\n          pop\n          jump\t// out\n            /* \"#utility.yul\":7760:7837   */\n        tag_48:\n            /* \"#utility.yul\":7797:7804   */\n          0x00\n            /* \"#utility.yul\":7826:7831   */\n          dup2\n            /* \"#utility.yul\":7815:7831   */\n          swap1\n          pop\n            /* \"#utility.yul\":7760:7837   */\n          swap2\n          swap1\n          pop\n          jump\t// out\n            /* \"#utility.yul\":7843:7903   */\n        tag_49:\n            /* \"#utility.yul\":7871:7874   */\n          0x00\n            /* \"#utility.yul\":7892:7897   */\n          dup2\n            /* \"#utility.yul\":7885:7897   */\n          swap1\n          pop\n            /* \"#utility.yul\":7843:7903   */\n          swap2\n          swap1\n          pop\n          jump\t// out\n            /* \"#utility.yul\":7909:8051   */\n        tag_50:\n            /* \"#utility.yul\":7959:7968   */\n          0x00\n            /* \"#utility.yul\":7992:8045   */\n          tag_145\n            /* \"#utility.yul\":8010:8044   */\n          tag_146\n            /* \"#utility.yul\":8019:8043   */\n          tag_147\n            /* \"#utility.yul\":8037:8042   */\n          dup5\n            /* \"#utility.yul\":8019:8043   */\n          tag_48\n          jump\t// in\n        tag_147:\n            /* \"#utility.yul\":8010:8044   */\n          tag_49\n          jump\t// in\n        tag_146:\n            /* \"#utility.yul\":7992:8045   */\n          tag_48\n          jump\t// in\n        tag_145:\n            /* \"#utility.yul\":7979:8045   */\n          swap1\n          pop\n            /* \"#utility.yul\":7909:8051   */\n          swap2\n          swap1\n          pop\n          jump\t// out\n            /* \"#utility.yul\":8057:8132   */\n        tag_51:\n            /* \"#utility.yul\":8100:8103   */\n          0x00\n            /* \"#utility.yul\":8121:8126   */\n          dup2\n            /* \"#utility.yul\":8114:8126   */\n          swap1\n          pop\n            /* \"#utility.yul\":8057:8132   */\n          swap2\n          swap1\n          pop\n          jump\t// out\n            /* \"#utility.yul\":8138:8407   */\n        tag_52:\n            /* \"#utility.yul\":8248:8287   */\n          tag_150\n            /* \"#utility.yul\":8279:8286   */\n          dup4\n            /* \"#utility.yul\":8248:8287   */\n          tag_50\n          jump\t// in\n        tag_150:\n            /* \"#utility.yul\":8309:8400   */\n          tag_151\n            /* \"#utility.yul\":8358:8399   */\n          tag_152\n            /* \"#utility.yul\":8382:8398   */\n          dup3\n            /* \"#utility.yul\":8358:8399   */\n          tag_51\n          jump\t// in\n        tag_152:\n            /* \"#utility.yul\":8350:8356   */\n          dup5\n            /* \"#utility.yul\":8343:8347   */\n          dup5\n            /* \"#utility.yul\":8337:8348   */\n          sload\n            /* \"#utility.yul\":8309:8400   */\n          tag_47\n          jump\t// in\n        tag_151:\n            /* \"#utility.yul\":8303:8307   */\n          dup3\n            /* \"#utility.yul\":8296:8401   */\n          sstore\n            /* \"#utility.yul\":8214:8407   */\n          pop\n            /* \"#utility.yul\":8138:8407   */\n          pop\n          pop\n          pop\n          jump\t// out\n            /* \"#utility.yul\":8413:8486   */\n        tag_53:\n            /* \"#utility.yul\":8458:8461   */\n          0x00\n            /* \"#utility.yul\":8413:8486   */\n          swap1\n          jump\t// out\n            /* \"#utility.yul\":8492:8681   */\n        tag_54:\n            /* \"#utility.yul\":8569:8601   */\n          tag_155\n          tag_53\n          jump\t// in\n        tag_155:\n            /* \"#utility.yul\":8610:8675   */\n          tag_156\n            /* \"#utility.yul\":8668:8674   */\n          dup2\n            /* \"#utility.yul\":8660:8666   */\n          dup5\n            /* \"#utility.yul\":8654:8658   */\n          dup5\n            /* \"#utility.yul\":8610:8675   */\n          tag_52\n          jump\t// in\n        tag_156:\n            /* \"#utility.yul\":8545:8681   */\n          pop\n            /* \"#utility.yul\":8492:8681   */\n          pop\n          pop\n          jump\t// out\n            /* \"#utility.yul\":8687:8873   */\n        tag_55:\n            /* \"#utility.yul\":8747:8867   */\n        tag_158:\n            /* \"#utility.yul\":8764:8767   */\n          dup2\n            /* \"#utility.yul\":8757:8762   */\n          dup2\n            /* \"#utility.yul\":8754:8768   */\n          lt\n            /* \"#utility.yul\":8747:8867   */\n          iszero\n          tag_160\n          jumpi\n            /* \"#utility.yul\":8818:8857   */\n          tag_161\n            /* \"#utility.yul\":8855:8856   */\n          0x00\n            /* \"#utility.yul\":8848:8853   */\n          dup3\n            /* \"#utility.yul\":8818:8857   */\n          tag_54\n          jump\t// in\n        tag_161:\n            /* \"#utility.yul\":8791:8792   */\n          0x01\n            /* \"#utility.yul\":8784:8789   */\n          dup2\n            /* \"#utility.yul\":8780:8793   */\n          add\n            /* \"#utility.yul\":8771:8793   */\n          swap1\n          pop\n            /* \"#utility.yul\":8747:8867   */\n          jump(tag_158)\n        tag_160:\n            /* \"#utility.yul\":8687:8873   */\n          pop\n          pop\n          jump\t// out\n            /* \"#utility.yul\":8879:9422   */\n        tag_56:\n            /* \"#utility.yul\":8980:8982   */\n          0x1f\n            /* \"#utility.yul\":8975:8978   */\n          dup3\n            /* \"#utility.yul\":8972:8983   */\n          gt\n            /* \"#utility.yul\":8969:9415   */\n          iszero\n          tag_163\n          jumpi\n            /* \"#utility.yul\":9014:9052   */\n          tag_164\n            /* \"#utility.yul\":9046:9051   */\n          dup2\n            /* \"#utility.yul\":9014:9052   */\n          tag_44\n          jump\t// in\n        tag_164:\n            /* \"#utility.yul\":9098:9127   */\n          tag_165\n            /* \"#utility.yul\":9116:9126   */\n          dup5\n            /* \"#utility.yul\":9098:9127   */\n          tag_45\n          jump\t// in\n        tag_165:\n            /* \"#utility.yul\":9088:9096   */\n          dup2\n            /* \"#utility.yul\":9084:9128   */\n          add\n            /* \"#utility.yul\":9281:9283   */\n          0x20\n            /* \"#utility.yul\":9269:9279   */\n          dup6\n            /* \"#utility.yul\":9266:9284   */\n          lt\n            /* \"#utility.yul\":9263:9312   */\n          iszero\n          tag_166\n          jumpi\n            /* \"#utility.yul\":9302:9310   */\n          dup2\n            /* \"#utility.yul\":9287:9310   */\n          swap1\n          pop\n            /* \"#utility.yul\":9263:9312   */\n        tag_166:\n            /* \"#utility.yul\":9325:9405   */\n          tag_167\n            /* \"#utility.yul\":9381:9403   */\n          tag_168\n            /* \"#utility.yul\":9399:9402   */\n          dup6\n            /* \"#utility.yul\":9381:9403   */\n          tag_45\n          jump\t// in\n        tag_168:\n            /* \"#utility.yul\":9371:9379   */\n          dup4\n            /* \"#utility.yul\":9367:9404   */\n          add\n            /* \"#utility.yul\":9354:9365   */\n          dup3\n            /* \"#utility.yul\":9325:9405   */\n          tag_55\n          jump\t// in\n        tag_167:\n            /* \"#utility.yul\":8984:9415   */\n          pop\n          pop\n            /* \"#utility.yul\":8969:9415   */\n        tag_163:\n            /* \"#utility.yul\":8879:9422   */\n          pop\n          pop\n          pop\n          jump\t// out\n            /* \"#utility.yul\":9428:9545   */\n        tag_57:\n            /* \"#utility.yul\":9482:9490   */\n          0x00\n            /* \"#utility.yul\":9532:9537   */\n          dup3\n            /* \"#utility.yul\":9526:9530   */\n          dup3\n            /* \"#utility.yul\":9522:9538   */\n          shr\n            /* \"#utility.yul\":9501:9538   */\n          swap1\n          pop\n            /* \"#utility.yul\":9428:9545   */\n          swap3\n          swap2\n          pop\n          pop\n          jump\t// out\n            /* \"#utility.yul\":9551:9720   */\n        tag_58:\n            /* \"#utility.yul\":9595:9601   */\n          0x00\n            /* \"#utility.yul\":9628:9679   */\n          tag_171\n            /* \"#utility.yul\":9676:9677   */\n          0x00\n            /* \"#utility.yul\":9672:9678   */\n          not\n            /* \"#utility.yul\":9664:9669   */\n          dup5\n            /* \"#utility.yul\":9661:9662   */\n          0x08\n            /* \"#utility.yul\":9657:9670   */\n          mul\n            /* \"#utility.yul\":9628:9679   */\n          tag_57\n          jump\t// in\n        tag_171:\n            /* \"#utility.yul\":9624:9680   */\n          not\n            /* \"#utility.yul\":9709:9713   */\n          dup1\n            /* \"#utility.yul\":9703:9707   */\n          dup4\n            /* \"#utility.yul\":9699:9714   */\n          and\n            /* \"#utility.yul\":9689:9714   */\n          swap2\n          pop\n            /* \"#utility.yul\":9602:9720   */\n          pop\n            /* \"#utility.yul\":9551:9720   */\n          swap3\n          swap2\n          pop\n          pop\n          jump\t// out\n            /* \"#utility.yul\":9725:10020   */\n        tag_59:\n            /* \"#utility.yul\":9801:9805   */\n          0x00\n            /* \"#utility.yul\":9947:9976   */\n          tag_173\n            /* \"#utility.yul\":9972:9975   */\n          dup4\n            /* \"#utility.yul\":9966:9970   */\n          dup4\n            /* \"#utility.yul\":9947:9976   */\n          tag_58\n          jump\t// in\n        tag_173:\n            /* \"#utility.yul\":9939:9976   */\n          swap2\n          pop\n            /* \"#utility.yul\":10009:10012   */\n          dup3\n            /* \"#utility.yul\":10006:10007   */\n          0x02\n            /* \"#utility.yul\":10002:10013   */\n          mul\n            /* \"#utility.yul\":9996:10000   */\n          dup3\n            /* \"#utility.yul\":9993:10014   */\n          or\n            /* \"#utility.yul\":9985:10014   */\n          swap1\n          pop\n            /* \"#utility.yul\":9725:10020   */\n          swap3\n          swap2\n          pop\n          pop\n          jump\t// out\n            /* \"#utility.yul\":10025:11420   */\n        tag_7:\n            /* \"#utility.yul\":10142:10179   */\n          tag_175\n            /* \"#utility.yul\":10175:10178   */\n          dup3\n            /* \"#utility.yul\":10142:10179   */\n          tag_41\n          jump\t// in\n        tag_175:\n            /* \"#utility.yul\":10244:10262   */\n          0xffffffffffffffff\n            /* \"#utility.yul\":10236:10242   */\n          dup2\n            /* \"#utility.yul\":10233:10263   */\n          gt\n            /* \"#utility.yul\":10230:10286   */\n          iszero\n          tag_176\n          jumpi\n            /* \"#utility.yul\":10266:10284   */\n          tag_177\n          tag_25\n          jump\t// in\n        tag_177:\n            /* \"#utility.yul\":10230:10286   */\n        tag_176:\n            /* \"#utility.yul\":10310:10348   */\n          tag_178\n            /* \"#utility.yul\":10342:10346   */\n          dup3\n            /* \"#utility.yul\":10336:10347   */\n          sload\n            /* \"#utility.yul\":10310:10348   */\n          tag_43\n          jump\t// in\n        tag_178:\n            /* \"#utility.yul\":10395:10462   */\n          tag_179\n            /* \"#utility.yul\":10455:10461   */\n          dup3\n            /* \"#utility.yul\":10447:10453   */\n          dup3\n            /* \"#utility.yul\":10441:10445   */\n          dup6\n            /* \"#utility.yul\":10395:10462   */\n          tag_56\n          jump\t// in\n        tag_179:\n            /* \"#utility.yul\":10489:10490   */\n          0x00\n            /* \"#utility.yul\":10513:10517   */\n          0x20\n            /* \"#utility.yul\":10500:10517   */\n          swap1\n          pop\n            /* \"#utility.yul\":10545:10547   */\n          0x1f\n            /* \"#utility.yul\":10537:10543   */\n          dup4\n            /* \"#utility.yul\":10534:10548   */\n          gt\n            /* \"#utility.yul\":10562:10563   */\n          0x01\n            /* \"#utility.yul\":10557:11175   */\n          dup2\n          eq\n          tag_181\n          jumpi\n            /* \"#utility.yul\":11219:11220   */\n          0x00\n            /* \"#utility.yul\":11236:11242   */\n          dup5\n            /* \"#utility.yul\":11233:11310   */\n          iszero\n          tag_182\n          jumpi\n            /* \"#utility.yul\":11285:11294   */\n          dup3\n            /* \"#utility.yul\":11280:11283   */\n          dup8\n            /* \"#utility.yul\":11276:11295   */\n          add\n            /* \"#utility.yul\":11270:11296   */\n          mload\n            /* \"#utility.yul\":11261:11296   */\n          swap1\n          pop\n            /* \"#utility.yul\":11233:11310   */\n        tag_182:\n            /* \"#utility.yul\":11336:11403   */\n          tag_183\n            /* \"#utility.yul\":11396:11402   */\n          dup6\n            /* \"#utility.yul\":11389:11394   */\n          dup3\n            /* \"#utility.yul\":11336:11403   */\n          tag_59\n          jump\t// in\n        tag_183:\n            /* \"#utility.yul\":11330:11334   */\n          dup7\n            /* \"#utility.yul\":11323:11404   */\n          sstore\n            /* \"#utility.yul\":11192:11414   */\n          pop\n            /* \"#utility.yul\":10527:11414   */\n          jump(tag_180)\n            /* \"#utility.yul\":10557:11175   */\n        tag_181:\n            /* \"#utility.yul\":10609:10613   */\n          0x1f\n            /* \"#utility.yul\":10605:10614   */\n          not\n            /* \"#utility.yul\":10597:10603   */\n          dup5\n            /* \"#utility.yul\":10593:10615   */\n          and\n            /* \"#utility.yul\":10643:10680   */\n          tag_184\n            /* \"#utility.yul\":10675:10679   */\n          dup7\n            /* \"#utility.yul\":10643:10680   */\n          tag_44\n          jump\t// in\n        tag_184:\n            /* \"#utility.yul\":10702:10703   */\n          0x00\n            /* \"#utility.yul\":10716:10924   */\n        tag_185:\n            /* \"#utility.yul\":10730:10737   */\n          dup3\n            /* \"#utility.yul\":10727:10728   */\n          dup2\n            /* \"#utility.yul\":10724:10738   */\n          lt\n            /* \"#utility.yul\":10716:10924   */\n          iszero\n          tag_187\n          jumpi\n            /* \"#utility.yul\":10809:10818   */\n          dup5\n            /* \"#utility.yul\":10804:10807   */\n          dup10\n            /* \"#utility.yul\":10800:10819   */\n          add\n            /* \"#utility.yul\":10794:10820   */\n          mload\n            /* \"#utility.yul\":10786:10792   */\n          dup3\n            /* \"#utility.yul\":10779:10821   */\n          sstore\n            /* \"#utility.yul\":10860:10861   */\n          0x01\n            /* \"#utility.yul\":10852:10858   */\n          dup3\n            /* \"#utility.yul\":10848:10862   */\n          add\n            /* \"#utility.yul\":10838:10862   */\n          swap2\n          pop\n            /* \"#utility.yul\":10907:10909   */\n          0x20\n            /* \"#utility.yul\":10896:10905   */\n          dup6\n            /* \"#utility.yul\":10892:10910   */\n          add\n            /* \"#utility.yul\":10879:10910   */\n          swap5\n          pop\n            /* \"#utility.yul\":10753:10757   */\n          0x20\n            /* \"#utility.yul\":10750:10751   */\n          dup2\n            /* \"#utility.yul\":10746:10758   */\n          add\n            /* \"#utility.yul\":10741:10758   */\n          swap1\n          pop\n            /* \"#utility.yul\":10716:10924   */\n          jump(tag_185)\n        tag_187:\n            /* \"#utility.yul\":10952:10958   */\n          dup7\n            /* \"#utility.yul\":10943:10950   */\n          dup4\n            /* \"#utility.yul\":10940:10959   */\n          lt\n            /* \"#utility.yul\":10937:11116   */\n          iszero\n          tag_188\n          jumpi\n            /* \"#utility.yul\":11010:11019   */\n          dup5\n            /* \"#utility.yul\":11005:11008   */\n          dup10\n            /* \"#utility.yul\":11001:11020   */\n          add\n            /* \"#utility.yul\":10995:11021   */\n          mload\n            /* \"#utility.yul\":11053:11101   */\n          tag_189\n            /* \"#utility.yul\":11095:11099   */\n          0x1f\n            /* \"#utility.yul\":11087:11093   */\n          dup10\n            /* \"#utility.yul\":11083:11100   */\n          and\n            /* \"#utility.yul\":11072:11081   */\n          dup3\n            /* \"#utility.yul\":11053:11101   */\n          tag_58\n          jump\t// in\n        tag_189:\n            /* \"#utility.yul\":11045:11051   */\n          dup4\n            /* \"#utility.yul\":11038:11102   */\n          sstore\n            /* \"#utility.yul\":10960:11116   */\n          pop\n            /* \"#utility.yul\":10937:11116   */\n        tag_188:\n            /* \"#utility.yul\":11162:11163   */\n          0x01\n            /* \"#utility.yul\":11158:11159   */\n          0x02\n            /* \"#utility.yul\":11150:11156   */\n          dup9\n            /* \"#utility.yul\":11146:11160   */\n          mul\n            /* \"#utility.yul\":11142:11164   */\n          add\n            /* \"#utility.yul\":11136:11140   */\n          dup9\n            /* \"#utility.yul\":11129:11165   */\n          sstore\n            /* \"#utility.yul\":10564:11175   */\n          pop\n          pop\n          pop\n            /* \"#utility.yul\":10527:11414   */\n        tag_180:\n          pop\n            /* \"#utility.yul\":10117:11420   */\n          pop\n          pop\n          pop\n            /* \"#utility.yul\":10025:11420   */\n          pop\n          pop\n          jump\t// out\n            /* \"#utility.yul\":11426:11606   */\n        tag_13:\n            /* \"#utility.yul\":11474:11551   */\n          0x4e487b7100000000000000000000000000000000000000000000000000000000\n            /* \"#utility.yul\":11471:11472   */\n          0x00\n            /* \"#utility.yul\":11464:11552   */\n          mstore\n            /* \"#utility.yul\":11571:11575   */\n          0x32\n            /* \"#utility.yul\":11568:11569   */\n          0x04\n            /* \"#utility.yul\":11561:11576   */\n          mstore\n            /* \"#utility.yul\":11595:11599   */\n          0x24\n            /* \"#utility.yul\":11592:11593   */\n          0x00\n            /* \"#utility.yul\":11585:11600   */\n          revert\n            /* \"evs.sol\":618:2775  contract Ballot {... */\n        tag_19:\n          dataSize(sub_0)\n          dup1\n          dataOffset(sub_0)\n          0x00\n          codecopy\n          0x00\n          return\n        stop\n\n        sub_0: assembly {\n                /* \"evs.sol\":618:2775  contract Ballot {... */\n              mstore(0x40, 0x80)\n              callvalue\n              dup1\n              iszero\n              tag_1\n              jumpi\n              0x00\n              dup1\n              revert\n            tag_1:\n              pop\n              jumpi(tag_2, lt(calldatasize, 0x04))\n              shr(0xe0, calldataload(0x00))\n              dup1\n              0x72ce73ab\n              gt\n              tag_15\n              jumpi\n              dup1\n              0x72ce73ab\n              eq\n              tag_9\n              jumpi\n              dup1\n              0xa3ec138d\n              eq\n              tag_10\n              jumpi\n              dup1\n              0xb2c2f2e8\n              eq\n              tag_11\n              jumpi\n              dup1\n              0xbc86f385\n              eq\n              tag_12\n              jumpi\n              dup1\n              0xd5346da1\n              eq\n              tag_13\n              jumpi\n              dup1\n              0xe13804a7\n              eq\n              tag_14\n              jumpi\n              jump(tag_2)\n            tag_15:\n              dup1\n              0x0121b93f\n              eq\n              tag_3\n              jumpi\n              dup1\n              0x3477ee2e\n              eq\n              tag_4\n              jumpi\n              dup1\n              0x3d2f5bda\n              eq\n              tag_5\n              jumpi\n              dup1\n              0x456645a7\n              eq\n              tag_6\n              jumpi\n              dup1\n              0x481c6a75\n              eq\n              tag_7\n              jumpi\n              dup1\n              0x716c424e\n              eq\n              tag_8\n              jumpi\n            tag_2:\n              0x00\n              dup1\n              revert\n                /* \"evs.sol\":2055:2297  function vote(uint index) public onlyAfterStart {... */\n            tag_3:\n              tag_16\n              0x04\n              dup1\n              calldatasize\n              sub\n              dup2\n              add\n              swap1\n              tag_17\n              swap2\n              swap1\n              tag_18\n              jump\t// in\n            tag_17:\n              tag_19\n              jump\t// in\n            tag_16:\n              stop\n                /* \"evs.sol\":793:822  Candidate[] public candidates */\n            tag_4:\n              tag_20\n              0x04\n              dup1\n              calldatasize\n              sub\n              dup2\n              add\n              swap1\n              tag_21\n              swap2\n              swap1\n              tag_18\n              jump\t// in\n            tag_21:\n              tag_22\n              jump\t// in\n            tag_20:\n              mload(0x40)\n              tag_23\n              swap6\n              swap5\n              swap4\n              swap3\n              swap2\n              swap1\n              tag_24\n              jump\t// in\n            tag_23:\n              mload(0x40)\n              dup1\n              swap2\n              sub\n              swap1\n              return\n                /* \"evs.sol\":1795:2048  function startVoting(uint amountOfHours) public restricted {... */\n            tag_5:\n              tag_25\n              0x04\n              dup1\n              calldatasize\n              sub\n              dup2\n              add\n              swap1\n              tag_26\n              swap2\n              swap1\n              tag_18\n              jump\t// in\n            tag_26:\n              tag_27\n              jump\t// in\n            tag_25:\n              stop\n                /* \"evs.sol\":2429:2551  function getCandidateParty(uint index) public view returns (string memory) {... */\n            tag_6:\n              tag_28\n              0x04\n              dup1\n              calldatasize\n              sub\n              dup2\n              add\n              swap1\n              tag_29\n              swap2\n              swap1\n              tag_18\n              jump\t// in\n            tag_29:\n              tag_30\n              jump\t// in\n            tag_28:\n              mload(0x40)\n              tag_31\n              swap2\n              swap1\n              tag_32\n              jump\t// in\n            tag_31:\n              mload(0x40)\n              dup1\n              swap2\n              sub\n              swap1\n              return\n                /* \"evs.sol\":828:850  address public manager */\n            tag_7:\n              tag_33\n              tag_34\n              jump\t// in\n            tag_33:\n              mload(0x40)\n              tag_35\n              swap2\n              swap1\n              tag_36\n              jump\t// in\n            tag_35:\n              mload(0x40)\n              dup1\n              swap2\n              sub\n              swap1\n              return\n                /* \"evs.sol\":856:884  string public votingDistrict */\n            tag_8:\n              tag_37\n              tag_38\n              jump\t// in\n            tag_37:\n              mload(0x40)\n              tag_39\n              swap2\n              swap1\n              tag_32\n              jump\t// in\n            tag_39:\n              mload(0x40)\n              dup1\n              swap2\n              sub\n              swap1\n              return\n                /* \"evs.sol\":967:994  address[] public votersList */\n            tag_9:\n              tag_40\n              0x04\n              dup1\n              calldatasize\n              sub\n              dup2\n              add\n              swap1\n              tag_41\n              swap2\n              swap1\n              tag_18\n              jump\t// in\n            tag_41:\n              tag_42\n              jump\t// in\n            tag_40:\n              mload(0x40)\n              tag_43\n              swap2\n              swap1\n              tag_36\n              jump\t// in\n            tag_43:\n              mload(0x40)\n              dup1\n              swap2\n              sub\n              swap1\n              return\n                /* \"evs.sol\":890:928  mapping(address => bool) public voters */\n            tag_10:\n              tag_44\n              0x04\n              dup1\n              calldatasize\n              sub\n              dup2\n              add\n              swap1\n              tag_45\n              swap2\n              swap1\n              tag_46\n              jump\t// in\n            tag_45:\n              tag_47\n              jump\t// in\n            tag_44:\n              mload(0x40)\n              tag_48\n              swap2\n              swap1\n              tag_49\n              jump\t// in\n            tag_48:\n              mload(0x40)\n              dup1\n              swap2\n              sub\n              swap1\n              return\n                /* \"evs.sol\":2557:2669  function getVoteCount(uint index) public view returns (uint) {... */\n            tag_11:\n              tag_50\n              0x04\n              dup1\n              calldatasize\n              sub\n              dup2\n              add\n              swap1\n              tag_51\n              swap2\n              swap1\n              tag_18\n              jump\t// in\n            tag_51:\n              tag_52\n              jump\t// in\n            tag_50:\n              mload(0x40)\n              tag_53\n              swap2\n              swap1\n              tag_54\n              jump\t// in\n            tag_53:\n              mload(0x40)\n              dup1\n              swap2\n              sub\n              swap1\n              return\n                /* \"evs.sol\":2675:2773  function getVotersList() public view  returns(address[] memory) {... */\n            tag_12:\n              tag_55\n              tag_56\n              jump\t// in\n            tag_55:\n              mload(0x40)\n              tag_57\n              swap2\n              swap1\n              tag_58\n              jump\t// in\n            tag_57:\n              mload(0x40)\n              dup1\n              swap2\n              sub\n              swap1\n              return\n                /* \"evs.sol\":934:961  bool public electionStarted */\n            tag_13:\n              tag_59\n              tag_60\n              jump\t// in\n            tag_59:\n              mload(0x40)\n              tag_61\n              swap2\n              swap1\n              tag_49\n              jump\t// in\n            tag_61:\n              mload(0x40)\n              dup1\n              swap2\n              sub\n              swap1\n              return\n                /* \"evs.sol\":2303:2423  function getCandidateName(uint index) public view returns (string memory) {... */\n            tag_14:\n              tag_62\n              0x04\n              dup1\n              calldatasize\n              sub\n              dup2\n              add\n              swap1\n              tag_63\n              swap2\n              swap1\n              tag_18\n              jump\t// in\n            tag_63:\n              tag_64\n              jump\t// in\n            tag_62:\n              mload(0x40)\n              tag_65\n              swap2\n              swap1\n              tag_32\n              jump\t// in\n            tag_65:\n              mload(0x40)\n              dup1\n              swap2\n              sub\n              swap1\n              return\n                /* \"evs.sol\":2055:2297  function vote(uint index) public onlyAfterStart {... */\n            tag_19:\n                /* \"evs.sol\":1170:1185  electionStarted */\n              0x04\n              0x00\n              swap1\n              sload\n              swap1\n              0x0100\n              exp\n              swap1\n              div\n              0xff\n              and\n                /* \"evs.sol\":1162:1218  require(electionStarted, \"Election has not started yet\") */\n              tag_67\n              jumpi\n              mload(0x40)\n              0x08c379a000000000000000000000000000000000000000000000000000000000\n              dup2\n              mstore\n              0x04\n              add\n              tag_68\n              swap1\n              tag_69\n              jump\t// in\n            tag_68:\n              mload(0x40)\n              dup1\n              swap2\n              sub\n              swap1\n              revert\n            tag_67:\n                /* \"evs.sol\":2122:2128  voters */\n              0x03\n                /* \"evs.sol\":2122:2140  voters[msg.sender] */\n              0x00\n                /* \"evs.sol\":2129:2139  msg.sender */\n              caller\n                /* \"evs.sol\":2122:2140  voters[msg.sender] */\n              0xffffffffffffffffffffffffffffffffffffffff\n              and\n              0xffffffffffffffffffffffffffffffffffffffff\n              and\n              dup2\n              mstore\n              0x20\n              add\n              swap1\n              dup2\n              mstore\n              0x20\n              add\n              0x00\n              keccak256\n              0x00\n              swap1\n              sload\n              swap1\n              0x0100\n              exp\n              swap1\n              div\n              0xff\n              and\n                /* \"evs.sol\":2121:2140  !voters[msg.sender] */\n              iszero\n                /* \"evs.sol\":2113:2167  require(!voters[msg.sender], \"You have already voted\") */\n              tag_71\n              jumpi\n              mload(0x40)\n              0x08c379a000000000000000000000000000000000000000000000000000000000\n              dup2\n              mstore\n              0x04\n              add\n              tag_72\n              swap1\n              tag_73\n              jump\t// in\n            tag_72:\n              mload(0x40)\n              dup1\n              swap2\n              sub\n              swap1\n              revert\n            tag_71:\n                /* \"evs.sol\":2208:2209  1 */\n              0x01\n                /* \"evs.sol\":2177:2187  candidates */\n              0x00\n                /* \"evs.sol\":2188:2193  index */\n              dup3\n                /* \"evs.sol\":2177:2194  candidates[index] */\n              dup2\n              sload\n              dup2\n              lt\n              tag_74\n              jumpi\n              tag_75\n              tag_76\n              jump\t// in\n            tag_75:\n            tag_74:\n              swap1\n              0x00\n              mstore\n              keccak256(0x00, 0x20)\n              swap1\n              0x05\n              mul\n              add\n                /* \"evs.sol\":2177:2204  candidates[index].voteCount */\n              0x02\n              add\n              0x00\n                /* \"evs.sol\":2177:2209  candidates[index].voteCount += 1 */\n              dup3\n              dup3\n              sload\n              tag_78\n              swap2\n              swap1\n              tag_79\n              jump\t// in\n            tag_78:\n              swap3\n              pop\n              pop\n              dup2\n              swap1\n              sstore\n              pop\n                /* \"evs.sol\":2240:2244  true */\n              0x01\n                /* \"evs.sol\":2219:2225  voters */\n              0x03\n                /* \"evs.sol\":2219:2237  voters[msg.sender] */\n              0x00\n                /* \"evs.sol\":2226:2236  msg.sender */\n              caller\n                /* \"evs.sol\":2219:2237  voters[msg.sender] */\n              0xffffffffffffffffffffffffffffffffffffffff\n              and\n              0xffffffffffffffffffffffffffffffffffffffff\n              and\n              dup2\n              mstore\n              0x20\n              add\n              swap1\n              dup2\n              mstore\n              0x20\n              add\n              0x00\n              keccak256\n              0x00\n                /* \"evs.sol\":2219:2244  voters[msg.sender] = true */\n              0x0100\n              exp\n              dup2\n              sload\n              dup2\n              0xff\n              mul\n              not\n              and\n              swap1\n              dup4\n              iszero\n              iszero\n              mul\n              or\n              swap1\n              sstore\n              pop\n                /* \"evs.sol\":2254:2264  votersList */\n              0x05\n                /* \"evs.sol\":2270:2280  msg.sender */\n              caller\n                /* \"evs.sol\":2254:2281  votersList.push(msg.sender) */\n              swap1\n              dup1\n              0x01\n              dup2\n              sload\n              add\n              dup1\n              dup3\n              sstore\n              dup1\n              swap2\n              pop\n              pop\n              0x01\n              swap1\n              sub\n              swap1\n              0x00\n              mstore\n              keccak256(0x00, 0x20)\n              add\n              0x00\n              swap1\n              swap2\n              swap1\n              swap2\n              swap1\n              swap2\n              0x0100\n              exp\n              dup2\n              sload\n              dup2\n              0xffffffffffffffffffffffffffffffffffffffff\n              mul\n              not\n              and\n              swap1\n              dup4\n              0xffffffffffffffffffffffffffffffffffffffff\n              and\n              mul\n              or\n              swap1\n              sstore\n              pop\n                /* \"evs.sol\":2055:2297  function vote(uint index) public onlyAfterStart {... */\n              pop\n              jump\t// out\n                /* \"evs.sol\":793:822  Candidate[] public candidates */\n            tag_22:\n              0x00\n              dup2\n              dup2\n              sload\n              dup2\n              lt\n              tag_81\n              jumpi\n              0x00\n              dup1\n              revert\n            tag_81:\n              swap1\n              0x00\n              mstore\n              keccak256(0x00, 0x20)\n              swap1\n              0x05\n              mul\n              add\n              0x00\n              swap2\n              pop\n              swap1\n              pop\n              dup1\n              0x00\n              add\n              dup1\n              sload\n              tag_83\n              swap1\n              tag_84\n              jump\t// in\n            tag_83:\n              dup1\n              0x1f\n              add\n              0x20\n              dup1\n              swap2\n              div\n              mul\n              0x20\n              add\n              mload(0x40)\n              swap1\n              dup2\n              add\n              0x40\n              mstore\n              dup1\n              swap3\n              swap2\n              swap1\n              dup2\n              dup2\n              mstore\n              0x20\n              add\n              dup3\n              dup1\n              sload\n              tag_85\n              swap1\n              tag_84\n              jump\t// in\n            tag_85:\n              dup1\n              iszero\n              tag_86\n              jumpi\n              dup1\n              0x1f\n              lt\n              tag_87\n              jumpi\n              0x0100\n              dup1\n              dup4\n              sload\n              div\n              mul\n              dup4\n              mstore\n              swap2\n              0x20\n              add\n              swap2\n              jump(tag_86)\n            tag_87:\n              dup3\n              add\n              swap2\n              swap1\n              0x00\n              mstore\n              keccak256(0x00, 0x20)\n              swap1\n            tag_88:\n              dup2\n              sload\n              dup2\n              mstore\n              swap1\n              0x01\n              add\n              swap1\n              0x20\n              add\n              dup1\n              dup4\n              gt\n              tag_88\n              jumpi\n              dup3\n              swap1\n              sub\n              0x1f\n              and\n              dup3\n              add\n              swap2\n            tag_86:\n              pop\n              pop\n              pop\n              pop\n              pop\n              swap1\n              dup1\n              0x01\n              add\n              dup1\n              sload\n              tag_89\n              swap1\n              tag_84\n              jump\t// in\n            tag_89:\n              dup1\n              0x1f\n              add\n              0x20\n              dup1\n              swap2\n              div\n              mul\n              0x20\n              add\n              mload(0x40)\n              swap1\n              dup2\n              add\n              0x40\n              mstore\n              dup1\n              swap3\n              swap2\n              swap1\n              dup2\n              dup2\n              mstore\n              0x20\n              add\n              dup3\n              dup1\n              sload\n              tag_90\n              swap1\n              tag_84\n              jump\t// in\n            tag_90:\n              dup1\n              iszero\n              tag_91\n              jumpi\n              dup1\n              0x1f\n              lt\n              tag_92\n              jumpi\n              0x0100\n              dup1\n              dup4\n              sload\n              div\n              mul\n              dup4\n              mstore\n              swap2\n              0x20\n              add\n              swap2\n              jump(tag_91)\n            tag_92:\n              dup3\n              add\n              swap2\n              swap1\n              0x00\n              mstore\n              keccak256(0x00, 0x20)\n              swap1\n            tag_93:\n              dup2\n              sload\n              dup2\n              mstore\n              swap1\n              0x01\n              add\n              swap1\n              0x20\n              add\n              dup1\n              dup4\n              gt\n              tag_93\n              jumpi\n              dup3\n              swap1\n              sub\n              0x1f\n              and\n              dup3\n              add\n              swap2\n            tag_91:\n              pop\n              pop\n              pop\n              pop\n              pop\n              swap1\n              dup1\n              0x02\n              add\n              sload\n              swap1\n              dup1\n              0x03\n              add\n              sload\n              swap1\n              dup1\n              0x04\n              add\n              sload\n              swap1\n              pop\n              dup6\n              jump\t// out\n                /* \"evs.sol\":1795:2048  function startVoting(uint amountOfHours) public restricted {... */\n            tag_27:\n                /* \"evs.sol\":1055:1062  manager */\n              0x01\n              0x00\n              swap1\n              sload\n              swap1\n              0x0100\n              exp\n              swap1\n              div\n              0xffffffffffffffffffffffffffffffffffffffff\n              and\n                /* \"evs.sol\":1041:1062  msg.sender == manager */\n              0xffffffffffffffffffffffffffffffffffffffff\n              and\n                /* \"evs.sol\":1041:1051  msg.sender */\n              caller\n                /* \"evs.sol\":1041:1062  msg.sender == manager */\n              0xffffffffffffffffffffffffffffffffffffffff\n              and\n              eq\n                /* \"evs.sol\":1033:1102  require(msg.sender == manager, \"Only manager can call this function\") */\n              tag_95\n              jumpi\n              mload(0x40)\n              0x08c379a000000000000000000000000000000000000000000000000000000000\n              dup2\n              mstore\n              0x04\n              add\n              tag_96\n              swap1\n              tag_97\n              jump\t// in\n            tag_96:\n              mload(0x40)\n              dup1\n              swap2\n              sub\n              swap1\n              revert\n            tag_95:\n                /* \"evs.sol\":1878:1882  true */\n              0x01\n                /* \"evs.sol\":1860:1875  electionStarted */\n              0x04\n              0x00\n                /* \"evs.sol\":1860:1882  electionStarted = true */\n              0x0100\n              exp\n              dup2\n              sload\n              dup2\n              0xff\n              mul\n              not\n              and\n              swap1\n              dup4\n              iszero\n              iszero\n              mul\n              or\n              swap1\n              sstore\n              pop\n                /* \"evs.sol\":1941:1947  uint i */\n              0x00\n                /* \"evs.sol\":1936:2042  for (uint i = 0; i < candidates.length; i++) {... */\n            tag_99:\n                /* \"evs.sol\":1957:1967  candidates */\n              0x00\n                /* \"evs.sol\":1957:1974  candidates.length */\n              dup1\n              sload\n              swap1\n              pop\n                /* \"evs.sol\":1953:1954  i */\n              dup2\n                /* \"evs.sol\":1953:1974  i < candidates.length */\n              lt\n                /* \"evs.sol\":1936:2042  for (uint i = 0; i < candidates.length; i++) {... */\n              iszero\n              tag_100\n              jumpi\n                /* \"evs.sol\":2021:2034  amountOfHours */\n              dup2\n                /* \"evs.sol\":1991:2001  candidates */\n              0x00\n                /* \"evs.sol\":2002:2003  i */\n              dup3\n                /* \"evs.sol\":1991:2004  candidates[i] */\n              dup2\n              sload\n              dup2\n              lt\n              tag_102\n              jumpi\n              tag_103\n              tag_76\n              jump\t// in\n            tag_103:\n            tag_102:\n              swap1\n              0x00\n              mstore\n              keccak256(0x00, 0x20)\n              swap1\n              0x05\n              mul\n              add\n                /* \"evs.sol\":1991:2019  candidates[i].expirationDate */\n              0x04\n              add\n                /* \"evs.sol\":1991:2034  candidates[i].expirationDate =amountOfHours */\n              dup2\n              swap1\n              sstore\n              pop\n                /* \"evs.sol\":1976:1979  i++ */\n              dup1\n              dup1\n              0x01\n              add\n              swap2\n              pop\n              pop\n                /* \"evs.sol\":1936:2042  for (uint i = 0; i < candidates.length; i++) {... */\n              jump(tag_99)\n            tag_100:\n              pop\n                /* \"evs.sol\":1795:2048  function startVoting(uint amountOfHours) public restricted {... */\n              pop\n              jump\t// out\n                /* \"evs.sol\":2429:2551  function getCandidateParty(uint index) public view returns (string memory) {... */\n            tag_30:\n                /* \"evs.sol\":2489:2502  string memory */\n              0x60\n                /* \"evs.sol\":2521:2531  candidates */\n              0x00\n                /* \"evs.sol\":2532:2537  index */\n              dup3\n                /* \"evs.sol\":2521:2538  candidates[index] */\n              dup2\n              sload\n              dup2\n              lt\n              tag_106\n              jumpi\n              tag_107\n              tag_76\n              jump\t// in\n            tag_107:\n            tag_106:\n              swap1\n              0x00\n              mstore\n              keccak256(0x00, 0x20)\n              swap1\n              0x05\n              mul\n              add\n                /* \"evs.sol\":2521:2544  candidates[index].party */\n              0x01\n              add\n                /* \"evs.sol\":2514:2544  return candidates[index].party */\n              dup1\n              sload\n              tag_109\n              swap1\n              tag_84\n              jump\t// in\n            tag_109:\n              dup1\n              0x1f\n              add\n              0x20\n              dup1\n              swap2\n              div\n              mul\n              0x20\n              add\n              mload(0x40)\n              swap1\n              dup2\n              add\n              0x40\n              mstore\n              dup1\n              swap3\n              swap2\n              swap1\n              dup2\n              dup2\n              mstore\n              0x20\n              add\n              dup3\n              dup1\n              sload\n              tag_110\n              swap1\n              tag_84\n              jump\t// in\n            tag_110:\n              dup1\n              iszero\n              tag_111\n              jumpi\n              dup1\n              0x1f\n              lt\n              tag_112\n              jumpi\n              0x0100\n              dup1\n              dup4\n              sload\n              div\n              mul\n              dup4\n              mstore\n              swap2\n              0x20\n              add\n              swap2\n              jump(tag_111)\n            tag_112:\n              dup3\n              add\n              swap2\n              swap1\n              0x00\n              mstore\n              keccak256(0x00, 0x20)\n              swap1\n            tag_113:\n              dup2\n              sload\n              dup2\n              mstore\n              swap1\n              0x01\n              add\n              swap1\n              0x20\n              add\n              dup1\n              dup4\n              gt\n              tag_113\n              jumpi\n              dup3\n              swap1\n              sub\n              0x1f\n              and\n              dup3\n              add\n              swap2\n            tag_111:\n              pop\n              pop\n              pop\n              pop\n              pop\n              swap1\n              pop\n                /* \"evs.sol\":2429:2551  function getCandidateParty(uint index) public view returns (string memory) {... */\n              swap2\n              swap1\n              pop\n              jump\t// out\n                /* \"evs.sol\":828:850  address public manager */\n            tag_34:\n              0x01\n              0x00\n              swap1\n              sload\n              swap1\n              0x0100\n              exp\n              swap1\n              div\n              0xffffffffffffffffffffffffffffffffffffffff\n              and\n              dup2\n              jump\t// out\n                /* \"evs.sol\":856:884  string public votingDistrict */\n            tag_38:\n              0x02\n              dup1\n              sload\n              tag_114\n              swap1\n              tag_84\n              jump\t// in\n            tag_114:\n              dup1\n              0x1f\n              add\n              0x20\n              dup1\n              swap2\n              div\n              mul\n              0x20\n              add\n              mload(0x40)\n              swap1\n              dup2\n              add\n              0x40\n              mstore\n              dup1\n              swap3\n              swap2\n              swap1\n              dup2\n              dup2\n              mstore\n              0x20\n              add\n              dup3\n              dup1\n              sload\n              tag_115\n              swap1\n              tag_84\n              jump\t// in\n            tag_115:\n              dup1\n              iszero\n              tag_116\n              jumpi\n              dup1\n              0x1f\n              lt\n              tag_117\n              jumpi\n              0x0100\n              dup1\n              dup4\n              sload\n              div\n              mul\n              dup4\n              mstore\n              swap2\n              0x20\n              add\n              swap2\n              jump(tag_116)\n            tag_117:\n              dup3\n              add\n              swap2\n              swap1\n              0x00\n              mstore\n              keccak256(0x00, 0x20)\n              swap1\n            tag_118:\n              dup2\n              sload\n              dup2\n              mstore\n              swap1\n              0x01\n              add\n              swap1\n              0x20\n              add\n              dup1\n              dup4\n              gt\n              tag_118\n              jumpi\n              dup3\n              swap1\n              sub\n              0x1f\n              and\n              dup3\n              add\n              swap2\n            tag_116:\n              pop\n              pop\n              pop\n              pop\n              pop\n              dup2\n              jump\t// out\n                /* \"evs.sol\":967:994  address[] public votersList */\n            tag_42:\n              0x05\n              dup2\n              dup2\n              sload\n              dup2\n              lt\n              tag_119\n              jumpi\n              0x00\n              dup1\n              revert\n            tag_119:\n              swap1\n              0x00\n              mstore\n              keccak256(0x00, 0x20)\n              add\n              0x00\n              swap2\n              pop\n              sload\n              swap1\n              0x0100\n              exp\n              swap1\n              div\n              0xffffffffffffffffffffffffffffffffffffffff\n              and\n              dup2\n              jump\t// out\n                /* \"evs.sol\":890:928  mapping(address => bool) public voters */\n            tag_47:\n              mstore(0x20, 0x03)\n              dup1\n              0x00\n              mstore\n              keccak256(0x00, 0x40)\n              0x00\n              swap2\n              pop\n              sload\n              swap1\n              0x0100\n              exp\n              swap1\n              div\n              0xff\n              and\n              dup2\n              jump\t// out\n                /* \"evs.sol\":2557:2669  function getVoteCount(uint index) public view returns (uint) {... */\n            tag_52:\n                /* \"evs.sol\":2612:2616  uint */\n              0x00\n                /* \"evs.sol\":2635:2645  candidates */\n              dup1\n                /* \"evs.sol\":2646:2651  index */\n              dup3\n                /* \"evs.sol\":2635:2652  candidates[index] */\n              dup2\n              sload\n              dup2\n              lt\n              tag_122\n              jumpi\n              tag_123\n              tag_76\n              jump\t// in\n            tag_123:\n            tag_122:\n              swap1\n              0x00\n              mstore\n              keccak256(0x00, 0x20)\n              swap1\n              0x05\n              mul\n              add\n                /* \"evs.sol\":2635:2662  candidates[index].voteCount */\n              0x02\n              add\n              sload\n                /* \"evs.sol\":2628:2662  return candidates[index].voteCount */\n              swap1\n              pop\n                /* \"evs.sol\":2557:2669  function getVoteCount(uint index) public view returns (uint) {... */\n              swap2\n              swap1\n              pop\n              jump\t// out\n                /* \"evs.sol\":2675:2773  function getVotersList() public view  returns(address[] memory) {... */\n            tag_56:\n                /* \"evs.sol\":2721:2737  address[] memory */\n              0x60\n                /* \"evs.sol\":2756:2766  votersList */\n              0x05\n                /* \"evs.sol\":2749:2766  return votersList */\n              dup1\n              sload\n              dup1\n              0x20\n              mul\n              0x20\n              add\n              mload(0x40)\n              swap1\n              dup2\n              add\n              0x40\n              mstore\n              dup1\n              swap3\n              swap2\n              swap1\n              dup2\n              dup2\n              mstore\n              0x20\n              add\n              dup3\n              dup1\n              sload\n              dup1\n              iszero\n              tag_126\n              jumpi\n              0x20\n              mul\n              dup3\n              add\n              swap2\n              swap1\n              0x00\n              mstore\n              keccak256(0x00, 0x20)\n              swap1\n            tag_127:\n              dup2\n              0x00\n              swap1\n              sload\n              swap1\n              0x0100\n              exp\n              swap1\n              div\n              0xffffffffffffffffffffffffffffffffffffffff\n              and\n              0xffffffffffffffffffffffffffffffffffffffff\n              and\n              dup2\n              mstore\n              0x20\n              add\n              swap1\n              0x01\n              add\n              swap1\n              dup1\n              dup4\n              gt\n              tag_127\n              jumpi\n            tag_126:\n              pop\n              pop\n              pop\n              pop\n              pop\n              swap1\n              pop\n                /* \"evs.sol\":2675:2773  function getVotersList() public view  returns(address[] memory) {... */\n              swap1\n              jump\t// out\n                /* \"evs.sol\":934:961  bool public electionStarted */\n            tag_60:\n              0x04\n              0x00\n              swap1\n              sload\n              swap1\n              0x0100\n              exp\n              swap1\n              div\n              0xff\n              and\n              dup2\n              jump\t// out\n                /* \"evs.sol\":2303:2423  function getCandidateName(uint index) public view returns (string memory) {... */\n            tag_64:\n                /* \"evs.sol\":2362:2375  string memory */\n              0x60\n                /* \"evs.sol\":2394:2404  candidates */\n              0x00\n                /* \"evs.sol\":2405:2410  index */\n              dup3\n                /* \"evs.sol\":2394:2411  candidates[index] */\n              dup2\n              sload\n              dup2\n              lt\n              tag_129\n              jumpi\n              tag_130\n              tag_76\n              jump\t// in\n            tag_130:\n            tag_129:\n              swap1\n              0x00\n              mstore\n              keccak256(0x00, 0x20)\n              swap1\n              0x05\n              mul\n              add\n                /* \"evs.sol\":2394:2416  candidates[index].name */\n              0x00\n              add\n                /* \"evs.sol\":2387:2416  return candidates[index].name */\n              dup1\n              sload\n              tag_132\n              swap1\n              tag_84\n              jump\t// in\n            tag_132:\n              dup1\n              0x1f\n              add\n              0x20\n              dup1\n              swap2\n              div\n              mul\n              0x20\n              add\n              mload(0x40)\n              swap1\n              dup2\n              add\n              0x40\n              mstore\n              dup1\n              swap3\n              swap2\n              swap1\n              dup2\n              dup2\n              mstore\n              0x20\n              add\n              dup3\n              dup1\n              sload\n              tag_133\n              swap1\n              tag_84\n              jump\t// in\n            tag_133:\n              dup1\n              iszero\n              tag_134\n              jumpi\n              dup1\n              0x1f\n              lt\n              tag_135\n              jumpi\n              0x0100\n              dup1\n              dup4\n              sload\n              div\n              mul\n              dup4\n              mstore\n              swap2\n              0x20\n              add\n              swap2\n              jump(tag_134)\n            tag_135:\n              dup3\n              add\n              swap2\n              swap1\n              0x00\n              mstore\n              keccak256(0x00, 0x20)\n              swap1\n            tag_136:\n              dup2\n              sload\n              dup2\n              mstore\n              swap1\n              0x01\n              add\n              swap1\n              0x20\n              add\n              dup1\n              dup4\n              gt\n              tag_136\n              jumpi\n              dup3\n              swap1\n              sub\n              0x1f\n              and\n              dup3\n              add\n              swap2\n            tag_134:\n              pop\n              pop\n              pop\n              pop\n              pop\n              swap1\n              pop\n                /* \"evs.sol\":2303:2423  function getCandidateName(uint index) public view returns (string memory) {... */\n              swap2\n              swap1\n              pop\n              jump\t// out\n                /* \"#utility.yul\":88:205   */\n            tag_138:\n                /* \"#utility.yul\":197:198   */\n              0x00\n                /* \"#utility.yul\":194:195   */\n              dup1\n                /* \"#utility.yul\":187:199   */\n              revert\n                /* \"#utility.yul\":334:411   */\n            tag_140:\n                /* \"#utility.yul\":371:378   */\n              0x00\n                /* \"#utility.yul\":400:405   */\n              dup2\n                /* \"#utility.yul\":389:405   */\n              swap1\n              pop\n                /* \"#utility.yul\":334:411   */\n              swap2\n              swap1\n              pop\n              jump\t// out\n                /* \"#utility.yul\":417:539   */\n            tag_141:\n                /* \"#utility.yul\":490:514   */\n              tag_177\n                /* \"#utility.yul\":508:513   */\n              dup2\n                /* \"#utility.yul\":490:514   */\n              tag_140\n              jump\t// in\n            tag_177:\n                /* \"#utility.yul\":483:488   */\n              dup2\n                /* \"#utility.yul\":480:515   */\n              eq\n                /* \"#utility.yul\":470:533   */\n              tag_178\n              jumpi\n                /* \"#utility.yul\":529:530   */\n              0x00\n                /* \"#utility.yul\":526:527   */\n              dup1\n                /* \"#utility.yul\":519:531   */\n              revert\n                /* \"#utility.yul\":470:533   */\n            tag_178:\n                /* \"#utility.yul\":417:539   */\n              pop\n              jump\t// out\n                /* \"#utility.yul\":545:684   */\n            tag_142:\n                /* \"#utility.yul\":591:596   */\n              0x00\n                /* \"#utility.yul\":629:635   */\n              dup2\n                /* \"#utility.yul\":616:636   */\n              calldataload\n                /* \"#utility.yul\":607:636   */\n              swap1\n              pop\n                /* \"#utility.yul\":645:678   */\n              tag_180\n                /* \"#utility.yul\":672:677   */\n              dup2\n                /* \"#utility.yul\":645:678   */\n              tag_141\n              jump\t// in\n            tag_180:\n                /* \"#utility.yul\":545:684   */\n              swap3\n              swap2\n              pop\n              pop\n              jump\t// out\n                /* \"#utility.yul\":690:1019   */\n            tag_18:\n                /* \"#utility.yul\":749:755   */\n              0x00\n                /* \"#utility.yul\":798:800   */\n              0x20\n                /* \"#utility.yul\":786:795   */\n              dup3\n                /* \"#utility.yul\":777:784   */\n              dup5\n                /* \"#utility.yul\":773:796   */\n              sub\n                /* \"#utility.yul\":769:801   */\n              slt\n                /* \"#utility.yul\":766:885   */\n              iszero\n              tag_182\n              jumpi\n                /* \"#utility.yul\":804:883   */\n              tag_183\n              tag_138\n              jump\t// in\n            tag_183:\n                /* \"#utility.yul\":766:885   */\n            tag_182:\n                /* \"#utility.yul\":924:925   */\n              0x00\n                /* \"#utility.yul\":949:1002   */\n              tag_184\n                /* \"#utility.yul\":994:1001   */\n              dup5\n                /* \"#utility.yul\":985:991   */\n              dup3\n                /* \"#utility.yul\":974:983   */\n              dup6\n                /* \"#utility.yul\":970:992   */\n              add\n                /* \"#utility.yul\":949:1002   */\n              tag_142\n              jump\t// in\n            tag_184:\n                /* \"#utility.yul\":939:1002   */\n              swap2\n              pop\n                /* \"#utility.yul\":895:1012   */\n              pop\n                /* \"#utility.yul\":690:1019   */\n              swap3\n              swap2\n              pop\n              pop\n              jump\t// out\n                /* \"#utility.yul\":1025:1124   */\n            tag_143:\n                /* \"#utility.yul\":1077:1083   */\n              0x00\n                /* \"#utility.yul\":1111:1116   */\n              dup2\n                /* \"#utility.yul\":1105:1117   */\n              mload\n                /* \"#utility.yul\":1095:1117   */\n              swap1\n              pop\n                /* \"#utility.yul\":1025:1124   */\n              swap2\n              swap1\n              pop\n              jump\t// out\n                /* \"#utility.yul\":1130:1299   */\n            tag_144:\n                /* \"#utility.yul\":1214:1225   */\n              0x00\n                /* \"#utility.yul\":1248:1254   */\n              dup3\n                /* \"#utility.yul\":1243:1246   */\n              dup3\n                /* \"#utility.yul\":1236:1255   */\n              mstore\n                /* \"#utility.yul\":1288:1292   */\n              0x20\n                /* \"#utility.yul\":1283:1286   */\n              dup3\n                /* \"#utility.yul\":1279:1293   */\n              add\n                /* \"#utility.yul\":1264:1293   */\n              swap1\n              pop\n                /* \"#utility.yul\":1130:1299   */\n              swap3\n              swap2\n              pop\n              pop\n              jump\t// out\n                /* \"#utility.yul\":1305:1444   */\n            tag_145:\n                /* \"#utility.yul\":1394:1400   */\n              dup3\n                /* \"#utility.yul\":1389:1392   */\n              dup2\n                /* \"#utility.yul\":1384:1387   */\n              dup4\n                /* \"#utility.yul\":1378:1401   */\n              mcopy\n                /* \"#utility.yul\":1435:1436   */\n              0x00\n                /* \"#utility.yul\":1426:1432   */\n              dup4\n                /* \"#utility.yul\":1421:1424   */\n              dup4\n                /* \"#utility.yul\":1417:1433   */\n              add\n                /* \"#utility.yul\":1410:1437   */\n              mstore\n                /* \"#utility.yul\":1305:1444   */\n              pop\n              pop\n              pop\n              jump\t// out\n                /* \"#utility.yul\":1450:1552   */\n            tag_146:\n                /* \"#utility.yul\":1491:1497   */\n              0x00\n                /* \"#utility.yul\":1542:1544   */\n              0x1f\n                /* \"#utility.yul\":1538:1545   */\n              not\n                /* \"#utility.yul\":1533:1535   */\n              0x1f\n                /* \"#utility.yul\":1526:1531   */\n              dup4\n                /* \"#utility.yul\":1522:1536   */\n              add\n                /* \"#utility.yul\":1518:1546   */\n              and\n                /* \"#utility.yul\":1508:1546   */\n              swap1\n              pop\n                /* \"#utility.yul\":1450:1552   */\n              swap2\n              swap1\n              pop\n              jump\t// out\n                /* \"#utility.yul\":1558:1935   */\n            tag_147:\n                /* \"#utility.yul\":1646:1649   */\n              0x00\n                /* \"#utility.yul\":1674:1713   */\n              tag_190\n                /* \"#utility.yul\":1707:1712   */\n              dup3\n                /* \"#utility.yul\":1674:1713   */\n              tag_143\n              jump\t// in\n            tag_190:\n                /* \"#utility.yul\":1729:1800   */\n              tag_191\n                /* \"#utility.yul\":1793:1799   */\n              dup2\n                /* \"#utility.yul\":1788:1791   */\n              dup6\n                /* \"#utility.yul\":1729:1800   */\n              tag_144\n              jump\t// in\n            tag_191:\n                /* \"#utility.yul\":1722:1800   */\n              swap4\n              pop\n                /* \"#utility.yul\":1809:1874   */\n              tag_192\n                /* \"#utility.yul\":1867:1873   */\n              dup2\n                /* \"#utility.yul\":1862:1865   */\n              dup6\n                /* \"#utility.yul\":1855:1859   */\n              0x20\n                /* \"#utility.yul\":1848:1853   */\n              dup7\n                /* \"#utility.yul\":1844:1860   */\n              add\n                /* \"#utility.yul\":1809:1874   */\n              tag_145\n              jump\t// in\n            tag_192:\n                /* \"#utility.yul\":1899:1928   */\n              tag_193\n                /* \"#utility.yul\":1921:1927   */\n              dup2\n                /* \"#utility.yul\":1899:1928   */\n              tag_146\n              jump\t// in\n            tag_193:\n                /* \"#utility.yul\":1894:1897   */\n              dup5\n                /* \"#utility.yul\":1890:1929   */\n              add\n                /* \"#utility.yul\":1883:1929   */\n              swap2\n              pop\n                /* \"#utility.yul\":1650:1935   */\n              pop\n                /* \"#utility.yul\":1558:1935   */\n              swap3\n              swap2\n              pop\n              pop\n              jump\t// out\n                /* \"#utility.yul\":1941:2059   */\n            tag_148:\n                /* \"#utility.yul\":2028:2052   */\n              tag_195\n                /* \"#utility.yul\":2046:2051   */\n              dup2\n                /* \"#utility.yul\":2028:2052   */\n              tag_140\n              jump\t// in\n            tag_195:\n                /* \"#utility.yul\":2023:2026   */\n              dup3\n                /* \"#utility.yul\":2016:2053   */\n              mstore\n                /* \"#utility.yul\":1941:2059   */\n              pop\n              pop\n              jump\t// out\n                /* \"#utility.yul\":2065:2911   */\n            tag_24:\n                /* \"#utility.yul\":2310:2314   */\n              0x00\n                /* \"#utility.yul\":2348:2351   */\n              0xa0\n                /* \"#utility.yul\":2337:2346   */\n              dup3\n                /* \"#utility.yul\":2333:2352   */\n              add\n                /* \"#utility.yul\":2325:2352   */\n              swap1\n              pop\n                /* \"#utility.yul\":2398:2407   */\n              dup2\n                /* \"#utility.yul\":2392:2396   */\n              dup2\n                /* \"#utility.yul\":2388:2408   */\n              sub\n                /* \"#utility.yul\":2384:2385   */\n              0x00\n                /* \"#utility.yul\":2373:2382   */\n              dup4\n                /* \"#utility.yul\":2369:2386   */\n              add\n                /* \"#utility.yul\":2362:2409   */\n              mstore\n                /* \"#utility.yul\":2426:2504   */\n              tag_197\n                /* \"#utility.yul\":2499:2503   */\n              dup2\n                /* \"#utility.yul\":2490:2496   */\n              dup9\n                /* \"#utility.yul\":2426:2504   */\n              tag_147\n              jump\t// in\n            tag_197:\n                /* \"#utility.yul\":2418:2504   */\n              swap1\n              pop\n                /* \"#utility.yul\":2551:2560   */\n              dup2\n                /* \"#utility.yul\":2545:2549   */\n              dup2\n                /* \"#utility.yul\":2541:2561   */\n              sub\n                /* \"#utility.yul\":2536:2538   */\n              0x20\n                /* \"#utility.yul\":2525:2534   */\n              dup4\n                /* \"#utility.yul\":2521:2539   */\n              add\n                /* \"#utility.yul\":2514:2562   */\n              mstore\n                /* \"#utility.yul\":2579:2657   */\n              tag_198\n                /* \"#utility.yul\":2652:2656   */\n              dup2\n                /* \"#utility.yul\":2643:2649   */\n              dup8\n                /* \"#utility.yul\":2579:2657   */\n              tag_147\n              jump\t// in\n            tag_198:\n                /* \"#utility.yul\":2571:2657   */\n              swap1\n              pop\n                /* \"#utility.yul\":2667:2739   */\n              tag_199\n                /* \"#utility.yul\":2735:2737   */\n              0x40\n                /* \"#utility.yul\":2724:2733   */\n              dup4\n                /* \"#utility.yul\":2720:2738   */\n              add\n                /* \"#utility.yul\":2711:2717   */\n              dup7\n                /* \"#utility.yul\":2667:2739   */\n              tag_148\n              jump\t// in\n            tag_199:\n                /* \"#utility.yul\":2749:2821   */\n              tag_200\n                /* \"#utility.yul\":2817:2819   */\n              0x60\n                /* \"#utility.yul\":2806:2815   */\n              dup4\n                /* \"#utility.yul\":2802:2820   */\n              add\n                /* \"#utility.yul\":2793:2799   */\n              dup6\n                /* \"#utility.yul\":2749:2821   */\n              tag_148\n              jump\t// in\n            tag_200:\n                /* \"#utility.yul\":2831:2904   */\n              tag_201\n                /* \"#utility.yul\":2899:2902   */\n              0x80\n                /* \"#utility.yul\":2888:2897   */\n              dup4\n                /* \"#utility.yul\":2884:2903   */\n              add\n                /* \"#utility.yul\":2875:2881   */\n              dup5\n                /* \"#utility.yul\":2831:2904   */\n              tag_148\n              jump\t// in\n            tag_201:\n                /* \"#utility.yul\":2065:2911   */\n              swap7\n              swap6\n              pop\n              pop\n              pop\n              pop\n              pop\n              pop\n              jump\t// out\n                /* \"#utility.yul\":2917:3230   */\n            tag_32:\n                /* \"#utility.yul\":3030:3034   */\n              0x00\n                /* \"#utility.yul\":3068:3070   */\n              0x20\n                /* \"#utility.yul\":3057:3066   */\n              dup3\n                /* \"#utility.yul\":3053:3071   */\n              add\n                /* \"#utility.yul\":3045:3071   */\n              swap1\n              pop\n                /* \"#utility.yul\":3117:3126   */\n              dup2\n                /* \"#utility.yul\":3111:3115   */\n              dup2\n                /* \"#utility.yul\":3107:3127   */\n              sub\n                /* \"#utility.yul\":3103:3104   */\n              0x00\n                /* \"#utility.yul\":3092:3101   */\n              dup4\n                /* \"#utility.yul\":3088:3105   */\n              add\n                /* \"#utility.yul\":3081:3128   */\n              mstore\n                /* \"#utility.yul\":3145:3223   */\n              tag_203\n                /* \"#utility.yul\":3218:3222   */\n              dup2\n                /* \"#utility.yul\":3209:3215   */\n              dup5\n                /* \"#utility.yul\":3145:3223   */\n              tag_147\n              jump\t// in\n            tag_203:\n                /* \"#utility.yul\":3137:3223   */\n              swap1\n              pop\n                /* \"#utility.yul\":2917:3230   */\n              swap3\n              swap2\n              pop\n              pop\n              jump\t// out\n                /* \"#utility.yul\":3236:3362   */\n            tag_149:\n                /* \"#utility.yul\":3273:3280   */\n              0x00\n                /* \"#utility.yul\":3313:3355   */\n              0xffffffffffffffffffffffffffffffffffffffff\n                /* \"#utility.yul\":3306:3311   */\n              dup3\n                /* \"#utility.yul\":3302:3356   */\n              and\n                /* \"#utility.yul\":3291:3356   */\n              swap1\n              pop\n                /* \"#utility.yul\":3236:3362   */\n              swap2\n              swap1\n              pop\n              jump\t// out\n                /* \"#utility.yul\":3368:3464   */\n            tag_150:\n                /* \"#utility.yul\":3405:3412   */\n              0x00\n                /* \"#utility.yul\":3434:3458   */\n              tag_206\n                /* \"#utility.yul\":3452:3457   */\n              dup3\n                /* \"#utility.yul\":3434:3458   */\n              tag_149\n              jump\t// in\n            tag_206:\n                /* \"#utility.yul\":3423:3458   */\n              swap1\n              pop\n                /* \"#utility.yul\":3368:3464   */\n              swap2\n              swap1\n              pop\n              jump\t// out\n                /* \"#utility.yul\":3470:3588   */\n            tag_151:\n                /* \"#utility.yul\":3557:3581   */\n              tag_208\n                /* \"#utility.yul\":3575:3580   */\n              dup2\n                /* \"#utility.yul\":3557:3581   */\n              tag_150\n              jump\t// in\n            tag_208:\n                /* \"#utility.yul\":3552:3555   */\n              dup3\n                /* \"#utility.yul\":3545:3582   */\n              mstore\n                /* \"#utility.yul\":3470:3588   */\n              pop\n              pop\n              jump\t// out\n                /* \"#utility.yul\":3594:3816   */\n            tag_36:\n                /* \"#utility.yul\":3687:3691   */\n              0x00\n                /* \"#utility.yul\":3725:3727   */\n              0x20\n                /* \"#utility.yul\":3714:3723   */\n              dup3\n                /* \"#utility.yul\":3710:3728   */\n              add\n                /* \"#utility.yul\":3702:3728   */\n              swap1\n              pop\n                /* \"#utility.yul\":3738:3809   */\n              tag_210\n                /* \"#utility.yul\":3806:3807   */\n              0x00\n                /* \"#utility.yul\":3795:3804   */\n              dup4\n                /* \"#utility.yul\":3791:3808   */\n              add\n                /* \"#utility.yul\":3782:3788   */\n              dup5\n                /* \"#utility.yul\":3738:3809   */\n              tag_151\n              jump\t// in\n            tag_210:\n                /* \"#utility.yul\":3594:3816   */\n              swap3\n              swap2\n              pop\n              pop\n              jump\t// out\n                /* \"#utility.yul\":3822:3944   */\n            tag_152:\n                /* \"#utility.yul\":3895:3919   */\n              tag_212\n                /* \"#utility.yul\":3913:3918   */\n              dup2\n                /* \"#utility.yul\":3895:3919   */\n              tag_150\n              jump\t// in\n            tag_212:\n                /* \"#utility.yul\":3888:3893   */\n              dup2\n                /* \"#utility.yul\":3885:3920   */\n              eq\n                /* \"#utility.yul\":3875:3938   */\n              tag_213\n              jumpi\n                /* \"#utility.yul\":3934:3935   */\n              0x00\n                /* \"#utility.yul\":3931:3932   */\n              dup1\n                /* \"#utility.yul\":3924:3936   */\n              revert\n                /* \"#utility.yul\":3875:3938   */\n            tag_213:\n                /* \"#utility.yul\":3822:3944   */\n              pop\n              jump\t// out\n                /* \"#utility.yul\":3950:4089   */\n            tag_153:\n                /* \"#utility.yul\":3996:4001   */\n              0x00\n                /* \"#utility.yul\":4034:4040   */\n              dup2\n                /* \"#utility.yul\":4021:4041   */\n              calldataload\n                /* \"#utility.yul\":4012:4041   */\n              swap1\n              pop\n                /* \"#utility.yul\":4050:4083   */\n              tag_215\n                /* \"#utility.yul\":4077:4082   */\n              dup2\n                /* \"#utility.yul\":4050:4083   */\n              tag_152\n              jump\t// in\n            tag_215:\n                /* \"#utility.yul\":3950:4089   */\n              swap3\n              swap2\n              pop\n              pop\n              jump\t// out\n                /* \"#utility.yul\":4095:4424   */\n            tag_46:\n                /* \"#utility.yul\":4154:4160   */\n              0x00\n                /* \"#utility.yul\":4203:4205   */\n              0x20\n                /* \"#utility.yul\":4191:4200   */\n              dup3\n                /* \"#utility.yul\":4182:4189   */\n              dup5\n                /* \"#utility.yul\":4178:4201   */\n              sub\n                /* \"#utility.yul\":4174:4206   */\n              slt\n                /* \"#utility.yul\":4171:4290   */\n              iszero\n              tag_217\n              jumpi\n                /* \"#utility.yul\":4209:4288   */\n              tag_218\n              tag_138\n              jump\t// in\n            tag_218:\n                /* \"#utility.yul\":4171:4290   */\n            tag_217:\n                /* \"#utility.yul\":4329:4330   */\n              0x00\n                /* \"#utility.yul\":4354:4407   */\n              tag_219\n                /* \"#utility.yul\":4399:4406   */\n              dup5\n                /* \"#utility.yul\":4390:4396   */\n              dup3\n                /* \"#utility.yul\":4379:4388   */\n              dup6\n                /* \"#utility.yul\":4375:4397   */\n              add\n                /* \"#utility.yul\":4354:4407   */\n              tag_153\n              jump\t// in\n            tag_219:\n                /* \"#utility.yul\":4344:4407   */\n              swap2\n              pop\n                /* \"#utility.yul\":4300:4417   */\n              pop\n                /* \"#utility.yul\":4095:4424   */\n              swap3\n              swap2\n              pop\n              pop\n              jump\t// out\n                /* \"#utility.yul\":4430:4520   */\n            tag_154:\n                /* \"#utility.yul\":4464:4471   */\n              0x00\n                /* \"#utility.yul\":4507:4512   */\n              dup2\n                /* \"#utility.yul\":4500:4513   */\n              iszero\n                /* \"#utility.yul\":4493:4514   */\n              iszero\n                /* \"#utility.yul\":4482:4514   */\n              swap1\n              pop\n                /* \"#utility.yul\":4430:4520   */\n              swap2\n              swap1\n              pop\n              jump\t// out\n                /* \"#utility.yul\":4526:4635   */\n            tag_155:\n                /* \"#utility.yul\":4607:4628   */\n              tag_222\n                /* \"#utility.yul\":4622:4627   */\n              dup2\n                /* \"#utility.yul\":4607:4628   */\n              tag_154\n              jump\t// in\n            tag_222:\n                /* \"#utility.yul\":4602:4605   */\n              dup3\n                /* \"#utility.yul\":4595:4629   */\n              mstore\n                /* \"#utility.yul\":4526:4635   */\n              pop\n              pop\n              jump\t// out\n                /* \"#utility.yul\":4641:4851   */\n            tag_49:\n                /* \"#utility.yul\":4728:4732   */\n              0x00\n                /* \"#utility.yul\":4766:4768   */\n              0x20\n                /* \"#utility.yul\":4755:4764   */\n              dup3\n                /* \"#utility.yul\":4751:4769   */\n              add\n                /* \"#utility.yul\":4743:4769   */\n              swap1\n              pop\n                /* \"#utility.yul\":4779:4844   */\n              tag_224\n                /* \"#utility.yul\":4841:4842   */\n              0x00\n                /* \"#utility.yul\":4830:4839   */\n              dup4\n                /* \"#utility.yul\":4826:4843   */\n              add\n                /* \"#utility.yul\":4817:4823   */\n              dup5\n                /* \"#utility.yul\":4779:4844   */\n              tag_155\n              jump\t// in\n            tag_224:\n                /* \"#utility.yul\":4641:4851   */\n              swap3\n              swap2\n              pop\n              pop\n              jump\t// out\n                /* \"#utility.yul\":4857:5079   */\n            tag_54:\n                /* \"#utility.yul\":4950:4954   */\n              0x00\n                /* \"#utility.yul\":4988:4990   */\n              0x20\n                /* \"#utility.yul\":4977:4986   */\n              dup3\n                /* \"#utility.yul\":4973:4991   */\n              add\n                /* \"#utility.yul\":4965:4991   */\n              swap1\n              pop\n                /* \"#utility.yul\":5001:5072   */\n              tag_226\n                /* \"#utility.yul\":5069:5070   */\n              0x00\n                /* \"#utility.yul\":5058:5067   */\n              dup4\n                /* \"#utility.yul\":5054:5071   */\n              add\n                /* \"#utility.yul\":5045:5051   */\n              dup5\n                /* \"#utility.yul\":5001:5072   */\n              tag_148\n              jump\t// in\n            tag_226:\n                /* \"#utility.yul\":4857:5079   */\n              swap3\n              swap2\n              pop\n              pop\n              jump\t// out\n                /* \"#utility.yul\":5085:5199   */\n            tag_156:\n                /* \"#utility.yul\":5152:5158   */\n              0x00\n                /* \"#utility.yul\":5186:5191   */\n              dup2\n                /* \"#utility.yul\":5180:5192   */\n              mload\n                /* \"#utility.yul\":5170:5192   */\n              swap1\n              pop\n                /* \"#utility.yul\":5085:5199   */\n              swap2\n              swap1\n              pop\n              jump\t// out\n                /* \"#utility.yul\":5205:5389   */\n            tag_157:\n                /* \"#utility.yul\":5304:5315   */\n              0x00\n                /* \"#utility.yul\":5338:5344   */\n              dup3\n                /* \"#utility.yul\":5333:5336   */\n              dup3\n                /* \"#utility.yul\":5326:5345   */\n              mstore\n                /* \"#utility.yul\":5378:5382   */\n              0x20\n                /* \"#utility.yul\":5373:5376   */\n              dup3\n                /* \"#utility.yul\":5369:5383   */\n              add\n                /* \"#utility.yul\":5354:5383   */\n              swap1\n              pop\n                /* \"#utility.yul\":5205:5389   */\n              swap3\n              swap2\n              pop\n              pop\n              jump\t// out\n                /* \"#utility.yul\":5395:5527   */\n            tag_158:\n                /* \"#utility.yul\":5462:5466   */\n              0x00\n                /* \"#utility.yul\":5485:5488   */\n              dup2\n                /* \"#utility.yul\":5477:5488   */\n              swap1\n              pop\n                /* \"#utility.yul\":5515:5519   */\n              0x20\n                /* \"#utility.yul\":5510:5513   */\n              dup3\n                /* \"#utility.yul\":5506:5520   */\n              add\n                /* \"#utility.yul\":5498:5520   */\n              swap1\n              pop\n                /* \"#utility.yul\":5395:5527   */\n              swap2\n              swap1\n              pop\n              jump\t// out\n                /* \"#utility.yul\":5533:5641   */\n            tag_159:\n                /* \"#utility.yul\":5610:5634   */\n              tag_231\n                /* \"#utility.yul\":5628:5633   */\n              dup2\n                /* \"#utility.yul\":5610:5634   */\n              tag_150\n              jump\t// in\n            tag_231:\n                /* \"#utility.yul\":5605:5608   */\n              dup3\n                /* \"#utility.yul\":5598:5635   */\n              mstore\n                /* \"#utility.yul\":5533:5641   */\n              pop\n              pop\n              jump\t// out\n                /* \"#utility.yul\":5647:5826   */\n            tag_160:\n                /* \"#utility.yul\":5716:5726   */\n              0x00\n                /* \"#utility.yul\":5737:5783   */\n              tag_233\n                /* \"#utility.yul\":5779:5782   */\n              dup4\n                /* \"#utility.yul\":5771:5777   */\n              dup4\n                /* \"#utility.yul\":5737:5783   */\n              tag_159\n              jump\t// in\n            tag_233:\n                /* \"#utility.yul\":5815:5819   */\n              0x20\n                /* \"#utility.yul\":5810:5813   */\n              dup4\n                /* \"#utility.yul\":5806:5820   */\n              add\n                /* \"#utility.yul\":5792:5820   */\n              swap1\n              pop\n                /* \"#utility.yul\":5647:5826   */\n              swap3\n              swap2\n              pop\n              pop\n              jump\t// out\n                /* \"#utility.yul\":5832:5945   */\n            tag_161:\n                /* \"#utility.yul\":5902:5906   */\n              0x00\n                /* \"#utility.yul\":5934:5938   */\n              0x20\n                /* \"#utility.yul\":5929:5932   */\n              dup3\n                /* \"#utility.yul\":5925:5939   */\n              add\n                /* \"#utility.yul\":5917:5939   */\n              swap1\n              pop\n                /* \"#utility.yul\":5832:5945   */\n              swap2\n              swap1\n              pop\n              jump\t// out\n                /* \"#utility.yul\":5981:6713   */\n            tag_162:\n                /* \"#utility.yul\":6100:6103   */\n              0x00\n                /* \"#utility.yul\":6129:6183   */\n              tag_236\n                /* \"#utility.yul\":6177:6182   */\n              dup3\n                /* \"#utility.yul\":6129:6183   */\n              tag_156\n              jump\t// in\n            tag_236:\n                /* \"#utility.yul\":6199:6285   */\n              tag_237\n                /* \"#utility.yul\":6278:6284   */\n              dup2\n                /* \"#utility.yul\":6273:6276   */\n              dup6\n                /* \"#utility.yul\":6199:6285   */\n              tag_157\n              jump\t// in\n            tag_237:\n                /* \"#utility.yul\":6192:6285   */\n              swap4\n              pop\n                /* \"#utility.yul\":6309:6365   */\n              tag_238\n                /* \"#utility.yul\":6359:6364   */\n              dup4\n                /* \"#utility.yul\":6309:6365   */\n              tag_158\n              jump\t// in\n            tag_238:\n                /* \"#utility.yul\":6388:6395   */\n              dup1\n                /* \"#utility.yul\":6419:6420   */\n              0x00\n                /* \"#utility.yul\":6404:6688   */\n            tag_239:\n                /* \"#utility.yul\":6429:6435   */\n              dup4\n                /* \"#utility.yul\":6426:6427   */\n              dup2\n                /* \"#utility.yul\":6423:6436   */\n              lt\n                /* \"#utility.yul\":6404:6688   */\n              iszero\n              tag_241\n              jumpi\n                /* \"#utility.yul\":6505:6511   */\n              dup2\n                /* \"#utility.yul\":6499:6512   */\n              mload\n                /* \"#utility.yul\":6532:6595   */\n              tag_242\n                /* \"#utility.yul\":6591:6594   */\n              dup9\n                /* \"#utility.yul\":6576:6589   */\n              dup3\n                /* \"#utility.yul\":6532:6595   */\n              tag_160\n              jump\t// in\n            tag_242:\n                /* \"#utility.yul\":6525:6595   */\n              swap8\n              pop\n                /* \"#utility.yul\":6618:6678   */\n              tag_243\n                /* \"#utility.yul\":6671:6677   */\n              dup4\n                /* \"#utility.yul\":6618:6678   */\n              tag_161\n              jump\t// in\n            tag_243:\n                /* \"#utility.yul\":6608:6678   */\n              swap3\n              pop\n                /* \"#utility.yul\":6464:6688   */\n              pop\n                /* \"#utility.yul\":6451:6452   */\n              0x01\n                /* \"#utility.yul\":6448:6449   */\n              dup2\n                /* \"#utility.yul\":6444:6453   */\n              add\n                /* \"#utility.yul\":6439:6453   */\n              swap1\n              pop\n                /* \"#utility.yul\":6404:6688   */\n              jump(tag_239)\n            tag_241:\n                /* \"#utility.yul\":6408:6422   */\n              pop\n                /* \"#utility.yul\":6704:6707   */\n              dup6\n                /* \"#utility.yul\":6697:6707   */\n              swap4\n              pop\n                /* \"#utility.yul\":6105:6713   */\n              pop\n              pop\n              pop\n                /* \"#utility.yul\":5981:6713   */\n              swap3\n              swap2\n              pop\n              pop\n              jump\t// out\n                /* \"#utility.yul\":6719:7092   */\n            tag_58:\n                /* \"#utility.yul\":6862:6866   */\n              0x00\n                /* \"#utility.yul\":6900:6902   */\n              0x20\n                /* \"#utility.yul\":6889:6898   */\n              dup3\n                /* \"#utility.yul\":6885:6903   */\n              add\n                /* \"#utility.yul\":6877:6903   */\n              swap1\n              pop\n                /* \"#utility.yul\":6949:6958   */\n              dup2\n                /* \"#utility.yul\":6943:6947   */\n              dup2\n                /* \"#utility.yul\":6939:6959   */\n              sub\n                /* \"#utility.yul\":6935:6936   */\n              0x00\n                /* \"#utility.yul\":6924:6933   */\n              dup4\n                /* \"#utility.yul\":6920:6937   */\n              add\n                /* \"#utility.yul\":6913:6960   */\n              mstore\n                /* \"#utility.yul\":6977:7085   */\n              tag_245\n                /* \"#utility.yul\":7080:7084   */\n              dup2\n                /* \"#utility.yul\":7071:7077   */\n              dup5\n                /* \"#utility.yul\":6977:7085   */\n              tag_162\n              jump\t// in\n            tag_245:\n                /* \"#utility.yul\":6969:7085   */\n              swap1\n              pop\n                /* \"#utility.yul\":6719:7092   */\n              swap3\n              swap2\n              pop\n              pop\n              jump\t// out\n                /* \"#utility.yul\":7098:7276   */\n            tag_163:\n                /* \"#utility.yul\":7238:7268   */\n              0x456c656374696f6e20686173206e6f7420737461727465642079657400000000\n                /* \"#utility.yul\":7234:7235   */\n              0x00\n                /* \"#utility.yul\":7226:7232   */\n              dup3\n                /* \"#utility.yul\":7222:7236   */\n              add\n                /* \"#utility.yul\":7215:7269   */\n              mstore\n                /* \"#utility.yul\":7098:7276   */\n              pop\n              jump\t// out\n                /* \"#utility.yul\":7282:7648   */\n            tag_164:\n                /* \"#utility.yul\":7424:7427   */\n              0x00\n                /* \"#utility.yul\":7445:7512   */\n              tag_248\n                /* \"#utility.yul\":7509:7511   */\n              0x1c\n                /* \"#utility.yul\":7504:7507   */\n              dup4\n                /* \"#utility.yul\":7445:7512   */\n              tag_144\n              jump\t// in\n            tag_248:\n                /* \"#utility.yul\":7438:7512   */\n              swap2\n              pop\n                /* \"#utility.yul\":7521:7614   */\n              tag_249\n                /* \"#utility.yul\":7610:7613   */\n              dup3\n                /* \"#utility.yul\":7521:7614   */\n              tag_163\n              jump\t// in\n            tag_249:\n                /* \"#utility.yul\":7639:7641   */\n              0x20\n                /* \"#utility.yul\":7634:7637   */\n              dup3\n                /* \"#utility.yul\":7630:7642   */\n              add\n                /* \"#utility.yul\":7623:7642   */\n              swap1\n              pop\n                /* \"#utility.yul\":7282:7648   */\n              swap2\n              swap1\n              pop\n              jump\t// out\n                /* \"#utility.yul\":7654:8073   */\n            tag_69:\n                /* \"#utility.yul\":7820:7824   */\n              0x00\n                /* \"#utility.yul\":7858:7860   */\n              0x20\n                /* \"#utility.yul\":7847:7856   */\n              dup3\n                /* \"#utility.yul\":7843:7861   */\n              add\n                /* \"#utility.yul\":7835:7861   */\n              swap1\n              pop\n                /* \"#utility.yul\":7907:7916   */\n              dup2\n                /* \"#utility.yul\":7901:7905   */\n              dup2\n                /* \"#utility.yul\":7897:7917   */\n              sub\n                /* \"#utility.yul\":7893:7894   */\n              0x00\n                /* \"#utility.yul\":7882:7891   */\n              dup4\n                /* \"#utility.yul\":7878:7895   */\n              add\n                /* \"#utility.yul\":7871:7918   */\n              mstore\n                /* \"#utility.yul\":7935:8066   */\n              tag_251\n                /* \"#utility.yul\":8061:8065   */\n              dup2\n                /* \"#utility.yul\":7935:8066   */\n              tag_164\n              jump\t// in\n            tag_251:\n                /* \"#utility.yul\":7927:8066   */\n              swap1\n              pop\n                /* \"#utility.yul\":7654:8073   */\n              swap2\n              swap1\n              pop\n              jump\t// out\n                /* \"#utility.yul\":8079:8251   */\n            tag_165:\n                /* \"#utility.yul\":8219:8243   */\n              0x596f75206861766520616c726561647920766f74656400000000000000000000\n                /* \"#utility.yul\":8215:8216   */\n              0x00\n                /* \"#utility.yul\":8207:8213   */\n              dup3\n                /* \"#utility.yul\":8203:8217   */\n              add\n                /* \"#utility.yul\":8196:8244   */\n              mstore\n                /* \"#utility.yul\":8079:8251   */\n              pop\n              jump\t// out\n                /* \"#utility.yul\":8257:8623   */\n            tag_166:\n                /* \"#utility.yul\":8399:8402   */\n              0x00\n                /* \"#utility.yul\":8420:8487   */\n              tag_254\n                /* \"#utility.yul\":8484:8486   */\n              0x16\n                /* \"#utility.yul\":8479:8482   */\n              dup4\n                /* \"#utility.yul\":8420:8487   */\n              tag_144\n              jump\t// in\n            tag_254:\n                /* \"#utility.yul\":8413:8487   */\n              swap2\n              pop\n                /* \"#utility.yul\":8496:8589   */\n              tag_255\n                /* \"#utility.yul\":8585:8588   */\n              dup3\n                /* \"#utility.yul\":8496:8589   */\n              tag_165\n              jump\t// in\n            tag_255:\n                /* \"#utility.yul\":8614:8616   */\n              0x20\n                /* \"#utility.yul\":8609:8612   */\n              dup3\n                /* \"#utility.yul\":8605:8617   */\n              add\n                /* \"#utility.yul\":8598:8617   */\n              swap1\n              pop\n                /* \"#utility.yul\":8257:8623   */\n              swap2\n              swap1\n              pop\n              jump\t// out\n                /* \"#utility.yul\":8629:9048   */\n            tag_73:\n                /* \"#utility.yul\":8795:8799   */\n              0x00\n                /* \"#utility.yul\":8833:8835   */\n              0x20\n                /* \"#utility.yul\":8822:8831   */\n              dup3\n                /* \"#utility.yul\":8818:8836   */\n              add\n                /* \"#utility.yul\":8810:8836   */\n              swap1\n              pop\n                /* \"#utility.yul\":8882:8891   */\n              dup2\n                /* \"#utility.yul\":8876:8880   */\n              dup2\n                /* \"#utility.yul\":8872:8892   */\n              sub\n                /* \"#utility.yul\":8868:8869   */\n              0x00\n                /* \"#utility.yul\":8857:8866   */\n              dup4\n                /* \"#utility.yul\":8853:8870   */\n              add\n                /* \"#utility.yul\":8846:8893   */\n              mstore\n                /* \"#utility.yul\":8910:9041   */\n              tag_257\n                /* \"#utility.yul\":9036:9040   */\n              dup2\n                /* \"#utility.yul\":8910:9041   */\n              tag_166\n              jump\t// in\n            tag_257:\n                /* \"#utility.yul\":8902:9041   */\n              swap1\n              pop\n                /* \"#utility.yul\":8629:9048   */\n              swap2\n              swap1\n              pop\n              jump\t// out\n                /* \"#utility.yul\":9054:9234   */\n            tag_76:\n                /* \"#utility.yul\":9102:9179   */\n              0x4e487b7100000000000000000000000000000000000000000000000000000000\n                /* \"#utility.yul\":9099:9100   */\n              0x00\n                /* \"#utility.yul\":9092:9180   */\n              mstore\n                /* \"#utility.yul\":9199:9203   */\n              0x32\n                /* \"#utility.yul\":9196:9197   */\n              0x04\n                /* \"#utility.yul\":9189:9204   */\n              mstore\n                /* \"#utility.yul\":9223:9227   */\n              0x24\n                /* \"#utility.yul\":9220:9221   */\n              0x00\n                /* \"#utility.yul\":9213:9228   */\n              revert\n                /* \"#utility.yul\":9240:9420   */\n            tag_167:\n                /* \"#utility.yul\":9288:9365   */\n              0x4e487b7100000000000000000000000000000000000000000000000000000000\n                /* \"#utility.yul\":9285:9286   */\n              0x00\n                /* \"#utility.yul\":9278:9366   */\n              mstore\n                /* \"#utility.yul\":9385:9389   */\n              0x11\n                /* \"#utility.yul\":9382:9383   */\n              0x04\n                /* \"#utility.yul\":9375:9390   */\n              mstore\n                /* \"#utility.yul\":9409:9413   */\n              0x24\n                /* \"#utility.yul\":9406:9407   */\n              0x00\n                /* \"#utility.yul\":9399:9414   */\n              revert\n                /* \"#utility.yul\":9426:9617   */\n            tag_79:\n                /* \"#utility.yul\":9466:9469   */\n              0x00\n                /* \"#utility.yul\":9485:9505   */\n              tag_261\n                /* \"#utility.yul\":9503:9504   */\n              dup3\n                /* \"#utility.yul\":9485:9505   */\n              tag_140\n              jump\t// in\n            tag_261:\n                /* \"#utility.yul\":9480:9505   */\n              swap2\n              pop\n                /* \"#utility.yul\":9519:9539   */\n              tag_262\n                /* \"#utility.yul\":9537:9538   */\n              dup4\n                /* \"#utility.yul\":9519:9539   */\n              tag_140\n              jump\t// in\n            tag_262:\n                /* \"#utility.yul\":9514:9539   */\n              swap3\n              pop\n                /* \"#utility.yul\":9562:9563   */\n              dup3\n                /* \"#utility.yul\":9559:9560   */\n              dup3\n                /* \"#utility.yul\":9555:9564   */\n              add\n                /* \"#utility.yul\":9548:9564   */\n              swap1\n              pop\n                /* \"#utility.yul\":9583:9586   */\n              dup1\n                /* \"#utility.yul\":9580:9581   */\n              dup3\n                /* \"#utility.yul\":9577:9587   */\n              gt\n                /* \"#utility.yul\":9574:9610   */\n              iszero\n              tag_263\n              jumpi\n                /* \"#utility.yul\":9590:9608   */\n              tag_264\n              tag_167\n              jump\t// in\n            tag_264:\n                /* \"#utility.yul\":9574:9610   */\n            tag_263:\n                /* \"#utility.yul\":9426:9617   */\n              swap3\n              swap2\n              pop\n              pop\n              jump\t// out\n                /* \"#utility.yul\":9623:9803   */\n            tag_168:\n                /* \"#utility.yul\":9671:9748   */\n              0x4e487b7100000000000000000000000000000000000000000000000000000000\n                /* \"#utility.yul\":9668:9669   */\n              0x00\n                /* \"#utility.yul\":9661:9749   */\n              mstore\n                /* \"#utility.yul\":9768:9772   */\n              0x22\n                /* \"#utility.yul\":9765:9766   */\n              0x04\n                /* \"#utility.yul\":9758:9773   */\n              mstore\n                /* \"#utility.yul\":9792:9796   */\n              0x24\n                /* \"#utility.yul\":9789:9790   */\n              0x00\n                /* \"#utility.yul\":9782:9797   */\n              revert\n                /* \"#utility.yul\":9809:10129   */\n            tag_84:\n                /* \"#utility.yul\":9853:9859   */\n              0x00\n                /* \"#utility.yul\":9890:9891   */\n              0x02\n                /* \"#utility.yul\":9884:9888   */\n              dup3\n                /* \"#utility.yul\":9880:9892   */\n              div\n                /* \"#utility.yul\":9870:9892   */\n              swap1\n              pop\n                /* \"#utility.yul\":9937:9938   */\n              0x01\n                /* \"#utility.yul\":9931:9935   */\n              dup3\n                /* \"#utility.yul\":9927:9939   */\n              and\n                /* \"#utility.yul\":9958:9976   */\n              dup1\n                /* \"#utility.yul\":9948:10029   */\n              tag_267\n              jumpi\n                /* \"#utility.yul\":10014:10018   */\n              0x7f\n                /* \"#utility.yul\":10006:10012   */\n              dup3\n                /* \"#utility.yul\":10002:10019   */\n              and\n                /* \"#utility.yul\":9992:10019   */\n              swap2\n              pop\n                /* \"#utility.yul\":9948:10029   */\n            tag_267:\n                /* \"#utility.yul\":10076:10078   */\n              0x20\n                /* \"#utility.yul\":10068:10074   */\n              dup3\n                /* \"#utility.yul\":10065:10079   */\n              lt\n                /* \"#utility.yul\":10045:10063   */\n              dup2\n                /* \"#utility.yul\":10042:10080   */\n              sub\n                /* \"#utility.yul\":10039:10123   */\n              tag_268\n              jumpi\n                /* \"#utility.yul\":10095:10113   */\n              tag_269\n              tag_168\n              jump\t// in\n            tag_269:\n                /* \"#utility.yul\":10039:10123   */\n            tag_268:\n                /* \"#utility.yul\":9860:10129   */\n              pop\n                /* \"#utility.yul\":9809:10129   */\n              swap2\n              swap1\n              pop\n              jump\t// out\n                /* \"#utility.yul\":10135:10357   */\n            tag_169:\n                /* \"#utility.yul\":10275:10309   */\n              0x4f6e6c79206d616e616765722063616e2063616c6c20746869732066756e6374\n                /* \"#utility.yul\":10271:10272   */\n              0x00\n                /* \"#utility.yul\":10263:10269   */\n              dup3\n                /* \"#utility.yul\":10259:10273   */\n              add\n                /* \"#utility.yul\":10252:10310   */\n              mstore\n                /* \"#utility.yul\":10344:10349   */\n              0x696f6e0000000000000000000000000000000000000000000000000000000000\n                /* \"#utility.yul\":10339:10341   */\n              0x20\n                /* \"#utility.yul\":10331:10337   */\n              dup3\n                /* \"#utility.yul\":10327:10342   */\n              add\n                /* \"#utility.yul\":10320:10350   */\n              mstore\n                /* \"#utility.yul\":10135:10357   */\n              pop\n              jump\t// out\n                /* \"#utility.yul\":10363:10729   */\n            tag_170:\n                /* \"#utility.yul\":10505:10508   */\n              0x00\n                /* \"#utility.yul\":10526:10593   */\n              tag_272\n                /* \"#utility.yul\":10590:10592   */\n              0x23\n                /* \"#utility.yul\":10585:10588   */\n              dup4\n                /* \"#utility.yul\":10526:10593   */\n              tag_144\n              jump\t// in\n            tag_272:\n                /* \"#utility.yul\":10519:10593   */\n              swap2\n              pop\n                /* \"#utility.yul\":10602:10695   */\n              tag_273\n                /* \"#utility.yul\":10691:10694   */\n              dup3\n                /* \"#utility.yul\":10602:10695   */\n              tag_169\n              jump\t// in\n            tag_273:\n                /* \"#utility.yul\":10720:10722   */\n              0x40\n                /* \"#utility.yul\":10715:10718   */\n              dup3\n                /* \"#utility.yul\":10711:10723   */\n              add\n                /* \"#utility.yul\":10704:10723   */\n              swap1\n              pop\n                /* \"#utility.yul\":10363:10729   */\n              swap2\n              swap1\n              pop\n              jump\t// out\n                /* \"#utility.yul\":10735:11154   */\n            tag_97:\n                /* \"#utility.yul\":10901:10905   */\n              0x00\n                /* \"#utility.yul\":10939:10941   */\n              0x20\n                /* \"#utility.yul\":10928:10937   */\n              dup3\n                /* \"#utility.yul\":10924:10942   */\n              add\n                /* \"#utility.yul\":10916:10942   */\n              swap1\n              pop\n                /* \"#utility.yul\":10988:10997   */\n              dup2\n                /* \"#utility.yul\":10982:10986   */\n              dup2\n                /* \"#utility.yul\":10978:10998   */\n              sub\n                /* \"#utility.yul\":10974:10975   */\n              0x00\n                /* \"#utility.yul\":10963:10972   */\n              dup4\n                /* \"#utility.yul\":10959:10976   */\n              add\n                /* \"#utility.yul\":10952:10999   */\n              mstore\n                /* \"#utility.yul\":11016:11147   */\n              tag_275\n                /* \"#utility.yul\":11142:11146   */\n              dup2\n                /* \"#utility.yul\":11016:11147   */\n              tag_170\n              jump\t// in\n            tag_275:\n                /* \"#utility.yul\":11008:11147   */\n              swap1\n              pop\n                /* \"#utility.yul\":10735:11154   */\n              swap2\n              swap1\n              pop\n              jump\t// out\n\n            auxdata: 0xa2646970667358221220dedbfb29ed310d5289f1ef21b124465cf1cddc003b3eb12555b768e09ce8533364736f6c63430008190033\n        }\n    }\n\n    auxdata: 0xa264697066735822122079b4a9bb4985fe5d3b793b99cc795a11afb346390e03a9143a0d5a303e434ad764736f6c63430008190033\n}\n","bytecode":{"linkReferences":{},"object":"6080604052348015600e575f80fd5b506121168061001c5f395ff3fe608060405234801561000f575f80fd5b506004361061003f575f3560e01c8063810c6ddf146100435780639b935abf1461005f578063cdf74c3e1461007d575b5f80fd5b61005d60048036038101906100589190610591565b6100ad565b005b6100676101b3565b604051610074919061071c565b60405180910390f35b6100976004803603810190610092919061076f565b61023d565b6040516100a491906107a9565b60405180910390f35b5f5b81518110156101ad575f8482815181106100cc576100cb6107c2565b5b60200260200101518483815181106100e7576100e66107c2565b5b6020026020010151848481518110610102576101016107c2565b5b60200260200101513360405161011790610277565b6101249493929190610952565b604051809103905ff08015801561013d573d5f803e3d5ffd5b5090505f81908060018154018082558091505060019003905f5260205f20015f9091909190916101000a81548173ffffffffffffffffffffffffffffffffffffffff021916908373ffffffffffffffffffffffffffffffffffffffff1602179055505080806001019150506100af565b50505050565b60605f80548060200260200160405190810160405280929190818152602001828054801561023357602002820191905f5260205f20905b815f9054906101000a900473ffffffffffffffffffffffffffffffffffffffff1673ffffffffffffffffffffffffffffffffffffffff16815260200190600101908083116101ea575b5050505050905090565b5f818154811061024b575f80fd5b905f5260205f20015f915054906101000a900473ffffffffffffffffffffffffffffffffffffffff1681565b611736806109ab83390190565b5f604051905090565b5f80fd5b5f80fd5b5f80fd5b5f601f19601f8301169050919050565b7f4e487b71000000000000000000000000000000000000000000000000000000005f52604160045260245ffd5b6102df82610299565b810181811067ffffffffffffffff821117156102fe576102fd6102a9565b5b80604052505050565b5f610310610284565b905061031c82826102d6565b919050565b5f67ffffffffffffffff82111561033b5761033a6102a9565b5b602082029050602081019050919050565b5f80fd5b5f67ffffffffffffffff82111561036a576103696102a9565b5b602082029050602081019050919050565b5f80fd5b5f67ffffffffffffffff821115610399576103986102a9565b5b6103a282610299565b9050602081019050919050565b828183375f83830152505050565b5f6103cf6103ca8461037f565b610307565b9050828152602081018484840111156103eb576103ea61037b565b5b6103f68482856103af565b509392505050565b5f82601f83011261041257610411610295565b5b81356104228482602086016103bd565b91505092915050565b5f61043d61043884610350565b610307565b905080838252602082019050602084028301858111156104605761045f61034c565b5b835b818110156104a757803567ffffffffffffffff81111561048557610484610295565b5b80860161049289826103fe565b85526020850194505050602081019050610462565b5050509392505050565b5f82601f8301126104c5576104c4610295565b5b81356104d584826020860161042b565b91505092915050565b5f6104f06104eb84610321565b610307565b905080838252602082019050602084028301858111156105135761051261034c565b5b835b8181101561055a57803567ffffffffffffffff81111561053857610537610295565b5b80860161054589826104b1565b85526020850194505050602081019050610515565b5050509392505050565b5f82601f83011261057857610577610295565b5b81356105888482602086016104de565b91505092915050565b5f805f606084860312156105a8576105a761028d565b5b5f84013567ffffffffffffffff8111156105c5576105c4610291565b5b6105d186828701610564565b935050602084013567ffffffffffffffff8111156105f2576105f1610291565b5b6105fe86828701610564565b925050604084013567ffffffffffffffff81111561061f5761061e610291565b5b61062b868287016104b1565b9150509250925092565b5f81519050919050565b5f82825260208201905092915050565b5f819050602082019050919050565b5f73ffffffffffffffffffffffffffffffffffffffff82169050919050565b5f6106878261065e565b9050919050565b6106978161067d565b82525050565b5f6106a8838361068e565b60208301905092915050565b5f602082019050919050565b5f6106ca82610635565b6106d4818561063f565b93506106df8361064f565b805f5b8381101561070f5781516106f6888261069d565b9750610701836106b4565b9250506001810190506106e2565b5085935050505092915050565b5f6020820190508181035f83015261073481846106c0565b905092915050565b5f819050919050565b61074e8161073c565b8114610758575f80fd5b50565b5f8135905061076981610745565b92915050565b5f602082840312156107845761078361028d565b5b5f6107918482850161075b565b91505092915050565b6107a38161067d565b82525050565b5f6020820190506107bc5f83018461079a565b92915050565b7f4e487b71000000000000000000000000000000000000000000000000000000005f52603260045260245ffd5b5f81519050919050565b5f82825260208201905092915050565b5f819050602082019050919050565b5f81519050919050565b5f82825260208201905092915050565b8281835e5f83830152505050565b5f61084a82610818565b6108548185610822565b9350610864818560208601610832565b61086d81610299565b840191505092915050565b5f6108838383610840565b905092915050565b5f602082019050919050565b5f6108a1826107ef565b6108ab81856107f9565b9350836020820285016108bd85610809565b805f5b858110156108f857848403895281516108d98582610878565b94506108e48361088b565b925060208a019950506001810190506108c0565b50829750879550505050505092915050565b5f82825260208201905092915050565b5f61092482610818565b61092e818561090a565b935061093e818560208601610832565b61094781610299565b840191505092915050565b5f6080820190508181035f83015261096a8187610897565b9050818103602083015261097e8186610897565b90508181036040830152610992818561091a565b90506109a1606083018461079a565b9594505050505056fe608060405234801561000f575f80fd5b50604051611736380380611736833981810160405281019061003191906103f8565b8060015f6101000a81548173ffffffffffffffffffffffffffffffffffffffff021916908373ffffffffffffffffffffffffffffffffffffffff160217905550816002908161008091906106bd565b505f5b8451811015610165575f6040518060a001604052808784815181106100ab576100aa61078c565b5b602002602001015181526020018684815181106100cb576100ca61078c565b5b602002602001015181526020015f81526020014281526020015f815250908060018154018082558091505060019003905f5260205f2090600502015f909190919091505f820151815f01908161012191906106bd565b50602082015181600101908161013791906106bd565b5060408201518160020155606082015181600301556080820151816004015550508080600101915050610083565b50505050506107b9565b5f604051905090565b5f80fd5b5f80fd5b5f80fd5b5f601f19601f8301169050919050565b7f4e487b71000000000000000000000000000000000000000000000000000000005f52604160045260245ffd5b6101ca82610184565b810181811067ffffffffffffffff821117156101e9576101e8610194565b5b80604052505050565b5f6101fb61016f565b905061020782826101c1565b919050565b5f67ffffffffffffffff82111561022657610225610194565b5b602082029050602081019050919050565b5f80fd5b5f80fd5b5f67ffffffffffffffff82111561025957610258610194565b5b61026282610184565b9050602081019050919050565b8281835e5f83830152505050565b5f61028f61028a8461023f565b6101f2565b9050828152602081018484840111156102ab576102aa61023b565b5b6102b684828561026f565b509392505050565b5f82601f8301126102d2576102d1610180565b5b81516102e284826020860161027d565b91505092915050565b5f6102fd6102f88461020c565b6101f2565b905080838252602082019050602084028301858111156103205761031f610237565b5b835b8181101561036757805167ffffffffffffffff81111561034557610344610180565b5b80860161035289826102be565b85526020850194505050602081019050610322565b5050509392505050565b5f82601f83011261038557610384610180565b5b81516103958482602086016102eb565b91505092915050565b5f73ffffffffffffffffffffffffffffffffffffffff82169050919050565b5f6103c78261039e565b9050919050565b6103d7816103bd565b81146103e1575f80fd5b50565b5f815190506103f2816103ce565b92915050565b5f805f80608085870312156104105761040f610178565b5b5f85015167ffffffffffffffff81111561042d5761042c61017c565b5b61043987828801610371565b945050602085015167ffffffffffffffff81111561045a5761045961017c565b5b61046687828801610371565b935050604085015167ffffffffffffffff8111156104875761048661017c565b5b610493878288016102be565b92505060606104a4878288016103e4565b91505092959194509250565b5f81519050919050565b7f4e487b71000000000000000000000000000000000000000000000000000000005f52602260045260245ffd5b5f60028204905060018216806104fe57607f821691505b602082108103610511576105106104ba565b5b50919050565b5f819050815f5260205f209050919050565b5f6020601f8301049050919050565b5f82821b905092915050565b5f600883026105737fffffffffffffffffffffffffffffffffffffffffffffffffffffffffffffffff82610538565b61057d8683610538565b95508019841693508086168417925050509392505050565b5f819050919050565b5f819050919050565b5f6105c16105bc6105b784610595565b61059e565b610595565b9050919050565b5f819050919050565b6105da836105a7565b6105ee6105e6826105c8565b848454610544565b825550505050565b5f90565b6106026105f6565b61060d8184846105d1565b505050565b5b81811015610630576106255f826105fa565b600181019050610613565b5050565b601f8211156106755761064681610517565b61064f84610529565b8101602085101561065e578190505b61067261066a85610529565b830182610612565b50505b505050565b5f82821c905092915050565b5f6106955f198460080261067a565b1980831691505092915050565b5f6106ad8383610686565b9150826002028217905092915050565b6106c6826104b0565b67ffffffffffffffff8111156106df576106de610194565b5b6106e982546104e7565b6106f4828285610634565b5f60209050601f831160018114610725575f8415610713578287015190505b61071d85826106a2565b865550610784565b601f19841661073386610517565b5f5b8281101561075a57848901518255600182019150602085019450602081019050610735565b868310156107775784890151610773601f891682610686565b8355505b6001600288020188555050505b505050505050565b7f4e487b71000000000000000000000000000000000000000000000000000000005f52603260045260245ffd5b610f70806107c65f395ff3fe608060405234801561000f575f80fd5b50600436106100b2575f3560e01c806372ce73ab1161006f57806372ce73ab1461018e578063a3ec138d146101be578063b2c2f2e8146101ee578063bc86f3851461021e578063d5346da11461023c578063e13804a71461025a576100b2565b80630121b93f146100b65780633477ee2e146100d25780633d2f5bda14610106578063456645a714610122578063481c6a7514610152578063716c424e14610170575b5f80fd5b6100d060048036038101906100cb91906109f9565b61028a565b005b6100ec60048036038101906100e791906109f9565b610453565b6040516100fd959493929190610aa3565b60405180910390f35b610120600480360381019061011b91906109f9565b61059f565b005b61013c600480360381019061013791906109f9565b61068e565b6040516101499190610b02565b60405180910390f35b61015a610740565b6040516101679190610b61565b60405180910390f35b610178610765565b6040516101859190610b02565b60405180910390f35b6101a860048036038101906101a391906109f9565b6107f1565b6040516101b59190610b61565b60405180910390f35b6101d860048036038101906101d39190610ba4565b61082c565b6040516101e59190610be9565b60405180910390f35b610208600480360381019061020391906109f9565b610849565b6040516102159190610c02565b60405180910390f35b610226610874565b6040516102339190610cd2565b60405180910390f35b6102446108ff565b6040516102519190610be9565b60405180910390f35b610274600480360381019061026f91906109f9565b610911565b6040516102819190610b02565b60405180910390f35b60045f9054906101000a900460ff166102d8576040517f08c379a00000000000000000000000000000000000000000000000000000000081526004016102cf90610d3c565b60405180910390fd5b60035f3373ffffffffffffffffffffffffffffffffffffffff1673ffffffffffffffffffffffffffffffffffffffff1681526020019081526020015f205f9054906101000a900460ff1615610362576040517f08c379a000000000000000000000000000000000000000000000000000000000815260040161035990610da4565b60405180910390fd5b60015f828154811061037757610376610dc2565b5b905f5260205f2090600502016002015f8282546103949190610e1c565b92505081905550600160035f3373ffffffffffffffffffffffffffffffffffffffff1673ffffffffffffffffffffffffffffffffffffffff1681526020019081526020015f205f6101000a81548160ff021916908315150217905550600533908060018154018082558091505060019003905f5260205f20015f9091909190916101000a81548173ffffffffffffffffffffffffffffffffffffffff021916908373ffffffffffffffffffffffffffffffffffffffff16021790555050565b5f8181548110610461575f80fd5b905f5260205f2090600502015f91509050805f01805461048090610e7c565b80601f01602080910402602001604051908101604052809291908181526020018280546104ac90610e7c565b80156104f75780601f106104ce576101008083540402835291602001916104f7565b820191905f5260205f20905b8154815290600101906020018083116104da57829003601f168201915b50505050509080600101805461050c90610e7c565b80601f016020809104026020016040519081016040528092919081815260200182805461053890610e7c565b80156105835780601f1061055a57610100808354040283529160200191610583565b820191905f5260205f20905b81548152906001019060200180831161056657829003601f168201915b5050505050908060020154908060030154908060040154905085565b60015f9054906101000a900473ffffffffffffffffffffffffffffffffffffffff1673ffffffffffffffffffffffffffffffffffffffff163373ffffffffffffffffffffffffffffffffffffffff161461062e576040517f08c379a000000000000000000000000000000000000000000000000000000000815260040161062590610f1c565b60405180910390fd5b600160045f6101000a81548160ff0219169083151502179055505f5b5f8054905081101561068a57815f828154811061066a57610669610dc2565b5b905f5260205f20906005020160040181905550808060010191505061064a565b5050565b60605f82815481106106a3576106a2610dc2565b5b905f5260205f20906005020160010180546106bd90610e7c565b80601f01602080910402602001604051908101604052809291908181526020018280546106e990610e7c565b80156107345780601f1061070b57610100808354040283529160200191610734565b820191905f5260205f20905b81548152906001019060200180831161071757829003601f168201915b50505050509050919050565b60015f9054906101000a900473ffffffffffffffffffffffffffffffffffffffff1681565b6002805461077290610e7c565b80601f016020809104026020016040519081016040528092919081815260200182805461079e90610e7c565b80156107e95780601f106107c0576101008083540402835291602001916107e9565b820191905f5260205f20905b8154815290600101906020018083116107cc57829003601f168201915b505050505081565b60058181548110610800575f80fd5b905f5260205f20015f915054906101000a900473ffffffffffffffffffffffffffffffffffffffff1681565b6003602052805f5260405f205f915054906101000a900460ff1681565b5f80828154811061085d5761085c610dc2565b5b905f5260205f209060050201600201549050919050565b606060058054806020026020016040519081016040528092919081815260200182805480156108f557602002820191905f5260205f20905b815f9054906101000a900473ffffffffffffffffffffffffffffffffffffffff1673ffffffffffffffffffffffffffffffffffffffff16815260200190600101908083116108ac575b5050505050905090565b60045f9054906101000a900460ff1681565b60605f828154811061092657610925610dc2565b5b905f5260205f2090600502015f01805461093f90610e7c565b80601f016020809104026020016040519081016040528092919081815260200182805461096b90610e7c565b80156109b65780601f1061098d576101008083540402835291602001916109b6565b820191905f5260205f20905b81548152906001019060200180831161099957829003601f168201915b50505050509050919050565b5f80fd5b5f819050919050565b6109d8816109c6565b81146109e2575f80fd5b50565b5f813590506109f3816109cf565b92915050565b5f60208284031215610a0e57610a0d6109c2565b5b5f610a1b848285016109e5565b91505092915050565b5f81519050919050565b5f82825260208201905092915050565b8281835e5f83830152505050565b5f601f19601f8301169050919050565b5f610a6682610a24565b610a708185610a2e565b9350610a80818560208601610a3e565b610a8981610a4c565b840191505092915050565b610a9d816109c6565b82525050565b5f60a0820190508181035f830152610abb8188610a5c565b90508181036020830152610acf8187610a5c565b9050610ade6040830186610a94565b610aeb6060830185610a94565b610af86080830184610a94565b9695505050505050565b5f6020820190508181035f830152610b1a8184610a5c565b905092915050565b5f73ffffffffffffffffffffffffffffffffffffffff82169050919050565b5f610b4b82610b22565b9050919050565b610b5b81610b41565b82525050565b5f602082019050610b745f830184610b52565b92915050565b610b8381610b41565b8114610b8d575f80fd5b50565b5f81359050610b9e81610b7a565b92915050565b5f60208284031215610bb957610bb86109c2565b5b5f610bc684828501610b90565b91505092915050565b5f8115159050919050565b610be381610bcf565b82525050565b5f602082019050610bfc5f830184610bda565b92915050565b5f602082019050610c155f830184610a94565b92915050565b5f81519050919050565b5f82825260208201905092915050565b5f819050602082019050919050565b610c4d81610b41565b82525050565b5f610c5e8383610c44565b60208301905092915050565b5f602082019050919050565b5f610c8082610c1b565b610c8a8185610c25565b9350610c9583610c35565b805f5b83811015610cc5578151610cac8882610c53565b9750610cb783610c6a565b925050600181019050610c98565b5085935050505092915050565b5f6020820190508181035f830152610cea8184610c76565b905092915050565b7f456c656374696f6e20686173206e6f74207374617274656420796574000000005f82015250565b5f610d26601c83610a2e565b9150610d3182610cf2565b602082019050919050565b5f6020820190508181035f830152610d5381610d1a565b9050919050565b7f596f75206861766520616c726561647920766f746564000000000000000000005f82015250565b5f610d8e601683610a2e565b9150610d9982610d5a565b602082019050919050565b5f6020820190508181035f830152610dbb81610d82565b9050919050565b7f4e487b71000000000000000000000000000000000000000000000000000000005f52603260045260245ffd5b7f4e487b71000000000000000000000000000000000000000000000000000000005f52601160045260245ffd5b5f610e26826109c6565b9150610e31836109c6565b9250828201905080821115610e4957610e48610def565b5b92915050565b7f4e487b71000000000000000000000000000000000000000000000000000000005f52602260045260245ffd5b5f6002820490506001821680610e9357607f821691505b602082108103610ea657610ea5610e4f565b5b50919050565b7f4f6e6c79206d616e616765722063616e2063616c6c20746869732066756e63745f8201527f696f6e0000000000000000000000000000000000000000000000000000000000602082015250565b5f610f06602383610a2e565b9150610f1182610eac565b604082019050919050565b5f6020820190508181035f830152610f3381610efa565b905091905056fea2646970667358221220dedbfb29ed310d5289f1ef21b124465cf1cddc003b3eb12555b768e09ce8533364736f6c63430008190033a264697066735822122079b4a9bb4985fe5d3b793b99cc795a11afb346390e03a9143a0d5a303e434ad764736f6c63430008190033","opcodes":"PUSH1 0x80 PUSH1 0x40 MSTORE CALLVALUE DUP1 ISZERO PUSH1 0xE JUMPI PUSH0 DUP1 REVERT JUMPDEST POP PUSH2 0x2116 DUP1 PUSH2 0x1C PUSH0 CODECOPY PUSH0 RETURN INVALID PUSH1 0x80 PUSH1 0x40 MSTORE CALLVALUE DUP1 ISZERO PUSH2 0xF JUMPI PUSH0 DUP1 REVERT JUMPDEST POP PUSH1 0x4 CALLDATASIZE LT PUSH2 0x3F JUMPI PUSH0 CALLDATALOAD PUSH1 0xE0 SHR DUP1 PUSH4 0x810C6DDF EQ PUSH2 0x43 JUMPI DUP1 PUSH4 0x9B935ABF EQ PUSH2 0x5F JUMPI DUP1 PUSH4 0xCDF74C3E EQ PUSH2 0x7D JUMPI JUMPDEST PUSH0 DUP1 REVERT JUMPDEST PUSH2 0x5D PUSH1 0x4 DUP1 CALLDATASIZE SUB DUP2 ADD SWAP1 PUSH2 0x58 SWAP2 SWAP1 PUSH2 0x591 JUMP JUMPDEST PUSH2 0xAD JUMP JUMPDEST STOP JUMPDEST PUSH2 0x67 PUSH2 0x1B3 JUMP JUMPDEST PUSH1 0x40 MLOAD PUSH2 0x74 SWAP2 SWAP1 PUSH2 0x71C JUMP JUMPDEST PUSH1 0x40 MLOAD DUP1 SWAP2 SUB SWAP1 RETURN JUMPDEST PUSH2 0x97 PUSH1 0x4 DUP1 CALLDATASIZE SUB DUP2 ADD SWAP1 PUSH2 0x92 SWAP2 SWAP1 PUSH2 0x76F JUMP JUMPDEST PUSH2 0x23D JUMP JUMPDEST PUSH1 0x40 MLOAD PUSH2 0xA4 SWAP2 SWAP1 PUSH2 0x7A9 JUMP JUMPDEST PUSH1 0x40 MLOAD DUP1 SWAP2 SUB SWAP1 RETURN JUMPDEST PUSH0 JUMPDEST DUP2 MLOAD DUP2 LT ISZERO PUSH2 0x1AD JUMPI PUSH0 DUP5 DUP3 DUP2 MLOAD DUP2 LT PUSH2 0xCC JUMPI PUSH2 0xCB PUSH2 0x7C2 JUMP JUMPDEST JUMPDEST PUSH1 0x20 MUL PUSH1 0x20 ADD ADD MLOAD DUP5 DUP4 DUP2 MLOAD DUP2 LT PUSH2 0xE7 JUMPI PUSH2 0xE6 PUSH2 0x7C2 JUMP JUMPDEST JUMPDEST PUSH1 0x20 MUL PUSH1 0x20 ADD ADD MLOAD DUP5 DUP5 DUP2 MLOAD DUP2 LT PUSH2 0x102 JUMPI PUSH2 0x101 PUSH2 0x7C2 JUMP JUMPDEST JUMPDEST PUSH1 0x20 MUL PUSH1 0x20 ADD ADD MLOAD CALLER PUSH1 0x40 MLOAD PUSH2 0x117 SWAP1 PUSH2 0x277 JUMP JUMPDEST PUSH2 0x124 SWAP5 SWAP4 SWAP3 SWAP2 SWAP1 PUSH2 0x952 JUMP JUMPDEST PUSH1 0x40 MLOAD DUP1 SWAP2 SUB SWAP1 PUSH0 CREATE DUP1 ISZERO DUP1 ISZERO PUSH2 0x13D JUMPI RETURNDATASIZE PUSH0 DUP1 RETURNDATACOPY RETURNDATASIZE PUSH0 REVERT JUMPDEST POP SWAP1 POP PUSH0 DUP2 SWAP1 DUP1 PUSH1 0x1 DUP2 SLOAD ADD DUP1 DUP3 SSTORE DUP1 SWAP2 POP POP PUSH1 0x1 SWAP1 SUB SWAP1 PUSH0 MSTORE PUSH1 0x20 PUSH0 KECCAK256 ADD PUSH0 SWAP1 SWAP2 SWAP1 SWAP2 SWAP1 SWAP2 PUSH2 0x100 EXP DUP2 SLOAD DUP2 PUSH20 0xFFFFFFFFFFFFFFFFFFFFFFFFFFFFFFFFFFFFFFFF MUL NOT AND SWAP1 DUP4 PUSH20 0xFFFFFFFFFFFFFFFFFFFFFFFFFFFFFFFFFFFFFFFF AND MUL OR SWAP1 SSTORE POP POP DUP1 DUP1 PUSH1 0x1 ADD SWAP2 POP POP PUSH2 0xAF JUMP JUMPDEST POP POP POP POP JUMP JUMPDEST PUSH1 0x60 PUSH0 DUP1 SLOAD DUP1 PUSH1 0x20 MUL PUSH1 0x20 ADD PUSH1 0x40 MLOAD SWAP1 DUP2 ADD PUSH1 0x40 MSTORE DUP1 SWAP3 SWAP2 SWAP1 DUP2 DUP2 MSTORE PUSH1 0x20 ADD DUP3 DUP1 SLOAD DUP1 ISZERO PUSH2 0x233 JUMPI PUSH1 0x20 MUL DUP3 ADD SWAP2 SWAP1 PUSH0 MSTORE PUSH1 0x20 PUSH0 KECCAK256 SWAP1 JUMPDEST DUP2 PUSH0 SWAP1 SLOAD SWAP1 PUSH2 0x100 EXP SWAP1 DIV PUSH20 0xFFFFFFFFFFFFFFFFFFFFFFFFFFFFFFFFFFFFFFFF AND PUSH20 0xFFFFFFFFFFFFFFFFFFFFFFFFFFFFFFFFFFFFFFFF AND DUP2 MSTORE PUSH1 0x20 ADD SWAP1 PUSH1 0x1 ADD SWAP1 DUP1 DUP4 GT PUSH2 0x1EA JUMPI JUMPDEST POP POP POP POP POP SWAP1 POP SWAP1 JUMP JUMPDEST PUSH0 DUP2 DUP2 SLOAD DUP2 LT PUSH2 0x24B JUMPI PUSH0 DUP1 REVERT JUMPDEST SWAP1 PUSH0 MSTORE PUSH1 0x20 PUSH0 KECCAK256 ADD PUSH0 SWAP2 POP SLOAD SWAP1 PUSH2 0x100 EXP SWAP1 DIV PUSH20 0xFFFFFFFFFFFFFFFFFFFFFFFFFFFFFFFFFFFFFFFF AND DUP2 JUMP JUMPDEST PUSH2 0x1736 DUP1 PUSH2 0x9AB DUP4 CODECOPY ADD SWAP1 JUMP JUMPDEST PUSH0 PUSH1 0x40 MLOAD SWAP1 POP SWAP1 JUMP JUMPDEST PUSH0 DUP1 REVERT JUMPDEST PUSH0 DUP1 REVERT JUMPDEST PUSH0 DUP1 REVERT JUMPDEST PUSH0 PUSH1 0x1F NOT PUSH1 0x1F DUP4 ADD AND SWAP1 POP SWAP2 SWAP1 POP JUMP JUMPDEST PUSH32 0x4E487B7100000000000000000000000000000000000000000000000000000000 PUSH0 MSTORE PUSH1 0x41 PUSH1 0x4 MSTORE PUSH1 0x24 PUSH0 REVERT JUMPDEST PUSH2 0x2DF DUP3 PUSH2 0x299 JUMP JUMPDEST DUP2 ADD DUP2 DUP2 LT PUSH8 0xFFFFFFFFFFFFFFFF DUP3 GT OR ISZERO PUSH2 0x2FE JUMPI PUSH2 0x2FD PUSH2 0x2A9 JUMP JUMPDEST JUMPDEST DUP1 PUSH1 0x40 MSTORE POP POP POP JUMP JUMPDEST PUSH0 PUSH2 0x310 PUSH2 0x284 JUMP JUMPDEST SWAP1 POP PUSH2 0x31C DUP3 DUP3 PUSH2 0x2D6 JUMP JUMPDEST SWAP2 SWAP1 POP JUMP JUMPDEST PUSH0 PUSH8 0xFFFFFFFFFFFFFFFF DUP3 GT ISZERO PUSH2 0x33B JUMPI PUSH2 0x33A PUSH2 0x2A9 JUMP JUMPDEST JUMPDEST PUSH1 0x20 DUP3 MUL SWAP1 POP PUSH1 0x20 DUP2 ADD SWAP1 POP SWAP2 SWAP1 POP JUMP JUMPDEST PUSH0 DUP1 REVERT JUMPDEST PUSH0 PUSH8 0xFFFFFFFFFFFFFFFF DUP3 GT ISZERO PUSH2 0x36A JUMPI PUSH2 0x369 PUSH2 0x2A9 JUMP JUMPDEST JUMPDEST PUSH1 0x20 DUP3 MUL SWAP1 POP PUSH1 0x20 DUP2 ADD SWAP1 POP SWAP2 SWAP1 POP JUMP JUMPDEST PUSH0 DUP1 REVERT JUMPDEST PUSH0 PUSH8 0xFFFFFFFFFFFFFFFF DUP3 GT ISZERO PUSH2 0x399 JUMPI PUSH2 0x398 PUSH2 0x2A9 JUMP JUMPDEST JUMPDEST PUSH2 0x3A2 DUP3 PUSH2 0x299 JUMP JUMPDEST SWAP1 POP PUSH1 0x20 DUP2 ADD SWAP1 POP SWAP2 SWAP1 POP JUMP JUMPDEST DUP3 DUP2 DUP4 CALLDATACOPY PUSH0 DUP4 DUP4 ADD MSTORE POP POP POP JUMP JUMPDEST PUSH0 PUSH2 0x3CF PUSH2 0x3CA DUP5 PUSH2 0x37F JUMP JUMPDEST PUSH2 0x307 JUMP JUMPDEST SWAP1 POP DUP3 DUP2 MSTORE PUSH1 0x20 DUP2 ADD DUP5 DUP5 DUP5 ADD GT ISZERO PUSH2 0x3EB JUMPI PUSH2 0x3EA PUSH2 0x37B JUMP JUMPDEST JUMPDEST PUSH2 0x3F6 DUP5 DUP3 DUP6 PUSH2 0x3AF JUMP JUMPDEST POP SWAP4 SWAP3 POP POP POP JUMP JUMPDEST PUSH0 DUP3 PUSH1 0x1F DUP4 ADD SLT PUSH2 0x412 JUMPI PUSH2 0x411 PUSH2 0x295 JUMP JUMPDEST JUMPDEST DUP2 CALLDATALOAD PUSH2 0x422 DUP5 DUP3 PUSH1 0x20 DUP7 ADD PUSH2 0x3BD JUMP JUMPDEST SWAP2 POP POP SWAP3 SWAP2 POP POP JUMP JUMPDEST PUSH0 PUSH2 0x43D PUSH2 0x438 DUP5 PUSH2 0x350 JUMP JUMPDEST PUSH2 0x307 JUMP JUMPDEST SWAP1 POP DUP1 DUP4 DUP3 MSTORE PUSH1 0x20 DUP3 ADD SWAP1 POP PUSH1 0x20 DUP5 MUL DUP4 ADD DUP6 DUP2 GT ISZERO PUSH2 0x460 JUMPI PUSH2 0x45F PUSH2 0x34C JUMP JUMPDEST JUMPDEST DUP4 JUMPDEST DUP2 DUP2 LT ISZERO PUSH2 0x4A7 JUMPI DUP1 CALLDATALOAD PUSH8 0xFFFFFFFFFFFFFFFF DUP2 GT ISZERO PUSH2 0x485 JUMPI PUSH2 0x484 PUSH2 0x295 JUMP JUMPDEST JUMPDEST DUP1 DUP7 ADD PUSH2 0x492 DUP10 DUP3 PUSH2 0x3FE JUMP JUMPDEST DUP6 MSTORE PUSH1 0x20 DUP6 ADD SWAP5 POP POP POP PUSH1 0x20 DUP2 ADD SWAP1 POP PUSH2 0x462 JUMP JUMPDEST POP POP POP SWAP4 SWAP3 POP POP POP JUMP JUMPDEST PUSH0 DUP3 PUSH1 0x1F DUP4 ADD SLT PUSH2 0x4C5 JUMPI PUSH2 0x4C4 PUSH2 0x295 JUMP JUMPDEST JUMPDEST DUP2 CALLDATALOAD PUSH2 0x4D5 DUP5 DUP3 PUSH1 0x20 DUP7 ADD PUSH2 0x42B JUMP JUMPDEST SWAP2 POP POP SWAP3 SWAP2 POP POP JUMP JUMPDEST PUSH0 PUSH2 0x4F0 PUSH2 0x4EB DUP5 PUSH2 0x321 JUMP JUMPDEST PUSH2 0x307 JUMP JUMPDEST SWAP1 POP DUP1 DUP4 DUP3 MSTORE PUSH1 0x20 DUP3 ADD SWAP1 POP PUSH1 0x20 DUP5 MUL DUP4 ADD DUP6 DUP2 GT ISZERO PUSH2 0x513 JUMPI PUSH2 0x512 PUSH2 0x34C JUMP JUMPDEST JUMPDEST DUP4 JUMPDEST DUP2 DUP2 LT ISZERO PUSH2 0x55A JUMPI DUP1 CALLDATALOAD PUSH8 0xFFFFFFFFFFFFFFFF DUP2 GT ISZERO PUSH2 0x538 JUMPI PUSH2 0x537 PUSH2 0x295 JUMP JUMPDEST JUMPDEST DUP1 DUP7 ADD PUSH2 0x545 DUP10 DUP3 PUSH2 0x4B1 JUMP JUMPDEST DUP6 MSTORE PUSH1 0x20 DUP6 ADD SWAP5 POP POP POP PUSH1 0x20 DUP2 ADD SWAP1 POP PUSH2 0x515 JUMP JUMPDEST POP POP POP SWAP4 SWAP3 POP POP POP JUMP JUMPDEST PUSH0 DUP3 PUSH1 0x1F DUP4 ADD SLT PUSH2 0x578 JUMPI PUSH2 0x577 PUSH2 0x295 JUMP JUMPDEST JUMPDEST DUP2 CALLDATALOAD PUSH2 0x588 DUP5 DUP3 PUSH1 0x20 DUP7 ADD PUSH2 0x4DE JUMP JUMPDEST SWAP2 POP POP SWAP3 SWAP2 POP POP JUMP JUMPDEST PUSH0 DUP1 PUSH0 PUSH1 0x60 DUP5 DUP7 SUB SLT ISZERO PUSH2 0x5A8 JUMPI PUSH2 0x5A7 PUSH2 0x28D JUMP JUMPDEST JUMPDEST PUSH0 DUP5 ADD CALLDATALOAD PUSH8 0xFFFFFFFFFFFFFFFF DUP2 GT ISZERO PUSH2 0x5C5 JUMPI PUSH2 0x5C4 PUSH2 0x291 JUMP JUMPDEST JUMPDEST PUSH2 0x5D1 DUP7 DUP3 DUP8 ADD PUSH2 0x564 JUMP JUMPDEST SWAP4 POP POP PUSH1 0x20 DUP5 ADD CALLDATALOAD PUSH8 0xFFFFFFFFFFFFFFFF DUP2 GT ISZERO PUSH2 0x5F2 JUMPI PUSH2 0x5F1 PUSH2 0x291 JUMP JUMPDEST JUMPDEST PUSH2 0x5FE DUP7 DUP3 DUP8 ADD PUSH2 0x564 JUMP JUMPDEST SWAP3 POP POP PUSH1 0x40 DUP5 ADD CALLDATALOAD PUSH8 0xFFFFFFFFFFFFFFFF DUP2 GT ISZERO PUSH2 0x61F JUMPI PUSH2 0x61E PUSH2 0x291 JUMP JUMPDEST JUMPDEST PUSH2 0x62B DUP7 DUP3 DUP8 ADD PUSH2 0x4B1 JUMP JUMPDEST SWAP2 POP POP SWAP3 POP SWAP3 POP SWAP3 JUMP JUMPDEST PUSH0 DUP2 MLOAD SWAP1 POP SWAP2 SWAP1 POP JUMP JUMPDEST PUSH0 DUP3 DUP3 MSTORE PUSH1 0x20 DUP3 ADD SWAP1 POP SWAP3 SWAP2 POP POP JUMP JUMPDEST PUSH0 DUP2 SWAP1 POP PUSH1 0x20 DUP3 ADD SWAP1 POP SWAP2 SWAP1 POP JUMP JUMPDEST PUSH0 PUSH20 0xFFFFFFFFFFFFFFFFFFFFFFFFFFFFFFFFFFFFFFFF DUP3 AND SWAP1 POP SWAP2 SWAP1 POP JUMP JUMPDEST PUSH0 PUSH2 0x687 DUP3 PUSH2 0x65E JUMP JUMPDEST SWAP1 POP SWAP2 SWAP1 POP JUMP JUMPDEST PUSH2 0x697 DUP2 PUSH2 0x67D JUMP JUMPDEST DUP3 MSTORE POP POP JUMP JUMPDEST PUSH0 PUSH2 0x6A8 DUP4 DUP4 PUSH2 0x68E JUMP JUMPDEST PUSH1 0x20 DUP4 ADD SWAP1 POP SWAP3 SWAP2 POP POP JUMP JUMPDEST PUSH0 PUSH1 0x20 DUP3 ADD SWAP1 POP SWAP2 SWAP1 POP JUMP JUMPDEST PUSH0 PUSH2 0x6CA DUP3 PUSH2 0x635 JUMP JUMPDEST PUSH2 0x6D4 DUP2 DUP6 PUSH2 0x63F JUMP JUMPDEST SWAP4 POP PUSH2 0x6DF DUP4 PUSH2 0x64F JUMP JUMPDEST DUP1 PUSH0 JUMPDEST DUP4 DUP2 LT ISZERO PUSH2 0x70F JUMPI DUP2 MLOAD PUSH2 0x6F6 DUP9 DUP3 PUSH2 0x69D JUMP JUMPDEST SWAP8 POP PUSH2 0x701 DUP4 PUSH2 0x6B4 JUMP JUMPDEST SWAP3 POP POP PUSH1 0x1 DUP2 ADD SWAP1 POP PUSH2 0x6E2 JUMP JUMPDEST POP DUP6 SWAP4 POP POP POP POP SWAP3 SWAP2 POP POP JUMP JUMPDEST PUSH0 PUSH1 0x20 DUP3 ADD SWAP1 POP DUP2 DUP2 SUB PUSH0 DUP4 ADD MSTORE PUSH2 0x734 DUP2 DUP5 PUSH2 0x6C0 JUMP JUMPDEST SWAP1 POP SWAP3 SWAP2 POP POP JUMP JUMPDEST PUSH0 DUP2 SWAP1 POP SWAP2 SWAP1 POP JUMP JUMPDEST PUSH2 0x74E DUP2 PUSH2 0x73C JUMP JUMPDEST DUP2 EQ PUSH2 0x758 JUMPI PUSH0 DUP1 REVERT JUMPDEST POP JUMP JUMPDEST PUSH0 DUP2 CALLDATALOAD SWAP1 POP PUSH2 0x769 DUP2 PUSH2 0x745 JUMP JUMPDEST SWAP3 SWAP2 POP POP JUMP JUMPDEST PUSH0 PUSH1 0x20 DUP3 DUP5 SUB SLT ISZERO PUSH2 0x784 JUMPI PUSH2 0x783 PUSH2 0x28D JUMP JUMPDEST JUMPDEST PUSH0 PUSH2 0x791 DUP5 DUP3 DUP6 ADD PUSH2 0x75B JUMP JUMPDEST SWAP2 POP POP SWAP3 SWAP2 POP POP JUMP JUMPDEST PUSH2 0x7A3 DUP2 PUSH2 0x67D JUMP JUMPDEST DUP3 MSTORE POP POP JUMP JUMPDEST PUSH0 PUSH1 0x20 DUP3 ADD SWAP1 POP PUSH2 0x7BC PUSH0 DUP4 ADD DUP5 PUSH2 0x79A JUMP JUMPDEST SWAP3 SWAP2 POP POP JUMP JUMPDEST PUSH32 0x4E487B7100000000000000000000000000000000000000000000000000000000 PUSH0 MSTORE PUSH1 0x32 PUSH1 0x4 MSTORE PUSH1 0x24 PUSH0 REVERT JUMPDEST PUSH0 DUP2 MLOAD SWAP1 POP SWAP2 SWAP1 POP JUMP JUMPDEST PUSH0 DUP3 DUP3 MSTORE PUSH1 0x20 DUP3 ADD SWAP1 POP SWAP3 SWAP2 POP POP JUMP JUMPDEST PUSH0 DUP2 SWAP1 POP PUSH1 0x20 DUP3 ADD SWAP1 POP SWAP2 SWAP1 POP JUMP JUMPDEST PUSH0 DUP2 MLOAD SWAP1 POP SWAP2 SWAP1 POP JUMP JUMPDEST PUSH0 DUP3 DUP3 MSTORE PUSH1 0x20 DUP3 ADD SWAP1 POP SWAP3 SWAP2 POP POP JUMP JUMPDEST DUP3 DUP2 DUP4 MCOPY PUSH0 DUP4 DUP4 ADD MSTORE POP POP POP JUMP JUMPDEST PUSH0 PUSH2 0x84A DUP3 PUSH2 0x818 JUMP JUMPDEST PUSH2 0x854 DUP2 DUP6 PUSH2 0x822 JUMP JUMPDEST SWAP4 POP PUSH2 0x864 DUP2 DUP6 PUSH1 0x20 DUP7 ADD PUSH2 0x832 JUMP JUMPDEST PUSH2 0x86D DUP2 PUSH2 0x299 JUMP JUMPDEST DUP5 ADD SWAP2 POP POP SWAP3 SWAP2 POP POP JUMP JUMPDEST PUSH0 PUSH2 0x883 DUP4 DUP4 PUSH2 0x840 JUMP JUMPDEST SWAP1 POP SWAP3 SWAP2 POP POP JUMP JUMPDEST PUSH0 PUSH1 0x20 DUP3 ADD SWAP1 POP SWAP2 SWAP1 POP JUMP JUMPDEST PUSH0 PUSH2 0x8A1 DUP3 PUSH2 0x7EF JUMP JUMPDEST PUSH2 0x8AB DUP2 DUP6 PUSH2 0x7F9 JUMP JUMPDEST SWAP4 POP DUP4 PUSH1 0x20 DUP3 MUL DUP6 ADD PUSH2 0x8BD DUP6 PUSH2 0x809 JUMP JUMPDEST DUP1 PUSH0 JUMPDEST DUP6 DUP2 LT ISZERO PUSH2 0x8F8 JUMPI DUP5 DUP5 SUB DUP10 MSTORE DUP2 MLOAD PUSH2 0x8D9 DUP6 DUP3 PUSH2 0x878 JUMP JUMPDEST SWAP5 POP PUSH2 0x8E4 DUP4 PUSH2 0x88B JUMP JUMPDEST SWAP3 POP PUSH1 0x20 DUP11 ADD SWAP10 POP POP PUSH1 0x1 DUP2 ADD SWAP1 POP PUSH2 0x8C0 JUMP JUMPDEST POP DUP3 SWAP8 POP DUP8 SWAP6 POP POP POP POP POP POP SWAP3 SWAP2 POP POP JUMP JUMPDEST PUSH0 DUP3 DUP3 MSTORE PUSH1 0x20 DUP3 ADD SWAP1 POP SWAP3 SWAP2 POP POP JUMP JUMPDEST PUSH0 PUSH2 0x924 DUP3 PUSH2 0x818 JUMP JUMPDEST PUSH2 0x92E DUP2 DUP6 PUSH2 0x90A JUMP JUMPDEST SWAP4 POP PUSH2 0x93E DUP2 DUP6 PUSH1 0x20 DUP7 ADD PUSH2 0x832 JUMP JUMPDEST PUSH2 0x947 DUP2 PUSH2 0x299 JUMP JUMPDEST DUP5 ADD SWAP2 POP POP SWAP3 SWAP2 POP POP JUMP JUMPDEST PUSH0 PUSH1 0x80 DUP3 ADD SWAP1 POP DUP2 DUP2 SUB PUSH0 DUP4 ADD MSTORE PUSH2 0x96A DUP2 DUP8 PUSH2 0x897 JUMP JUMPDEST SWAP1 POP DUP2 DUP2 SUB PUSH1 0x20 DUP4 ADD MSTORE PUSH2 0x97E DUP2 DUP7 PUSH2 0x897 JUMP JUMPDEST SWAP1 POP DUP2 DUP2 SUB PUSH1 0x40 DUP4 ADD MSTORE PUSH2 0x992 DUP2 DUP6 PUSH2 0x91A JUMP JUMPDEST SWAP1 POP PUSH2 0x9A1 PUSH1 0x60 DUP4 ADD DUP5 PUSH2 0x79A JUMP JUMPDEST SWAP6 SWAP5 POP POP POP POP POP JUMP INVALID PUSH1 0x80 PUSH1 0x40 MSTORE CALLVALUE DUP1 ISZERO PUSH2 0xF JUMPI PUSH0 DUP1 REVERT JUMPDEST POP PUSH1 0x40 MLOAD PUSH2 0x1736 CODESIZE SUB DUP1 PUSH2 0x1736 DUP4 CODECOPY DUP2 DUP2 ADD PUSH1 0x40 MSTORE DUP2 ADD SWAP1 PUSH2 0x31 SWAP2 SWAP1 PUSH2 0x3F8 JUMP JUMPDEST DUP1 PUSH1 0x1 PUSH0 PUSH2 0x100 EXP DUP2 SLOAD DUP2 PUSH20 0xFFFFFFFFFFFFFFFFFFFFFFFFFFFFFFFFFFFFFFFF MUL NOT AND SWAP1 DUP4 PUSH20 0xFFFFFFFFFFFFFFFFFFFFFFFFFFFFFFFFFFFFFFFF AND MUL OR SWAP1 SSTORE POP DUP2 PUSH1 0x2 SWAP1 DUP2 PUSH2 0x80 SWAP2 SWAP1 PUSH2 0x6BD JUMP JUMPDEST POP PUSH0 JUMPDEST DUP5 MLOAD DUP2 LT ISZERO PUSH2 0x165 JUMPI PUSH0 PUSH1 0x40 MLOAD DUP1 PUSH1 0xA0 ADD PUSH1 0x40 MSTORE DUP1 DUP8 DUP5 DUP2 MLOAD DUP2 LT PUSH2 0xAB JUMPI PUSH2 0xAA PUSH2 0x78C JUMP JUMPDEST JUMPDEST PUSH1 0x20 MUL PUSH1 0x20 ADD ADD MLOAD DUP2 MSTORE PUSH1 0x20 ADD DUP7 DUP5 DUP2 MLOAD DUP2 LT PUSH2 0xCB JUMPI PUSH2 0xCA PUSH2 0x78C JUMP JUMPDEST JUMPDEST PUSH1 0x20 MUL PUSH1 0x20 ADD ADD MLOAD DUP2 MSTORE PUSH1 0x20 ADD PUSH0 DUP2 MSTORE PUSH1 0x20 ADD TIMESTAMP DUP2 MSTORE PUSH1 0x20 ADD PUSH0 DUP2 MSTORE POP SWAP1 DUP1 PUSH1 0x1 DUP2 SLOAD ADD DUP1 DUP3 SSTORE DUP1 SWAP2 POP POP PUSH1 0x1 SWAP1 SUB SWAP1 PUSH0 MSTORE PUSH1 0x20 PUSH0 KECCAK256 SWAP1 PUSH1 0x5 MUL ADD PUSH0 SWAP1 SWAP2 SWAP1 SWAP2 SWAP1 SWAP2 POP PUSH0 DUP3 ADD MLOAD DUP2 PUSH0 ADD SWAP1 DUP2 PUSH2 0x121 SWAP2 SWAP1 PUSH2 0x6BD JUMP JUMPDEST POP PUSH1 0x20 DUP3 ADD MLOAD DUP2 PUSH1 0x1 ADD SWAP1 DUP2 PUSH2 0x137 SWAP2 SWAP1 PUSH2 0x6BD JUMP JUMPDEST POP PUSH1 0x40 DUP3 ADD MLOAD DUP2 PUSH1 0x2 ADD SSTORE PUSH1 0x60 DUP3 ADD MLOAD DUP2 PUSH1 0x3 ADD SSTORE PUSH1 0x80 DUP3 ADD MLOAD DUP2 PUSH1 0x4 ADD SSTORE POP POP DUP1 DUP1 PUSH1 0x1 ADD SWAP2 POP POP PUSH2 0x83 JUMP JUMPDEST POP POP POP POP POP PUSH2 0x7B9 JUMP JUMPDEST PUSH0 PUSH1 0x40 MLOAD SWAP1 POP SWAP1 JUMP JUMPDEST PUSH0 DUP1 REVERT JUMPDEST PUSH0 DUP1 REVERT JUMPDEST PUSH0 DUP1 REVERT JUMPDEST PUSH0 PUSH1 0x1F NOT PUSH1 0x1F DUP4 ADD AND SWAP1 POP SWAP2 SWAP1 POP JUMP JUMPDEST PUSH32 0x4E487B7100000000000000000000000000000000000000000000000000000000 PUSH0 MSTORE PUSH1 0x41 PUSH1 0x4 MSTORE PUSH1 0x24 PUSH0 REVERT JUMPDEST PUSH2 0x1CA DUP3 PUSH2 0x184 JUMP JUMPDEST DUP2 ADD DUP2 DUP2 LT PUSH8 0xFFFFFFFFFFFFFFFF DUP3 GT OR ISZERO PUSH2 0x1E9 JUMPI PUSH2 0x1E8 PUSH2 0x194 JUMP JUMPDEST JUMPDEST DUP1 PUSH1 0x40 MSTORE POP POP POP JUMP JUMPDEST PUSH0 PUSH2 0x1FB PUSH2 0x16F JUMP JUMPDEST SWAP1 POP PUSH2 0x207 DUP3 DUP3 PUSH2 0x1C1 JUMP JUMPDEST SWAP2 SWAP1 POP JUMP JUMPDEST PUSH0 PUSH8 0xFFFFFFFFFFFFFFFF DUP3 GT ISZERO PUSH2 0x226 JUMPI PUSH2 0x225 PUSH2 0x194 JUMP JUMPDEST JUMPDEST PUSH1 0x20 DUP3 MUL SWAP1 POP PUSH1 0x20 DUP2 ADD SWAP1 POP SWAP2 SWAP1 POP JUMP JUMPDEST PUSH0 DUP1 REVERT JUMPDEST PUSH0 DUP1 REVERT JUMPDEST PUSH0 PUSH8 0xFFFFFFFFFFFFFFFF DUP3 GT ISZERO PUSH2 0x259 JUMPI PUSH2 0x258 PUSH2 0x194 JUMP JUMPDEST JUMPDEST PUSH2 0x262 DUP3 PUSH2 0x184 JUMP JUMPDEST SWAP1 POP PUSH1 0x20 DUP2 ADD SWAP1 POP SWAP2 SWAP1 POP JUMP JUMPDEST DUP3 DUP2 DUP4 MCOPY PUSH0 DUP4 DUP4 ADD MSTORE POP POP POP JUMP JUMPDEST PUSH0 PUSH2 0x28F PUSH2 0x28A DUP5 PUSH2 0x23F JUMP JUMPDEST PUSH2 0x1F2 JUMP JUMPDEST SWAP1 POP DUP3 DUP2 MSTORE PUSH1 0x20 DUP2 ADD DUP5 DUP5 DUP5 ADD GT ISZERO PUSH2 0x2AB JUMPI PUSH2 0x2AA PUSH2 0x23B JUMP JUMPDEST JUMPDEST PUSH2 0x2B6 DUP5 DUP3 DUP6 PUSH2 0x26F JUMP JUMPDEST POP SWAP4 SWAP3 POP POP POP JUMP JUMPDEST PUSH0 DUP3 PUSH1 0x1F DUP4 ADD SLT PUSH2 0x2D2 JUMPI PUSH2 0x2D1 PUSH2 0x180 JUMP JUMPDEST JUMPDEST DUP2 MLOAD PUSH2 0x2E2 DUP5 DUP3 PUSH1 0x20 DUP7 ADD PUSH2 0x27D JUMP JUMPDEST SWAP2 POP POP SWAP3 SWAP2 POP POP JUMP JUMPDEST PUSH0 PUSH2 0x2FD PUSH2 0x2F8 DUP5 PUSH2 0x20C JUMP JUMPDEST PUSH2 0x1F2 JUMP JUMPDEST SWAP1 POP DUP1 DUP4 DUP3 MSTORE PUSH1 0x20 DUP3 ADD SWAP1 POP PUSH1 0x20 DUP5 MUL DUP4 ADD DUP6 DUP2 GT ISZERO PUSH2 0x320 JUMPI PUSH2 0x31F PUSH2 0x237 JUMP JUMPDEST JUMPDEST DUP4 JUMPDEST DUP2 DUP2 LT ISZERO PUSH2 0x367 JUMPI DUP1 MLOAD PUSH8 0xFFFFFFFFFFFFFFFF DUP2 GT ISZERO PUSH2 0x345 JUMPI PUSH2 0x344 PUSH2 0x180 JUMP JUMPDEST JUMPDEST DUP1 DUP7 ADD PUSH2 0x352 DUP10 DUP3 PUSH2 0x2BE JUMP JUMPDEST DUP6 MSTORE PUSH1 0x20 DUP6 ADD SWAP5 POP POP POP PUSH1 0x20 DUP2 ADD SWAP1 POP PUSH2 0x322 JUMP JUMPDEST POP POP POP SWAP4 SWAP3 POP POP POP JUMP JUMPDEST PUSH0 DUP3 PUSH1 0x1F DUP4 ADD SLT PUSH2 0x385 JUMPI PUSH2 0x384 PUSH2 0x180 JUMP JUMPDEST JUMPDEST DUP2 MLOAD PUSH2 0x395 DUP5 DUP3 PUSH1 0x20 DUP7 ADD PUSH2 0x2EB JUMP JUMPDEST SWAP2 POP POP SWAP3 SWAP2 POP POP JUMP JUMPDEST PUSH0 PUSH20 0xFFFFFFFFFFFFFFFFFFFFFFFFFFFFFFFFFFFFFFFF DUP3 AND SWAP1 POP SWAP2 SWAP1 POP JUMP JUMPDEST PUSH0 PUSH2 0x3C7 DUP3 PUSH2 0x39E JUMP JUMPDEST SWAP1 POP SWAP2 SWAP1 POP JUMP JUMPDEST PUSH2 0x3D7 DUP2 PUSH2 0x3BD JUMP JUMPDEST DUP2 EQ PUSH2 0x3E1 JUMPI PUSH0 DUP1 REVERT JUMPDEST POP JUMP JUMPDEST PUSH0 DUP2 MLOAD SWAP1 POP PUSH2 0x3F2 DUP2 PUSH2 0x3CE JUMP JUMPDEST SWAP3 SWAP2 POP POP JUMP JUMPDEST PUSH0 DUP1 PUSH0 DUP1 PUSH1 0x80 DUP6 DUP8 SUB SLT ISZERO PUSH2 0x410 JUMPI PUSH2 0x40F PUSH2 0x178 JUMP JUMPDEST JUMPDEST PUSH0 DUP6 ADD MLOAD PUSH8 0xFFFFFFFFFFFFFFFF DUP2 GT ISZERO PUSH2 0x42D JUMPI PUSH2 0x42C PUSH2 0x17C JUMP JUMPDEST JUMPDEST PUSH2 0x439 DUP8 DUP3 DUP9 ADD PUSH2 0x371 JUMP JUMPDEST SWAP5 POP POP PUSH1 0x20 DUP6 ADD MLOAD PUSH8 0xFFFFFFFFFFFFFFFF DUP2 GT ISZERO PUSH2 0x45A JUMPI PUSH2 0x459 PUSH2 0x17C JUMP JUMPDEST JUMPDEST PUSH2 0x466 DUP8 DUP3 DUP9 ADD PUSH2 0x371 JUMP JUMPDEST SWAP4 POP POP PUSH1 0x40 DUP6 ADD MLOAD PUSH8 0xFFFFFFFFFFFFFFFF DUP2 GT ISZERO PUSH2 0x487 JUMPI PUSH2 0x486 PUSH2 0x17C JUMP JUMPDEST JUMPDEST PUSH2 0x493 DUP8 DUP3 DUP9 ADD PUSH2 0x2BE JUMP JUMPDEST SWAP3 POP POP PUSH1 0x60 PUSH2 0x4A4 DUP8 DUP3 DUP9 ADD PUSH2 0x3E4 JUMP JUMPDEST SWAP2 POP POP SWAP3 SWAP6 SWAP2 SWAP5 POP SWAP3 POP JUMP JUMPDEST PUSH0 DUP2 MLOAD SWAP1 POP SWAP2 SWAP1 POP JUMP JUMPDEST PUSH32 0x4E487B7100000000000000000000000000000000000000000000000000000000 PUSH0 MSTORE PUSH1 0x22 PUSH1 0x4 MSTORE PUSH1 0x24 PUSH0 REVERT JUMPDEST PUSH0 PUSH1 0x2 DUP3 DIV SWAP1 POP PUSH1 0x1 DUP3 AND DUP1 PUSH2 0x4FE JUMPI PUSH1 0x7F DUP3 AND SWAP2 POP JUMPDEST PUSH1 0x20 DUP3 LT DUP2 SUB PUSH2 0x511 JUMPI PUSH2 0x510 PUSH2 0x4BA JUMP JUMPDEST JUMPDEST POP SWAP2 SWAP1 POP JUMP JUMPDEST PUSH0 DUP2 SWAP1 POP DUP2 PUSH0 MSTORE PUSH1 0x20 PUSH0 KECCAK256 SWAP1 POP SWAP2 SWAP1 POP JUMP JUMPDEST PUSH0 PUSH1 0x20 PUSH1 0x1F DUP4 ADD DIV SWAP1 POP SWAP2 SWAP1 POP JUMP JUMPDEST PUSH0 DUP3 DUP3 SHL SWAP1 POP SWAP3 SWAP2 POP POP JUMP JUMPDEST PUSH0 PUSH1 0x8 DUP4 MUL PUSH2 0x573 PUSH32 0xFFFFFFFFFFFFFFFFFFFFFFFFFFFFFFFFFFFFFFFFFFFFFFFFFFFFFFFFFFFFFFFF DUP3 PUSH2 0x538 JUMP JUMPDEST PUSH2 0x57D DUP7 DUP4 PUSH2 0x538 JUMP JUMPDEST SWAP6 POP DUP1 NOT DUP5 AND SWAP4 POP DUP1 DUP7 AND DUP5 OR SWAP3 POP POP POP SWAP4 SWAP3 POP POP POP JUMP JUMPDEST PUSH0 DUP2 SWAP1 POP SWAP2 SWAP1 POP JUMP JUMPDEST PUSH0 DUP2 SWAP1 POP SWAP2 SWAP1 POP JUMP JUMPDEST PUSH0 PUSH2 0x5C1 PUSH2 0x5BC PUSH2 0x5B7 DUP5 PUSH2 0x595 JUMP JUMPDEST PUSH2 0x59E JUMP JUMPDEST PUSH2 0x595 JUMP JUMPDEST SWAP1 POP SWAP2 SWAP1 POP JUMP JUMPDEST PUSH0 DUP2 SWAP1 POP SWAP2 SWAP1 POP JUMP JUMPDEST PUSH2 0x5DA DUP4 PUSH2 0x5A7 JUMP JUMPDEST PUSH2 0x5EE PUSH2 0x5E6 DUP3 PUSH2 0x5C8 JUMP JUMPDEST DUP5 DUP5 SLOAD PUSH2 0x544 JUMP JUMPDEST DUP3 SSTORE POP POP POP POP JUMP JUMPDEST PUSH0 SWAP1 JUMP JUMPDEST PUSH2 0x602 PUSH2 0x5F6 JUMP JUMPDEST PUSH2 0x60D DUP2 DUP5 DUP5 PUSH2 0x5D1 JUMP JUMPDEST POP POP POP JUMP JUMPDEST JUMPDEST DUP2 DUP2 LT ISZERO PUSH2 0x630 JUMPI PUSH2 0x625 PUSH0 DUP3 PUSH2 0x5FA JUMP JUMPDEST PUSH1 0x1 DUP2 ADD SWAP1 POP PUSH2 0x613 JUMP JUMPDEST POP POP JUMP JUMPDEST PUSH1 0x1F DUP3 GT ISZERO PUSH2 0x675 JUMPI PUSH2 0x646 DUP2 PUSH2 0x517 JUMP JUMPDEST PUSH2 0x64F DUP5 PUSH2 0x529 JUMP JUMPDEST DUP2 ADD PUSH1 0x20 DUP6 LT ISZERO PUSH2 0x65E JUMPI DUP2 SWAP1 POP JUMPDEST PUSH2 0x672 PUSH2 0x66A DUP6 PUSH2 0x529 JUMP JUMPDEST DUP4 ADD DUP3 PUSH2 0x612 JUMP JUMPDEST POP POP JUMPDEST POP POP POP JUMP JUMPDEST PUSH0 DUP3 DUP3 SHR SWAP1 POP SWAP3 SWAP2 POP POP JUMP JUMPDEST PUSH0 PUSH2 0x695 PUSH0 NOT DUP5 PUSH1 0x8 MUL PUSH2 0x67A JUMP JUMPDEST NOT DUP1 DUP4 AND SWAP2 POP POP SWAP3 SWAP2 POP POP JUMP JUMPDEST PUSH0 PUSH2 0x6AD DUP4 DUP4 PUSH2 0x686 JUMP JUMPDEST SWAP2 POP DUP3 PUSH1 0x2 MUL DUP3 OR SWAP1 POP SWAP3 SWAP2 POP POP JUMP JUMPDEST PUSH2 0x6C6 DUP3 PUSH2 0x4B0 JUMP JUMPDEST PUSH8 0xFFFFFFFFFFFFFFFF DUP2 GT ISZERO PUSH2 0x6DF JUMPI PUSH2 0x6DE PUSH2 0x194 JUMP JUMPDEST JUMPDEST PUSH2 0x6E9 DUP3 SLOAD PUSH2 0x4E7 JUMP JUMPDEST PUSH2 0x6F4 DUP3 DUP3 DUP6 PUSH2 0x634 JUMP JUMPDEST PUSH0 PUSH1 0x20 SWAP1 POP PUSH1 0x1F DUP4 GT PUSH1 0x1 DUP2 EQ PUSH2 0x725 JUMPI PUSH0 DUP5 ISZERO PUSH2 0x713 JUMPI DUP3 DUP8 ADD MLOAD SWAP1 POP JUMPDEST PUSH2 0x71D DUP6 DUP3 PUSH2 0x6A2 JUMP JUMPDEST DUP7 SSTORE POP PUSH2 0x784 JUMP JUMPDEST PUSH1 0x1F NOT DUP5 AND PUSH2 0x733 DUP7 PUSH2 0x517 JUMP JUMPDEST PUSH0 JUMPDEST DUP3 DUP2 LT ISZERO PUSH2 0x75A JUMPI DUP5 DUP10 ADD MLOAD DUP3 SSTORE PUSH1 0x1 DUP3 ADD SWAP2 POP PUSH1 0x20 DUP6 ADD SWAP5 POP PUSH1 0x20 DUP2 ADD SWAP1 POP PUSH2 0x735 JUMP JUMPDEST DUP7 DUP4 LT ISZERO PUSH2 0x777 JUMPI DUP5 DUP10 ADD MLOAD PUSH2 0x773 PUSH1 0x1F DUP10 AND DUP3 PUSH2 0x686 JUMP JUMPDEST DUP4 SSTORE POP JUMPDEST PUSH1 0x1 PUSH1 0x2 DUP9 MUL ADD DUP9 SSTORE POP POP POP JUMPDEST POP POP POP POP POP POP JUMP JUMPDEST PUSH32 0x4E487B7100000000000000000000000000000000000000000000000000000000 PUSH0 MSTORE PUSH1 0x32 PUSH1 0x4 MSTORE PUSH1 0x24 PUSH0 REVERT JUMPDEST PUSH2 0xF70 DUP1 PUSH2 0x7C6 PUSH0 CODECOPY PUSH0 RETURN INVALID PUSH1 0x80 PUSH1 0x40 MSTORE CALLVALUE DUP1 ISZERO PUSH2 0xF JUMPI PUSH0 DUP1 REVERT JUMPDEST POP PUSH1 0x4 CALLDATASIZE LT PUSH2 0xB2 JUMPI PUSH0 CALLDATALOAD PUSH1 0xE0 SHR DUP1 PUSH4 0x72CE73AB GT PUSH2 0x6F JUMPI DUP1 PUSH4 0x72CE73AB EQ PUSH2 0x18E JUMPI DUP1 PUSH4 0xA3EC138D EQ PUSH2 0x1BE JUMPI DUP1 PUSH4 0xB2C2F2E8 EQ PUSH2 0x1EE JUMPI DUP1 PUSH4 0xBC86F385 EQ PUSH2 0x21E JUMPI DUP1 PUSH4 0xD5346DA1 EQ PUSH2 0x23C JUMPI DUP1 PUSH4 0xE13804A7 EQ PUSH2 0x25A JUMPI PUSH2 0xB2 JUMP JUMPDEST DUP1 PUSH4 0x121B93F EQ PUSH2 0xB6 JUMPI DUP1 PUSH4 0x3477EE2E EQ PUSH2 0xD2 JUMPI DUP1 PUSH4 0x3D2F5BDA EQ PUSH2 0x106 JUMPI DUP1 PUSH4 0x456645A7 EQ PUSH2 0x122 JUMPI DUP1 PUSH4 0x481C6A75 EQ PUSH2 0x152 JUMPI DUP1 PUSH4 0x716C424E EQ PUSH2 0x170 JUMPI JUMPDEST PUSH0 DUP1 REVERT JUMPDEST PUSH2 0xD0 PUSH1 0x4 DUP1 CALLDATASIZE SUB DUP2 ADD SWAP1 PUSH2 0xCB SWAP2 SWAP1 PUSH2 0x9F9 JUMP JUMPDEST PUSH2 0x28A JUMP JUMPDEST STOP JUMPDEST PUSH2 0xEC PUSH1 0x4 DUP1 CALLDATASIZE SUB DUP2 ADD SWAP1 PUSH2 0xE7 SWAP2 SWAP1 PUSH2 0x9F9 JUMP JUMPDEST PUSH2 0x453 JUMP JUMPDEST PUSH1 0x40 MLOAD PUSH2 0xFD SWAP6 SWAP5 SWAP4 SWAP3 SWAP2 SWAP1 PUSH2 0xAA3 JUMP JUMPDEST PUSH1 0x40 MLOAD DUP1 SWAP2 SUB SWAP1 RETURN JUMPDEST PUSH2 0x120 PUSH1 0x4 DUP1 CALLDATASIZE SUB DUP2 ADD SWAP1 PUSH2 0x11B SWAP2 SWAP1 PUSH2 0x9F9 JUMP JUMPDEST PUSH2 0x59F JUMP JUMPDEST STOP JUMPDEST PUSH2 0x13C PUSH1 0x4 DUP1 CALLDATASIZE SUB DUP2 ADD SWAP1 PUSH2 0x137 SWAP2 SWAP1 PUSH2 0x9F9 JUMP JUMPDEST PUSH2 0x68E JUMP JUMPDEST PUSH1 0x40 MLOAD PUSH2 0x149 SWAP2 SWAP1 PUSH2 0xB02 JUMP JUMPDEST PUSH1 0x40 MLOAD DUP1 SWAP2 SUB SWAP1 RETURN JUMPDEST PUSH2 0x15A PUSH2 0x740 JUMP JUMPDEST PUSH1 0x40 MLOAD PUSH2 0x167 SWAP2 SWAP1 PUSH2 0xB61 JUMP JUMPDEST PUSH1 0x40 MLOAD DUP1 SWAP2 SUB SWAP1 RETURN JUMPDEST PUSH2 0x178 PUSH2 0x765 JUMP JUMPDEST PUSH1 0x40 MLOAD PUSH2 0x185 SWAP2 SWAP1 PUSH2 0xB02 JUMP JUMPDEST PUSH1 0x40 MLOAD DUP1 SWAP2 SUB SWAP1 RETURN JUMPDEST PUSH2 0x1A8 PUSH1 0x4 DUP1 CALLDATASIZE SUB DUP2 ADD SWAP1 PUSH2 0x1A3 SWAP2 SWAP1 PUSH2 0x9F9 JUMP JUMPDEST PUSH2 0x7F1 JUMP JUMPDEST PUSH1 0x40 MLOAD PUSH2 0x1B5 SWAP2 SWAP1 PUSH2 0xB61 JUMP JUMPDEST PUSH1 0x40 MLOAD DUP1 SWAP2 SUB SWAP1 RETURN JUMPDEST PUSH2 0x1D8 PUSH1 0x4 DUP1 CALLDATASIZE SUB DUP2 ADD SWAP1 PUSH2 0x1D3 SWAP2 SWAP1 PUSH2 0xBA4 JUMP JUMPDEST PUSH2 0x82C JUMP JUMPDEST PUSH1 0x40 MLOAD PUSH2 0x1E5 SWAP2 SWAP1 PUSH2 0xBE9 JUMP JUMPDEST PUSH1 0x40 MLOAD DUP1 SWAP2 SUB SWAP1 RETURN JUMPDEST PUSH2 0x208 PUSH1 0x4 DUP1 CALLDATASIZE SUB DUP2 ADD SWAP1 PUSH2 0x203 SWAP2 SWAP1 PUSH2 0x9F9 JUMP JUMPDEST PUSH2 0x849 JUMP JUMPDEST PUSH1 0x40 MLOAD PUSH2 0x215 SWAP2 SWAP1 PUSH2 0xC02 JUMP JUMPDEST PUSH1 0x40 MLOAD DUP1 SWAP2 SUB SWAP1 RETURN JUMPDEST PUSH2 0x226 PUSH2 0x874 JUMP JUMPDEST PUSH1 0x40 MLOAD PUSH2 0x233 SWAP2 SWAP1 PUSH2 0xCD2 JUMP JUMPDEST PUSH1 0x40 MLOAD DUP1 SWAP2 SUB SWAP1 RETURN JUMPDEST PUSH2 0x244 PUSH2 0x8FF JUMP JUMPDEST PUSH1 0x40 MLOAD PUSH2 0x251 SWAP2 SWAP1 PUSH2 0xBE9 JUMP JUMPDEST PUSH1 0x40 MLOAD DUP1 SWAP2 SUB SWAP1 RETURN JUMPDEST PUSH2 0x274 PUSH1 0x4 DUP1 CALLDATASIZE SUB DUP2 ADD SWAP1 PUSH2 0x26F SWAP2 SWAP1 PUSH2 0x9F9 JUMP JUMPDEST PUSH2 0x911 JUMP JUMPDEST PUSH1 0x40 MLOAD PUSH2 0x281 SWAP2 SWAP1 PUSH2 0xB02 JUMP JUMPDEST PUSH1 0x40 MLOAD DUP1 SWAP2 SUB SWAP1 RETURN JUMPDEST PUSH1 0x4 PUSH0 SWAP1 SLOAD SWAP1 PUSH2 0x100 EXP SWAP1 DIV PUSH1 0xFF AND PUSH2 0x2D8 JUMPI PUSH1 0x40 MLOAD PUSH32 0x8C379A000000000000000000000000000000000000000000000000000000000 DUP2 MSTORE PUSH1 0x4 ADD PUSH2 0x2CF SWAP1 PUSH2 0xD3C JUMP JUMPDEST PUSH1 0x40 MLOAD DUP1 SWAP2 SUB SWAP1 REVERT JUMPDEST PUSH1 0x3 PUSH0 CALLER PUSH20 0xFFFFFFFFFFFFFFFFFFFFFFFFFFFFFFFFFFFFFFFF AND PUSH20 0xFFFFFFFFFFFFFFFFFFFFFFFFFFFFFFFFFFFFFFFF AND DUP2 MSTORE PUSH1 0x20 ADD SWAP1 DUP2 MSTORE PUSH1 0x20 ADD PUSH0 KECCAK256 PUSH0 SWAP1 SLOAD SWAP1 PUSH2 0x100 EXP SWAP1 DIV PUSH1 0xFF AND ISZERO PUSH2 0x362 JUMPI PUSH1 0x40 MLOAD PUSH32 0x8C379A000000000000000000000000000000000000000000000000000000000 DUP2 MSTORE PUSH1 0x4 ADD PUSH2 0x359 SWAP1 PUSH2 0xDA4 JUMP JUMPDEST PUSH1 0x40 MLOAD DUP1 SWAP2 SUB SWAP1 REVERT JUMPDEST PUSH1 0x1 PUSH0 DUP3 DUP2 SLOAD DUP2 LT PUSH2 0x377 JUMPI PUSH2 0x376 PUSH2 0xDC2 JUMP JUMPDEST JUMPDEST SWAP1 PUSH0 MSTORE PUSH1 0x20 PUSH0 KECCAK256 SWAP1 PUSH1 0x5 MUL ADD PUSH1 0x2 ADD PUSH0 DUP3 DUP3 SLOAD PUSH2 0x394 SWAP2 SWAP1 PUSH2 0xE1C JUMP JUMPDEST SWAP3 POP POP DUP2 SWAP1 SSTORE POP PUSH1 0x1 PUSH1 0x3 PUSH0 CALLER PUSH20 0xFFFFFFFFFFFFFFFFFFFFFFFFFFFFFFFFFFFFFFFF AND PUSH20 0xFFFFFFFFFFFFFFFFFFFFFFFFFFFFFFFFFFFFFFFF AND DUP2 MSTORE PUSH1 0x20 ADD SWAP1 DUP2 MSTORE PUSH1 0x20 ADD PUSH0 KECCAK256 PUSH0 PUSH2 0x100 EXP DUP2 SLOAD DUP2 PUSH1 0xFF MUL NOT AND SWAP1 DUP4 ISZERO ISZERO MUL OR SWAP1 SSTORE POP PUSH1 0x5 CALLER SWAP1 DUP1 PUSH1 0x1 DUP2 SLOAD ADD DUP1 DUP3 SSTORE DUP1 SWAP2 POP POP PUSH1 0x1 SWAP1 SUB SWAP1 PUSH0 MSTORE PUSH1 0x20 PUSH0 KECCAK256 ADD PUSH0 SWAP1 SWAP2 SWAP1 SWAP2 SWAP1 SWAP2 PUSH2 0x100 EXP DUP2 SLOAD DUP2 PUSH20 0xFFFFFFFFFFFFFFFFFFFFFFFFFFFFFFFFFFFFFFFF MUL NOT AND SWAP1 DUP4 PUSH20 0xFFFFFFFFFFFFFFFFFFFFFFFFFFFFFFFFFFFFFFFF AND MUL OR SWAP1 SSTORE POP POP JUMP JUMPDEST PUSH0 DUP2 DUP2 SLOAD DUP2 LT PUSH2 0x461 JUMPI PUSH0 DUP1 REVERT JUMPDEST SWAP1 PUSH0 MSTORE PUSH1 0x20 PUSH0 KECCAK256 SWAP1 PUSH1 0x5 MUL ADD PUSH0 SWAP2 POP SWAP1 POP DUP1 PUSH0 ADD DUP1 SLOAD PUSH2 0x480 SWAP1 PUSH2 0xE7C JUMP JUMPDEST DUP1 PUSH1 0x1F ADD PUSH1 0x20 DUP1 SWAP2 DIV MUL PUSH1 0x20 ADD PUSH1 0x40 MLOAD SWAP1 DUP2 ADD PUSH1 0x40 MSTORE DUP1 SWAP3 SWAP2 SWAP1 DUP2 DUP2 MSTORE PUSH1 0x20 ADD DUP3 DUP1 SLOAD PUSH2 0x4AC SWAP1 PUSH2 0xE7C JUMP JUMPDEST DUP1 ISZERO PUSH2 0x4F7 JUMPI DUP1 PUSH1 0x1F LT PUSH2 0x4CE JUMPI PUSH2 0x100 DUP1 DUP4 SLOAD DIV MUL DUP4 MSTORE SWAP2 PUSH1 0x20 ADD SWAP2 PUSH2 0x4F7 JUMP JUMPDEST DUP3 ADD SWAP2 SWAP1 PUSH0 MSTORE PUSH1 0x20 PUSH0 KECCAK256 SWAP1 JUMPDEST DUP2 SLOAD DUP2 MSTORE SWAP1 PUSH1 0x1 ADD SWAP1 PUSH1 0x20 ADD DUP1 DUP4 GT PUSH2 0x4DA JUMPI DUP3 SWAP1 SUB PUSH1 0x1F AND DUP3 ADD SWAP2 JUMPDEST POP POP POP POP POP SWAP1 DUP1 PUSH1 0x1 ADD DUP1 SLOAD PUSH2 0x50C SWAP1 PUSH2 0xE7C JUMP JUMPDEST DUP1 PUSH1 0x1F ADD PUSH1 0x20 DUP1 SWAP2 DIV MUL PUSH1 0x20 ADD PUSH1 0x40 MLOAD SWAP1 DUP2 ADD PUSH1 0x40 MSTORE DUP1 SWAP3 SWAP2 SWAP1 DUP2 DUP2 MSTORE PUSH1 0x20 ADD DUP3 DUP1 SLOAD PUSH2 0x538 SWAP1 PUSH2 0xE7C JUMP JUMPDEST DUP1 ISZERO PUSH2 0x583 JUMPI DUP1 PUSH1 0x1F LT PUSH2 0x55A JUMPI PUSH2 0x100 DUP1 DUP4 SLOAD DIV MUL DUP4 MSTORE SWAP2 PUSH1 0x20 ADD SWAP2 PUSH2 0x583 JUMP JUMPDEST DUP3 ADD SWAP2 SWAP1 PUSH0 MSTORE PUSH1 0x20 PUSH0 KECCAK256 SWAP1 JUMPDEST DUP2 SLOAD DUP2 MSTORE SWAP1 PUSH1 0x1 ADD SWAP1 PUSH1 0x20 ADD DUP1 DUP4 GT PUSH2 0x566 JUMPI DUP3 SWAP1 SUB PUSH1 0x1F AND DUP3 ADD SWAP2 JUMPDEST POP POP POP POP POP SWAP1 DUP1 PUSH1 0x2 ADD SLOAD SWAP1 DUP1 PUSH1 0x3 ADD SLOAD SWAP1 DUP1 PUSH1 0x4 ADD SLOAD SWAP1 POP DUP6 JUMP JUMPDEST PUSH1 0x1 PUSH0 SWAP1 SLOAD SWAP1 PUSH2 0x100 EXP SWAP1 DIV PUSH20 0xFFFFFFFFFFFFFFFFFFFFFFFFFFFFFFFFFFFFFFFF AND PUSH20 0xFFFFFFFFFFFFFFFFFFFFFFFFFFFFFFFFFFFFFFFF AND CALLER PUSH20 0xFFFFFFFFFFFFFFFFFFFFFFFFFFFFFFFFFFFFFFFF AND EQ PUSH2 0x62E JUMPI PUSH1 0x40 MLOAD PUSH32 0x8C379A000000000000000000000000000000000000000000000000000000000 DUP2 MSTORE PUSH1 0x4 ADD PUSH2 0x625 SWAP1 PUSH2 0xF1C JUMP JUMPDEST PUSH1 0x40 MLOAD DUP1 SWAP2 SUB SWAP1 REVERT JUMPDEST PUSH1 0x1 PUSH1 0x4 PUSH0 PUSH2 0x100 EXP DUP2 SLOAD DUP2 PUSH1 0xFF MUL NOT AND SWAP1 DUP4 ISZERO ISZERO MUL OR SWAP1 SSTORE POP PUSH0 JUMPDEST PUSH0 DUP1 SLOAD SWAP1 POP DUP2 LT ISZERO PUSH2 0x68A JUMPI DUP2 PUSH0 DUP3 DUP2 SLOAD DUP2 LT PUSH2 0x66A JUMPI PUSH2 0x669 PUSH2 0xDC2 JUMP JUMPDEST JUMPDEST SWAP1 PUSH0 MSTORE PUSH1 0x20 PUSH0 KECCAK256 SWAP1 PUSH1 0x5 MUL ADD PUSH1 0x4 ADD DUP2 SWAP1 SSTORE POP DUP1 DUP1 PUSH1 0x1 ADD SWAP2 POP POP PUSH2 0x64A JUMP JUMPDEST POP POP JUMP JUMPDEST PUSH1 0x60 PUSH0 DUP3 DUP2 SLOAD DUP2 LT PUSH2 0x6A3 JUMPI PUSH2 0x6A2 PUSH2 0xDC2 JUMP JUMPDEST JUMPDEST SWAP1 PUSH0 MSTORE PUSH1 0x20 PUSH0 KECCAK256 SWAP1 PUSH1 0x5 MUL ADD PUSH1 0x1 ADD DUP1 SLOAD PUSH2 0x6BD SWAP1 PUSH2 0xE7C JUMP JUMPDEST DUP1 PUSH1 0x1F ADD PUSH1 0x20 DUP1 SWAP2 DIV MUL PUSH1 0x20 ADD PUSH1 0x40 MLOAD SWAP1 DUP2 ADD PUSH1 0x40 MSTORE DUP1 SWAP3 SWAP2 SWAP1 DUP2 DUP2 MSTORE PUSH1 0x20 ADD DUP3 DUP1 SLOAD PUSH2 0x6E9 SWAP1 PUSH2 0xE7C JUMP JUMPDEST DUP1 ISZERO PUSH2 0x734 JUMPI DUP1 PUSH1 0x1F LT PUSH2 0x70B JUMPI PUSH2 0x100 DUP1 DUP4 SLOAD DIV MUL DUP4 MSTORE SWAP2 PUSH1 0x20 ADD SWAP2 PUSH2 0x734 JUMP JUMPDEST DUP3 ADD SWAP2 SWAP1 PUSH0 MSTORE PUSH1 0x20 PUSH0 KECCAK256 SWAP1 JUMPDEST DUP2 SLOAD DUP2 MSTORE SWAP1 PUSH1 0x1 ADD SWAP1 PUSH1 0x20 ADD DUP1 DUP4 GT PUSH2 0x717 JUMPI DUP3 SWAP1 SUB PUSH1 0x1F AND DUP3 ADD SWAP2 JUMPDEST POP POP POP POP POP SWAP1 POP SWAP2 SWAP1 POP JUMP JUMPDEST PUSH1 0x1 PUSH0 SWAP1 SLOAD SWAP1 PUSH2 0x100 EXP SWAP1 DIV PUSH20 0xFFFFFFFFFFFFFFFFFFFFFFFFFFFFFFFFFFFFFFFF AND DUP2 JUMP JUMPDEST PUSH1 0x2 DUP1 SLOAD PUSH2 0x772 SWAP1 PUSH2 0xE7C JUMP JUMPDEST DUP1 PUSH1 0x1F ADD PUSH1 0x20 DUP1 SWAP2 DIV MUL PUSH1 0x20 ADD PUSH1 0x40 MLOAD SWAP1 DUP2 ADD PUSH1 0x40 MSTORE DUP1 SWAP3 SWAP2 SWAP1 DUP2 DUP2 MSTORE PUSH1 0x20 ADD DUP3 DUP1 SLOAD PUSH2 0x79E SWAP1 PUSH2 0xE7C JUMP JUMPDEST DUP1 ISZERO PUSH2 0x7E9 JUMPI DUP1 PUSH1 0x1F LT PUSH2 0x7C0 JUMPI PUSH2 0x100 DUP1 DUP4 SLOAD DIV MUL DUP4 MSTORE SWAP2 PUSH1 0x20 ADD SWAP2 PUSH2 0x7E9 JUMP JUMPDEST DUP3 ADD SWAP2 SWAP1 PUSH0 MSTORE PUSH1 0x20 PUSH0 KECCAK256 SWAP1 JUMPDEST DUP2 SLOAD DUP2 MSTORE SWAP1 PUSH1 0x1 ADD SWAP1 PUSH1 0x20 ADD DUP1 DUP4 GT PUSH2 0x7CC JUMPI DUP3 SWAP1 SUB PUSH1 0x1F AND DUP3 ADD SWAP2 JUMPDEST POP POP POP POP POP DUP2 JUMP JUMPDEST PUSH1 0x5 DUP2 DUP2 SLOAD DUP2 LT PUSH2 0x800 JUMPI PUSH0 DUP1 REVERT JUMPDEST SWAP1 PUSH0 MSTORE PUSH1 0x20 PUSH0 KECCAK256 ADD PUSH0 SWAP2 POP SLOAD SWAP1 PUSH2 0x100 EXP SWAP1 DIV PUSH20 0xFFFFFFFFFFFFFFFFFFFFFFFFFFFFFFFFFFFFFFFF AND DUP2 JUMP JUMPDEST PUSH1 0x3 PUSH1 0x20 MSTORE DUP1 PUSH0 MSTORE PUSH1 0x40 PUSH0 KECCAK256 PUSH0 SWAP2 POP SLOAD SWAP1 PUSH2 0x100 EXP SWAP1 DIV PUSH1 0xFF AND DUP2 JUMP JUMPDEST PUSH0 DUP1 DUP3 DUP2 SLOAD DUP2 LT PUSH2 0x85D JUMPI PUSH2 0x85C PUSH2 0xDC2 JUMP JUMPDEST JUMPDEST SWAP1 PUSH0 MSTORE PUSH1 0x20 PUSH0 KECCAK256 SWAP1 PUSH1 0x5 MUL ADD PUSH1 0x2 ADD SLOAD SWAP1 POP SWAP2 SWAP1 POP JUMP JUMPDEST PUSH1 0x60 PUSH1 0x5 DUP1 SLOAD DUP1 PUSH1 0x20 MUL PUSH1 0x20 ADD PUSH1 0x40 MLOAD SWAP1 DUP2 ADD PUSH1 0x40 MSTORE DUP1 SWAP3 SWAP2 SWAP1 DUP2 DUP2 MSTORE PUSH1 0x20 ADD DUP3 DUP1 SLOAD DUP1 ISZERO PUSH2 0x8F5 JUMPI PUSH1 0x20 MUL DUP3 ADD SWAP2 SWAP1 PUSH0 MSTORE PUSH1 0x20 PUSH0 KECCAK256 SWAP1 JUMPDEST DUP2 PUSH0 SWAP1 SLOAD SWAP1 PUSH2 0x100 EXP SWAP1 DIV PUSH20 0xFFFFFFFFFFFFFFFFFFFFFFFFFFFFFFFFFFFFFFFF AND PUSH20 0xFFFFFFFFFFFFFFFFFFFFFFFFFFFFFFFFFFFFFFFF AND DUP2 MSTORE PUSH1 0x20 ADD SWAP1 PUSH1 0x1 ADD SWAP1 DUP1 DUP4 GT PUSH2 0x8AC JUMPI JUMPDEST POP POP POP POP POP SWAP1 POP SWAP1 JUMP JUMPDEST PUSH1 0x4 PUSH0 SWAP1 SLOAD SWAP1 PUSH2 0x100 EXP SWAP1 DIV PUSH1 0xFF AND DUP2 JUMP JUMPDEST PUSH1 0x60 PUSH0 DUP3 DUP2 SLOAD DUP2 LT PUSH2 0x926 JUMPI PUSH2 0x925 PUSH2 0xDC2 JUMP JUMPDEST JUMPDEST SWAP1 PUSH0 MSTORE PUSH1 0x20 PUSH0 KECCAK256 SWAP1 PUSH1 0x5 MUL ADD PUSH0 ADD DUP1 SLOAD PUSH2 0x93F SWAP1 PUSH2 0xE7C JUMP JUMPDEST DUP1 PUSH1 0x1F ADD PUSH1 0x20 DUP1 SWAP2 DIV MUL PUSH1 0x20 ADD PUSH1 0x40 MLOAD SWAP1 DUP2 ADD PUSH1 0x40 MSTORE DUP1 SWAP3 SWAP2 SWAP1 DUP2 DUP2 MSTORE PUSH1 0x20 ADD DUP3 DUP1 SLOAD PUSH2 0x96B SWAP1 PUSH2 0xE7C JUMP JUMPDEST DUP1 ISZERO PUSH2 0x9B6 JUMPI DUP1 PUSH1 0x1F LT PUSH2 0x98D JUMPI PUSH2 0x100 DUP1 DUP4 SLOAD DIV MUL DUP4 MSTORE SWAP2 PUSH1 0x20 ADD SWAP2 PUSH2 0x9B6 JUMP JUMPDEST DUP3 ADD SWAP2 SWAP1 PUSH0 MSTORE PUSH1 0x20 PUSH0 KECCAK256 SWAP1 JUMPDEST DUP2 SLOAD DUP2 MSTORE SWAP1 PUSH1 0x1 ADD SWAP1 PUSH1 0x20 ADD DUP1 DUP4 GT PUSH2 0x999 JUMPI DUP3 SWAP1 SUB PUSH1 0x1F AND DUP3 ADD SWAP2 JUMPDEST POP POP POP POP POP SWAP1 POP SWAP2 SWAP1 POP JUMP JUMPDEST PUSH0 DUP1 REVERT JUMPDEST PUSH0 DUP2 SWAP1 POP SWAP2 SWAP1 POP JUMP JUMPDEST PUSH2 0x9D8 DUP2 PUSH2 0x9C6 JUMP JUMPDEST DUP2 EQ PUSH2 0x9E2 JUMPI PUSH0 DUP1 REVERT JUMPDEST POP JUMP JUMPDEST PUSH0 DUP2 CALLDATALOAD SWAP1 POP PUSH2 0x9F3 DUP2 PUSH2 0x9CF JUMP JUMPDEST SWAP3 SWAP2 POP POP JUMP JUMPDEST PUSH0 PUSH1 0x20 DUP3 DUP5 SUB SLT ISZERO PUSH2 0xA0E JUMPI PUSH2 0xA0D PUSH2 0x9C2 JUMP JUMPDEST JUMPDEST PUSH0 PUSH2 0xA1B DUP5 DUP3 DUP6 ADD PUSH2 0x9E5 JUMP JUMPDEST SWAP2 POP POP SWAP3 SWAP2 POP POP JUMP JUMPDEST PUSH0 DUP2 MLOAD SWAP1 POP SWAP2 SWAP1 POP JUMP JUMPDEST PUSH0 DUP3 DUP3 MSTORE PUSH1 0x20 DUP3 ADD SWAP1 POP SWAP3 SWAP2 POP POP JUMP JUMPDEST DUP3 DUP2 DUP4 MCOPY PUSH0 DUP4 DUP4 ADD MSTORE POP POP POP JUMP JUMPDEST PUSH0 PUSH1 0x1F NOT PUSH1 0x1F DUP4 ADD AND SWAP1 POP SWAP2 SWAP1 POP JUMP JUMPDEST PUSH0 PUSH2 0xA66 DUP3 PUSH2 0xA24 JUMP JUMPDEST PUSH2 0xA70 DUP2 DUP6 PUSH2 0xA2E JUMP JUMPDEST SWAP4 POP PUSH2 0xA80 DUP2 DUP6 PUSH1 0x20 DUP7 ADD PUSH2 0xA3E JUMP JUMPDEST PUSH2 0xA89 DUP2 PUSH2 0xA4C JUMP JUMPDEST DUP5 ADD SWAP2 POP POP SWAP3 SWAP2 POP POP JUMP JUMPDEST PUSH2 0xA9D DUP2 PUSH2 0x9C6 JUMP JUMPDEST DUP3 MSTORE POP POP JUMP JUMPDEST PUSH0 PUSH1 0xA0 DUP3 ADD SWAP1 POP DUP2 DUP2 SUB PUSH0 DUP4 ADD MSTORE PUSH2 0xABB DUP2 DUP9 PUSH2 0xA5C JUMP JUMPDEST SWAP1 POP DUP2 DUP2 SUB PUSH1 0x20 DUP4 ADD MSTORE PUSH2 0xACF DUP2 DUP8 PUSH2 0xA5C JUMP JUMPDEST SWAP1 POP PUSH2 0xADE PUSH1 0x40 DUP4 ADD DUP7 PUSH2 0xA94 JUMP JUMPDEST PUSH2 0xAEB PUSH1 0x60 DUP4 ADD DUP6 PUSH2 0xA94 JUMP JUMPDEST PUSH2 0xAF8 PUSH1 0x80 DUP4 ADD DUP5 PUSH2 0xA94 JUMP JUMPDEST SWAP7 SWAP6 POP POP POP POP POP POP JUMP JUMPDEST PUSH0 PUSH1 0x20 DUP3 ADD SWAP1 POP DUP2 DUP2 SUB PUSH0 DUP4 ADD MSTORE PUSH2 0xB1A DUP2 DUP5 PUSH2 0xA5C JUMP JUMPDEST SWAP1 POP SWAP3 SWAP2 POP POP JUMP JUMPDEST PUSH0 PUSH20 0xFFFFFFFFFFFFFFFFFFFFFFFFFFFFFFFFFFFFFFFF DUP3 AND SWAP1 POP SWAP2 SWAP1 POP JUMP JUMPDEST PUSH0 PUSH2 0xB4B DUP3 PUSH2 0xB22 JUMP JUMPDEST SWAP1 POP SWAP2 SWAP1 POP JUMP JUMPDEST PUSH2 0xB5B DUP2 PUSH2 0xB41 JUMP JUMPDEST DUP3 MSTORE POP POP JUMP JUMPDEST PUSH0 PUSH1 0x20 DUP3 ADD SWAP1 POP PUSH2 0xB74 PUSH0 DUP4 ADD DUP5 PUSH2 0xB52 JUMP JUMPDEST SWAP3 SWAP2 POP POP JUMP JUMPDEST PUSH2 0xB83 DUP2 PUSH2 0xB41 JUMP JUMPDEST DUP2 EQ PUSH2 0xB8D JUMPI PUSH0 DUP1 REVERT JUMPDEST POP JUMP JUMPDEST PUSH0 DUP2 CALLDATALOAD SWAP1 POP PUSH2 0xB9E DUP2 PUSH2 0xB7A JUMP JUMPDEST SWAP3 SWAP2 POP POP JUMP JUMPDEST PUSH0 PUSH1 0x20 DUP3 DUP5 SUB SLT ISZERO PUSH2 0xBB9 JUMPI PUSH2 0xBB8 PUSH2 0x9C2 JUMP JUMPDEST JUMPDEST PUSH0 PUSH2 0xBC6 DUP5 DUP3 DUP6 ADD PUSH2 0xB90 JUMP JUMPDEST SWAP2 POP POP SWAP3 SWAP2 POP POP JUMP JUMPDEST PUSH0 DUP2 ISZERO ISZERO SWAP1 POP SWAP2 SWAP1 POP JUMP JUMPDEST PUSH2 0xBE3 DUP2 PUSH2 0xBCF JUMP JUMPDEST DUP3 MSTORE POP POP JUMP JUMPDEST PUSH0 PUSH1 0x20 DUP3 ADD SWAP1 POP PUSH2 0xBFC PUSH0 DUP4 ADD DUP5 PUSH2 0xBDA JUMP JUMPDEST SWAP3 SWAP2 POP POP JUMP JUMPDEST PUSH0 PUSH1 0x20 DUP3 ADD SWAP1 POP PUSH2 0xC15 PUSH0 DUP4 ADD DUP5 PUSH2 0xA94 JUMP JUMPDEST SWAP3 SWAP2 POP POP JUMP JUMPDEST PUSH0 DUP2 MLOAD SWAP1 POP SWAP2 SWAP1 POP JUMP JUMPDEST PUSH0 DUP3 DUP3 MSTORE PUSH1 0x20 DUP3 ADD SWAP1 POP SWAP3 SWAP2 POP POP JUMP JUMPDEST PUSH0 DUP2 SWAP1 POP PUSH1 0x20 DUP3 ADD SWAP1 POP SWAP2 SWAP1 POP JUMP JUMPDEST PUSH2 0xC4D DUP2 PUSH2 0xB41 JUMP JUMPDEST DUP3 MSTORE POP POP JUMP JUMPDEST PUSH0 PUSH2 0xC5E DUP4 DUP4 PUSH2 0xC44 JUMP JUMPDEST PUSH1 0x20 DUP4 ADD SWAP1 POP SWAP3 SWAP2 POP POP JUMP JUMPDEST PUSH0 PUSH1 0x20 DUP3 ADD SWAP1 POP SWAP2 SWAP1 POP JUMP JUMPDEST PUSH0 PUSH2 0xC80 DUP3 PUSH2 0xC1B JUMP JUMPDEST PUSH2 0xC8A DUP2 DUP6 PUSH2 0xC25 JUMP JUMPDEST SWAP4 POP PUSH2 0xC95 DUP4 PUSH2 0xC35 JUMP JUMPDEST DUP1 PUSH0 JUMPDEST DUP4 DUP2 LT ISZERO PUSH2 0xCC5 JUMPI DUP2 MLOAD PUSH2 0xCAC DUP9 DUP3 PUSH2 0xC53 JUMP JUMPDEST SWAP8 POP PUSH2 0xCB7 DUP4 PUSH2 0xC6A JUMP JUMPDEST SWAP3 POP POP PUSH1 0x1 DUP2 ADD SWAP1 POP PUSH2 0xC98 JUMP JUMPDEST POP DUP6 SWAP4 POP POP POP POP SWAP3 SWAP2 POP POP JUMP JUMPDEST PUSH0 PUSH1 0x20 DUP3 ADD SWAP1 POP DUP2 DUP2 SUB PUSH0 DUP4 ADD MSTORE PUSH2 0xCEA DUP2 DUP5 PUSH2 0xC76 JUMP JUMPDEST SWAP1 POP SWAP3 SWAP2 POP POP JUMP JUMPDEST PUSH32 0x456C656374696F6E20686173206E6F7420737461727465642079657400000000 PUSH0 DUP3 ADD MSTORE POP JUMP JUMPDEST PUSH0 PUSH2 0xD26 PUSH1 0x1C DUP4 PUSH2 0xA2E JUMP JUMPDEST SWAP2 POP PUSH2 0xD31 DUP3 PUSH2 0xCF2 JUMP JUMPDEST PUSH1 0x20 DUP3 ADD SWAP1 POP SWAP2 SWAP1 POP JUMP JUMPDEST PUSH0 PUSH1 0x20 DUP3 ADD SWAP1 POP DUP2 DUP2 SUB PUSH0 DUP4 ADD MSTORE PUSH2 0xD53 DUP2 PUSH2 0xD1A JUMP JUMPDEST SWAP1 POP SWAP2 SWAP1 POP JUMP JUMPDEST PUSH32 0x596F75206861766520616C726561647920766F74656400000000000000000000 PUSH0 DUP3 ADD MSTORE POP JUMP JUMPDEST PUSH0 PUSH2 0xD8E PUSH1 0x16 DUP4 PUSH2 0xA2E JUMP JUMPDEST SWAP2 POP PUSH2 0xD99 DUP3 PUSH2 0xD5A JUMP JUMPDEST PUSH1 0x20 DUP3 ADD SWAP1 POP SWAP2 SWAP1 POP JUMP JUMPDEST PUSH0 PUSH1 0x20 DUP3 ADD SWAP1 POP DUP2 DUP2 SUB PUSH0 DUP4 ADD MSTORE PUSH2 0xDBB DUP2 PUSH2 0xD82 JUMP JUMPDEST SWAP1 POP SWAP2 SWAP1 POP JUMP JUMPDEST PUSH32 0x4E487B7100000000000000000000000000000000000000000000000000000000 PUSH0 MSTORE PUSH1 0x32 PUSH1 0x4 MSTORE PUSH1 0x24 PUSH0 REVERT JUMPDEST PUSH32 0x4E487B7100000000000000000000000000000000000000000000000000000000 PUSH0 MSTORE PUSH1 0x11 PUSH1 0x4 MSTORE PUSH1 0x24 PUSH0 REVERT JUMPDEST PUSH0 PUSH2 0xE26 DUP3 PUSH2 0x9C6 JUMP JUMPDEST SWAP2 POP PUSH2 0xE31 DUP4 PUSH2 0x9C6 JUMP JUMPDEST SWAP3 POP DUP3 DUP3 ADD SWAP1 POP DUP1 DUP3 GT ISZERO PUSH2 0xE49 JUMPI PUSH2 0xE48 PUSH2 0xDEF JUMP JUMPDEST JUMPDEST SWAP3 SWAP2 POP POP JUMP JUMPDEST PUSH32 0x4E487B7100000000000000000000000000000000000000000000000000000000 PUSH0 MSTORE PUSH1 0x22 PUSH1 0x4 MSTORE PUSH1 0x24 PUSH0 REVERT JUMPDEST PUSH0 PUSH1 0x2 DUP3 DIV SWAP1 POP PUSH1 0x1 DUP3 AND DUP1 PUSH2 0xE93 JUMPI PUSH1 0x7F DUP3 AND SWAP2 POP JUMPDEST PUSH1 0x20 DUP3 LT DUP2 SUB PUSH2 0xEA6 JUMPI PUSH2 0xEA5 PUSH2 0xE4F JUMP JUMPDEST JUMPDEST POP SWAP2 SWAP1 POP JUMP JUMPDEST PUSH32 0x4F6E6C79206D616E616765722063616E2063616C6C20746869732066756E6374 PUSH0 DUP3 ADD MSTORE PUSH32 0x696F6E0000000000000000000000000000000000000000000000000000000000 PUSH1 0x20 DUP3 ADD MSTORE POP JUMP JUMPDEST PUSH0 PUSH2 0xF06 PUSH1 0x23 DUP4 PUSH2 0xA2E JUMP JUMPDEST SWAP2 POP PUSH2 0xF11 DUP3 PUSH2 0xEAC JUMP JUMPDEST PUSH1 0x40 DUP3 ADD SWAP1 POP SWAP2 SWAP1 POP JUMP JUMPDEST PUSH0 PUSH1 0x20 DUP3 ADD SWAP1 POP DUP2 DUP2 SUB PUSH0 DUP4 ADD MSTORE PUSH2 0xF33 DUP2 PUSH2 0xEFA JUMP JUMPDEST SWAP1 POP SWAP2 SWAP1 POP JUMP INVALID LOG2 PUSH5 0x6970667358 0x22 SLT KECCAK256 0xDE 0xDB 0xFB 0x29 0xED BALANCE 0xD MSTORE DUP10 CALL 0xEF 0x21 0xB1 0x24 CHAINID TLOAD CALL 0xCD 0xDC STOP EXTCODESIZE RETURNDATACOPY 0xB1 0x25 SSTORE 0xB7 PUSH9 0xE09CE8533364736F6C PUSH4 0x43000819 STOP CALLER LOG2 PUSH5 0x6970667358 0x22 SLT KECCAK256 PUSH26 0xB4A9BB4985FE5D3B793B99CC795A11AFB346390E03A9143A0D5A ADDRESS RETURNDATACOPY NUMBER BLOBBASEFEE 0xD7 PUSH5 0x736F6C6343 STOP ADDMOD NOT STOP CALLER "},"gasEstimates":{"creation":{"codeDepositCost":"1694000","executionCost":"1776","totalCost":"1695776"},"external":{"deployedBallots(uint256)":"4965","getDeployedBallots()":"infinite","startElection(string[][],string[][],string[])":"infinite"}},"methodIdentifiers":{"deployedBallots(uint256)":"cdf74c3e","getDeployedBallots()":"9b935abf","startElection(string[][],string[][],string[])":"810c6ddf"}},"storageLayout":{"storage":[{"astId":4,"contract":"evs.sol:ElectionCreation","label":"deployedBallots","offset":0,"slot":"0","type":"t_array(t_address)dyn_storage"}],"types":{"t_address":{"encoding":"inplace","label":"address","numberOfBytes":"20"},"t_array(t_address)dyn_storage":{"base":"t_address","encoding":"dynamic_array","label":"address[]","numberOfBytes":"32"}}},"userdoc":{"kind":"user","methods":{},"version":1}}